:04000000FEEF7FF0A0
:10100000009218141806184011FA11401896128A06
:101010001882187A1872186A1862185A185218AA80
:101020001400E0EC0BF0A30E446E550EE82EFED734
:10103000442EFCD70000100E416E020E426E5A0E76
:1010400023EC0AF0070E446E7D0EE82EFED7442EE8
:10105000FCD700000C0E416E5A0EBCEC09F0286E55
:101060000D0E416E5A0EBCEC09F0276E070E446E51
:101070007D0EE82EFED7442EFCD70000200E416ED8
:10108000100E426E5A0E23EC0AF0070E446E7D0ECF
:10109000E82EFED7442EFCD700000C0E416E140E35
:1010A000426E5A0E23EC0AF0200E416E180E426E6C
:1010B0005A0E23EC0AF08290230E416E5A0EBCECBD
:1010C00009F02F6EA30E446E550EE82EFED7442E67
:1010D000FCD700003A0E416E5A0EBCEC09F02E6EA1
:1010E0003B0E416E5A0EBCEC09F02D6E110E446E93
:1010F0003A0EE82EFED7442EFCD700D03C0E416EAF
:101100005A0EBCEC09F02A6E3D0E416E5A0EBCEC34
:1011100009F0296E2D50456E446A2E504424246EE9
:10112000000E4520256E2950456E446A2A504424FD
:10113000226E000E4520236E5CEF08F0FEEF7FF07C
:10114000C3EC0BF00009D8B4A8EF08F0AAEF08F040
:10115000E2EF08F0B8EF08F045EC0CF0FCEF08F017
:1011600041EC0CF0FCEF08F039EC0CF0FCEF08F06F
:1011700010C039F002D8C6EF08F00500FA6E07502B
:10118000FD6E0850FE6EFF6AFA5012003A6E3B6A1E
:101190003B50000AD8B4CFEF08F0B4EF08F03A5053
:1011A000010AD8B4B4EF08F0030AD8B4ACEF08F0E1
:1011B000010AD8B4B0EF08F0070AD8B4B4EF08F0C9
:1011C000B4EF08F01D9020EE18F0DF50DF2AD96E42
:1011D000DA6ADF504DEC0CF01906D8A01A06195047
:1011E0001A10D8A4F6EF08F0F8EF08F0FBEF08F0BB
:1011F000060EFCEF08F0030E12001850D96EDA6AE2
:1012000060EC0CF0DF6E182A1906D8A01A061950E7
:101210001A10D8B40EEF09F010EF09F015EF09F02D
:1012200054EC0CF0050E4AEF09F01D8620EF09F092
:101230002DEC0CF04AEF09F031EC0CF04AEF09F01C
:101240000DC039F002D82EEF09F00500FA6E0150FA
:10125000FD6E0250FE6EFF6AFA5012003A6E3B6A53
:101260003B50000AD8B437EF09F01CEF09F03A50B0
:10127000010AD8B41CEF09F0030AD8B418EF09F03A
:10128000010AD8B418EF09F0070AD8B41CEF09F026
:101290001CEF09F012001D865BEF09F03DEC0CF02D
:1012A00085EF09F051EC0CF0030E85EF09F039ECF5
:1012B0000CF085EF09F00DC039F002D869EF09F0A4
:1012C0000500FA6E0150FD6E0250FE6EFF6AFA5084
:1012D00012003A6E3B6A3B50000AD8B472EF09F034
:1012E00057EF09F03A50010AD8B457EF09F0030A52
:1012F000D8B44EEF09F0010AD8B44EEF09F0070A4E
:10130000D8B452EF09F057EF09F01200326E010E17
:10131000336E1DB48EEF09F090EF09F0BAEF09F0CB
:1013200032C017F01D921D841D900E0E1B6E010E13
:10133000166EF40E156E1D86CC0E016E180E026E22
:101340000D6ACC0E036E180E046E0E6ACC0E056E7E
:10135000180E066E0F6ACC0E076E180E086E106A15
:10136000C80E096E180E0A6E116A5DEC0CF08CEC5A
:101370000BF0336A33501200426E436A425086ECDF
:1013800009F00009D8B4C7EF09F0C9EF09F0BEEFC2
:1013900009F0D40E366E160E376E430E386ECDEC55
:1013A0000BF0410E326E346A010E336E9CEC0BF082
:1013B000000E366E000E376E000E386E000E396E5F
:1013C000B9EC0BF025EC0CF033EC0BF0E806D8B4DC
:1013D000ECEF09F0EEEF09F0E4EF09F043501200F2
:1013E0005DEC0CF01DA0F7EF09F0F9EF09F005EF47
:1013F0000AF0C3EC0BF00009D8B401EF0AF003EFD8
:101400000AF005EF0AF00F0E1B6E1B50020DF35091
:10141000010F3C6E3CC0F6FF100EF76EF86A090033
:10142000F5CF3DF00900F5CF3EF002D821EF0AF0EC
:101430000500FA6E3D50FD6E3E50FE6EFF6AFA509A
:1014400012001B6E1200436E435086EC09F0000937
:10145000D8B42DEF0AF02FEF0AF024EF0AF0900E27
:10146000366E160E376E420E386ECDEC0BF0410E16
:10147000326E346A010E336E9CEC0BF0000E366E49
:10148000000E376E000E386E000E396EB9EC0BF0A0
:1014900025EC0CF033EC0BF0E806D8B452EF0AF070
:1014A00054EF0AF04AEF0AF012001D90020E1C6E73
:1014B00062EF0AF03DEC0CF084EF0AF039EC0CF02E
:1014C00084EF0AF00FC039F002D870EF0AF005007F
:1014D000FA6E0550FD6E0650FE6EFF6AFA5012005D
:1014E0003A6E3B6A3B50000AD8B479EF0AF05EEFDF
:1014F0000AF03A50020AD8B45AEF0AF0010AD8B4F6
:101500005AEF0AF05EEF0AF01200356E32503310D7
:10151000D8B48DEF0AF08FEF0AF0A1EF0AF0355042
:10152000020DF350010FD96EDA6A32C0DEFF33C00C
:10153000DDFF35500D0FD96EDA6A34C0DFFFB0EF32
:101540000AF03550020DF350010FD96EDA6ACC0E55
:10155000DE6E180EDD6E35500D0FD96EDA6ADF6A59
:101560001200826A836A846AFC0E876EFC0E886EA3
:10157000BF0E896E670E0F011C6F14690C69286B12
:10158000136B0B6B1B6B0A6B126B1A6B096911697E
:101590001969086910691869080E256F140E0E0183
:1015A000B36F170EB06F0F0EF56F100EF66F090EBA
:1015B000F86F130EB26F12003F6E010E406E1DB237
:1015C000E4EF0AF0E6EF0AF0FAEF0AF01D82406A53
:1015D0003F50D8B4EEEF0AF0F0EF0AF0F4EF0AF063
:1015E000010E1B6EF6EF0AF0020E1B6E6CEC0CF097
:1015F000ABEC0BF040501200080E9E6E900E9C6EED
:10160000200E9D6E0C0E9A6E9B6A000E326E000EBE
:10161000336E16EC0CF0000E326E000E336E11ECD1
:101620000CF0000E326E000E336E1BEC0CF0316AC3
:1016300012003950D96EDA6A020ED926DF50326EA6
:101640003950D96EDA6ADECF33F0DDCF34F09CEC5E
:101650000BF0000E366E000E376E000E386ECDECBD
:101660000BF0020E1200010E326E1DB23AEF0BF0BB
:101670003CEF0BF046EF0BF01D9417685DEC0CF09F
:101680005AEC0CF06EEC0CF01CC032F03250120030
:1016900039C032F0346A010E336E9CEC0BF0000E50
:1016A000366E000E376E000E386ECDEC0BF0040E69
:1016B000120039C032F0346A020E336E9CEC0BF02B
:1016C000000E366E000E376E000E386ECDEC0BF04D
:1016D000020E120039C032F0346A010E336E9CECF7
:1016E0000BF0000E366E000E376E000E386ECDEC2D
:1016F0000BF0020E120039C032F0346A020E336E63
:101700009CEC0BF0000E366E000E376E000E386E3D
:10171000CDEC0BF0040E120095BA91EF0BF093EFA5
:101720000BF09BEF0BF0800E946E080E956E966A90
:10173000030E926E958A12001DA6A1EF0BF0A3EF87
:101740000BF0AAEF0BF032C018F033C019F034C020
:101750001AF01D961200B1EF0BF0F2EC0BF0F0EC6A
:1017600009F01DB2B6EF0BF0B8EF0BF0ADEF0BF0D8
:10177000120036C032F037C033F038C034F0020EF9
:1017800085EC0AF0120096BCC8EF0BF0CBEF0BF023
:10179000010ECCEF0BF0000E120036C032F037C055
:1017A00033F038C034F0000E85EC0AF0120000EE81
:1017B00001F0310EEE6AE806FDE1000111EF08F0DC
:1017C000FBEC0BF0B1EC0AF0E9EC0BF0FCEC0AF0EE
:1017D0001200700E0E01D36FD56BD76B020ED96F4E
:1017E000D86B12000E01C8A1F8EF0BF0FAEF0BF066
:1017F000F2EF0BF012000E01DC6BDD6BDE6BDF6BCA
:10180000E06BE16B12001D80175017244DEC0CF0BB
:10181000030E12001D80D88017344DEC0CF0050E1D
:10182000120032C048F033C049F0120032C04AF012
:1018300033C04BF0120032C046F033C047F0120004
:101840001D9062EC0CF0040E1200000EDCEC0AF0AD
:1018500012001D921C6A0E0E120057EC0CF0090EBD
:10186000120057EC0CF00A0E120054EC0CF0050EAE
:10187000120068EC0CF0000E12006AEC0CF0010E85
:1018800012006AEC0CF0020E12006AEC0CF0010E71
:1018900012001D921C6A0E0E1200326E32C091FFB1
:1018A00012000E01C8811200969A96881200968A3C
:1018B000968812000E01C09112000E01C89112000C
:1018C0009150120096861200050E1200010E1200B1
:1018D000968412009682120096801200959A120049
:04FFFC00D7EF0BF040
:020000040030CA
:0C000000FCFFFFFF9FFFFFDFFFFFFFFF83
:00000001FF
