:04000000FEEF7FF0A0
:10C90400959A120096801200968212009684120064
:10C91400010E1200050E12009686120091501200AC
:10C924000E01C89112000E01C0911200968A9688D9
:10C934001200969A968812000E01C8811200016EA8
:10C9440001C091FF120086EC64F0010E120086EC27
:10C9540064F0020E120086EC64F0010E120088EC02
:10C9640064F0000E12009BEC64F0050E120098ECCB
:10C9740064F00A0E120098EC64F0090E1200000E26
:10C98400E1EC66F012000001C793C66B0E0E1200B4
:10C994000001C793C66B0E0E120001C05FF102C006
:10C9A40060F1120001C0F0F002C0F1F0120001C009
:10C9B40061F102C062F112000001C7918EEC64F0D3
:10C9C400040E12000001C781D880C135A1EC64F0C7
:10C9D400050E12000001C781C151C125A1EC64F00C
:10C9E400030E12000E01DC6BDD6BDE6BDF6BE06BA4
:10C9F400E16B12000E01C8A102EF65F004EF65F0CF
:10CA0400FCEF64F01200800E946E080E956E966A28
:10CA1400030E926E959A1200700E0E01D36FD56BB1
:10CA2400D76B020ED96FD86B120005C001F006C097
:10CA340002F007C003F0000EEBEC67F0120096BCA6
:10CA440026EF65F029EF65F0010E2AEF65F0000E80
:10CA5400120005C001F006C002F007C003F0020E88
:10CA6400EBEC67F012000F015F51046E036A5E5134
:10CA74000324016E000E0420026E12000E01C8BBD6
:10CA840046EF65F049EF65F0010E4AEF65F0000EE0
:10CA94001200016E0E01C8A952EF65F054EF65F063
:10CAA4004CEF65F001C099FF12000001EF6B9CA2EE
:10CAB4005EEF65F060EF65F062EF65F09C989C882E
:10CAC40098501200F4EC64F005EC65F095EC67F016
:10CAD4000EEC65F058EC66F0C3EC66F0120077EFEC
:10CAE40065F0FCEC64F050EC69F00001C7B37DEF35
:10CAF40065F07FEF65F073EF65F01200026E16ECDF
:10CB040066F00009D8B489EF65F08BEF65F081EF2A
:10CB140065F002504BEC65F0120001EE00F0500E8F
:10CB2400EE6AE806FDE100EEABF0450EEE6AE806BB
:10CB3400FDE100018BEF77F00001C7A7A4EF65F0DA
:10CB4400A6EF65F0ADEF65F001C0C2F002C0C3F01E
:10CB540003C0C4F0C797120095BAB3EF65F0B5EF00
:10CB640065F0BDEF65F0800E946E080E956E966AC2
:10CB7400030E926E958A1200A00E0001A66F000E9D
:10CB8400976F000E986F9EC099F09FC09AF0A60E02
:10CB94009B6F47EC67F0120008C001F0000E036EB3
:10CBA400020E026E9EEC65F0000E056E000E066E1F
:10CBB400000E076E17EC65F0040E120008C001F0B9
:10CBC400000E036E010E026E9EEC65F0000E056E03
:10CBD400000E066E000E076E17EC65F0020E1200D2
:10CBE40008C001F0000E036E020E026E9EEC65F0AA
:10CBF400000E056E000E066E000E076E17EC65F053
:10CC0400020E120008C001F0000E036E010E026E47
:10CC14009EEC65F0000E056E000E066E000E076EAB
:10CC240017EC65F0040E1200016A0E01C8A91DEF8D
:10CC340066F01FEF66F028EF66F09DAA24EF66F019
:10CC440026EF66F028EF66F0010E016E0150120027
:10CC5400010E016E0001C7B332EF66F034EF66F0E7
:10CC64003EEF66F0C795C16992EC64F095EC64F010
:10CC740082EC64F0C6C001F001501200056E05C0DC
:10CC84005AFF0F015B8F5B9D5B815BB14CEF66F0DC
:10CC94004EEF66F047EF66F05F51046E036A5E5133
:10CCA4000324016E000E0420026E1200656A666A97
:10CCB400676A686A636A646A616A0F015A6B586BCF
:10CCC400596B546B100E556F566B606A536B516BF6
:10CCD4001F0E526F840E5B6F576B12000850D96E93
:10CCE400DA6A020ED926DF50016E0850D96EDA6A6C
:10CCF400DECF02F0DDCF03F09EEC65F0000E056E92
:10CD0400000E066E000E076E17EC65F0020E1200A0
:10CD14000150021003100410D8B493EF66F095EF9D
:10CD240066F09DEF66F0000E011A000E021A000E66
:10CD3400031A800E041A01C001F002C002F003C0FD
:10CD440003F004C004F0120001C005F002C006F0B4
:10CD540003C0F6FF04C0F7FF034A042AF86A05C0BB
:10CD6400D9FF06C0DAFF054A062A0800F5CFDFFF1F
:10CD7400DF50D8A4C0EF66F0C2EF66F0AAEF66F009
:10CD84001200080E9E6E900E9C6E240E9D6E080E70
:10CD94009A6E9B6A000E016E000E026ED4EC64F073
:10CDA400000E016E000E026ED9EC64F0000E016EEE
:10CDB400000E026ECFEC64F00001EF6B1200066E01
:10CDC400010E076E0001C7B3EAEF66F0ECEF66F000
:10CDD40000EF67F0C783076A0650D8B4F4EF66F033
:10CDE400F6EF66F0FAEF66F0010EC56FFCEF66F041
:10CDF400020EC56F84EC64F071EC65F0075012000C
:10CE0400000E126E000E116E13EF67F010C003F0E7
:10CE1400046A0EC005F00FC006F05BEC6BF0114A1B
:10CE2400122A11500C24D96E12500D20DA6EDF50E4
:10CE3400106E1050D8A421EF67F023EF67F008EFCD
:10CE440067F01200000E2C1A000E2D1A000E2E1A76
:10CE5400800E2F1A28C001F029C002F02AC003F066
:10CE64002BC004F02CC005F02DC006F02EC007F036
:10CE74002FC008F030EC75F001C028F002C029F092
:10CE840003C02AF004C02BF0120099C09CF09AC091
:10CE94009DF058EF67F097C08CF098C08DF09C0E11
:10CEA40000018E6F9BC08FF006EC70F09CC0F6FF03
:10CEB4009DC0F7FFF86A0800F5500009D8A465EF93
:10CEC40067F067EF67F04DEF67F0000E0001986FB1
:10CED400000E976F120003C00AF004C00BF001C0EB
:10CEE40008F002C009F087EF67F00AC0D9FF0BC051
:10CEF400DAFFDF50076E0A4A0B2A08C0D9FF09C0BF
:10CF0400DAFF07C0DFFF084A092A0506D8A006068B
:10CF1400052806E10628D8A492EF67F094EF67F09D
:10CF240077EF67F01200826A836A846AFC0E876E68
:10CF3400FC0E886EBF0E896E670E0F011C6F14699C
:10CF44000C69286B136B0B6B1B6B0A6B126B1A6BE4
:10CF5400096911691969086910691869080E256F4A
:10CF6400140E0E01B36F170EB06F0F0EF56F100E87
:10CF7400F66F090EF86F130EB26F120004BEC5EF00
:10CF840067F0C7EF67F0D1EF67F001C001F002C0AE
:10CF940002F003C003F004C004F0EAEF67F001C03C
:10CFA40005F002C006F003C007F004C008F0051E37
:10CFB400061E071E081E052A000E06220722082246
:10CFC40005C001F006C002F007C003F008C004F079
:10CFD4001200046E01500210D8B4F3EF67F0F5EFBD
:10CFE40067F007EF68F00450020DF350AB0FD96EF1
:10CFF400DA6A01C0DEFF02C0DDFF0450B70FD96E4C
:10D00400DA6A03C0DFFF16EF68F00450020DF35034
:10D01400AB0FD96EDA6A140EDE6EC90EDD6E0450E3
:10D02400B70FD96EDA6ADF6A12000001C791020EE7
:10D03400C66F25EF68F0ADEC64F047EF68F0B1EC33
:10D0440064F047EF68F0B9C008F002D833EF68F035
:10D054000500FA6EAF51FD6EB051FE6EFF6AFA50D4
:10D064001200016E026A0250000AD8B43CEF68F064
:10D0740021EF68F00150020AD8B41DEF68F0010AEC
:10D08400D8B41DEF68F021EF68F0120003500410CB
:10D09400D8B44FEF68F051EF68F075EF68F0010E07
:10D0A400056E59EF68F0D89003360436052A04AEAD
:10D0B4005EEF68F060EF68F055EF68F00350015CD4
:10D0C40004500258D8A069EF68F06BEF68F06FEF76
:10D0D40068F00350015E0450025AD89004320332BF
:10D0E400052E60EF68F001C001F002C002F01200EA
:10D0F4000B6E0B50E2EC68F00009D8B484EF68F0D2
:10D1040086EF68F07BEF68F0080E056ECC0E066EB5
:10D114000A0E076E17EC65F0090E016E000E036E21
:10D12400010E026E9EEC65F0000E056E000E066E9A
:10D13400000E076E000E086E2BEC65F0C1EC64F077
:10D144002AEC66F0E806D8B4AAEF68F0ACEF68F011
:10D15400A2EF68F012000A6E0B6A0A50E2EC68F063
:10D164000009D8B4B8EF68F0BAEF68F0AFEF68F030
:10D17400C00E056ECB0E066E0B0E076E17EC65F037
:10D18400090E016E000E036E010E026E9EEC65F038
:10D19400000E056E000E066E000E076E000E086E81
:10D1A4002BEC65F0C1EC64F02AEC66F0E806D8B428
:10D1B400DEEF68F0E0EF68F0D6EF68F00B50120095
:10D1C400016E010E026E0001C7B5EBEF68F0EDEFE2
:10D1D40068F017EF69F001C0C1F0C793C785C79124
:10D1E4000E0EC56F010EC06FF40EBF6FC787140E0D
:10D1F400AB6FC90EAC6FB76B140EAD6FC90EAE6FCB
:10D20400B86B140EAF6FC90EB06FB96B140EB16F5B
:10D21400C90EB26FBA6B180EB36FC90EB46FBB6B85
:10D2240092EC64F0AEEC65F0026A0250120018BE93
:10D2340020EF69F01EEF69F024EF69F0000E186E1C
:10D24400000E176E000E1B6E000E1A6E36EF69F09C
:10D25400000E046E200E036E13C005F014C006F019
:10D264005BEC6BF01A4A1B2A17501A5C1B50800A9D
:10D27400196E1850800A1958D8A043EF69F045EF89
:10D2840069F02AEF69F015C00CF016C00DF013C058
:10D294000EF014C00FF002EC67F0120092EC64F090
:10D2A4000001C7A158EF69F05AEF69F067EF69F020
:10D2B40021EC65F00009D8B462EF69F064EF69F01D
:10D2C40067EF69F00F0E0001C56F0001C551020D33
:10D2D4006F0EF324F66EFE0EF420F76EF86A000E5D
:10D2E400F8220900F5CF04F00900F5CF05F002D8C3
:10D2F40085EF69F00500FA6E0450FD6E0550FE6E70
:10D30400FF6AFA5012000001C56F1200000E076E8A
:10D31400000E066E03500410D8B493EF69F095EF35
:10D3240069F0BDEF69F0010E056E9DEF69F0D890CC
:10D3340003360436052A04AEA2EF69F0A4EF69F0BF
:10D3440099EF69F0D890063607360350015C045013
:10D354000258D8A0B0EF69F0B2EF69F0B7EF69F006
:10D364000350015E0450025A0680D89004320332FE
:10D37400052EA4EF69F006C001F007C002F0120008
:10D384000001C787D3EF69F0ADEC64F0FDEF69F0FD
:10D394009EEC64F0030EFDEF69F0B1EC64F0FDEF78
:10D3A40069F0B7C008F002D8E1EF69F00500FA6E41
:10D3B400AB51FD6EAC51FE6EFF6AFA501200016E65
:10D3C400026A0250000AD8B4EAEF69F0CFEF69F0BC
:10D3D4000150010AD8B4CFEF69F0030AD8B4C6EFFC
:10D3E40069F0010AD8B4C6EF69F0070AD8B4CAEFE5
:10D3F40069F0CFEF69F012000001C251D96EDA6A08
:10D4040090EC64F0DF6E0001C22BC307D8A0C40700
:10D41400C351C411D8B411EF6AF013EF6AF018EFD6
:10D424006AF09BEC64F0050E4DEF6AF0C78723EFBA
:10D434006AF0BDEC64F04DEF6AF0B9EC64F04DEFC6
:10D444006AF0B7C008F002D831EF6AF00500FA6E4E
:10D45400AB51FD6EAC51FE6EFF6AFA501200016EC4
:10D46400026A0250000AD8B43AEF6AF01FEF6AF079
:10D474000150010AD8B41FEF6AF0030AD8B41BEFB5
:10D484006AF0010AD8B41BEF6AF0070AD8B41FEF98
:10D494006AF01FEF6AF01200000E0114096E000E0C
:10D4A40002140A6E800E03140B6E7F0E04140C6EAD
:10D4B40009500A100B100C10D8A463EF6AF065EF42
:10D4C4006AF06DEF6AF0000E016E000E026E000E3F
:10D4D400036E000E046E000E0514096E000E061491
:10D4E4000A6E800E07140B6E7F0E08140C6E095022
:10D4F4000A100B100C10D8A482EF6AF084EF6AF0C3
:10D504008CEF6AF0000E056E000E066E000E076EBC
:10D51400000E086E055001180FE1065002180CE1C8
:10D524000750031809E108500418D8B49CEF6AF0B6
:10D534009EEF6AF0A1EF6AF0D890A2EF6AF0D8806B
:10D544001200000E076E000E066E0150D96EDA6AE4
:10D55400DECFF6FFDDCFF7FFF86A0800F5502A0AA0
:10D56400D8A4B7EF6AF0B9EF6AF0E2EF6AF00150BD
:10D57400D96EDA6ADE2A000EDD220250D96EDA6A2A
:10D58400020EDF26DF5CD96EDA6ADECF06F0DECF6C
:10D5940007F0F6EF6AF00A0E0602F3CF03F0F4CFB9
:10D5A40004F00702F350042605500324066E000E0F
:10D5B4000420076E0150D96EDA6ADE2A000EDD22DD
:10D5C4000150D96EDA6ADECFF6FFDDCFF7FFF86AD5
:10D5D4000800F550D00F056E090E0564F4EF6AF0EB
:10D5E400F6EF6AF0CDEF6AF006C001F007C002F072
:10D5F400120021EC65F00009D8B403EF6BF005EFDD
:10D604006BF03EEF6BF013EF6BF0A5EC64F05AEFA8
:10D614006BF0A9EC64F05AEF6BF0B1EC64F05AEFE4
:10D624006BF0BAC008F002D822EF6BF00500FA6E76
:10D634000001B151FD6EB251FE6EFF6AFA50120044
:10D64400026E036A0350000AD8B42BEF6BF00FEF9D
:10D654006BF00250010AD8B40FEF6BF0030AD8B490
:10D6640007EF6BF0010AD8B40BEF6BF0070AD8B4DC
:10D674000FEF6BF00FEF6BF00001C79120EEC2F0DB
:10D68400DF50DF2AD96EDA6ADF50A1EC64F00001C2
:10D69400C307D8A0C407C351C411D8A454EF6BF076
:10D6A40056EF6BF059EF6BF0060E5AEF6BF0030E6A
:10D6B400120005500610D8B462EF6BF064EF6BF003
:10D6C4006DEF6BF005500610D8A46BEF6BF06DEFA7
:10D6D4006BF072EF6BF0035080EC65F0BFEF6BF012
:10D6E40020EE09F00550D9260650DA22DE50DE106D
:10D6F400D8B47FEF6BF081EF6BF09CEF6BF020EE12
:10D7040009F00550D9260650DA2210EE02F0055031
:10D71400E1260650E222DE50E65CE650800A0B6EFB
:10D72400DE50800A0B58D8B09AEF6BF09CEF6BF088
:10D73400BFEF6BF020EE02F00550D9260650DA2236
:10D74400DECF07F0DDCF08F005C0D9FF06C0DAFF51
:10D75400DECF09F0DDCF0AF007500924D96E085056
:10D764000A20DA6E03C0DFFF20EE02F00550D9264E
:10D774000650DA22DE2A000EDD2212008386FA0E1B
:10D7840000D0E82EFDD70C0E0F015A6F0C0E40ECA2
:10D7940066F001C04DF002C04EF0CD0E136ECC0EFB
:10D7A400146E4C0E156E400E166E4DC001F04EC038
:10D7B40002F0036A046A000E23EC6EF001C00FF05D
:10D7C40002C010F003C011F004C012F01DEC73F09D
:10D7D4000FC028F010C029F011C02AF012C02BF09D
:10D7E400000E2C6EF00E2D6E7F0E2E6E450E2F6EDB
:10D7F40055EC71F028C049F029C04AF02AC04BF01A
:10D804002BC04CF049C00FF04AC010F04BC011F0CF
:10D814004CC012F0480E136EE10E146E420E156EDB
:10D82400410E166E1DEC73F00FC045F010C046F0AB
:10D8340011C047F012C048F045C041F046C042F064
:10D8440047C043F048C044F012000001DBBF2FEF93
:10D854006CF02DEF6CF035EF6CF0000E236E010EC2
:10D86400226E39EF6CF0DAC022F0DBC023F0D8C0AE
:10D8740020F0D9C021F0000E256E4F0E246E010158
:10D884004F6B6FEF6CF02406D8A02506000E2424FD
:10D89400D96E010E2520DA6E1EC001F01FC002F001
:10D8A400000E046E0A0E036E48EC68F00150300F4F
:10D8B400DF6E2206D8A023062006D8A021061EC0AB
:10D8C40001F01FC002F0000E046E0A0E036E88EC15
:10D8D40069F001C01EF002C01FF024502510D8B416
:10D8E40076EF6CF078EF6CF08EEF6CF01E501F103A
:10D8F400D8A47FEF6CF081EF6CF045EF6CF023BEA1
:10D904008EEF6CF0235006E12204D8B08CEF6CF05B
:10D914008EEF6CF045EF6CF01CC013F01DC014F0DA
:10D92400000E2424156E010E2520166E20C017F05B
:10D9340021C018F019EC69F01200CCC00BF0CDC076
:10D944000CF0CEC00DF0CFC00EF001C00BF002C041
:10D954000CF003C00DF004C00EF00BC005F00CC0B9
:10D9640006F00DC007F00EC008F0180EBFEF6CF003
:10D97400D8900832073206320532E82EBAEF6CF03E
:10D984000550096E0A6A09500A10D8A4CCEF6CF04D
:10D99400CEEF6CF0EEEF6CF0D8900B34056E0C34D7
:10D9A400066E0D34076E0E34086E0550061007100F
:10D9B4000810D8A4E0EF6CF0E2EF6CF0E8EF6CF044
:10D9C400000E026E020E016E1DEF6DF0000E026E6F
:10D9D400030E016E1DEF6DF009280A10D8A4F5EFAF
:10D9E4006CF0F7EF6CF019EF6DF00BC005F00CC0A4
:10D9F40006F00DC007F00EC008F0090ED8900536E9
:10DA0400063607360836E82E00EF6DF0055006108E
:10DA140007100810D8B411EF6DF014EF6DF0010E7B
:10DA240015EF6DF0000E016E026A1DEF6DF0000E31
:10DA3400026E040E016E1200000E2814306E000EE9
:10DA44002914316E800E2A14326E7F0E2B14336E1D
:10DA54003050311032103310D8A433EF6DF035EF5D
:10DA64006DF03DEF6DF0000E286E000E296E000E75
:10DA74002A6E000E2B6E000E2C14306E000E2D1428
:10DA8400316E800E2E14326E7F0E2F14336E305092
:10DA9400311032103310D8A452EF6DF054EF6DF002
:10DAA4005CEF6DF0000E2C6E000E2D6E000E2E6ECF
:10DAB400000E2F6E2BAE61EF6DF063EF6DF06CEF27
:10DAC4006DF0286C291ED8B0292A2A1ED8B02A2A1B
:10DAD400800E2B562FAE71EF6DF073EF6DF07CEF6F
:10DAE4006DF02C6C2D1ED8B02D2A2E1ED8B02E2AE7
:10DAF400800E2F56000E281A000E291A000E2A1A1C
:10DB0400800E2B1A000E2C1A000E2D1A000E2E1A3F
:10DB1400800E2F1A2C50285C2D5029582E502A582C
:10DB24002F502B58D8B099EF6DF09BEF6DF09EEF0E
:10DB34006DF0D8909FEF6DF0D88012000334043458
:10DB44000A6E0A50D8A4A9EF6DF0ABEF6DF0B5EFF3
:10DB54006DF0000E016E000E026E000E036E000EDC
:10DB6400046E22EF6EF001C005F002C006F003C09F
:10DB740007F004C008F0200EC5EF6DF0D89008320D
:10DB8400073206320532E82EC0EF6DF00550096EFB
:10DB9400038EFF0E0116FF0E0216FF0E0316000E73
:10DBA4000416960E0A5E0ABEDCEF6DF0DAEF6DF035
:10DBB400F2EF6DF00A50800A970FD8B0E4EF6DF0E1
:10DBC400E6EF6DF0E8EF6DF0ABEF6DF0D890043256
:10DBD4000332023201320A3EE8EF6DF00AEF6EF0D2
:10DBE4001F0E0A64F8EF6DF0FAEF6DF002EF6EF0BD
:10DBF400ABEF6DF0D89001360236033604360A06D0
:10DC04000A50D8A408EF6EF00AEF6EF0FCEF6DF046
:10DC14000950D8B410EF6EF012EF6EF01AEF6EF0F8
:10DC2400041E031E021E016C000E022203220422A3
:10DC340001C001F002C002F003C003F004C004F00C
:10DC44001200096E0950D8B42AEF6EF02CEF6EF072
:10DC54004EEF6EF004BE33EF6EF031EF6EF04EEF28
:10DC64006EF001C005F002C006F003C007F004C066
:10DC740008F0051E061E071E081E052A000E0622B1
:10DC84000722082205C00BF006C00CF007C00DF0F7
:10DC940008C00EF056EF6EF001C00BF002C00CF09D
:10DCA40003C00DF004C00EF0015002100310041064
:10DCB400D8A45FEF6EF061EF6EF06BEF6EF0000EC4
:10DCC400016E000E026E000E036E000E046EFCEF79
:10DCD4006EF0960E0A6E75EF6EF00A2AD8900E3228
:10DCE4000D320C320B32000E0B14056E000E0C14A8
:10DCF400066E000E0D14076EFE0E0E14086E05500F
:10DD0400061007100810D8A48AEF6EF08CEF6EF09E
:10DD14006FEF6EF09AEF6EF00A2A010E0B26000EDA
:10DD24000C220D220E22D8900E320D320C320B3200
:10DD3400000E0B14056E000E0C14066E000E0D146E
:10DD4400076EFF0E0E14086E05500610071008101B
:10DD5400D8A4AFEF6EF0B1EF6EF08EEF6EF0B9EFC6
:10DD64006EF00A06D8900B360C360D360E360DBE04
:10DD7400BEEF6EF0C0EF6EF0C8EF6EF0020E0A60F8
:10DD8400C6EF6EF0C8EF6EF0B3EF6EF00AB0CDEFF1
:10DD94006EF0CFEF6EF0D0EF6EF00D9ED8900A3299
:10DDA4000AC005F0066A076A086A05C008F0076A2F
:10DDB400066A056A05500B1206500C1207500D1224
:10DDC40008500E120950D8B4EAEF6EF0ECEF6EF082
:10DDD400F4EF6EF004BEF3EF6EF0F1EF6EF0F4EFDB
:10DDE4006EF00E8E0BC001F00CC002F00DC003F0FB
:10DDF4000EC004F01200C8C051F0C9C052F0CAC02D
:10DE040053F0CBC054F041C051F042C052F043C073
:10DE140053F044C054F0810E456EFF0E466E51C05F
:10DE240047F052C048F053C049F054C04AF0180EAD
:10DE340021EF6FF0D8904A32493248324732E82E07
:10DE44001CEF6FF0475045244F6E000E4620506E75
:10DE540050BE36EF6FF0505009E1170E4F5CD8A05A
:10DE640036EF6FF038EF6FF042EF6FF041C041F0E2
:10DE740042C042F043C043F044C044F005EF70F0A8
:10DE840050BE47EF6FF049EF6FF0B9EF6FF04FC03E
:10DE940045F0FF0E466EFF0E476E7F0E486E000E75
:10DEA400496E456658EF6FF060EF6FF049344932C0
:10DEB400483247324632452E53EF6FF046C04BF09E
:10DEC40047C04CF048C04DF049C04EF04B5051147F
:10DED400456E4C505214466E4D505314476E4E507E
:10DEE4005414486E4550461047104810D8A47DEF8E
:10DEF4006FF07FEF6FF081EF6FF038EF6FF051C08C
:10DF040045F052C046F053C047F054C048F0200ECC
:10DF140091EF6FF0D8904832473246324532E82EBE
:10DF24008CEF6FF04550461047104810D8B49DEF61
:10DF34006FF09FEF6FF0A7EF6FF04B5051264C50EE
:10DF440052224D5053224E5054224B1C456E4C1CB1
:10DF5400466E4D1C476E4E1C486E45505116465039
:10DF640052164750531648505416FDEF6FF051C0E7
:10DF740045F052C046F053C047F054C048F0200E5C
:10DF8400C9EF6FF0D8904832473246324532E82E16
:10DF9400C4EF6FF04550461047104810D8A4D5EF91
:10DFA4006FF0D7EF6FF0E1EF6FF0000E516E000EDF
:10DFB400526E000E536E000E546EFDEF6FF0D8904B
:10DFC4005134456E5234466E5334476E5434486E61
:10DFD4004550461047104810D8B4F3EF6FF0F5EFF2
:10DFE4006FF0FDEF6FF0000E516E000E526E800E5A
:10DFF400536EBF0E546E51C041F052C042F053C034
:10E0040043F054C044F0120000018E51D96EDA6A14
:10E01400DECFF6FFDDCFF7FFF86A0800F550250ADA
:10E02400D8A417EF70F019EF70F040EF71F08E5133
:10E03400D96EDA6ADE2A000EDD22000ED96F000ED8
:10E04400D86FD8C0E0F0DA69DB698E51D96EDA6A2C
:10E05400DECFF6FFDDCFF7FFF86A0800F5502E0A91
:10E06400D8A437EF70F039EF70F049EF70F08E51AB
:10E07400D96EDA6ADE2A000EDD228EC001F08FC06E
:10E0840002F0A3EC6AF001C0DAF002C0DBF0000198
:10E094008E51D96EDA6ADECF95F0DDCF96F095C059
:10E0A400F6FF96C0F7FFF86A0800F550750AD8A481
:10E0B4005EEF70F060EF70F094EF70F08F51D96EF6
:10E0C400DA6A020EDF26DF5CD96EDA6ADECF90F000
:10E0D400DECF91F0010E95255E6E000E96215F6EE7
:10E0E4008E51D96EDA6A5EC0DEFF5FC0DDFF87EF56
:10E0F40070F08CC01CF08DC01DF090C01EF091C05B
:10E104001FF027EC6CF054EF71F095C0F6FF96C049
:10E11400F7FFF86A0800F550750AD8B47BEF70F081
:10E1240094EF70F08E51D96EDA6ADECF95F0DDCFC0
:10E1340096F095C0F6FF96C0F7FFF86A0800F5CF91
:10E1440094F0B0EF70F0954B962BBFEF70F06C0E1F
:10E15400946FBFEF70F0946BBFEF70F094514C0A62
:10E16400D8B4A5EF70F02A0AD8B4A9EF70F00A0A5F
:10E17400D8B4A5EF70F0ADEF70F095C0F6FF96C07F
:10E18400F7FFF86A0800F550660AD8A4CCEF70F0DF
:10E19400CEEF70F037EF71F0F8EF70F08F51D96E69
:10E1A400DA6ADFCF5EF0040EDF265E50D96EDA6ADB
:10E1B400DECF90F0DECF91F0DECF92F0DECF93F0A1
:10E1C40003EF71F08F51D96EDA6ADFCF5EF0040E7F
:10E1D400DF265E50D96EDA6ADECF90F0DECF91F0A2
:10E1E400DECF92F0DECF93F003EF71F094514C0A3E
:10E1F400D8B4E4EF70F0200AD8B4D0EF70F003EF95
:10E2040071F0010E95255E6E000E96215F6E8E51A3
:10E21400D96EDA6A5EC0DEFF5FC0DDFF2AEF71F0FF
:10E224008CC055F08DC056F090C057F091C058F096
:10E2340092C059F093C05AF095C0F6FF96C0F7FF0C
:10E24400F86A0800F5CF5BF03DEC7AF054EF71F01A
:10E2540095C0F6FF96C0F7FFF86A0800F550660A05
:10E26400D8B412EF71F037EF71F000018E51D96E0E
:10E27400DA6ADE2A000EDD2254EF71F08E51D96E77
:10E28400DA6ADECFF6FFDDCFF7FFF86A0800F55053
:10E29400036E046A8CC005F08DC006F05BEC6BF075
:10E2A40037EF71F012002B50800B386E2B502B245B
:10E2B4003F6E2AAE60EF71F062EF71F063EF71F0C0
:10E2C4003F803F50D8B469EF71F06BEF71F07FEF8E
:10E2D40071F03F28D8A471EF71F073EF71F07BEF08
:10E2E40071F0000E286E000E296E000E2A6E000ECC
:10E2F4002B6E2A8E2B6A87EF71F0000E286E000EAB
:10E30400296E000E2A6E000E2B6E2F50800B381AC9
:10E314002F502F24406E2EAE92EF71F094EF71F0D7
:10E3240095EF71F040804050D8B49BEF71F09DEFB1
:10E3340071F0B1EF71F04028D8A4A3EF71F0A5EF0C
:10E3440071F0ADEF71F0000E2C6E000E2D6E000E0C
:10E354002E6E000E2F6E2E8E2F6AB9EF71F0000E06
:10E364002C6E000E2D6E000E2E6E000E2F6E2C5095
:10E374002D102E102F10D8A4C2EF71F0C4EF71F03D
:10E38400DCEF71F0000E286E000E296E000E2A6E6E
:10E39400000E2B6E800E2A127F0E2B1238502B1279
:10E3A40028C028F029C029F02AC02AF02BC02BF05D
:10E3B4001CEF73F03F50D8A4E2EF71F0E4EF71F07A
:10E3C400EEEF71F0000E286E000E296E000E2A6E1C
:10E3D400000E2B6E1CEF73F040503FC030F0316ADA
:10E3E400305E000E315A7F0E3024396E000E31201B
:10E3F4003A6E28C034F029C035F02AC036F02BC05C
:10E4040037F0000E286E000E296E000E2A6E000EE4
:10E414002B6E000E3B6E000E3C6E000E3D6E000E29
:10E424003E6E406A4EEF72F04050D8B41CEF72F06A
:10E434001EEF72F035EF72F0D8903436353636363A
:10E444003736D890283629362A362B363EAE2DEF6D
:10E4540072F02FEF72F030EF72F02880D8903B36D4
:10E464003C363D363E362C50345C2D5035582E50BB
:10E4740036582F503758D8A042EF72F044EF72F05C
:10E484004DEF72F03E8C2C50345E2D50355A2E5088
:10E49400365A2F50375A402A190E406454EF72F0FE
:10E4A40056EF72F016EF72F0345035103610371004
:10E4B400D8B45FEF72F061EF72F079EF72F03B80E5
:10E4C40079EF72F0D890283629362A362B363EAEAC
:10E4D4006EEF72F070EF72F071EF72F02880D890E6
:10E4E4003B363C363D363E363906D8A03A062AAE8F
:10E4F4007EEF72F080EF72F064EF72F0406A3EAE2D
:10E5040086EF72F088EF72F0ACEF72F0FF0E3B14FE
:10E51400306EFF0E3C14316EFF0E3D14326E7F0ED2
:10E524003E14336E3050311032103310D8B49DEF96
:10E5340072F09FEF72F0A3EF72F0010E406EACEF39
:10E5440072F028A0A8EF72F0AAEF72F0ACEF72F0AC
:10E554009FEF72F04050D8B4B2EF72F0B4EF72F0A3
:10E56400D8EF72F0010E2826000E29222A222B222F
:10E574002BA0BFEF72F0C1EF72F0D8EF72F028C099
:10E5840030F029C031F02AC032F02BC033F03334DC
:10E59400333232323132303230C028F031C029F0D7
:10E5A40032C02AF033C02BF0394A3A2A3ABEE3EF9C
:10E5B40072F03A5008E13928D8A0E3EF72F0E5EFA1
:10E5C40072F0F0EF72F0000E3A6E3968000E286EA9
:10E5D400000E296E000E2A6E000E2B6E3ABEFDEF61
:10E5E40072F03A5006E13904D8B0FBEF72F0FDEF57
:10E5F40072F00AEF73F0000E3A6E000E396E000EE0
:10E60400286E000E296E000E2A6E000E2B6E386ADC
:10E6140039C03FF03FA011EF73F013EF73F016EF22
:10E6240073F02A8E17EF73F02A9ED8903F302B6E2A
:10E63400D0EF71F012001250800B1B6E1250122496
:10E64400216E11AE28EF73F02AEF73F02BEF73F005
:10E6540021802150D8B431EF73F033EF73F046EFDB
:10E6640073F02128D8A439EF73F03BEF73F043EF34
:10E6740073F0000E0F6E000E106E000E116E000E81
:10E68400126E118E4EEF73F0000E0F6E000E106EB0
:10E69400000E116E000E126E1650800B1B1A1650CF
:10E6A40016241C6E15AE59EF73F05BEF73F05CEF3C
:10E6B40073F01C801C50D8B462EF73F064EF73F0F5
:10E6C40077EF73F01C28D8A46AEF73F06CEF73F043
:10E6D40074EF73F0000E136E000E146E000E156EC0
:10E6E400000E166E158E7FEF73F0000E136E000E83
:10E6F400146E000E156E000E166E1C50D8B485EF05
:10E7040073F087EF73F08FEF73F02150D8A48DEF7F
:10E7140073F08FEF73F099EF73F0000E0F6E000E2D
:10E72400106E000E116E000E126E2FEF75F0155064
:10E734000F02F3CF26F0F4CF27F026501D6E1E6A89
:10E744001F6A206A2750226E236A246A256A14509D
:10E754001002F3CF26F0F4CF27F026501D26000E2A
:10E764001E221F22202227502226000E232224228A
:10E77400252213501102F3CF26F0F4CF27F02650B0
:10E784001D26000E1E221F22202227502226000EA4
:10E794002322242225221FC020F01EC01FF01DC0EA
:10E7A4001EF01D6A13501002F3CF26F0F4CF27F0A9
:10E7B40026501D2627501E22000E1F22000E202246
:10E7C40014500F02F3CF26F0F4CF27F026501D2665
:10E7D40027501E22000E1F22000E20221FC020F0F0
:10E7E4001EC01FF01DC01EF01D6A13500F02F3CF90
:10E7F40026F0F4CF27F026501D2627501E22000EA7
:10E804001F22000E202215501002F3CF26F0F4CF61
:10E8140027F02650222627502322000E2422000E01
:10E82400252214501102F3CF26F0F4CF27F02650FE
:10E83400222627502322000E2422000E25221550C2
:10E844001102F3CF26F0F4CF27F02650176E27508D
:10E85400186E196A1A6A19C01AF018C019F017C08C
:10E8640018F0176A17502226185023221950242210
:10E874001A5025221DC017F01EC018F01FC019F031
:10E8840020C01AF0190E4CEF74F0D8901A321932D5
:10E8940018321732E82E47EF74F01750222618501A
:10E8A4002322195024221A5025221FC020F01EC0F2
:10E8B4001FF01DC01EF01D6A1C5021C017F0186AFD
:10E8C4001726000E1822820E1724266EFF0E18201B
:10E8D400276E82EF74F0D8902236233624362536FC
:10E8E40020AE77EF74F079EF74F07AEF74F0228051
:10E8F400D8901D361E361F3620362606D8A0270689
:10E9040024AE87EF74F089EF74F06DEF74F01C6A35
:10E9140020AE8FEF74F091EF74F0B5EF74F0FF0E4A
:10E924001D14176EFF0E1E14186EFF0E1F14196EA1
:10E934007F0E20141A6E1750181019101A10D8B41C
:10E94400A6EF74F0A8EF74F0ACEF74F0010E1C6E37
:10E95400B5EF74F022A0B1EF74F0B3EF74F0B5EF3B
:10E9640074F0A8EF74F01C50D8B4BBEF74F0BDEF92
:10E9740074F0E1EF74F0010E2226000E232224220B
:10E98400252225A0C8EF74F0CAEF74F0E1EF74F00B
:10E9940022C017F023C018F024C019F025C01AF0C3
:10E9A4001A341A3219321832173217C022F018C02A
:10E9B40023F019C024F01AC025F0264A272A27BEBE
:10E9C400ECEF74F0275008E12628D8A0ECEF74F09F
:10E9D400EEEF74F0F8EF74F0000E226E000E236E6A
:10E9E400800E246E7F0E256E25EF75F027BE05EF91
:10E9F40075F0275006E12604D8B003EF75F005EF53
:10EA040075F010EF75F0000E226E000E236E000EEE
:10EA1400246E000E256E1B6A25EF75F026C021F0CA
:10EA2400FF0E2216FF0E23167F0E2416000E251647
:10EA340021A01FEF75F021EF75F022EF75F0248E01
:10EA4400D8902130256E1B50251222C00FF023C010
:10EA540010F024C011F025C012F012000450800BF5
:10EA64000D6E045004240F6E03AE3BEF75F03DEFC2
:10EA740075F03EEF75F00F800F50D8B444EF75F089
:10EA840046EF75F05AEF75F00F28D8A44CEF75F0E7
:10EA94004EEF75F056EF75F0000E016E000E026E2B
:10EAA400000E036E000E046E038E046A62EF75F0AE
:10EAB400000E016E000E026E000E036E000E046E58
:10EAC4000850800B0E6E0D500E18D8B46CEF75F014
:10EAD4006EEF75F06FEF75F00D8C085008240E6E14
:10EAE40007AE77EF75F079EF75F07AEF75F00E8079
:10EAF4000E50D8B480EF75F082EF75F096EF75F094
:10EB04000E28D8A488EF75F08AEF75F092EF75F0AF
:10EB1400000E056E000E066E000E076E000E086EE7
:10EB2400078E086A9EEF75F0000E056E000E066EE5
:10EB3400000E076E000E086E0F500E5CD8B0A5EFE5
:10EB440075F0A7EF75F0CEEF75F00DACACEF75F086
:10EB5400AEEF75F0B0EF75F0800E0D1A0FC010F027
:10EB64000EC00FF010C00EF001C010F005C001F08F
:10EB740010C005F002C010F006C002F010C006F08C
:10EB840003C010F007C003F010C007F004C010F079
:10EB940008C004F010C008F0106A0F500EC009F04D
:10EBA4000A6A095E000E0A5A0ABEE2EF75F00A50BC
:10EBB40009E11A0E095CD8A0E2EF75F0E4EF75F0F4
:10EBC4001BEF76F00150021003100410D8A4EDEFEF
:10EBD40075F0F0EF75F0010EF1EF75F0000E106EA8
:10EBE400000E016E000E026E000E036E000E046E27
:10EBF4000EC00FF024EF76F010A003EF76F005EFCF
:10EC040076F00BEF76F0D89010300109106E0DEF0E
:10EC140076F0D890103201A012EF76F014EF76F06F
:10EC240015EF76F0108E04340432033202320132CE
:10EC34000F2A0E500F5CD8A022EF76F024EF76F066
:10EC4400FEEF75F00DBC29EF76F02BEF76F06BEF4D
:10EC540076F00F50D8A431EF76F033EF76F03DEF35
:10EC640076F0000E016E000E026E000E036E000EB2
:10EC7400046E8AEF77F005500126065002220750F1
:10EC840003220850042204A04AEF76F04CEF76F0F9
:10EC9400F8EF76F010A051EF76F053EF76F059EFDD
:10ECA40076F0D89010300109106E5BEF76F0D890B2
:10ECB400103201A060EF76F062EF76F063EF76F049
:10ECC400108E043404320332023201320F2AF8EF78
:10ECD40076F00550015C0650025807500358045062
:10ECE400800A096E0850800A0958D8B07CEF76F083
:10ECF4007EEF76F0A9EF76F00150055C096E0250C4
:10ED040006580A6E035007580B6E045008580C6ED0
:10ED1400FF0E0924016EFF0E0A20026EFF0E0B2067
:10ED2400036EFF0E0C20046E800E0D1A106C105032
:10ED3400D8A49FEF76F0A1EF76F0B1EF76F0010E54
:10ED44000126000E022203220422B1EF76F00550C0
:10ED5400015E0650025A0750035A0850045A0150E3
:10ED6400021003100410D8A4BAEF76F0BCEF76F0CA
:10ED7400F1EF76F01050D8A4C2EF76F0C4EF76F03D
:10ED8400F1EF76F0000E016E000E026E000E036EBF
:10ED9400000E046E8AEF77F0D890013602360336FF
:10EDA400043610AED8EF76F0DAEF76F0DBEF76F0DB
:10EDB400018010A0E0EF76F0E2EF76F0E6EF76F077
:10EDC400D8801036E8EF76F0D89010360F50D8B4CB
:10EDD400EEEF76F0F0EF76F0F1EF76F00F0603AE9B
:10EDE400F6EF76F0F8EF76F0CEEF76F00E6A10AE2E
:10EDF400FEEF76F000EF77F018EF77F010C009F02F
:10EE04007F0E0916D8B409EF77F00BEF77F00FEF08
:10EE140077F0010E0E6E18EF77F001A014EF77F083
:10EE240016EF77F018EF77F00BEF77F00E50D8B4B9
:10EE34001EEF77F020EF77F04BEF77F0010E01260D
:10EE4400000E02220322042204A02BEF77F02DEF00
:10EE540077F04BEF77F001C009F002C00AF003C06D
:10EE64000BF004C00CF00C340C320B320A320932B1
:10EE740009C001F00AC002F00BC003F00CC004F09A
:10EE84000F28D8B448EF77F04AEF77F04BEF77F0DC
:10EE94000F2A0F28D8B451EF77F053EF77F05BEFD8
:10EEA40077F00F50D8A459EF77F05BEF77F06CEF61
:10EEB40077F0000E016E000E026E000E036E000E5F
:10EEC400046E0F50D8A469EF77F06BEF77F06CEF16
:10EED40077F00D6A0FA071EF77F073EF77F076EFAC
:10EEE40077F0038E77EF77F0039ED8900F30046E9F
:10EEF4000DAE7FEF77F081EF77F082EF77F0048E3D
:10EF040001C001F002C002F003C003F004C004F029
:10EF1400120064EC65F0000E0101546F000E556F91
:10EF2400000E566F000E576F88960F011C9D1C9F94
:10EF3400A00E00019E6FFF0E9F6FBEEC65F0C0EC4B
:10EF44006BF041C050F142C051F143C052F144C092
:10EF540053F1840E00019E6FFF0E9F6F35EC65F038
:10EF640001C0A0F002C0A1F050C1A2F051C1A3F0B1
:10EF740052C1A4F053C1A5F0BEEC65F0A30E00018C
:10EF8400A76F550EE82EFED7A72FFCD7100E096EDB
:10EF9400020E0A6E5A0E7AEC68F0070E0001A76F93
:10EFA4007D0EE82EFED7A72FFCD70C0E096E5A0E45
:10EFB400ADEC68F00001E66F0D0E096E5A0EADEC73
:10EFC40068F00001E56F070E0001A76F7D0EE82EC3
:10EFD400FED7A72FFCD7200E096E100E0A6E5A0E0C
:10EFE4007AEC68F0070E0001A76F7D0EE82EFED7BD
:10EFF400A72FFCD70C0E096E140E0A6E5A0E7AEC6B
:10F0040068F0200E096E180E0A6E5A0E7AEC68F03B
:10F014008290C0EC6BF041C059F142C05AF143C038
:10F024005BF144C05CF1F40E0001D027010ED12342
:10F03400000ED223000ED32340EC65F00009D8B4AF
:10F0440026EF78F028EF78F09CEF78F057EC65F035
:10F054000101586F81EF78F08F0E00019E6FFE0E54
:10F064009F6FBEEC65F09CEF78F0840E00019E6FFC
:10F07400FF0E9F6F35EC65F001C0A0F002C0A1F057
:10F0840059C1A2F05AC1A3F05BC1A4F05CC1A5F0C0
:10F09400BEEC65F09CEF78F0010E0001E36F828214
:10F0A400B70E9E6FFF0E9F6FBEEC65F09CEF78F07D
:10F0B400010E0001E26F8380C80E9E6FFF0E9F6FEA
:10F0C400BEEC65F09CEF78F0010E0001E16F8382E5
:10F0D400D80E9E6FFF0E9F6FBEEC65F09CEF78F02C
:10F0E4000001E36BE26BE16B829283908392E80E02
:10F0F4009E6FFF0E9F6FBEEC65F09CEF78F0585149
:10F10400620AD8B44EEF78F00A0AD8B42EEF78F039
:10F11400010AD8B45AEF78F0060AD8B466EF78F04A
:10F124001F0AD8B472EF78F0060AD8B437EF78F033
:10F134009CEF78F059C128F05AC129F05BC12AF03C
:10F144005CC12BF0000E2C6E000E2D6EE80E2E6EA0
:10F15400400E2F6E1EEC6DF0D8B0B3EF78F0B5EF23
:10F1640078F01CEF79F0010154510001D05DA76FD4
:10F17400010155510001D159A86F010156510001F7
:10F18400D259A96F010157510001D359AA6FAA514D
:10F194000DE1900EA75D5F0EA859010EA959D8A0E4
:10F1A400D6EF78F0D8EF78F01CEF79F0000E01017B
:10F1B4005E6F000E5D6F5EBFE9EF78F05E5109E1AE
:10F1C4000F0E5D5DD8A0E9EF78F0EBEF78F0EDEF8E
:10F1D40078F014EF79F083808382310E0001A76FF9
:10F1E400B20EE82EFED7A72FFCD70000839083929F
:10F1F400310E0001A76FB20EE82EFED7A72FFCD761
:10F20400000001015D4B5E2B5EBF12EF79F05E5191
:10F2140009E10F0E5D5DD8A012EF79F014EF79F0DB
:10F22400EDEF78F0D0C054F1D1C055F1D2C056F111
:10F23400D3C057F1230E096E5A0EADEC68F00001ED
:10F24400ED6FA30E0001A76F550EE82EFED7A72F72
:10F25400FCD73A0E096E5A0EADEC68F00001EC6F63
:10F264003B0E096E5A0EADEC68F00001EB6F110E07
:10F274000001A76F3A0EE82EFED7A72FFCD7000097
:10F284003C0E096E5A0EADEC68F00001E86F3D0EBD
:10F29400096E5A0EADEC68F00001E76FEB51A76FF1
:10F2A400EC51DE6FA7C0DFF0E751A76FE851DC6FC8
:10F2B400A7C0DDF0E351D8B462EF79F064EF79F0E0
:10F2C40065EF79F08282E251D8B46BEF79F06DEF9B
:10F2D40079F06EEF79F08380E151D8B474EF79F06E
:10F2E40076EF79F077EF79F08382E251D8B47DEF4D
:10F2F40079F07FEF79F089EF79F0E151D8B485EFB7
:10F3040079F087EF79F089EF79F00BEF78F0DF513E
:10F3140009E1C00EDE5DD8A092EF79F094EF79F0A8
:10F32400C5EF79F0DE05050EDF59D8B09CEF79F012
:10F334009EEF79F0C5EF79F0E251D8A4A4EF79F00B
:10F34400A6EF79F0A7EF79F08380E151D8A4ADEF6F
:10F3540079F0AFEF79F0B0EF79F08382E351D8A47C
:10F36400B6EF79F0B8EF79F0B9EF79F08292440E04
:10F374009E6FFF0E9F6FDEC0A0F0DFC0A1F0BEEC59
:10F3840065F00BEF78F0DE05050EDF59D8A0CDEF60
:10F3940079F0CFEF79F01EEF7AF07D0EDF5DD8B013
:10F3A400D6EF79F0D8EF79F01EEF7AF0E251D8A4D5
:10F3B400DEEF79F0E0EF79F0F0EF79F083B0E5EF8C
:10F3C40079F0E8EF79F0010EE9EF79F0000EFF0A29
:10F3D400A76F8350A719FE0BA719836EE151D8A418
:10F3E400F6EF79F0F8EF79F009EF7AF083B2FDEFF8
:10F3F40079F000EF7AF0010E01EF7AF0000EFF0AC7
:10F40400A76FA7478350A719FD0BA719836EE35174
:10F41400D8A40FEF7AF011EF7AF012EF7AF082822B
:10F42400670E9E6FFF0E9F6FDEC0A0F0DFC0A1F0DD
:10F43400BEEC65F00BEF78F0E251D8A424EF7AF03B
:10F4440026EF7AF027EF7AF08390E151D8A42DEFDC
:10F454007AF02FEF7AF030EF7AF08392E351D8A468
:10F4640036EF7AF038EF7AF00BEF78F082920BEF08
:10F4740078F0FEEF7FF00001816B57C082F058C036
:10F4840083F059C084F05AC085F085BF4EEF7AF0FE
:10F494004CEF7AF062EF7AF0010E816F82C001F0D6
:10F4A40083C002F084C003F085C004F08AEC66F0E7
:10F4B40001C082F002C083F003C084F004C085F070
:10F4C400000E0001876F000E866FD8C071F0D9C09E
:10F4D40072F08151D8B471EF7AF073EF7AF087EF5C
:10F4E4007AF08151D8A479EF7AF07BEF7AF081EF4A
:10F4F4007AF0000E676F2B0E666F85EF7AF0000EC0
:10F50400676F2D0E666F66C081F082C001F083C004
:10F5140002F084C003F085C004F09FEC6CF0010499
:10F524000210D8A498EF7AF09AEF7AF0CDEF7AF03F
:10F5340000018151D8B4A1EF7AF0A3EF7AF0ACEFD7
:10F544007AF081C000F17107D8A07207000E876FAE
:10F55400010E866F000E8625016E010E8721026E54
:10F56400F20E036EFF0E046EA6EC66F00001FD0EB3
:10F574007127FF0E722355C013F056C014F0000E0D
:10F58400156E010E166E71C017F072C018F019ECEA
:10F5940069F036EF7FF082C001F083C002F084C0CE
:10F5A40003F085C004F09FEC6CF001500210D8A465
:10F5B400DEEF7AF0E0EF7AF000EF7BF000018151AA
:10F5C400D8B4E7EF7AF0E9EF7AF0F2EF7AF081C09D
:10F5D40000F17107D8A07207000E876F010E866FC5
:10F5E400000E8625016E010E8721026EF60E036E53
:10F5F400FF0E046EA6EC66F0B8EF7AF0000E000180
:10F60400886F000E896F800E8A6F3F0E8B6F000E1D
:10F61400706F000E6F6F82C001F083C002F084C06F
:10F6240003F085C004F0000E056E000E066E000E99
:10F63400076E000E086E4EEC6AF0D8B024EF7BF033
:10F6440026EF7BF005EF7CF033EF7BF073C088F09E
:10F6540074C089F075C08AF076C08BF000016F4BDE
:10F66400702B88C00FF089C010F08AC011F08BC0D5
:10F6740012F0000E136E000E146E200E156E410E65
:10F68400166E1DEC73F00FC073F010C074F011C04F
:10F6940075F012C076F000017351825D016E7451F1
:10F6A4008359026E75518459036E76518559046EDF
:10F6B400C0EC67F004BE6AEF7BF004500310021044
:10F6C40009E1020E015CD8A06AEF7BF06CEF7BF0DD
:10F6D40028EF7BF073C028F074C029F075C02AF0BD
:10F6E40076C02BF082C02CF083C02DF084C02EF0A5
:10F6F40085C02FF01EEC6DF0D8A083EF7BF085EF72
:10F704007BF028EF7BF000018851825D016E895106
:10F714008359026E8A518459036E8B518559046E44
:10F72400C0EC67F004BEA4EF7BF004500310021099
:10F7340007E1020E015CD8B0A2EF7BF0A4EF7BF0EE
:10F74400ECEF7BF088C082F089C083F08AC084F03B
:10F754008BC085F005EF7CF088C028F089C029F0C3
:10F764008AC02AF08BC02BF0000E2C6E000E2D6E7A
:10F77400200E2E6E410E2F6E55EC71F028C088F0CD
:10F7840029C089F02AC08AF02BC08BF000016F07D2
:10F79400D8A070078851825D016E89518359026E29
:10F7A4008A518459036E8B518559046EC0EC67F0FD
:10F7B40004BEEAEF7BF004500310021007E1020ECE
:10F7C400015CD8B0E8EF7BF0EAEF7BF0ECEF7BF084
:10F7D400A4EF7BF082C028F083C029F084C02AF013
:10F7E40085C02BF088C02CF089C02DF08AC02EF083
:10F7F4008BC02FF01EEC6DF0D8A003EF7CF005EF6A
:10F804007CF0AEEF7BF05BC069F069C06AF0000188
:10F81400DBBF0FEF7CF011EF7CF017EF7CF0DAC068
:10F8240062F0DBC063F01BEF7CF0000E636F060E2A
:10F83400626F62C06DF063C06EF06D4B6E2B660E2E
:10F844006A19D8A428EF7CF02AEF7CF04AEF7CF008
:10F8540070BF31EF7CF02FEF7CF03DEF7CF0000EB9
:10F86400886F000E896F800E8A6F3F0E8B6F000EBB
:10F87400706F000E6F6F670E6919D8B444EF7CF097
:10F8840046EF7CF04AEF7CF06F516D2770516E2388
:10F89400000E786F000E776F82C079F083C07AF023
:10F8A40084C07BF085C07CF088C073F089C074F09C
:10F8B4008AC075F08BC076F0DBEF7CF079C028F05D
:10F8C4007AC029F07BC02AF07CC02BF088C02CF0D1
:10F8D40089C02DF08AC02EF08BC02FF055EC71F04A
:10F8E40028C041F029C042F02AC043F02BC044F0A4
:10F8F400FDEC6EF041C07DF042C07EF043C07FF06D
:10F9040044C080F07DC001F07EC002F07FC003F0EF
:10F9140080C004F0A0EC6DF001C06BF002C06CF08C
:10F9240079C028F07AC029F07BC02AF07CC02BF083
:10F934007DC013F07EC014F07FC015F080C016F0B7
:10F9440088C00FF089C010F08AC011F08BC012F08B
:10F954001DEC73F00FC02CF010C02DF011C02EF070
:10F9640012C02FF024EC67F028C079F029C07AF097
:10F974002AC07BF02BC07CF088C028F089C029F015
:10F984008AC02AF08BC02BF0000E2C6E000E2D6E58
:10F99400200E2E6E410E2F6E55EC71F028C088F0AB
:10F9A40029C089F02AC08AF02BC08BF00001774B64
:10F9B400782B6D51775D7851800A5C6E6E51800AA8
:10F9C4005C58D8A0E8EF7CF0EAEF7CF060EF7CF0C4
:10F9D40088C00FF089C010F08AC011F08BC012F0FB
:10F9E400000E136E000E146EA00E156E400E166EF1
:10F9F4001DEC73F00FC07DF010C07EF011C07FF0DD
:10FA040012C080F079C028F07AC029F07BC02AF0B7
:10FA14007CC02BF07DC02CF07EC02DF07FC02EF07A
:10FA240080C02FF01EEC6DF0D8B01BEF7DF01DEF01
:10FA34007DF028EF7DF0000E00017D6F000E7E6FDB
:10FA4400000E7F6F000E806F51EF7DF079C001F0E2
:10FA54007AC002F07BC003F07CC004F07DC005F0E6
:10FA64007EC006F07FC007F080C008F04EEC6AF05C
:10FA7400D8A03FEF7DF041EF7DF051EF7DF0000124
:10FA84006BB147EF7DF049EF7DF051EF7DF0000E53
:10FA94007D6F000E7E6F000E7F6F000E806F82C040
:10FAA40001F083C002F084C003F085C004F07DC07F
:10FAB40005F07EC006F07FC007F080C008F030EC8F
:10FAC40075F001C079F002C07AF003C07BF004C085
:10FAD4007CF079C028F07AC029F07BC02AF07CC081
:10FAE4002BF0000E136E000E146E200E156E410ED8
:10FAF400166E73C00FF074C010F075C011F076C0AC
:10FB040012F01DEC73F00FC02CF010C02DF011C0DA
:10FB14002EF012C02FF01EEC6DF0D8A094EF7DF003
:10FB240096EF7DF0BFEF7DF000016F4B702B73C03B
:10FB34000FF074C010F075C011F076C012F0000E12
:10FB4400136E000E146E200E156E410E166E1DEC13
:10FB540073F00FC073F010C074F011C075F012C0D0
:10FB640076F0660E00016A19D8A4BBEF7DF0BDEFF4
:10FB74007DF0BFEF7DF06D4B6E2B73C088F074C0C9
:10FB840089F075C08AF076C08BF06FC060F070C0E9
:10FB940061F00001686B000E656F000E646F000E6B
:10FBA400786F000E776FBCEF7EF079C028F07AC0D2
:10FBB40029F07BC02AF07CC02BF088C02CF089C0CF
:10FBC4002DF08AC02EF08BC02FF055EC71F028C0B8
:10FBD40041F029C042F02AC043F02BC044F0FDECB0
:10FBE4006EF041C07DF042C07EF043C07FF044C05F
:10FBF40080F07DC001F07EC002F07FC003F080C0C1
:10FC040004F0A0EC6DF002BE13EF7EF0025007E1A9
:10FC14000A0E015CD8B011EF7EF013EF7EF023EFF3
:10FC24007EF07DC001F07EC002F07FC003F080C092
:10FC340004F0A0EC6DF001C06BF002C06CF028EF92
:10FC44007EF0000E00016C6F090E6B6F00016851AD
:10FC5400D8A42FEF7EF031EF7EF059EF7EF061BF34
:10FC640038EF7EF036EF7EF059EF7EF0000E8625F9
:10FC7400D96E010E8721DA6E2E0EDF6E864B872B2E
:10FC84007107D8A07207010E686F59EF7EF0000E5D
:10FC94008625D96E010E8721DA6E300EDF6E864B13
:10FCA400872B7107D8A072076407D8A06507645131
:10FCB4006511D8A460EF7EF062EF7EF049EF7EF02C
:10FCC400000E8625D96E010E8721DA6E6B51300F36
:10FCD400DF6E864B872B7107D8A0720779C028F096
:10FCE4007AC029F07BC02AF07CC02BF07DC013F0D1
:10FCF4007EC014F07FC015F080C016F088C00FF0ED
:10FD040089C010F08AC011F08BC012F01DEC73F0A2
:10FD14000FC02CF010C02DF011C02EF012C02FF027
:10FD240024EC67F028C079F029C07AF02AC07BF06F
:10FD34002BC07CF088C028F089C029F08AC02AF042
:10FD44008BC02BF0000E2C6E000E2D6E200E2E6E2E
:10FD5400410E2F6E55EC71F028C088F029C089F04F
:10FD64002AC08AF02BC08BF000016007D8A061077D
:10FD7400774B782B6D51775D7851800A5C6E6E51AC
:10FD8400800A5C58D8B0C9EF7EF0CBEF7EF0D9EF93
:10FD94007EF087BFD7EF7EF0875109E14B0E865D79
:10FDA400D8A0D7EF7EF0D9EF7EF0D7EF7DF0000E2C
:10FDB400786F4F0E776F000E7725D96E010E78217C
:10FDC400DA6EDF6A000E5C6E010E5D6E86515C5E5B
:10FDD40087515D5A77515C24016E78515D20026E23
:10FDE400000E036E010E046E86C005F087C006F097
:10FDF4006DEC67F000018651775D866F8751785905
:10FE0400876F8151D8A409EF7FF00CEF7FF0010ECA
:10FE14000DEF7FF0000E776F786B8151D8B415EF3A
:10FE24007FF017EF7FF022EF7FF08607D8A08707D7
:10FE3400000E8625D96E010E8721DA6E81C0DFFFA0
:10FE44007751715F7851725B55C013F056C014F04E
:10FE5400000E8625156E010E8721166E71C017F0EF
:10FE640072C018F019EC69F01200008AC9C8C9D828
:10FE7400C9F6D5FCD3BCC984D34AC952C95AC9628C
:10FE8400C96AC972C97AC994C92ED00D0A68656C49
:10FE940070206D656E75202D206B657962696E64C6
:10FEA40073200D0A277627205072696E74732062BE
:10FEB40061747465727920766F6C74616765206C07
:10FEC4006576656C200D0A276227205475726E735F
:10FED4002062757A7A6572206F6E200D0A27692771
:10FEE400205475726E73204C45442042616E6B2021
:10FEF40031206F6E200D0A276F27205475726E73A0
:10FF0400204C45442042616E6B2032206F6E200DE0
:10FF14000A277027205475726E73204C4544204282
:10FF2400616E6B20312C20322C20616E6420746849
:10FF3400652062757A7A6572206F6666200D0A0004
:10FF44004F626A65637420417070726F616368699F
:10FF54006E672E2050726573656E63653A20257551
:10FF64000D0A004F626A65637420436C6F736521E8
:10FF74002050726573656E63653A2025750D0A001D
:10FF8400414443207261773A2025752020426174F0
:10FF9400743A20252E326620560D0A004669726D89
:10FFA400776172652056657273696F6E20312E32E7
:10FFB4000D0A0042757A7A657220456E61626C653D
:10FFC400640D0A004C45442042414E4B2031204FE1
:10FFD4004E0D0A004C45442042414E4B2032204FE6
:10FFE4004E0D0A00416C6C206F66660D0A00696E46
:07FFF40066006E616E000063
:04FFFC008FEF65F02E
:020000040030CA
:0C000000FCFFFFFF9FFFFFDFFFFFFFFF83
:00000001FF
