:04000000FEEF7FF0A0
:1010000000D01B521B441B3813F2137E1B8E14C8D6
:101010001BC01BB81BB01BA81BA01B981B901B1848
:10102000174F626A65637420417070726F61636804
:10103000696E672E200D0A004669726D77617265D0
:101040002056657273696F6E20312E320D0A004F83
:10105000626A65637420436C6F736521200D0A001A
:01106000008F
:101062007FEC0DF00F011C9D1C9F380E4B6E48EC5F
:101072000DF0A30E4D6E550EE82EFED74D2EFCD769
:101082000000100E3F6E020E406E5A0E26EC0BF060
:10109200070E4D6E7D0EE82EFED74D2EFCD70000BA
:1010A2000C0E3F6E5A0EF1EC0AF02D6E0D0E3F6ED5
:1010B2005A0EF1EC0AF02C6E070E4D6E7D0EE82EE4
:1010C200FED74D2EFCD70000200E3F6E100E406E54
:1010D2005A0E26EC0BF0070E4D6E7D0EE82EFED753
:1010E2004D2EFCD700000C0E3F6E140E406E5A0EB1
:1010F20026EC0BF0200E3F6E180E406E5A0E26ECB8
:101102000BF08290230E3F6E5A0EF1EC0AF0346E11
:10111200A30E4D6E550EE82EFED74D2EFCD70000C5
:101122003A0E3F6E5A0EF1EC0AF0336E3B0E3F6EF2
:101132005A0EF1EC0AF0326E110E4D6E3A0EE82E96
:10114200FED74D2EFCD700D03C0E3F6E5A0EF1EC6E
:101152000AF02F6E3D0E3F6E5A0EF1EC0AF02E6E23
:1011620032504D6E3350286E4DC029F02E504D6EC8
:101172002F50266E4DC027F0200E295CD8A0C4EF58
:1011820008F0C6EF08F0CAEF08F0000E296E000E54
:10119200286E400E275CD8A0D1EF08F0D3EF08F0FC
:1011A200D7EF08F0000E276E000E266E295009E1D7
:1011B200C00E285CD8A0E0EF08F0E2EF08F0F5EFEF
:1011C20008F02804050E2958D8B0EAEF08F0ECEF31
:1011D20008F0F5EF08F0838083828292210E4B6E35
:1011E20048EC0DF083EF08F02804050E2958D8A02A
:1011F200FDEF08F0FFEF08F030EF09F07D0E295CFB
:10120200D8B006EF09F008EF09F030EF09F083B02B
:101212000DEF09F010EF09F0010E11EF09F0000EC9
:10122200FF0A4D6E83504D18FE0B4D18836E83B22C
:101232001DEF09F020EF09F0010E21EF09F0000E79
:10124200FF0A4D6E4D4683504D18FD0B4D18836EAF
:1012520082924F0E4B6E48EC0DF083EF08F08390B4
:101262008392829283EF08F0FEEF7FF03B503C10B6
:10127200D8B43EEF09F040EF09F049EF09F03B50D6
:101282003C10D8A447EF09F049EF09F04EEF09F0FE
:1012920039501CEC0DF09BEF09F020EE09F03B50A9
:1012A200D9263C50DA22DE50DE10D8B45BEF09F0CA
:1012B2005DEF09F078EF09F020EE09F03B50D926F6
:1012C2003C50DA2210EE02F03B50E1263C50E22282
:1012D200DE50E65CE650800A416EDE50800A4158DC
:1012E200D8B076EF09F078EF09F09BEF09F020EE25
:1012F20002F03B50D9263C50DA22DECF3DF0DDCF62
:101302003EF03BC0D9FF3CC0DAFFDECF3FF0DDCF7D
:1013120040F03D503F24D96E3E504020DA6E39C035
:10132200DFFF20EE02F03B50D9263C50DA22DE2AC3
:10133200000EDD2212006BEC0DF00009D8B4A4EF10
:1013420009F0A6EF09F0DEEF09F0B4EF09F0E4ECE2
:101352000DF0F8EF09F0E0EC0DF0F8EF09F0D8EC41
:101362000DF0F8EF09F010C03EF002D8C2EF09F01C
:101372000500FA6E0750FD6E0850FE6EFF6AFA50C5
:101382001200386E396A3950000AD8B4CBEF09F02E
:10139200B0EF09F03850010AD8B4B0EF09F0030AEF
:1013A200D8B4A8EF09F0010AD8B4ACEF09F0070AE3
:1013B200D8B4B0EF09F0B0EF09F01D9020EE18F0AC
:1013C200DF50DF2AD96EDA6ADF50ECEC0DF0190635
:1013D200D8A01A0619501A10D8A4F2EF09F0F4EFA7
:1013E20009F0F7EF09F0060EF8EF09F0030E12000C
:1013F2001850D96EDA6AFFEC0DF0DF6E182A190662
:10140200D8A01A0619501A10D8B40AEF0AF00CEF35
:101412000AF011EF0AF0F3EC0DF0050E46EF0AF0B8
:101422001D861CEF0AF0CCEC0DF046EF0AF0D0EC72
:101432000DF046EF0AF00DC03EF002D82AEF0AF096
:101442000500FA6E0150FD6E0250FE6EFF6AFA5000
:101452001200376E386A3850000AD8B433EF0AF0F7
:1014620018EF0AF03750010AD8B418EF0AF0030A4D
:10147200D8B414EF0AF0010AD8B414EF0AF0070A3C
:10148200D8B418EF0AF018EF0AF012001D8657EFD1
:101492000AF0DCEC0DF081EF0AF0F0EC0DF0030E37
:1014A20081EF0AF0D8EC0DF081EF0AF00DC03EF0AA
:1014B20002D865EF0AF00500FA6E0150FD6E025087
:1014C200FE6EFF6AFA501200376E386A3850000A10
:1014D200D8B46EEF0AF053EF0AF03750010AD8B4CD
:1014E20053EF0AF0030AD8B44AEF0AF0010AD8B45B
:1014F2004AEF0AF0070AD8B44EEF0AF053EF0AF0A7
:1015020012004450D96EDA6ADFCFF6FF100EF76E82
:10151200F86A0800F550250AD8A492EF0AF094EF71
:101522000AF0A6EF0AF04450D96EDA6ADF2A000EFA
:10153200236E000E226E22C02AF0246825684450D1
:10154200D96EDA6ADF2ABAEF0AF04450D96EDA6A43
:10155200DFCFF6FF100EF76EF86A0800F550396E0D
:101562003A6A42C03BF043C03CF037EC09F0A0EFCE
:101572000AF01200376E010E386E1DB4C3EF0AF086
:10158200C5EF0AF0EFEF0AF037C017F01D921D8485
:101592001D900E0E1B6E010E166EF40E156E1D863C
:1015A2000A0E016E1C0E026E0D6A0A0E036E1C0EEE
:1015B200046E0E6A0A0E056E1C0E066E0F6A0A0E85
:1015C200076E1C0E086E106A060E096E1C0E0A6E5D
:1015D200116AFCEC0DF0FDEC0CF0386A3850120088
:1015E200406E416A4050BBEC0AF00009D8B4FCEFEF
:1015F2000AF0FEEF0AF0F3EF0AF0B20E3B6E190E9C
:101602003C6E410E3D6E75EC0DF03F0E376E000ED6
:10161200396E010E386E2BEC0DF0000E3B6E000E93
:101622003C6E000E3D6E000E3E6E61EC0DF0C4ECA1
:101632000DF08CEC0CF0E806D8B422EF0BF024EF9E
:101642000BF01AEF0BF041501200416E4150BBEC0F
:101652000AF00009D8B430EF0BF032EF0BF027EFAD
:101662000BF06A0E3B6E190E3C6E400E3D6E75EC31
:101672000DF03F0E376E000E396E010E386E2BECF8
:101682000DF0000E3B6E000E3C6E000E3D6E000E25
:101692003E6E61EC0DF0C4EC0DF08CEC0CF0E80643
:1016A200D8B456EF0BF058EF0BF04EEF0BF01200E0
:1016B200FCEC0DF01DA060EF0BF062EF0BF06EEF93
:1016C2000BF06BEC0DF00009D8B46AEF0BF06CEF85
:1016D2000BF06EEF0BF00F0E1B6E1B50020DF35052
:1016E200010F3A6E3AC0F6FF100EF76EF86A090063
:1016F200F5CF3BF00900F5CF3CF002D88AEF0BF0B2
:101702000500FA6E3B50FD6E3C50FE6EFF6AFA50C9
:1017120012001B6E12001D90020E1C6E99EF0BF050
:10172200DCEC0DF0BBEF0BF0D8EC0DF0BBEF0BF0E7
:101732000FC03EF002D8A7EF0BF00500FA6E05507D
:10174200FD6E0650FE6EFF6AFA501200376E386A5E
:101752003850000AD8B4B0EF0BF095EF0BF03750C9
:10176200020AD8B491EF0BF0010AD8B491EF0BF052
:1017720095EF0BF012003A6E37503810D8B4C4EF20
:101782000BF0C6EF0BF0D8EF0BF03A50020DF3500E
:10179200010FD96EDA6A37C0DEFF38C0DDFF3A507A
:1017A2000D0FD96EDA6A39C0DFFFE7EF0BF03A505E
:1017B200020DF350010FD96EDA6A0A0EDE6E1C0EAC
:1017C200DD6E3A500D0FD96EDA6ADF6A1200826A54
:1017D200836A846AFC0E876EFC0E886EBF0E896E69
:1017E200670E0F011C6F14690C69286B136B0B6B6E
:1017F2001B6B0A6B126B1A6B09691169196908690B
:1018020010691869080E256F140E0E01B36F170EBA
:10181200B06F0F0EF56F100EF66F090EF86F130E04
:10182200B26F120048C04AF021EF0CF046C042F0FD
:1018320047C043F04A0E446E49C045F082EC0AF0BC
:101842004AC0F6FF100EF76EF86A0800F55000095C
:10185200D8A42EEF0CF030EF0CF017EF0CF0000EC6
:10186200476E000E466E12003D6E010E3E6E1DB2B8
:101872003DEF0CF03FEF0CF053EF0CF01D823E6A8F
:101882003D50D8B447EF0CF049EF0CF04DEF0CF09F
:10189200010E1B6E4FEF0CF0020E1B6E0BEC0EF0E6
:1018A2003AEC0DF03E501200080E9E6E900E9C6EA9
:1018B200240E9D6E080E9A6E9B6A000E376E000E05
:1018C200386EB5EC0DF0000E376E000E386EB0ECCF
:1018D2000DF0000E376E000E386EBAEC0DF0366A5F
:1018E20012003E50D96EDA6A020ED926DF50376EE8
:1018F2003E50D96EDA6ADECF38F0DDCF39F02BEC0C
:101902000DF0000E3B6E000E3C6E000E3D6E75EC4F
:101912000DF0020E1200010E376E1DB293EF0CF0A5
:1019220095EF0CF09FEF0CF01D941768FCEC0DF096
:10193200F9EC0DF00DEC0EF01CC037F03750120030
:10194200376A0E01C8A9A8EF0CF0AAEF0CF0B3EFAA
:101952000CF09DAAAFEF0CF0B1EF0CF0B3EF0CF06E
:10196200010E376E375012003EC037F0000E396E4E
:10197200010E386E2BEC0DF0000E3B6E000E3C6E2D
:10198200000E3D6E75EC0DF0040E12003EC037F0F5
:10199200000E396E020E386E2BEC0DF0000E3B6E0F
:1019A200000E3C6E000E3D6E75EC0DF0020E120044
:1019B2003EC037F0000E396E010E386E2BEC0DF082
:1019C200000E3B6E000E3C6E000E3D6E75EC0DF08F
:1019D200020E12003EC037F0000E396E020E386E53
:1019E2002BEC0DF0000E3B6E000E3C6E000E3D6EB9
:1019F20075EC0DF0040E120095BA02EF0DF004EF33
:101A02000DF00CEF0DF0800E946E080E956E966A36
:101A1200030E926E958A120000EE60F0200EEE6ABE
:101A2200E806FDE100EE01F0360EEE6AE806FDE1A1
:101A3200000131EF08F0386EA1EC0CF00009D8B4C7
:101A420025EF0DF027EF0DF01DEF0DF0385055EC9E
:101A52000DF012001DA630EF0DF032EF0DF039EF50
:101A62000DF037C018F038C019F039C01AF01D96C1
:101A7200120040EF0DF091EC0DF059EC0BF01DB29D
:101A820045EF0DF047EF0DF03CEF0DF012004C0E5C
:101A92004C6E000E466E000E476E4BC048F04C0E68
:101AA200496E13EC0CF01200376E0E01C8A95CEF00
:101AB2000DF05EEF0DF056EF0DF037C099FF1200FA
:101AC2003BC037F03CC038F03DC039F0020EBCECF0
:101AD2000BF0120096BC70EF0DF073EF0DF0010EDB
:101AE20074EF0DF0000E12003BC037F03CC038F02E
:101AF2003DC039F0000EBCEC0BF012009AEC0DF078
:101B0200E8EC0BF088EC0DF055EC0CF01200600ED6
:101B12000E01D36FD56BD76B020ED96FD86B120043
:101B22000E01C8A197EF0DF099EF0DF091EF0DF0B6
:101B320012000E01DC6BDD6BDE6BDF6BE06BE16BC9
:101B420012001D8017501724ECEC0DF0030E12004A
:101B52001D80D8801734ECEC0DF0050E120037C052
:101B620051F038C052F0120037C053F038C054F070
:101B7200120037C04FF038C050F012001D9001EC37
:101B82000EF0040E1200000E35EC0CF012001D9245
:101B92001C6A0E0E1200F6EC0DF0090E1200F6ECA5
:101BA2000DF00A0E1200F3EC0DF0050E120007EC18
:101BB2000EF0000E120009EC0EF0010E120009ECFC
:101BC2000EF0020E120009EC0EF0010E12001D9230
:101BD2001C6A0E0E1200376E37C091FF12000E0102
:101BE200C8811200969A96881200968A96881200E8
:101BF2000E01C09112000E01C89112009150120004
:101C020096861200050E1200010E12009684120032
:0C1C12009682120096801200959A120033
:04FFFC000DEF0DF008
:020000040030CA
:0C000000FCFFFFFF9FFFFFDFFFFFFFFF83
:00000001FF
