:04000000FEEF7FF0A0
:1010000000E61968195A192612E01294197C13DEA9
:1010100019D619CE19C619BE19B619AE19A6199442
:10102000150061EC0CF0A30E3F6E550EE82EFED7B6
:101030003F2EFCD70000100E3C6E020E3D6E5A0E85
:1010400064EC0AF0070E3F6E7D0EE82EFED73F2EB1
:10105000FCD700000C0E3C6E5A0E2FEC0AF02A6EE4
:101060000D0E3C6E5A0E2FEC0AF0296E070E3F6EE5
:101070007D0EE82EFED73F2EFCD70000200E3C6EE2
:10108000100E3D6E5A0E64EC0AF0070E3F6E7D0E98
:10109000E82EFED73F2EFCD700000C0E3C6E140E3F
:1010A0003D6E5A0E64EC0AF0200E3C6E180E3D6E3A
:1010B0005A0E64EC0AF0829083860C0EA8EC0BF0BA
:1010C00034C022F035C023F0230E3C6E5A0E2FECB4
:1010D0000AF0316EA30E3F6E550EE82EFED73F2E5E
:1010E000FCD700003A0E3C6E5A0E2FEC0AF0306E20
:1010F0003B0E3C6E5A0E2FEC0AF02F6E110E3F6E17
:101100003A0EE82EFED73F2EFCD700D03C0E3C6EA8
:101110005A0E2FEC0AF02C6E3D0E3C6E5A0E2FEC40
:101120000AF02B6E2F50406E3F6A30503F24266EDF
:10113000000E4020276E2B50406E3F6A2C503F24FB
:10114000246E000E4020256E100E275CD8A0ABEF59
:1011500008F0ADEF08F0B1EF08F0000E276E000EBA
:10116000266E7D0E255CD8A0B8EF08F0BAEF08F027
:10117000BEEF08F0000E256E000E246E275009E128
:10118000C00E265CD8A0C7EF08F0C9EF08F0D7EF73
:1011900008F02604050E2758D8B0D1EF08F0D3EF99
:1011A00008F0D7EF08F0838083825CEF08F0260414
:1011B000050E2758D8A0DFEF08F0E1EF08F00DEF9B
:1011C00009F07D0E275CD8B0E8EF08F0EAEF08F0F0
:1011D0000DEF09F083B0EFEF08F0F2EF08F0010E29
:1011E000F3EF08F0000EFF0A3F6E83503F18FE0B2E
:1011F0003F18836E83B2FFEF08F002EF09F0010E93
:1012000003EF09F0000EFF0A3F6E3F4683503F1880
:10121000FD0B3F18836E5CEF08F0839083925CEFC8
:1012200008F0FEEF7FF076EC0CF00009D8B41BEF6D
:1012300009F01DEF09F055EF09F02BEF09F0EFEC85
:101240000CF06FEF09F0EBEC0CF06FEF09F0E3EC52
:101250000CF06FEF09F010C03BF002D839EF09F045
:101260000500FA6E0750FD6E0850FE6EFF6AFA50D8
:101270001200356E366A3650000AD8B442EF09F0D3
:1012800027EF09F03550010AD8B427EF09F0030A17
:10129000D8B41FEF09F0010AD8B423EF09F0070A08
:1012A000D8B427EF09F027EF09F01D9020EE18F0D1
:1012B000DF50DF2AD96EDA6ADF50F7EC0CF019063E
:1012C000D8A01A0619501A10D8A469EF09F06BEFCC
:1012D00009F06EEF09F0060E6FEF09F0030E120031
:1012E0001850D96EDA6A0AEC0DF0DF6E182A19066A
:1012F000D8A01A0619501A10D8B481EF09F083EF5C
:1013000009F088EF09F0FEEC0CF0050EBDEF09F0D6
:101310001D8693EF09F0D7EC0CF0BDEF09F0DBEC84
:101320000CF0BDEF09F00DC03BF002D8A1EF09F0C1
:101330000500FA6E0150FD6E0250FE6EFF6AFA5013
:101340001200346E356A3550000AD8B4AAEF09F09D
:101350008FEF09F03450010AD8B48FEF09F0030A77
:10136000D8B48BEF09F0010AD8B48BEF09F0070A63
:10137000D8B48FEF09F08FEF09F012001D86CEEF81
:1013800009F0E7EC0CF0F8EF09F0FBEC0CF0030EC1
:10139000F8EF09F0E3EC0CF0F8EF09F00DC03BF0CA
:1013A00002D8DCEF09F00500FA6E0150FD6E025024
:1013B000FE6EFF6AFA501200346E356A3550000A2C
:1013C000D8B4E5EF09F0CAEF09F03450010AD8B4F7
:1013D000CAEF09F0030AD8B4C1EF09F0010AD8B482
:1013E000C1EF09F0070AD8B4C5EF09F0CAEF09F058
:1013F0001200346E010E356E1DB401EF0AF003EFDA
:101400000AF02DEF0AF034C017F01D921D841D90D4
:101410000E0E1B6E010E166EF40E156E1D86200E3E
:10142000016E1A0E026E0D6A200E036E1A0E046E05
:101430000E6A200E056E1A0E066E0F6A200E076EDB
:101440001A0E086E106A1C0E096E1A0E0A6E116AC8
:1014500007EC0DF034EC0CF0356A355012003D6E9F
:101460003E6A3D50F9EC09F00009D8B43AEF0AF0B1
:101470003CEF0AF031EF0AF0200E386E180E396E8C
:101480003E0E3A6E80EC0CF03C0E346E000E366E62
:10149000010E356E44EC0CF0000E386E000E396E05
:1014A000000E3A6E000E3B6E6CEC0CF0CFEC0CF0C4
:1014B000D7EC0BF0E806D8B460EF0AF062EF0AF060
:1014C00058EF0AF03E5012003E6E3E50F9EC09F023
:1014D0000009D8B46EEF0AF070EF0AF065EF0AF079
:1014E000D80E386E170E396E3D0E3A6E80EC0CF049
:1014F0003C0E346E000E366E010E356E44EC0CF070
:10150000000E386E000E396E000E3A6E000E3B6E05
:101510006CEC0CF0CFEC0CF0D7EC0BF0E806D8B488
:1015200094EF0AF096EF0AF08CEF0AF0120007EC45
:101530000DF01DA09EEF0AF0A0EF0AF0ACEF0AF04C
:1015400076EC0CF00009D8B4A8EF0AF0AAEF0AF084
:10155000ACEF0AF00F0E1B6E1B50020DF350010F83
:10156000376E37C0F6FF100EF76EF86A0900F5CF38
:1015700038F00900F5CF39F002D8C8EF0AF00500BD
:10158000FA6E3850FD6E3950FE6EFF6AFA50120046
:101590001B6E12001D90020E1C6ED7EF0AF0E7ECD6
:1015A0000CF0F9EF0AF0E3EC0CF0F9EF0AF00FC0E1
:1015B0003BF002D8E5EF0AF00500FA6E0550FD6E2B
:1015C0000650FE6EFF6AFA501200346E356A3550CE
:1015D000000AD8B4EEEF0AF0D3EF0AF03450020A52
:1015E000D8B4CFEF0AF0010AD8B4CFEF0AF0D3EFA6
:1015F0000AF01200376E34503510D8B402EF0BF0F9
:1016000004EF0BF016EF0BF03750020DF350010F03
:10161000D96EDA6A34C0DEFF35C0DDFF37500D0FFA
:10162000D96EDA6A36C0DFFF25EF0BF03750020DB6
:10163000F350010FD96EDA6A200EDE6E1A0EDD6EDF
:1016400037500D0FD96EDA6ADF6A1200826A836A38
:10165000846AFC0E876EF40E886EBF0E896E670E6C
:101660000F011C6F14690C69286B136B0B6B1B6BE0
:101670000A6B126B1A6B096911691969086910699B
:101680001869080E256F140E0E01B36F170EB06F98
:101690000F0EF56F100EF66F090EF86F130EB26F86
:1016A00012003A6E010E3B6E1DB259EF0BF05BEF6C
:1016B0000BF06FEF0BF01D823B6A3A50D8B463EF2A
:1016C0000BF065EF0BF069EF0BF0010E1B6E6BEF8B
:1016D0000BF0020E1B6E16EC0DF053EC0CF03B50B1
:1016E0001200080E9E6E900E9C6E200E9D6E0C0ECB
:1016F0009A6E9B6A000E346E000E356EC0EC0CF0D4
:10170000000E346E000E356EBBEC0CF0000E346E25
:10171000000E356EC5EC0CF0336A12003B50D96EEA
:10172000DA6A020ED926DF50346E3B50D96EDA6A7F
:10173000DECF35F0DDCF36F044EC0CF0000E386E25
:10174000000E396E000E3A6E80EC0CF0020E1200A4
:10175000386E38C05AFF0F015B8F5B9D5B815BB1B8
:10176000B4EF0BF0B6EF0BF0AFEF0BF05F51376E4D
:10177000366A5E513624346E000E3720356E120004
:10178000656A666A676A686A636A646A616A0F01A1
:101790005A6B586B596B546B100E556F566B606AD1
:1017A000536B516B526B840E5B6F576B1200010EC3
:1017B000346E1DB2DEEF0BF0E0EF0BF0EAEF0BF052
:1017C0001D94176807EC0DF004EC0DF018EC0DF00B
:1017D0001CC034F0345012003BC034F0000E366EA2
:1017E000010E356E44EC0CF0000E386E000E396EB2
:1017F000000E3A6E80EC0CF0040E12003BC034F088
:10180000000E366E020E356E44EC0CF0000E386E93
:10181000000E396E000E3A6E80EC0CF0020E1200D3
:101820003BC034F0000E366E010E356E44EC0CF009
:10183000000E386E000E396E000E3A6E80EC0CF021
:10184000020E12003BC034F0000E366E020E356EF2
:1018500044EC0CF0000E386E000E396E000E3A6E3D
:1018600080EC0CF0040E120095BA39EF0CF03BEF4F
:101870000CF043EF0CF0800E946E080E956E966A95
:10188000030E926E958A12001DA649EF0CF04BEFE5
:101890000CF052EF0CF034C018F035C019F036C01F
:1018A0001AF01D96120059EF0CF09CEC0CF097EC1E
:1018B0000AF01DB25EEF0CF060EF0CF055EF0CF08B
:1018C0001200A5EC0CF0C0EC0BF026EC0BF093EC46
:1018D0000CF071EC0BF0120038C034F039C035F068
:1018E0003AC036F0020EFAEC0AF0120096BC7BEF1A
:1018F0000CF07EEF0CF0010E7FEF0CF0000E1200EA
:1019000038C034F039C035F03AC036F0000EFAEC89
:101910000AF0120000EE01F0330EEE6AE806FDE177
:10192000000111EF08F0700E0E01D36FD56BD76B6D
:10193000020ED96FD86B12000E01C8A1A2EF0CF0F5
:10194000A4EF0CF09CEF0CF012000E01DC6BDD6BD1
:10195000DE6BDF6BE06BE16B12001D80175017240C
:10196000F7EC0CF0030E12001D80D8801734F7EC52
:101970000CF0050E120034C043F035C044F01200E4
:1019800034C045F035C046F0120034C041F035C0D7
:1019900042F012001D900CEC0DF0040E1200000E2F
:1019A00051EC0BF012001D921C6A0E0E120001EC9D
:1019B0000DF0090E120001EC0DF00A0E1200FEEC03
:1019C0000CF0050E120012EC0DF0000E120014ECDB
:1019D0000DF0010E120014EC0DF0020E120014ECCA
:1019E0000DF0010E12001D921C6A0E0E1200346ED4
:1019F00034C091FF12000E01C8811200969A968899
:101A00001200968A968812000E01C09112000E01F3
:101A1000C89112009150120096861200050E120015
:101A2000010E120096841200968212009680120017
:041A3000959A120071
:04FFFC008AEF0CF08C
:020000040030CA
:0C000000FCFFFFFF9FFFFFDFFFFFFFFF83
:00000001FF
