:04000000FEEF7FF0A0
:10100000000A43C642B64228363A38D642DA384C4D
:101010004344433C4334432C4324431C4300434454
:101020003C414443207261773A202575202042617B
:1010300074743A20252E326620560D0A004F626ADB
:1010400065637420417070726F616368696E672EAA
:10105000200D0A004669726D7761726520566572CF
:1010600073696F6E20312E320D0A00507265736500
:101070006E63652056616C75653A2025750D0A0012
:101080004F626A65637420436C6F736521200D0A9B
:1010900000696E66006E616E00000001816B57C0D2
:1010A00082F058C083F059C084F05AC085F085BFE3
:1010B0005EEF08F05CEF08F072EF08F0010E816F50
:1010C00082C001F083C002F084C003F085C004F048
:1010D000C3EC1FF001C082F002C083F003C084F0B3
:1010E00004C085F0000E0001876F000E866FE1C01E
:1010F00071F0E2C072F08151D8B481EF08F083EF53
:1011000008F097EF08F08151D8A489EF08F08BEF31
:1011100008F091EF08F0000E676F2B0E666F95EFE9
:1011200008F0000E676F2D0E666F66C081F082C0FA
:1011300001F083C002F084C003F085C004F051ECDC
:1011400019F001040210D8A4A8EF08F0AAEF08F0E3
:10115000DBEF08F000018151D8B4B1EF08F0B3EF34
:1011600008F0BCEF08F081C000F17107D8A0720749
:10117000000E876F010E866F000E8625016E010E30
:101180008721026E910E036E87EC1FF00001FD0EA9
:101190007127FF0E722355C013F056C014F0000ED5
:1011A000156E010E166E71C017F072C018F0E3ECE8
:1011B0001CF042EF0DF082C001F083C002F084C049
:1011C00003F085C004F051EC19F001500210D8A4CE
:1011D000ECEF08F0EEEF08F00CEF09F000018151A0
:1011E000D8B4F5EF08F0F7EF08F000EF09F081C090
:1011F00000F17107D8A07207000E876F010E866F8D
:10120000000E8625016E010E8721026E950E036E7B
:1012100087EC1FF0C6EF08F0000E0001886F000E8B
:10122000896F800E8A6F3F0E8B6F000E706F000EFD
:101230006F6F82C001F083C002F084C003F085C0EC
:1012400004F0000E056E000E066E000E076E000E16
:10125000086E74EC1BF0D8B030EF09F032EF09F0F3
:1012600011EF0AF03FEF09F073C088F074C089F005
:1012700075C08AF076C08BF000016F4B702B88C070
:101280000FF089C010F08AC011F08BC012F0000E70
:10129000136E000E146E200E156E410E166E9EEC2F
:1012A0000FF00FC073F010C074F011C075F012C0D1
:1012B00076F000017351825D016E74518359026EA4
:1012C00075518459036E76518559046E7FEC1EF07A
:1012D00004BE76EF09F004500310021009E1020E7B
:1012E000015CD8A076EF09F078EF09F034EF09F04F
:1012F00073C028F074C029F075C02AF076C02BF0B6
:1013000082C02CF083C02DF084C02EF085C02FF059
:10131000CFEC18F0D8A08FEF09F091EF09F034EF7F
:1013200009F000018851825D016E89518359026E76
:101330008A518459036E8B518559046E7FEC1EF0DF
:1013400004BEB0EF09F004500310021007E1020ED2
:10135000015CD8B0AEEF09F0B0EF09F0F8EF09F09A
:1013600088C082F089C083F08AC084F08BC085F089
:1013700011EF0AF088C028F089C029F08AC02AF04D
:101380008BC02BF0000E2C6E000E2D6E200E2E6EDC
:10139000410E2F6EB1EC11F028C088F029C089F001
:1013A0002AC08AF02BC08BF000016F07D8A070070D
:1013B0008851825D016E89518359026E8A51845928
:1013C000036E8B518559046E7FEC1EF004BEF6EF60
:1013D00009F004500310021007E1020E015CD8B0BE
:1013E000F4EF09F0F6EF09F0F8EF09F0B0EF09F0CB
:1013F00082C028F083C029F084C02AF085C02BF079
:1014000088C02CF089C02DF08AC02EF08BC02FF040
:10141000CFEC18F0D8A00FEF0AF011EF0AF0BAEFF6
:1014200009F05BC069F069C06AF00001E4BF1BEF1E
:101430000AF01DEF0AF023EF0AF0E3C062F0E4C007
:1014400063F027EF0AF0000E636F060E626F62C052
:101450006DF063C06EF06D4B6E2B660E6A19D8A4EA
:1014600034EF0AF036EF0AF056EF0AF070BF3DEFA6
:101470000AF03BEF0AF049EF0AF0000E886F000E09
:10148000896F800E8A6F3F0E8B6F000E706F000E9B
:101490006F6F670E6919D8B450EF0AF052EF0AF077
:1014A00056EF0AF06F516D2770516E23000E786F62
:1014B000000E776F82C079F083C07AF084C07BF031
:1014C00085C07CF088C073F089C074F08AC075F064
:1014D0008BC076F0E7EF0AF079C028F07AC029F0E7
:1014E0007BC02AF07CC02BF088C02CF089C02DF086
:1014F0008AC02EF08BC02FF0B1EC11F028C041F063
:1015000029C042F02AC043F02BC044F069EC16F029
:1015100041C07DF042C07EF043C07FF044C080F007
:101520007DC001F07EC002F07FC003F080C004F0F7
:101530004CEC18F001C06BF002C06CF079C028F0E0
:101540007AC029F07BC02AF07CC02BF07DC013F05C
:101550007EC014F07FC015F080C016F088C00FF078
:1015600089C010F08AC011F08BC012F09EEC0FF011
:101570000FC02CF010C02DF011C02EF012C02FF0B3
:1015800021EC1FF028C079F029C07AF02AC07BF046
:101590002BC07CF088C028F089C029F08AC02AF0CE
:1015A0008BC02BF0000E2C6E000E2D6E200E2E6EBA
:1015B000410E2F6EB1EC11F028C088F029C089F0DF
:1015C0002AC08AF02BC08BF00001774B782B6D512D
:1015D000775D7851800A5C6E6E51800A5C58D8A0A5
:1015E000F4EF0AF0F6EF0AF06CEF0AF088C00FF0A3
:1015F00089C010F08AC011F08BC012F0000E136E7B
:10160000000E146EA00E156E400E166E9EEC0FF0BE
:101610000FC07DF010C07EF011C07FF012C080F0CE
:1016200079C028F07AC029F07BC02AF07CC02BF06A
:101630007DC02CF07EC02DF07FC02EF080C02FF03A
:10164000CFEC18F0D8B027EF0BF029EF0BF034EF08
:101650000BF0000E00017D6F000E7E6F000E7F6F9D
:10166000000E806F5DEF0BF079C001F07AC002F0E0
:101670007BC003F07CC004F07DC005F07EC006F0A6
:101680007FC007F080C008F074EC1BF0D8A04BEFCF
:101690000BF04DEF0BF05DEF0BF000016BB153EF72
:1016A0000BF055EF0BF05DEF0BF0000E7D6F000EB1
:1016B0007E6F000E7F6F000E806F82C001F083C0CE
:1016C00002F084C003F085C004F07DC005F07EC048
:1016D00006F07FC007F080C008F043EC0DF001C0B9
:1016E00079F002C07AF003C07BF004C07CF079C0CE
:1016F00028F07AC029F07BC02AF07CC02BF0000EC5
:10170000136E000E146E200E156E410E166E73C011
:101710000FF074C010F075C011F076C012F09EEC9E
:101720000FF00FC02CF010C02DF011C02EF012C021
:101730002FF0CFEC18F0D8A0A0EF0BF0A2EF0BF039
:10174000CBEF0BF000016F4B702B73C00FF074C028
:1017500010F075C011F076C012F0000E136E000E7E
:10176000146E200E156E410E166E9EEC0FF00FC01B
:1017700073F010C074F011C075F012C076F0660EF0
:1017800000016A19D8A4C7EF0BF0C9EF0BF0CBEF3B
:101790000BF06D4B6E2B73C088F074C089F075C070
:1017A0008AF076C08BF06FC060F070C061F000010D
:1017B000686B000E656F000E646F000E786F000E90
:1017C000776FC8EF0CF079C028F07AC029F07BC0A1
:1017D0002AF07CC02BF088C02CF089C02DF08AC084
:1017E0002EF08BC02FF0B1EC11F028C041F029C0D1
:1017F00042F02AC043F02BC044F069EC16F041C01F
:101800007DF042C07EF043C07FF044C080F07DC0D8
:1018100001F07EC002F07FC003F080C004F04CEC09
:1018200018F002BE1FEF0CF0025007E10A0E015C37
:10183000D8B01DEF0CF01FEF0CF02FEF0CF07DC0B7
:1018400001F07EC002F07FC003F080C004F04CECD9
:1018500018F001C06BF002C06CF034EF0CF0000E19
:1018600000016C6F090E6B6F00016851D8A43BEF4B
:101870000CF03DEF0CF065EF0CF061BF44EF0CF0A5
:1018800042EF0CF065EF0CF0000E8625D96E010ECC
:101890008721DA6E2E0EDF6E864B872B7107D8A05C
:1018A0007207010E686F65EF0CF0000E8625D96E89
:1018B000010E8721DA6E300EDF6E864B872B7107A3
:1018C000D8A072076407D8A0650764516511D8A431
:1018D0006CEF0CF06EEF0CF055EF0CF0000E86255F
:1018E000D96E010E8721DA6E6B51300FDF6E864B99
:1018F000872B7107D8A0720779C028F07AC029F029
:101900007BC02AF07CC02BF07DC013F07EC014F0A9
:101910007FC015F080C016F088C00FF089C010F0AD
:101920008AC011F08BC012F09EEC0FF00FC02CF0AB
:1019300010C02DF011C02EF012C02FF021EC1FF0BE
:1019400028C079F029C07AF02AC07BF02BC07CF047
:1019500088C028F089C029F08AC02AF08BC02BF0FB
:10196000000E2C6E000E2D6E200E2E6E410E2F6E70
:10197000B1EC11F028C088F029C089F02AC08AF0A3
:101980002BC08BF000016007D8A06107774B782B44
:101990006D51775D7851800A5C6E6E51800A5C589B
:1019A000D8B0D5EF0CF0D7EF0CF0E5EF0CF087BF17
:1019B000E3EF0CF0875109E14B0E865DD8A0E3EF11
:1019C0000CF0E5EF0CF0E3EF0BF0000E786F4F0E2C
:1019D000776F000E7725D96E010E7821DA6EDF6AF7
:1019E000000E5C6E010E5D6E86515C5E87515D5A25
:1019F00077515C24016E78515D20026E000E036EFB
:101A0000010E046E86C005F087C006F0D5EC1EF00E
:101A100000018651775D866F87517859876F8151B4
:101A2000D8A415EF0DF018EF0DF0010E19EF0DF021
:101A3000000E776F786B8151D8B421EF0DF023EF52
:101A40000DF02EEF0DF08607D8A08707000E862533
:101A5000D96E010E8721DA6E81C0DFFF7751715F89
:101A60007851725B55C013F056C014F0000E8625F5
:101A7000156E010E8721166E71C017F072C018F036
:101A8000E3EC1CF012000450800B0D6E0450042493
:101A90000F6E03AE4EEF0DF050EF0DF051EF0DF065
:101AA0000F800F50D8B457EF0DF059EF0DF06DEFD8
:101AB0000DF00F28D8A45FEF0DF061EF0DF069EF86
:101AC0000DF0000E016E000E026E000E036E000E91
:101AD000046E038E046A75EF0DF0000E016E000EA9
:101AE000026E000E036E000E046E0850800B0E6E28
:101AF0000D500E18D8B47FEF0DF081EF0DF082EF8E
:101B00000DF00D8C085008240E6E07AE8AEF0DF014
:101B10008CEF0DF08DEF0DF00E800E50D8B493EFDA
:101B20000DF095EF0DF0A9EF0DF00E28D8A49BEF66
:101B30000DF09DEF0DF0A5EF0DF0000E056E000EFF
:101B4000066E000E076E000E086E078E086AB1EF73
:101B50000DF0000E056E000E066E000E076E000EF4
:101B6000086E0F500E5CD8B0B8EF0DF0BAEF0DF064
:101B7000E1EF0DF00DACBFEF0DF0C1EF0DF0C3EFD5
:101B80000DF0800E0D1A0FC010F00EC00FF010C037
:101B90000EF001C010F005C001F010C005F002C049
:101BA00010F006C002F010C006F003C010F007C02D
:101BB00003F010C007F004C010F008C004F010C01B
:101BC00008F0106A0F500EC009F00A6A095E000E94
:101BD0000A5A0ABEF5EF0DF00A5009E11A0E095C27
:101BE000D8A0F5EF0DF0F7EF0DF02EEF0EF001504D
:101BF000021003100410D8A400EF0EF003EF0EF053
:101C0000010E04EF0EF0000E106E000E016E000EBD
:101C1000026E000E036E000E046E0EC00FF037EF62
:101C20000EF010A016EF0EF018EF0EF01EEF0EF0F3
:101C3000D89010300109106E20EF0EF0D8901032BD
:101C400001A025EF0EF027EF0EF028EF0EF0108E1A
:101C5000043404320332023201320F2A0E500F5C78
:101C6000D8A035EF0EF037EF0EF011EF0EF00DBCEF
:101C70003CEF0EF03EEF0EF07EEF0EF00F50D8A4CA
:101C800044EF0EF046EF0EF050EF0EF0000E016E36
:101C9000000E026E000E036E000E046E9DEF0FF03C
:101CA0000550012606500222075003220850042244
:101CB00004A05DEF0EF05FEF0EF00BEF0FF010A041
:101CC00064EF0EF066EF0EF06CEF0EF0D89010306F
:101CD0000109106E6EEF0EF0D890103201A073EF74
:101CE0000EF075EF0EF076EF0EF0108E0434043225
:101CF0000332023201320F2A0BEF0FF00550015C64
:101D000006500258075003580450800A096E0850C4
:101D1000800A0958D8B08FEF0EF091EF0EF0BCEFAB
:101D20000EF00150055C096E025006580A6E035011
:101D300007580B6E045008580C6EFF0E0924016EF4
:101D4000FF0E0A20026EFF0E0B20036EFF0E0C200A
:101D5000046E800E0D1A106C1050D8A4B2EF0EF065
:101D6000B4EF0EF0C4EF0EF0010E0126000E0222B9
:101D700003220422C4EF0EF00550015E0650025A01
:101D80000750035A0850045A01500210031004105F
:101D9000D8A4CDEF0EF0CFEF0EF004EF0FF01050FF
:101DA000D8A4D5EF0EF0D7EF0EF004EF0FF0000E31
:101DB000016E000E026E000E036E000E046E9DEFAB
:101DC0000FF0D890013602360336043610AEEBEF32
:101DD0000EF0EDEF0EF0EEEF0EF0018010A0F3EF3D
:101DE0000EF0F5EF0EF0F9EF0EF0D8801036FBEFA5
:101DF0000EF0D89010360F50D8B401EF0FF003EF6B
:101E00000FF004EF0FF00F0603AE09EF0FF00BEF2A
:101E10000FF0E1EF0EF00E6A10AE11EF0FF013EFBE
:101E20000FF02BEF0FF010C009F07F0E0916D8B499
:101E30001CEF0FF01EEF0FF022EF0FF0010E0E6EF1
:101E40002BEF0FF001A027EF0FF029EF0FF02BEF92
:101E50000FF01EEF0FF00E50D8B431EF0FF033EF4C
:101E60000FF05EEF0FF0010E0126000E022203229A
:101E7000042204A03EEF0FF040EF0FF05EEF0FF0F2
:101E800001C009F002C00AF003C00BF004C00CF05E
:101E90000C340C320B320A32093209C001F00AC08C
:101EA00002F00BC003F00CC004F00F28D8B45BEFB5
:101EB0000FF05DEF0FF05EEF0FF00F2A0F28D8B490
:101EC00064EF0FF066EF0FF06EEF0FF00F50D8A435
:101ED0006CEF0FF06EEF0FF07FEF0FF0000E016E62
:101EE000000E026E000E036E000E046E0F50D8A49A
:101EF0007CEF0FF07EEF0FF07FEF0FF00D6A0FA079
:101F000084EF0FF086EF0FF089EF0FF0038E8AEF6A
:101F10000FF0039ED8900F30046E0DAE92EF0FF0CD
:101F200094EF0FF095EF0FF0048E01C001F002C0A6
:101F300002F003C003F004C004F012001250800B42
:101F40001B6E12501224216E11AEA9EF0FF0ABEFF1
:101F50000FF0ACEF0FF021802150D8B4B2EF0FF0AA
:101F6000B4EF0FF0C7EF0FF02128D8A4BAEF0FF0AD
:101F7000BCEF0FF0C4EF0FF0000E0F6E000E106EEE
:101F8000000E116E000E126E118ECFEF0FF0000ECC
:101F90000F6E000E106E000E116E000E126E1650B7
:101FA000800B1B1A165016241C6E15AEDAEF0FF0BC
:101FB000DCEF0FF0DDEF0FF01C801C50D8B4E3EF26
:101FC0000FF0E5EF0FF0F8EF0FF01C28D8A4EBEFBF
:101FD0000FF0EDEF0FF0F5EF0FF0000E136E000EA7
:101FE000146E000E156E000E166E158E00EF10F0BA
:101FF000000E136E000E146E000E156E000E166E9F
:102000001C50D8B406EF10F008EF10F010EF10F0ED
:102010002150D8A40EEF10F010EF10F01AEF10F0CE
:10202000000E0F6E000E106E000E116E000E126E7E
:10203000B0EF11F015500F02F3CF26F0F4CF27F0D8
:1020400026501D6E1E6A1F6A206A2750226E236A60
:10205000246A256A14501002F3CF26F0F4CF27F03B
:1020600026501D26000E1E221F2220222750222627
:10207000000E23222422252213501102F3CF26F032
:10208000F4CF27F026501D26000E1E221F222022EC
:1020900027502226000E2322242225221FC020F0B2
:1020A0001EC01FF01DC01EF01D6A13501002F3CF9A
:1020B00026F0F4CF27F026501D2627501E22000EB2
:1020C0001F22000E202214500F02F3CF26F0F4CF6F
:1020D00027F026501D2627501E22000E1F22000E1C
:1020E00020221FC020F01EC01FF01DC01EF01D6A60
:1020F00013500F02F3CF26F0F4CF27F026501D2601
:1021000027501E22000E1F22000E20221550100202
:10211000F3CF26F0F4CF27F0265022262750232293
:10212000000E2422000E252214501102F3CF26F0B7
:10213000F4CF27F02650222627502322000E2422F7
:10214000000E252215501102F3CF26F0F4CF27F010
:102150002650176E2750186E196A1A6A19C01AF09D
:1021600018C019F017C018F0176A17502226185017
:102170002322195024221A5025221DC017F01EC0F8
:1021800018F01FC019F020C01AF0190ECDEF10F092
:10219000D8901A32193218321732E82EC8EF10F0E0
:1021A0001750222618502322195024221A50252273
:1021B0001FC020F01EC01FF01DC01EF01D6A1C5065
:1021C00021C017F0186A1726000E1822820E172455
:1021D000266EFF0E1820276E03EF11F0D8902236DE
:1021E00023362436253620AEF8EF10F0FAEF10F043
:1021F000FBEF10F02280D8901D361E361F36203699
:102200002606D8A0270624AE08EF11F00AEF11F039
:10221000EEEF10F01C6A20AE10EF11F012EF11F08B
:1022200036EF11F0FF0E1D14176EFF0E1E14186E00
:10223000FF0E1F14196E7F0E20141A6E17501810FF
:1022400019101A10D8B427EF11F029EF11F02DEF63
:1022500011F0010E1C6E36EF11F022A032EF11F0DA
:1022600034EF11F036EF11F029EF11F01C50D8B413
:102270003CEF11F03EEF11F062EF11F0010E22265B
:10228000000E23222422252225A049EF11F04BEF36
:1022900011F062EF11F022C017F023C018F024C033
:1022A00019F025C01AF01A341A32193218321732BE
:1022B00017C022F018C023F019C024F01AC025F06E
:1022C000264A272A27BE6DEF11F0275008E126285D
:1022D000D8A06DEF11F06FEF11F079EF11F0000E53
:1022E000226E000E236E800E246E7F0E256EA6EFEA
:1022F00011F027BE86EF11F0275006E12604D8B072
:1023000084EF11F086EF11F091EF11F0000E226EC4
:10231000000E236E000E246E000E256E1B6AA6EFC3
:1023200011F026C021F0FF0E2216FF0E23167F0E9D
:102330002416000E251621A0A0EF11F0A2EF11F037
:10234000A3EF11F0248ED8902130256E1B5025125A
:1023500022C00FF023C010F024C011F025C012F0ED
:1023600012002B50800B386E2B502B243F6E2AAE60
:10237000BCEF11F0BEEF11F0BFEF11F03F803F5006
:10238000D8B4C5EF11F0C7EF11F0DBEF11F03F2823
:10239000D8A4CDEF11F0CFEF11F0D7EF11F0000E70
:1023A000286E000E296E000E2A6E000E2B6E2A8EED
:1023B0002B6AE3EF11F0000E286E000E296E000E5E
:1023C0002A6E000E2B6E2F50800B381A2F502F24A0
:1023D000406E2EAEEEEF11F0F0EF11F0F1EF11F0D4
:1023E00040804050D8B4F7EF11F0F9EF11F00DEF45
:1023F00012F04028D8A4FFEF11F001EF12F009EF1E
:1024000012F0000E2C6E000E2D6E000E2E6E000EC1
:102410002F6E2E8E2F6A15EF12F0000E2C6E000E0E
:102420002D6E000E2E6E000E2F6E2C502D102E10C5
:102430002F10D8A41EEF12F020EF12F038EF12F098
:10244000000E286E000E296E000E2A6E000E2B6EF6
:10245000800E2A127F0E2B1238502B1228C028F023
:1024600029C029F02AC02AF02BC02BF078EF13F0F6
:102470003F50D8A43EEF12F040EF12F04AEF12F0B6
:10248000000E286E000E296E000E2A6E000E2B6EB6
:1024900078EF13F040503FC030F0316A305E000EEC
:1024A000315A7F0E3024396E000E31203A6E28C02A
:1024B00034F029C035F02AC036F02BC037F0000EBA
:1024C000286E000E296E000E2A6E000E2B6E000E76
:1024D0003B6E000E3C6E000E3D6E000E3E6E406A7E
:1024E000AAEF12F04050D8B478EF12F07AEF12F061
:1024F00091EF12F0D8903436353636363736D890DC
:10250000283629362A362B363EAE89EF12F08BEF6D
:1025100012F08CEF12F02880D8903B363C363D36D6
:102520003E362C50345C2D5035582E5036582F5096
:102530003758D8A09EEF12F0A0EF12F0A9EF12F0DA
:102540003E8C2C50345E2D50355A2E50365A2F501A
:10255000375A402A190E4064B0EF12F0B2EF12F071
:1025600072EF12F03450351036103710D8B4BBEF7C
:1025700012F0BDEF12F0D5EF12F03B80D5EF12F064
:10258000D890283629362A362B363EAECAEF12F0BE
:10259000CCEF12F0CDEF12F02880D8903B363C36CD
:1025A0003D363E363906D8A03A062AAEDAEF12F0AA
:1025B000DCEF12F0C0EF12F0406A3EAEE2EF12F034
:1025C000E4EF12F008EF13F0FF0E3B14306EFF0E35
:1025D0003C14316EFF0E3D14326E7F0E3E14336E8E
:1025E0003050311032103310D8B4F9EF12F0FBEF45
:1025F00012F0FFEF12F0010E406E08EF13F028A06A
:1026000004EF13F006EF13F008EF13F0FBEF12F0F6
:102610004050D8B40EEF13F010EF13F034EF13F076
:10262000010E2826000E29222A222B222BA01BEF86
:1026300013F01DEF13F034EF13F028C030F029C071
:1026400031F02AC032F02BC033F03334333232321F
:102650003132303230C028F031C029F032C02AF097
:1026600033C02BF0394A3A2A3ABE3FEF13F03A50C2
:1026700008E13928D8A03FEF13F041EF13F04CEFF9
:1026800013F0000E3A6E3968000E286E000E296EA7
:10269000000E2A6E000E2B6E3ABE59EF13F03A5020
:1026A00006E13904D8B057EF13F059EF13F066EF95
:1026B00013F0000E3A6E000E396E000E286E000EFA
:1026C000296E000E2A6E000E2B6E386A39C03FF05C
:1026D0003FA06DEF13F06FEF13F072EF13F02A8E3F
:1026E00073EF13F02A9ED8903F302B6E2CEF12F030
:1026F0001200F6EC20F0000E0001AA6F000EAB6F86
:10270000000EAC6F000EAD6F88960F011C9D1C9FD4
:10271000540E00019A6FE8EC20F048EC1AF041C02A
:10272000A6F042C0A7F043C0A8F044C0A9F0210E13
:1027300000019A6F0FEC21F001C09BF002C09CF0E9
:10274000A6C09DF0A7C09EF0A8C09FF0A9C0A0F0B1
:10275000E8EC20F0A30E0001A26F550EE82EFED784
:10276000A22FFCD7100E096E020E0A6E5A0EBDEC97
:102770001DF0070E0001A26F7D0EE82EFED7A22FDE
:10278000FCD70C0E096E5A0E88EC1DF00001EC6FA0
:102790000D0E096E5A0E88EC1DF00001EB6F070E4E
:1027A0000001A26F7D0EE82EFED7A22FFCD7200ECF
:1027B000096E100E0A6E5A0EBDEC1DF0070E0001D8
:1027C000A26F7D0EE82EFED7A22FFCD70C0E096E4D
:1027D000140E0A6E5A0EBDEC1DF0200E096E180E76
:1027E0000A6E5A0EBDEC1DF0829048EC1AF041C002
:1027F000AEF042C0AFF043C0B0F044C0B1F0210E23
:1028000000019A6F0FEC21F001C09BF002C09CF018
:10281000AEC09DF0AFC09EF0B0C09FF0B1C0A0F0C0
:10282000E8EC20F0F40E0001D927010EDA23000EA7
:10283000DB23000EDC23AEC028F0AFC029F0B0C00F
:102840002AF0B1C02BF0000E2C6E000E2D6EE80E9B
:102850002E6E400E2F6ECFEC18F0D8B032EF14F081
:1028600034EF14F083EF14F00001AA51D95DA26F88
:10287000AB51DA59A36FAC51DB59A46FAD51DC59A0
:10288000A56FA5510DE1900EA25D5F0EA359010E3B
:10289000A459D8A04EEF14F050EF14F083EF14F0C9
:1028A000000EB36F000EB26F83808382310E000181
:1028B000A26FB20EE82EFED7A22FFCD700008390A5
:1028C0008392310E0001A26FB20EE82EFED7A22F26
:1028D000FCD700000001B24BB32BB3BF79EF14F06B
:1028E000B35109E10F0EB25DD8A079EF14F07BEF80
:1028F00014F054EF14F0D9C0AAF0DAC0ABF0DBC08A
:10290000ACF0DCC0ADF0230E096E5A0E88EC1DF061
:102910000001F36FA30E0001A26F550EE82EFED743
:10292000A22FFCD73A0E096E5A0E88EC1DF000015A
:10293000F26F3B0E096E5A0E88EC1DF00001F16F2C
:10294000110E0001A26F3A0EE82EFED7A22FFCD77F
:1029500000003C0E096E5A0E88EC1DF00001EE6F6F
:102960003D0E096E5A0E88EC1DF00001ED6FF1511D
:10297000A26FF251E76FA2C0E8F0ED51A26FEE51E5
:10298000E56FA2C0E6F0E85109E1C00EE75DD8A00E
:10299000CCEF14F0CEEF14F0EAEF14F0E705050EDB
:1029A000E859D8B0D6EF14F0D8EF14F0EAEF14F0ED
:1029B0008380838282923D0E9A6FE8EC20F06B0E4A
:1029C00000019A6FE7C09BF0E8C09CF0E8EC20F0B3
:1029D000F5EF13F0E705050EE859D8A0F2EF14F073
:1029E000F4EF14F02EEF15F07D0EE85DD8B0FBEF9C
:1029F00014F0FDEF14F02EEF15F083B002EF15F098
:102A000005EF15F0010E06EF15F0000EFF0AA26F9C
:102A10008350A219FE0BA219836E83B212EF15F038
:102A200015EF15F0010E16EF15F0000EFF0AA26F5C
:102A3000A2478350A219FD0BA219836E8282800ED9
:102A40009A6FE8EC20F06B0E00019A6FE7C09BF0E4
:102A5000E8C09CF0E8EC20F0F5EF13F0839083924F
:102A60008292F5EF13F0FEEF7FF000018E51D96EE8
:102A7000DA6ADFCFF6FF100EF76EF86A0800F5503D
:102A8000250AD8A446EF15F048EF15F054EF16F0DC
:102A90008E51D96EDA6ADF2A000EE26F000EE16F06
:102AA000E1C0E9F0E369E4698E51D96EDA6ADFCFFB
:102AB000F6FF100EF76EF86A0800F5502E0AD8A43B
:102AC00064EF15F066EF15F074EF15F08E51D96EC6
:102AD000DA6ADF2A8EC001F08FC002F0C9EC1BF069
:102AE00001C0E3F002C0E4F000018E51D96EDA6A51
:102AF000DF50956F95C0F6FF100EF76EF86A08006C
:102B0000F550750AD8A487EF15F089EF15F0B5EFE9
:102B100015F08F51D96EDA6A020EDF26DF5CD96EAE
:102B2000DA6ADECF90F0DECF91F08E51D96EDA6A9C
:102B30009529DF6EA8EF15F08CC01CF08DC01DF03C
:102B400090C01EF091C01FF0D0EC19F068EF16F0A5
:102B500095C0F6FF100EF76EF86A0800F550750A7A
:102B6000D8B49CEF15F0B5EF15F08E51D96EDA6A36
:102B7000DF50956F95C0F6FF100EF76EF86A0800EB
:102B8000F5CF94F0CEEF15F0952BDDEF15F06C0E30
:102B9000946FDDEF15F0946BDDEF15F094514C0A56
:102BA000D8B4C4EF15F02A0AD8B4C7EF15F00A0A52
:102BB000D8B4C4EF15F0CBEF15F095C0F6FF100EAA
:102BC000F76EF86A0800F550660AD8A4EAEF15F027
:102BD000ECEF15F04DEF16F016EF16F08F51D96EA1
:102BE000DA6ADFCF5EF0040EDF265E50D96EDA6A55
:102BF000DECF90F0DECF91F0DECF92F0DECF93F01B
:102C000021EF16F08F51D96EDA6ADFCF5EF0040E35
:102C1000DF265E50D96EDA6ADECF90F0DECF91F01B
:102C2000DECF92F0DECF93F021EF16F094514C0AF4
:102C3000D8B402EF16F0200AD8B4EEEF15F021EF69
:102C400016F08E51D96EDA6A9529DF6E40EF16F0D4
:102C50008CC055F08DC056F090C057F091C058F020
:102C600092C059F093C05AF095C0F6FF100EF76E5F
:102C7000F86A0800F5CF5BF04DEC08F068EF16F04D
:102C800095C0F6FF100EF76EF86A0800F550660A58
:102C9000D8B428EF16F04DEF16F000018E51D96E22
:102CA000DA6ADF2A68EF16F08E51D96EDA6ADFCF62
:102CB000F6FF100EF76EF86A0800F550036E046A0E
:102CC0008CC005F08DC006F0AFEC1AF04DEF16F099
:102CD0001200D1C051F0D2C052F0D3C053F0D4C0D2
:102CE00054F041C051F042C052F043C053F044C0D0
:102CF00054F0810E456EFF0E466E51C047F052C033
:102D000048F053C049F054C04AF0180E8DEF16F049
:102D1000D8904A32493248324732E82E88EF16F0CE
:102D2000475045244F6E000E4620506E50BEA2EF15
:102D300016F0505009E1170E4F5CD8A0A2EF16F024
:102D4000A4EF16F0AEEF16F041C041F042C042F0E1
:102D500043C043F044C044F071EF17F050BEB3EFEE
:102D600016F0B5EF16F025EF17F04FC045F0FF0E47
:102D7000466EFF0E476E7F0E486E000E496E45662A
:102D8000C4EF16F0CCEF16F04934493248324732DE
:102D90004632452EBFEF16F046C04BF047C04CF010
:102DA00048C04DF049C04EF04B505114456E4C5048
:102DB0005214466E4D505314476E4E505414486E84
:102DC0004550461047104810D8A4E9EF16F0EBEF35
:102DD00016F0EDEF16F0A4EF16F051C045F052C01A
:102DE00046F053C047F054C048F0200EFDEF16F0F7
:102DF000D8904832473246324532E82EF8EF16F086
:102E00004550461047104810D8B409EF17F00BEFA3
:102E100017F013EF17F04B5051264C5052224D50E3
:102E200053224E5054224B1C456E4C1C466E4D1C7A
:102E3000476E4E1C486E455051164650521647502C
:102E400053164850541669EF17F051C045F052C060
:102E500046F053C047F054C048F0200E35EF17F04D
:102E6000D8904832473246324532E82E30EF17F0DC
:102E70004550461047104810D8A441EF17F043EFD3
:102E800017F04DEF17F0000E516E000E526E000E4F
:102E9000536E000E546E69EF17F0D8905134456EA2
:102EA0005234466E5334476E5434486E4550461083
:102EB00047104810D8B45FEF17F061EF17F069EFD3
:102EC00017F0000E516E000E526E800E536EBF0E44
:102ED000546E51C041F052C042F053C043F054C050
:102EE00044F01200096E0950D8B479EF17F07BEF67
:102EF00017F09DEF17F004BE82EF17F080EF17F088
:102F00009DEF17F001C005F002C006F003C007F006
:102F100004C008F0051E061E071E081E052A000E26
:102F200006220722082205C00BF006C00CF007C0DD
:102F30000DF008C00EF0A5EF17F001C00BF002C0B5
:102F40000CF003C00DF004C00EF00150021003108D
:102F50000410D8A4AEEF17F0B0EF17F0BAEF17F0E7
:102F6000000E016E000E026E000E036E000E046E67
:102F70004BEF18F0960E0A6EC4EF17F00A2AD8909D
:102F80000E320D320C320B32000E0B14056E000E99
:102F90000C14066E000E0D14076EFE0E0E14086E55
:102FA0000550061007100810D8A4D9EF17F0DBEF72
:102FB00017F0BEEF17F0E9EF17F00A2A010E0B2603
:102FC000000E0C220D220E22D8900E320D320C3241
:102FD0000B32000E0B14056E000E0C14066E000E64
:102FE0000D14076EFF0E0E14086E05500610071024
:102FF0000810D8A4FEEF17F000EF18F0DDEF17F07F
:1030000008EF18F00A06D8900B360C360D360E363F
:103010000DBE0DEF18F00FEF18F017EF18F0020EBD
:103020000A6015EF18F017EF18F002EF18F00AB069
:103030001CEF18F01EEF18F01FEF18F00D9ED8903F
:103040000A320AC005F0066A076A086A05C008F075
:10305000076A066A056A05500B1206500C120750E3
:103060000D1208500E120950D8B439EF18F03BEF8A
:1030700018F043EF18F004BE42EF18F040EF18F0DC
:1030800043EF18F00E8E0BC001F00CC002F00DC023
:1030900003F00EC004F01200033404340A6E0A5028
:1030A000D8A455EF18F057EF18F061EF18F0000EA4
:1030B000016E000E026E000E036E000E046ECEEF67
:1030C00018F001C005F002C006F003C007F004C00C
:1030D00008F0200E71EF18F0D8900832073206324F
:1030E0000532E82E6CEF18F00550096E038EFF0EC6
:1030F0000116FF0E0216FF0E0316000E0416960EA2
:103100000A5E0ABE88EF18F086EF18F09EEF18F0FE
:103110000A50800A970FD8B090EF18F092EF18F08D
:1031200094EF18F057EF18F0D890043203320232BF
:1031300001320A3E94EF18F0B6EF18F01F0E0A6441
:10314000A4EF18F0A6EF18F0AEEF18F057EF18F054
:10315000D89001360236033604360A060A50D8A43F
:10316000B4EF18F0B6EF18F0A8EF18F00950D8B483
:10317000BCEF18F0BEEF18F0C6EF18F0041E031EE7
:10318000021E016C000E02220322042201C001F083
:1031900002C002F003C003F004C004F01200000EED
:1031A0002814306E000E2914316E800E2A14326EEF
:1031B0007F0E2B14336E3050311032103310D8A4E0
:1031C000E4EF18F0E6EF18F0EEEF18F0000E286EBE
:1031D000000E296E000E2A6E000E2B6E000E2C14AF
:1031E000306E000E2D14316E800E2E14326E7F0E56
:1031F0002F14336E3050311032103310D8A403EF37
:1032000019F005EF19F00DEF19F0000E2C6E000EFD
:103210002D6E000E2E6E000E2F6E2BAE12EF19F0DB
:1032200014EF19F01DEF19F0286C291ED8B0292AC7
:103230002A1ED8B02A2A800E2B562FAE22EF19F064
:1032400024EF19F02DEF19F02C6C2D1ED8B02D2A7B
:103250002E1ED8B02E2A800E2F56000E281A000ED1
:10326000291A000E2A1A800E2B1A000E2C1A000E94
:103270002D1A000E2E1A800E2F1A2C50285C2D505D
:1032800029582E502A582F502B58D8B04AEF19F0F1
:103290004CEF19F04FEF19F0D89050EF19F0D8809B
:1032A0001200D5C00BF0D6C00CF0D7C00DF0D8C0BE
:1032B0000EF001C00BF002C00CF003C00DF004C012
:1032C0000EF00BC005F00CC006F00DC007F00EC0EC
:1032D00008F0180E71EF19F0D89008320732063254
:1032E0000532E82E6CEF19F00550096E0A6A095094
:1032F0000A10D8A47EEF19F080EF19F0A0EF19F0B2
:10330000D8900B34056E0C34066E0D34076E0E34F7
:10331000086E0550061007100810D8A492EF19F097
:1033200094EF19F09AEF19F0000E026E020E016E82
:10333000CFEF19F0000E026E030E016ECFEF19F001
:1033400009280A10D8A4A7EF19F0A9EF19F0CBEFBC
:1033500019F00BC005F00CC006F00DC007F00EC050
:1033600008F0090ED8900536063607360836E82EDE
:10337000B2EF19F00550061007100810D8B4C3EFCB
:1033800019F0C6EF19F0010EC7EF19F0000E016E2B
:10339000026ACFEF19F0000E026E040E016E1200E9
:1033A0000001E4BFD8EF19F0D6EF19F0DEEF19F005
:1033B000000E236E010E226EE2EF19F0E3C022F040
:1033C000E4C023F0E1C020F0E2C021F0000E256E41
:1033D0004F0E246E01014F6B18EF1AF02406D8A08F
:1033E0002506000E2424D96E010E2520DA6E1EC09B
:1033F00001F01FC002F0000E046E0A0E036EF0EC26
:103400001DF00150300FDF6E2206D8A023062006E3
:10341000D8A021061EC001F01FC002F0000E046EED
:103420000A0E036EA9EC1CF001C01EF002C01FF0D2
:1034300024502510D8B41FEF1AF021EF1AF037EFFF
:103440001AF01E501F10D8A428EF1AF02AEF1AF015
:10345000EEEF19F023BE37EF1AF0235006E12204F5
:10346000D8B035EF1AF037EF1AF0EEEF19F01CC0B4
:1034700013F01DC014F0000E2424156E010E25203B
:10348000166E20C017F021C018F0E3EC1CF01200FB
:103490008386FA0E00D0E82EFDD70C0E0F015A6F6E
:1034A0000C0E11EC20F001C04DF002C04EF0CD0E1C
:1034B000136ECC0E146E4C0E156E400E166E4DC073
:1034C00001F04EC002F0036A046A000E72EC17F0BD
:1034D00001C00FF002C010F003C011F004C012F0E0
:1034E0009EEC0FF00FC028F010C029F011C02AF098
:1034F00012C02BF0000E2C6EF00E2D6E7F0E2E6E75
:10350000450E2F6EB1EC11F028C049F029C04AF0E9
:103510002AC04BF02BC04CF049C00FF04AC010F04D
:103520004BC011F04CC012F0480E136EE10E146E39
:10353000420E156E410E166E9EEC0FF00FC045F058
:1035400010C046F011C047F012C048F045C041F02D
:1035500046C042F047C043F048C044F01200055056
:103560000610D8B4B6EF1AF0B8EF1AF0C1EF1AF09F
:1035700005500610D8A4BFEF1AF0C1EF1AF0C6EF3D
:103580001AF00350CAEC20F013EF1BF020EE09F004
:103590000550D9260650DA22DE50DE10D8B4D3EF1B
:1035A0001AF0D5EF1AF0F0EF1AF020EE09F00550FE
:1035B000D9260650DA2210EE02F00550E126065018
:1035C000E222DE50E65CE650800A0B6EDE50800A96
:1035D0000B58D8B0EEEF1AF0F0EF1AF013EF1BF023
:1035E00020EE02F00550D9260650DA22DECF07F091
:1035F000DDCF08F005C0D9FF06C0DAFFDECF09F045
:10360000DDCF0AF007500924D96E08500A20DA6E7F
:1036100003C0DFFF20EE02F00550D9260650DA2263
:10362000DE2A000EDD22120024EC21F00009D8B4BD
:103630001CEF1BF01EEF1BF057EF1BF02CEF1BF0E5
:10364000A6EC21F073EF1BF0A2EC21F073EF1BF05E
:103650009AEC21F073EF1BF0C3C008F002D83BEFE7
:103660001BF00500FA6E0001BA51FD6EBB51FE6EF3
:10367000FF6AFA501200026E036A0350000AD8B4BF
:1036800044EF1BF028EF1BF00250010AD8B428EFDA
:103690001BF0030AD8B420EF1BF0010AD8B424EFC2
:1036A0001BF0070AD8B428EF1BF028EF1BF000012D
:1036B000D09120EECBF0DF50DF2AD96EDA6ADF50EE
:1036C000AAEC21F00001CC07D8A0CD07CC51CD1138
:1036D000D8A46DEF1BF06FEF1BF072EF1BF0060E1E
:1036E00073EF1BF0030E1200000E0114096E000EA2
:1036F00002140A6E800E03140B6E7F0E04140C6EFF
:1037000009500A100B100C10D8A489EF1BF08BEF96
:103710001BF093EF1BF0000E016E000E026E000E08
:10372000036E000E046E000E0514096E000E0614E2
:103730000A6E800E07140B6E7F0E08140C6E095073
:103740000A100B100C10D8A4A8EF1BF0AAEF1BF066
:10375000B2EF1BF0000E056E000E066E000E076E37
:10376000000E086E055001180FE1065002180CE11A
:103770000750031809E108500418D8B4C2EF1BF031
:10378000C4EF1BF0C7EF1BF0D890C8EF1BF0D88038
:103790001200000E076E000E066E0150D96EDA6A36
:1037A000DFCFF6FF100EF76EF86A0800F5502A0A10
:1037B000D8A4DDEF1BF0DFEF1BF004EF1CF001508D
:1037C000D96EDA6ADF2A0250D96EDA6A020EDF2673
:1037D000DF5CD96EDA6ADECF06F0DECF07F018EFD5
:1037E0001CF00A0E0602F3CF03F0F4CF04F0070238
:1037F000F350042605500324066E000E0420076EC5
:103800000150D96EDA6ADF2A0150D96EDA6ADFCF49
:10381000F6FF100EF76EF86A0800F550D00F056E2F
:10382000090E056416EF1CF018EF1CF0F1EF1BF009
:1038300006C001F007C002F012000001CB51D96EA2
:10384000DA6ABDEC21F0DF6E0001CB2BCC07D8A0EB
:10385000CD07CC51CD11D8B430EF1CF032EF1CF0B5
:1038600037EF1CF0B1EC21F0050E6CEF1CF0D087A7
:1038700042EF1CF08EEC21F06CEF1CF092EC21F08A
:103880006CEF1CF0C0C008F002D850EF1CF005002F
:10389000FA6EB451FD6EB551FE6EFF6AFA50120019
:1038A000016E026A0250000AD8B459EF1CF03EEFD4
:1038B0001CF00150010AD8B43EEF1CF0030AD8B442
:1038C0003AEF1CF0010AD8B43AEF1CF0070AD8B45A
:1038D0003EEF1CF03EEF1CF012000001D0877EEF9F
:1038E0001CF09EEC21F0A8EF1CF0AEEC21F0030ED2
:1038F000A8EF1CF09AEC21F0A8EF1CF0C0C008F073
:1039000002D88CEF1CF00500FA6EB451FD6EB55173
:10391000FE6EFF6AFA501200016E026A0250000A3F
:10392000D8B495EF1CF07AEF1CF00150010AD8B41E
:103930007AEF1CF0030AD8B471EF1CF0010AD8B476
:1039400071EF1CF0070AD8B475EF1CF07AEF1CF089
:103950001200000E076E000E066E03500410D8B45D
:10396000B4EF1CF0B6EF1CF0DEEF1CF0010E056E9C
:10397000BEEF1CF0D89003360436052A04AEC3EF20
:103980001CF0C5EF1CF0BAEF1CF0D89006360736D5
:103990000350015C04500258D8A0D1EF1CF0D3EFC3
:1039A0001CF0D8EF1CF00350015E0450025A068050
:1039B000D89004320332052EC5EF1CF006C001F08A
:1039C00007C002F0120018BEEAEF1CF0E8EF1CF08E
:1039D000EEEF1CF0000E186E000E176E000E1B6E40
:1039E000000E1A6E00EF1DF0000E046E200E036E26
:1039F00013C005F014C006F0AFEC1AF01A4A1B2AE7
:103A000017501A5C1B50800A196E1850800A1958FA
:103A1000D8A00DEF1DF00FEF1DF0F4EF1CF015C056
:103A20000CF016C00DF013C00EF014C00FF044ECF3
:103A30001FF01200016E010E026E0001D0B523EFDF
:103A40001DF025EF1DF04FEF1DF001C0CAF0D0931F
:103A5000D085D0910E0ECE6F010EC96FF40EC86FD7
:103A6000D087860EB46F430EB56FC06B860EB66FEF
:103A7000430EB76FC16B860EB86F430EB96FC26B42
:103A8000860EBA6F430EBB6FC36B820EBC6F430EC4
:103A9000BD6FC46BBAEC21F09BEC20F0026A0250BF
:103AA0001200BAEC21F00001D0A159EF1DF05BEF3C
:103AB0001DF068EF1DF024EC21F00009D8B463EF8D
:103AC0001DF065EF1DF068EF1DF00F0E0001CE6FC9
:103AD0000001CE51020DF350010F046E04C0F6FF39
:103AE000100EF76EF86A0900F5CF05F00900F5CF62
:103AF00006F002D885EF1DF00500FA6E0550FD6E48
:103B00000650FE6EFF6AFA5012000001CE6F1200DE
:103B10000A6E0B6A0A501AEC1DF00009D8B493EF34
:103B20001DF095EF1DF08AEF1DF0EE0E056E400EB4
:103B3000066E0B0E076E2EEC21F0090E016E000EC4
:103B4000036E010E026EABEC20F0000E056E000E4F
:103B5000066E000E076E000E086E1AEC21F08AEC5D
:103B600021F029EC20F0E806D8B4B9EF1DF0BBEF46
:103B70001DF0B1EF1DF00B5012000B6E0B501AEC44
:103B80001DF00009D8B4C7EF1DF0C9EF1DF0BEEF5E
:103B90001DF0A60E056E400E066E0A0E076E2EEC88
:103BA00021F0090E016E000E036E010E026EABECE9
:103BB00020F0000E056E000E066E000E076E000E61
:103BC000086E1AEC21F08AEC21F029EC20F0E806CE
:103BD000D8B4EDEF1DF0EFEF1DF0E5EF1DF0120092
:103BE00003500410D8B4F7EF1DF0F9EF1DF01DEFEE
:103BF0001EF0010E056E01EF1EF0D890033604365C
:103C0000052A04AE06EF1EF008EF1EF0FDEF1DF0D2
:103C10000350015C04500258D8A011EF1EF013EFBE
:103C20001EF017EF1EF00350015E0450025AD890A8
:103C300004320332052E08EF1EF001C001F002C06D
:103C400002F012000001D091020ECF6F30EF1EF093
:103C50009EEC21F052EF1EF09AEC21F052EF1EF094
:103C6000C2C008F002D83EEF1EF00500FA6EB8514F
:103C7000FD6EB951FE6EFF6AFA501200016E026AC3
:103C80000250000AD8B447EF1EF02CEF1EF001508E
:103C9000020AD8B428EF1EF0010AD8B428EF1EF0AB
:103CA0002CEF1EF01200046E01500210D8B45BEF2E
:103CB0001EF05DEF1EF06FEF1EF00450020DF3508A
:103CC000B40FD96EDA6A01C0DEFF02C0DDFF045016
:103CD000C00FD96EDA6A03C0DFFF7EEF1EF004501A
:103CE000020DF350B40FD96EDA6A860EDE6E430E03
:103CF000DD6E0450C00FD96EDA6ADF6A120004BEAE
:103D000084EF1EF086EF1EF090EF1EF001C001F070
:103D100002C002F003C003F004C004F0A9EF1EF0DB
:103D200001C005F002C006F003C007F004C008F0AF
:103D3000051E061E071E081E052A000E0622072263
:103D4000082205C001F006C002F007C003F008C059
:103D500004F01200826A836A846AFC0E876EFC0E8D
:103D6000886EBF0E896E670E0F011C6F14690C6997
:103D7000286B136B0B6B1B6B0A6B126B1A6B09694D
:103D800011691969086910691869080E256F140E00
:103D90000E01B36F170EB06F0F0EF56F100EF66FAA
:103DA000090EF86F130EB26F120003C00AF004C0C0
:103DB0000BF001C008F002C009F0EFEF1EF00AC0DE
:103DC000D9FF0BC0DAFFDF50076E0A4A0B2A08C082
:103DD000D9FF09C0DAFF07C0DFFF084A092A050634
:103DE000D8A00606052806E10628D8A4FAEF1EF09A
:103DF000FCEF1EF0DFEF1EF0120098C05FF00CEF3A
:103E00001FF096C08CF097C08DF05F0E00018E6F92
:103E100099C08FF035EC15F05FC0F6FF100EF76E0D
:103E2000F86A0800F5500009D8A419EF1FF01BEF3D
:103E30001FF001EF1FF0000E0001976F000E966F4C
:103E40001200000E2C1A000E2D1A000E2E1A800ED3
:103E50002F1A28C001F029C002F02AC003F02BC09D
:103E600004F02CC005F02DC006F02EC007F02FC0C6
:103E700008F043EC0DF001C028F002C029F003C0A7
:103E80002AF004C02BF01200000E126E000E116E0C
:103E900055EF1FF010C003F0046A0EC005F00FC00C
:103EA00006F0AFEC1AF0114A122A11500C24D96E08
:103EB00012500D20DA6EDF50106E1050D8A463EF50
:103EC0001FF065EF1FF04AEF1FF01200076E010EA2
:103ED000086E0001D0B36FEF1FF071EF1FF085EF98
:103EE0001FF0D083086A0750D8B479EF1FF07BEF3A
:103EF0001FF07FEF1FF0010ECE6F81EF1FF0020E5B
:103F0000CE6FC9EC21F0D9EC20F00850120001C0AE
:103F100005F002C006F0032A0304046E04C0F6FF95
:103F2000100EF76EF86A05C0D9FF06C0DAFF054A21
:103F3000062A0800F5CFDFFFDF50D8A4A2EF1FF05C
:103F4000A4EF1FF08BEF1FF01200080E9E6E900E74
:103F50009C6E240E9D6E080E9A6E9B6A000E016E7A
:103F6000000E026E76EC21F0000E016E000E026E65
:103F700071EC21F0000E016E000E026E7BEC21F060
:103F80000001F56B12000150021003100410D8B4A8
:103F9000CCEF1FF0CEEF1FF0D6EF1FF0000E011A8E
:103FA000000E021A000E031A800E041A01C001F05E
:103FB00002C002F003C003F004C004F01200085075
:103FC000D96EDA6A020ED926DF50016E0850D96E1A
:103FD000DA6ADECF02F0DDCF03F0ABEC20F0000EAA
:103FE000056E000E066E000E076E2EEC21F0020E1E
:103FF0001200656A666A676A686A636A646A616A07
:104000000F015A6B586B596B546B100E556F566BF2
:10401000606A536B516B1F0E526F840E5B6F576B50
:104020001200056E05C05AFF0F015B8F5B9D5B811F
:104030005BB11DEF20F01FEF20F018EF20F05F5173
:10404000046E036A5E510324016E000E0420026EAA
:104050001200010E016E0001D0B331EF20F033EFFA
:1040600020F03DEF20F0D095CA69BAEC21F0B7EC12
:1040700021F0CBEC21F0CFC001F001501200016A19
:104080000E01C8A946EF20F048EF20F051EF20F0D4
:104090009DAA4DEF20F04FEF20F051EF20F0010EE0
:1040A000016E0150120008C001F0000E036E010EF7
:1040B000026EABEC20F0000E056E000E066E000ED8
:1040C000076E2EEC21F0040E120008C001F0000E65
:1040D000036E020E026EABEC20F0000E056E000EB9
:1040E000066E000E076E2EEC21F0020E120008C0C4
:1040F00001F0000E036E010E026EABEC20F0000E1C
:10410000056E000E066E000E076E2EEC21F0020EFC
:10411000120008C001F0000E036E020E026EABEC3E
:1041200020F0000E056E000E066E000E076E2EECDF
:1041300021F0040E120095BAA0EF20F0A2EF20F0BB
:10414000AAEF20F0800E946E080E956E966A030E0C
:10415000926E958A12000001D0A7B1EF20F0B3EF64
:1041600020F0BAEF20F001C0CBF002C0CCF003C0C9
:10417000CDF0D097120001EE00F0500EEE6AE80686
:10418000FDE100EEB4F0420EEE6AE806FDE100014A
:1041900079EF13F0026E3FEC20F00009D8B4D3EFB2
:1041A00020F0D5EF20F0CBEF20F0025003EC21F00F
:1041B0001200DFEF20F04AEC21F051EC1DF000017D
:1041C000D0B3E5EF20F0E7EF20F0DBEF20F01200B6
:1041D0009B0E0001A16F000E966F000E976F9AC0A4
:1041E00098F0A10E996FFDEC1EF0120053EC21F037
:1041F00041EC21F0AAEC1EF038EC21F0F9EC1FF0B4
:10420000A5EC1FF01200016E0E01C8A90AEF21F003
:104210000CEF21F004EF21F001C099FF12000F0113
:104220005F51046E036A5E510324016E000E042088
:10423000026E120005C001F006C002F007C003F0D4
:10424000020E53EC1EF0120096BC29EF21F02CEF69
:1042500021F0010E2DEF21F0000E120005C001F03B
:1042600006C002F007C003F0000E53EC1EF012006F
:10427000700E0E01D36FD56BD76B020ED96FD86B52
:104280001200800E946E080E956E966A030E926E62
:10429000959A12000E01C8A150EF21F052EF21F0C3
:1042A0004AEF21F012000E01DC6BDD6BDE6BDF6B81
:1042B000E06BE16B12000001D081CA51CA25AAEC63
:1042C00021F0030E12000001D081D880CA35AAEC7B
:1042D00021F0050E12000001D091BFEC21F0040E78
:1042E000120001C0F8F002C0F9F0120001C0FAF0AB
:1042F00002C0FBF0120001C0F6F002C0F7F012009D
:104300000001D093CF6B0E0E12000001D093CF6B43
:104310000E0E1200000E66EC1FF01200B4EC21F03D
:10432000090E1200B4EC21F00A0E1200B1EC21F0DB
:10433000050E1200C5EC21F0000E1200C7EC21F0B2
:10434000010E1200C7EC21F0020E1200C7EC21F0A2
:10435000010E1200016E01C091FF12000E01C88112
:104360001200969A96881200968A968812000E017C
:10437000C09112000E01C891120091501200968651
:104380001200050E1200010E120096841200968291
:0A439000120096801200959A1200A8
:04FFFC00BBEF20F047
:020000040030CA
:0C000000FCFFFFFF9FFFFFDFFFFFFFFF83
:00000001FF
