:04000000FEEF7FF0A0
:10100000007A19FC18EE181C12D6122819721372E5
:10101000196A1962195A1952194A1942193A198A40
:10102000150054EC0CF0A30E3D6E550EE82EFED7C5
:101030003D2EFCD70000100E3A6E020E3B6E5A0E8B
:101040005FEC0AF0070E3D6E7D0EE82EFED73D2EBA
:10105000FCD700000C0E3A6E5A0E2AEC0AF0286EED
:101060000D0E3A6E5A0E2AEC0AF0276E070E3D6EF0
:101070007D0EE82EFED73D2EFCD70000200E3A6EE6
:10108000100E3B6E5A0E5FEC0AF0070E3D6E7D0EA1
:10109000E82EFED73D2EFCD700000C0E3A6E140E43
:1010A0003B6E5A0E5FEC0AF0200E3A6E180E3B6E45
:1010B0005A0E5FEC0AF08290230E3A6E5A0E2AEC1A
:1010C0000AF02F6EA30E3D6E550EE82EFED73D2E74
:1010D000FCD700003A0E3A6E5A0E2AEC0AF02E6E39
:1010E0003B0E3A6E5A0E2AEC0AF02D6E110E3D6E32
:1010F0003A0EE82EFED73D2EFCD700D03C0E3A6EBD
:101100005A0E2AEC0AF02A6E3D0E3A6E5A0E2AEC5E
:101110000AF0296E2D503E6E3D6A2E503D24246EFD
:10112000000E3E20256E29503E6E3D6A2A503D2419
:10113000226E000E3E20236E100E255CD8A0A3EF79
:1011400008F0A5EF08F0A9EF08F0000E256E000EDC
:10115000246E400E235CD8A0B0EF08F0B2EF08F088
:10116000B6EF08F0000E236E000E226E255009E146
:10117000C00E245CD8A0BFEF08F0C1EF08F0D0EF9C
:1011800008F02404050E2558D8B0C9EF08F0CBEFBD
:1011900008F0D0EF08F08380838282925CEF08F041
:1011A0002404050E2558D8A0D8EF08F0DAEF08F08F
:1011B00007EF09F0200E255CD8B0E1EF08F0E3EF6F
:1011C00008F007EF09F083B0E8EF08F0EBEF08F064
:1011D000010EECEF08F0000EFF0A3D6E83503D1843
:1011E000FE0B3D18836E83B2F8EF08F0FBEF08F0BA
:1011F000010EFCEF08F0000EFF0A3D6E3D468350E5
:101200003D18FD0B3D18836E82825CEF08F08390E1
:10121000839282925CEF08F0FEEF7FF037EC0CF0E7
:101220000009D8B416EF09F018EF09F050EF09F0F3
:1012300026EF09F0B9EC0CF06AEF09F0B5EC0CF010
:101240006AEF09F0ADEC0CF06AEF09F010C039F06C
:1012500002D834EF09F00500FA6E0750FD6E085011
:10126000FE6EFF6AFA501200336E346A3450000A80
:10127000D8B43DEF09F022EF09F03350010AD8B499
:1012800022EF09F0030AD8B41AEF09F0010AD8B422
:101290001EEF09F0070AD8B422EF09F022EF09F097
:1012A0001D9020EE18F0DF50DF2AD96EDA6ADF5089
:1012B000C1EC0CF01906D8A01A0619501A10D8A4BF
:1012C00064EF09F066EF09F069EF09F0060E6AEFC6
:1012D00009F0030E12001850D96EDA6AD4EC0CF043
:1012E000DF6E182A1906D8A01A0619501A10D8B499
:1012F0007CEF09F07EEF09F083EF09F0C8EC0CF009
:10130000050EB8EF09F01D868EEF09F0A1EC0CF088
:10131000B8EF09F0A5EC0CF0B8EF09F00DC039F00A
:1013200002D89CEF09F00500FA6E0150FD6E0250E4
:10133000FE6EFF6AFA501200326E336A3350000AB2
:10134000D8B4A5EF09F08AEF09F03250010AD8B4F9
:101350008AEF09F0030AD8B486EF09F0010AD8B47D
:1013600086EF09F0070AD8B48AEF09F08AEF09F08E
:1013700012001D86C9EF09F0B1EC0CF0F3EF09F093
:10138000C5EC0CF0030EF3EF09F0ADEC0CF0F3EF4D
:1013900009F00DC039F002D8D7EF09F00500FA6E58
:1013A0000150FD6E0250FE6EFF6AFA501200326E5E
:1013B000336A3350000AD8B4E0EF09F0C5EF09F002
:1013C0003250010AD8B4C5EF09F0030AD8B4BCEF13
:1013D00009F0010AD8B4BCEF09F0070AD8B4C0EF8D
:1013E00009F0C5EF09F01200326E010E336E1DB424
:1013F000FCEF09F0FEEF09F028EF0AF032C017F019
:101400001D921D841D900E0E1B6E010E166EF40EA5
:10141000156E1D86B40E016E190E026E0D6AB40EA5
:10142000036E190E046E0E6AB40E056E190E066E6A
:101430000F6AB40E076E190E086E106AB00E096EB0
:10144000190E0A6E116AD1EC0CF000EC0CF0336A44
:10145000335012003B6E3C6A3B50F4EC09F000093B
:10146000D8B435EF0AF037EF0AF02CEF0AF0B80ED7
:10147000366E170E376E3C0E386E41EC0CF03A0E9D
:10148000326E000E346E010E336E10EC0CF0000E56
:10149000366E000E376E000E386E000E396E2DEC73
:1014A0000CF099EC0CF0A3EC0BF0E806D8B45BEF71
:1014B0000AF05DEF0AF053EF0AF03C5012003C6E68
:1014C0003C50F4EC09F00009D8B469EF0AF06BEF76
:1014D0000AF060EF0AF0700E366E170E376E3B0E94
:1014E000386E41EC0CF03A0E326E000E346E010E86
:1014F000336E10EC0CF0000E366E000E376E000EE0
:10150000386E000E396E2DEC0CF099EC0CF0A3EC5B
:101510000BF0E806D8B48FEF0AF091EF0AF087EFEE
:101520000AF01200D1EC0CF01DA099EF0AF09BEF2D
:101530000AF0A7EF0AF037EC0CF00009D8B4A3EFDB
:101540000AF0A5EF0AF0A7EF0AF00F0E1B6E1B5072
:10155000020DF350010F356E35C0F6FF100EF76E19
:10156000F86A0900F5CF36F00900F5CF37F002D858
:10157000C3EF0AF00500FA6E3650FD6E3750FE6E6E
:10158000FF6AFA5012001B6E12001D90020E1C6EB4
:10159000D2EF0AF0B1EC0CF0F4EF0AF0ADEC0CF085
:1015A000F4EF0AF00FC039F002D8E0EF0AF00500BE
:1015B000FA6E0550FD6E0650FE6EFF6AFA5012007C
:1015C000326E336A3350000AD8B4E9EF0AF0CEEF36
:1015D0000AF03250020AD8B4CAEF0AF0010AD8B4AD
:1015E000CAEF0AF0CEEF0AF01200356E3250331017
:1015F000D8B4FDEF0AF0FFEF0AF011EF0BF0355011
:10160000020DF350010FD96EDA6A32C0DEFF33C02B
:10161000DDFF35500D0FD96EDA6A34C0DFFF20EFE1
:101620000BF03550020DF350010FD96EDA6AB40E8B
:10163000DE6E190EDD6E35500D0FD96EDA6ADF6A77
:101640001200826A836A846AFC0E876EFC0E886EC2
:10165000BF0E896E670E0F011C6F14690C69286B31
:10166000136B0B6B1B6B0A6B126B1A6B096911699D
:101670001969086910691869080E256F140E0E01A2
:10168000B36F170EB06F0F0EF56F100EF66F090ED9
:10169000F86F130EB26F1200386E010E396E1DB264
:1016A00054EF0BF056EF0BF06AEF0BF01D82396A26
:1016B0003850D8B45EEF0BF060EF0BF064EF0BF036
:1016C000010E1B6E66EF0BF0020E1B6EE0EC0CF0D1
:1016D0001FEC0CF039501200080E9E6E900E9C6E9E
:1016E000200E9D6E0C0E9A6E9B6A000E326E000EDE
:1016F000336E8AEC0CF0000E326E000E336E85EC09
:101700000CF0000E326E000E336E8FEC0CF0316A6E
:1017100012003950D96EDA6A020ED926DF50326EC5
:101720003950D96EDA6ADECF33F0DDCF34F010EC09
:101730000CF0000E366E000E376E000E386E41EC67
:101740000CF0020E1200010E326E1DB2AAEF0BF069
:10175000ACEF0BF0B6EF0BF01D941768D1EC0CF06A
:10176000CEEC0CF0E2EC0CF01CC032F03250120067
:1017700039C032F0000E346E010E336E10EC0CF0F6
:10178000000E366E000E376E000E386E41EC0CF017
:10179000040E120039C032F0000E346E020E336EA9
:1017A00010EC0CF0000E366E000E376E000E386E28
:1017B00041EC0CF0020E120039C032F0000E346E13
:1017C000010E336E10EC0CF0000E366E000E376E0C
:1017D000000E386E41EC0CF0020E120039C032F0EF
:1017E000000E346E020E336E10EC0CF0000E366EEE
:1017F000000E376E000E386E41EC0CF0040E120035
:1018000095BA05EF0CF007EF0CF00FEF0CF0800E1F
:10181000946E080E956E966A030E926E958A12006B
:101820001DA615EF0CF017EF0CF01EEF0CF032C0F8
:1018300018F033C019F034C01AF01D96120025EFCD
:101840000CF066EC0CF092EC0AF01DB22AEF0CF0F2
:101850002CEF0CF021EF0CF0120036C032F037C044
:1018600033F038C034F0020EF5EC0AF0120096BCEA
:101870003CEF0CF03FEF0CF0010E40EF0CF0000ECF
:10188000120036C032F037C033F038C034F0000EEA
:10189000F5EC0AF0120000EE01F0310EEE6AE806F7
:1018A000FDE1000111EF08F06FEC0CF021EC0BF002
:1018B0005DEC0CF06CEC0BF01200700E0E01D36FAF
:1018C000D56BD76B020ED96FD86B12000E01C8A171
:1018D0006CEF0CF06EEF0CF066EF0CF012000E01E6
:1018E000DC6BDD6BDE6BDF6BE06BE16B12001D8090
:1018F00017501724C1EC0CF0030E12001D80D88085
:101900001734C1EC0CF0050E120032C041F033C0A8
:1019100042F0120032C043F033C044F0120032C033
:101920003FF033C040F012001D90D6EC0CF0040ED6
:101930001200000E4CEC0BF012001D921C6A0E0EF1
:101940001200CBEC0CF0090E1200CBEC0CF00A0EDE
:101950001200C8EC0CF0050E1200DCEC0CF0000ECE
:101960001200DEEC0CF0010E1200DEEC0CF0020EA8
:101970001200DEEC0CF0010E12001D921C6A0E0E1D
:101980001200326E32C091FF12000E01C8811200A7
:10199000969A96881200968A968812000E01C09137
:1019A00012000E01C891120091501200968612008A
:1019B000050E1200010E120096841200968212008B
:0819C00096801200959A1200B6
:04FFFC004BEF0CF0CB
:020000040030CA
:0C000000FCFFFFFF9FFFFFDFFFFFFFFF83
:00000001FF
