:04000000FEEF7FF0A0
:10C83A00959A12009680120096821200968412002F
:10C84A00010E1200050E1200968612009150120077
:10C85A000E01C89112000E01C0911200968A9688A4
:10C86A001200969A968812000E01C8811200016E73
:10C87A0001C091FF120021EC64F0010E120021ECBC
:10C88A0064F0020E120021EC64F0010E120023EC97
:10C89A0064F0000E120036EC64F0050E120033EC60
:10C8AA0064F00A0E120033EC64F0090E1200000E56
:10C8BA007CEC66F012000001D693D56B0E0E1200C6
:10C8CA000001D693D56B0E0E120001C054F102C0BE
:10C8DA0055F1120001C058F102C059F1120001C00D
:10C8EA0056F102C057F112000001D69129EC64F00A
:10C8FA00040E12000001D681D880D0353CEC64F0D9
:10C90A00050E12000001D681D051D0253CEC64F00E
:10C91A00030E12000E01DC6BDD6BDE6BDF6BE06B6E
:10C92A00E16B12000E01C8A19DEF64F09FEF64F065
:10C93A0097EF64F01200800E946E080E956E966A58
:10C94A00030E926E959A1200700E0E01D36FD56B7C
:10C95A00D76B020ED96FD86B120005C001F006C062
:10C96A0002F007C003F0000E86EC67F0120096BCD6
:10C97A00C1EF64F0C4EF64F0010EC5EF64F0000E7D
:10C98A00120005C001F006C002F007C003F0020E53
:10C99A0086EC67F012000F015F51046E036A5E5164
:10C9AA000324016E000E0420026E12000E01C8BBA1
:10C9BA00E1EF64F0E4EF64F0010EE5EF64F0000EDD
:10C9CA001200016E0E01C8A9EDEF64F0EFEF64F0FA
:10C9DA00E7EF64F001C099FF12000001FF6B9CA20F
:10C9EA00F9EF64F0FBEF64F0FDEF64F09C989C882B
:10C9FA00985012008FEC64F0A0EC64F030EC67F011
:10CA0A00A9EC64F0F3EC65F05EEC66F0120012EF4C
:10CA1A0065F097EC64F0EBEC68F00001D6B318EF20
:10CA2A0065F01AEF65F00EEF65F01200026EB1ECD8
:10CA3A0065F00009D8B424EF65F026EF65F01CEF25
:10CA4A0065F00250E6EC64F0120001EE00F0540EBC
:10CA5A00EE6AE806FDE100EEBAF0460EEE6AE80676
:10CA6A00FDE1000126EF77F00001D6A73FEF65F060
:10CA7A0041EF65F048EF65F001C0D1F002C0D2F095
:10CA8A0003C0D3F0D697120095BA4EEF65F050EF77
:10CA9A0065F058EF65F0800E946E080E956E966AF2
:10CAAA00030E926E958A1200A00E0001A66F000E68
:10CABA00976F000E986F9EC099F09FC09AF0A60ECD
:10CACA009B6FE2EC66F0120008C001F0000E036EE4
:10CADA00020E026E39EC65F0000E056E000E066E4F
:10CAEA00000E076EB2EC64F0040E120008C001F0EA
:10CAFA00000E036E010E026E39EC65F0000E056E33
:10CB0A00000E066E000E076EB2EC64F0020E120002
:10CB1A0008C001F0000E036E020E026E39EC65F0D9
:10CB2A00000E056E000E066E000E076EB2EC64F083
:10CB3A00020E120008C001F0000E036E010E026E12
:10CB4A0039EC65F0000E056E000E066E000E076EDB
:10CB5A00B2EC64F0040E1200016A0E01C8A9B8EF23
:10CB6A0065F0BAEF65F0C3EF65F09DAABFEF65F017
:10CB7A00C1EF65F0C3EF65F0010E016E01501200BE
:10CB8A00010E016E0001D6B3CDEF65F0CFEF65F06F
:10CB9A00D9EF65F0D695D0692DEC64F030EC64F0ED
:10CBAA001DEC64F0D5C001F001501200056E05C0FD
:10CBBA005AFF0F015B8F5B9D5B815BB1E7EF65F00D
:10CBCA00E9EF65F0E2EF65F05F51046E036A5E51CA
:10CBDA000324016E000E0420026E1200656A666A62
:10CBEA00676A686A636A646A616A0F015A6B586B9A
:10CBFA00596B546B100E556F566B606A536B516BC1
:10CC0A001F0E526F840E5B6F576B12000850D96E5D
:10CC1A00DA6A020ED926DF50016E0850D96EDA6A36
:10CC2A00DECF02F0DDCF03F039EC65F0000E056EC1
:10CC3A00000E066E000E076EB2EC64F0020E1200D1
:10CC4A000150021003100410D8B42EEF66F030EF32
:10CC5A0066F038EF66F0000E011A000E021A000E96
:10CC6A00031A800E041A01C001F002C002F003C0C8
:10CC7A0003F004C004F0120001C005F002C006F07F
:10CC8A0003C0F6FF04C0F7FF034A042AF86A05C086
:10CC9A00D9FF06C0DAFF054A062A0800F5CFDFFFEA
:10CCAA00DF50D8A45BEF66F05DEF66F045EF66F003
:10CCBA001200080E9E6E900E9C6E240E9D6E080E3B
:10CCCA009A6E9B6A000E016E000E026E6FEC64F0A3
:10CCDA00000E016E000E026E74EC64F0000E016E1E
:10CCEA00000E026E6AEC64F00001FF6B1200066E21
:10CCFA00010E076E0001D6B385EF66F087EF66F086
:10CD0A009BEF66F0D683076A0650D8B48FEF66F0B9
:10CD1A0091EF66F095EF66F0010ED46F97EF66F02B
:10CD2A00020ED46F1FEC64F00CEC65F00750120091
:10CD3A00000E126E000E116EAEEF66F010C003F018
:10CD4A00046A0EC005F00FC006F0F6EC6AF0114A4C
:10CD5A00122A11500C24D96E12500D20DA6EDF50AF
:10CD6A00106E1050D8A4BCEF66F0BEEF66F0A3EFC9
:10CD7A0066F01200000E2C1A000E2D1A000E2E1A42
:10CD8A00800E2F1A28C001F029C002F02AC003F031
:10CD9A002BC004F02CC005F02DC006F02EC007F001
:10CDAA002FC008F0CBEC74F001C028F002C029F0C3
:10CDBA0003C02AF004C02BF0120099C09CF09AC05C
:10CDCA009DF0F3EF66F097C08CF098C08DF09C0E42
:10CDDA0000018E6F9BC08FF0A1EC6FF09CC0F6FF34
:10CDEA009DC0F7FFF86A0800F5500009D8A400EFC3
:10CDFA0067F002EF67F0E8EF66F0000E0001986F47
:10CE0A00000E976F120003C00AF004C00BF001C0B5
:10CE1A0008F002C009F022EF67F00AC0D9FF0BC080
:10CE2A00DAFFDF50076E0A4A0B2A08C0D9FF09C089
:10CE3A00DAFF07C0DFFF084A092A0506D8A0060656
:10CE4A00052806E10628D8A42DEF67F02FEF67F032
:10CE5A0012EF67F01200826A836A846AFC0E876E98
:10CE6A00FC0E886EBF0E896E670E0F011C6F146967
:10CE7A000C69286B136B0B6B1B6B0A6B126B1A6BAF
:10CE8A00096911691969086910691869080E256F15
:10CE9A00140E0E01B36F170EB06F0F0EF56F100E52
:10CEAA00F66F090EF86F130EB26F120004BE60EF30
:10CEBA0067F062EF67F06CEF67F001C001F002C043
:10CECA0002F003C003F004C004F085EF67F001C06C
:10CEDA0005F002C006F003C007F004C008F0051E02
:10CEEA00061E071E081E052A000E06220722082211
:10CEFA0005C001F006C002F007C003F008C004F044
:10CF0A001200046E01500210D8B48EEF67F090EF51
:10CF1A0067F0A2EF67F00450020DF350BA0FD96E12
:10CF2A00DA6A01C0DEFF02C0DDFF0450C60FD96E07
:10CF3A00DA6A03C0DFFFB1EF67F00450020DF35065
:10CF4A00BA0FD96EDA6A4A0EDE6EC80EDD6E04506A
:10CF5A00C60FD96EDA6ADF6A12000001D691020E94
:10CF6A00D56FC0EF67F048EC64F0E2EF67F04CEC85
:10CF7A0064F0E2EF67F0C8C008F002D8CEEF67F0BD
:10CF8A000500FA6EBE51FD6EBF51FE6EFF6AFA5081
:10CF9A001200016E026A0250000AD8B4D7EF67F095
:10CFAA00BCEF67F00150020AD8B4B8EF67F0010A83
:10CFBA00D8B4B8EF67F0BCEF67F012000350041062
:10CFCA00D8B4EAEF67F0ECEF67F010EF68F0010E03
:10CFDA00056EF4EF67F0D89003360436052A04AEDE
:10CFEA00F9EF67F0FBEF67F0F0EF67F00350015CD1
:10CFFA0004500258D8A004EF68F006EF68F00AEF70
:10D00A0068F00350015E0450025AD8900432033289
:10D01A00052EFBEF67F001C001F002C002F012001A
:10D02A000B6E0B507DEC68F00009D8B41FEF68F066
:10D03A0021EF68F016EF68F03E0E056ECB0E066E15
:10D04A000A0E076EB2EC64F0090E016E000E036E52
:10D05A00010E026E39EC65F0000E056E000E066ECA
:10D06A00000E076E000E086EC6EC64F05CEC64F00D
:10D07A00C5EC65F0E806D8B445EF68F047EF68F00C
:10D08A003DEF68F012000A6E0B6A0A507DEC68F0F8
:10D09A000009D8B453EF68F055EF68F04AEF68F02A
:10D0AA00F60E056ECA0E066E0B0E076EB2EC64F033
:10D0BA00090E016E000E036E010E026E39EC65F068
:10D0CA00000E056E000E066E000E076E000E086E4C
:10D0DA00C6EC64F05CEC64F0C5EC65F0E806D8B424
:10D0EA0079EF68F07BEF68F071EF68F00B5012008F
:10D0FA00016E010E026E0001D6B586EF68F088EF68
:10D10A0068F0B2EF68F001C0D0F0D693D685D69118
:10D11A000E0ED46F010ECF6FF40ECE6FD6874A0E65
:10D12A00BA6FC80EBB6FC66B4A0EBC6FC80EBD6F16
:10D13A00C76B4A0EBE6FC80EBF6FC86B4A0EC06F70
:10D14A00C80EC16FC96B4E0EC26FC80EC36FCA6BD1
:10D15A002DEC64F049EC65F0026A0250120018BE28
:10D16A00BBEF68F0B9EF68F0BFEF68F0000E186E19
:10D17A00000E176E000E1B6E000E1A6ED1EF68F0CD
:10D18A00000E046E200E036E13C005F014C006F0E4
:10D19A00F6EC6AF01A4A1B2A17501A5C1B50800ACE
:10D1AA00196E1850800A1958D8A0DEEF68F0E0EF1F
:10D1BA0068F0C5EF68F015C00CF016C00DF013C08A
:10D1CA000EF014C00FF09DEC66F012002DEC64F026
:10D1DA000001D6A1F3EF68F0F5EF68F002EF69F00D
:10D1EA00BCEC64F00009D8B4FDEF68F0FFEF68F01A
:10D1FA0002EF69F00F0E0001D46F0001D451020D45
:10D20A00970EF324F66EFE0EF420F76EF86A000EFF
:10D21A00F8220900F5CF04F00900F5CF05F002D88D
:10D22A0020EF69F00500FA6E0450FD6E0550FE6E9F
:10D23A00FF6AFA5012000001D46F1200000E076E46
:10D24A00000E066E03500410D8B42EEF69F030EFCA
:10D25A0069F058EF69F0010E056E38EF69F0D89061
:10D26A0003360436052A04AE3DEF69F03FEF69F054
:10D27A0034EF69F0D890063607360350015C045043
:10D28A000258D8A04BEF69F04DEF69F052EF69F000
:10D29A000350015E0450025A0680D89004320332C9
:10D2AA00052E3FEF69F006C001F007C002F0120038
:10D2BA000001D6876EEF69F048EC64F098EF69F0E8
:10D2CA0039EC64F0030E98EF69F04CEC64F098EFD7
:10D2DA0069F0C6C008F002D87CEF69F00500FA6E62
:10D2EA00BA51FD6EBB51FE6EFF6AFA501200016E12
:10D2FA00026A0250000AD8B485EF69F06AEF69F051
:10D30A000150010AD8B46AEF69F0030AD8B461EF90
:10D31A0069F0010AD8B461EF69F0070AD8B465EF79
:10D32A0069F06AEF69F012000001D151D96EDA6A28
:10D33A002BEC64F0DF6E0001D12BD207D8A0D30703
:10D34A00D251D311D8B4ACEF69F0AEEF69F0B3EFB4
:10D35A0069F036EC64F0050EE8EF69F0D687BEEFA7
:10D36A0069F058EC64F0E8EF69F054EC64F0E8EF27
:10D37A0069F0C6C008F002D8CCEF69F00500FA6E71
:10D38A00BA51FD6EBB51FE6EFF6AFA501200016E71
:10D39A00026A0250000AD8B4D5EF69F0BAEF69F010
:10D3AA000150010AD8B4BAEF69F0030AD8B4B6EF4B
:10D3BA0069F0010AD8B4B6EF69F0070AD8B4BAEF2F
:10D3CA0069F0BAEF69F01200000E0114096E000E3E
:10D3DA0002140A6E800E03140B6E7F0E04140C6E78
:10D3EA0009500A100B100C10D8A4FEEF69F000EFD8
:10D3FA006AF008EF6AF0000E016E000E026E000E6F
:10D40A00036E000E046E000E0514096E000E06145B
:10D41A000A6E800E07140B6E7F0E08140C6E0950EC
:10D42A000A100B100C10D8A41DEF6AF01FEF6AF057
:10D43A0027EF6AF0000E056E000E066E000E076EEC
:10D44A00000E086E055001180FE1065002180CE193
:10D45A000750031809E108500418D8B437EF6AF0E6
:10D46A0039EF6AF03CEF6AF0D8903DEF6AF0D88065
:10D47A001200000E076E000E066E0150D96EDA6AAF
:10D48A00DECFF6FFDDCFF7FFF86A0800F5502A0A6B
:10D49A00D8A452EF6AF054EF6AF07DEF6AF00150B7
:10D4AA00D96EDA6ADE2A000EDD220250D96EDA6AF5
:10D4BA00020EDF26DF5CD96EDA6ADECF06F0DECF37
:10D4CA0007F091EF6AF00A0E0602F3CF03F0F4CFE9
:10D4DA0004F00702F350042605500324066E000EDA
:10D4EA000420076E0150D96EDA6ADE2A000EDD22A8
:10D4FA000150D96EDA6ADECFF6FFDDCFF7FFF86AA0
:10D50A000800F550D00F056E090E05648FEF6AF01A
:10D51A0091EF6AF068EF6AF006C001F007C002F006
:10D52A001200BCEC64F00009D8B49EEF6AF0A0EFD8
:10D53A006AF0D9EF6AF0AEEF6AF040EC64F0F5EF0A
:10D54A006AF044EC64F0F5EF6AF04CEC64F0F5EF45
:10D55A006AF0C9C008F002D8BDEF6AF00500FA6E99
:10D56A000001C051FD6EC151FE6EFF6AFA501200F1
:10D57A00026E036A0350000AD8B4C6EF6AF0AAEF33
:10D58A006AF00250010AD8B4AAEF6AF0030AD8B4C2
:10D59A00A2EF6AF0010AD8B4A6EF6AF0070AD8B473
:10D5AA00AAEF6AF0AAEF6AF00001D69120EED1F054
:10D5BA00DF50DF2AD96EDA6ADF503CEC64F00001F2
:10D5CA00D207D8A0D307D251D311D8A4EFEF6AF06B
:10D5DA00F1EF6AF0F4EF6AF0060EF5EF6AF0030E67
:10D5EA00120005500610D8B4FDEF6AF0FFEF6AF09A
:10D5FA0008EF6BF005500610D8A406EF6BF008EFA1
:10D60A006BF00DEF6BF003501BEC65F05AEF6BF00B
:10D61A0020EE09F00550D9260650DA22DE50DE1037
:10D62A00D8B41AEF6BF01CEF6BF037EF6BF020EE0B
:10D63A0009F00550D9260650DA2210EE02F00550FC
:10D64A00E1260650E222DE50E65CE650800A0B6EC6
:10D65A00DE50800A0B58D8B035EF6BF037EF6BF01D
:10D66A005AEF6BF020EE02F00550D9260650DA2266
:10D67A00DECF07F0DDCF08F005C0D9FF06C0DAFF1C
:10D68A00DECF09F0DDCF0AF007500924D96E085021
:10D69A000A20DA6E03C0DFFF20EE02F00550D92619
:10D6AA000650DA22DE2A000EDD2212008386FA0EE6
:10D6BA0000D0E82EFDD70C0E0F015A6F0C0EDBECD2
:10D6CA0065F001C04DF002C04EF0330E136E330EFA
:10D6DA00146E530E156E400E166E4DC001F04EC0FC
:10D6EA0002F0036A046A000EBEEC6DF001C00FF08E
:10D6FA0002C010F003C011F004C012F0B8EC72F0CE
:10D70A000FC028F010C029F011C02AF012C02BF067
:10D71A00000E2C6E000E2D6E800E2E6E440E2F6E95
:10D72A00F0EC70F028C049F029C04AF02AC04BF04A
:10D73A002BC04CF049C00FF04AC010F04BC011F09A
:10D74A004CC012F0520E136EB80E146E3E0E156EC9
:10D75A00400E166EB8EC72F00FC045F010C046F0DD
:10D76A0011C047F012C048F045C041F046C042F02F
:10D77A0047C043F048C044F012000001EABFCAEFB4
:10D78A006BF0C8EF6BF0D0EF6BF0000E236E010E5A
:10D79A00226ED4EF6BF0E9C022F0EAC023F0E7C0B2
:10D7AA0020F0E8C021F0000E256E4F0E246E010114
:10D7BA00536B0AEF6CF02406D8A02506040E242425
:10D7CA00D96E010E2520DA6E1EC001F01FC002F0CC
:10D7DA00000E046E0A0E036EE3EC67F00150300F80
:10D7EA00DF6E2206D8A023062006D8A021061EC076
:10D7FA0001F01FC002F0000E046E0A0E036E23EC45
:10D80A0069F001C01EF002C01FF024502510D8B4E0
:10D81A0011EF6CF013EF6CF029EF6CF01E501F1033
:10D82A00D8A41AEF6CF01CEF6CF0E0EF6BF023BE9B
:10D83A0029EF6CF0235006E12204D8B027EF6CF0F0
:10D84A0029EF6CF0E0EF6BF01CC013F01DC014F070
:10D85A00040E2424156E010E2520166E20C017F022
:10D86A0021C018F0B4EC68F01200DBC00BF0DCC089
:10D87A000CF0DDC00DF0DEC00EF001C00BF002C0EE
:10D88A000CF003C00DF004C00EF00BC005F00CC084
:10D89A0006F00DC007F00EC008F0180E5AEF6CF033
:10D8AA00D8900832073206320532E82E55EF6CF06E
:10D8BA000550096E0A6A09500A10D8A467EF6CF07D
:10D8CA0069EF6CF089EF6CF0D8900B34056E0C346C
:10D8DA00066E0D34076E0E34086E055006100710DA
:10D8EA000810D8A47BEF6CF07DEF6CF083EF6CF03E
:10D8FA00000E026E020E016EB8EF6CF0000E026EA0
:10D90A00030E016EB8EF6CF009280A10D8A490EF44
:10D91A006CF092EF6CF0B4EF6CF00BC005F00CC039
:10D92A0006F00DC007F00EC008F0090ED8900536B3
:10D93A00063607360836E82E9BEF6CF005500610BF
:10D94A0007100810D8B4ACEF6CF0AFEF6CF0010E12
:10D95A00B0EF6CF0000E016E026AB8EF6CF0000EC8
:10D96A00026E040E016E1200000E2814306E000EB4
:10D97A002914316E800E2A14326E7F0E2B14336EE8
:10D98A003050311032103310D8A4CEEF6CF0D0EFF3
:10D99A006CF0D8EF6CF0000E286E000E296E000EA7
:10D9AA002A6E000E2B6E000E2C14306E000E2D14F3
:10D9BA00316E800E2E14326E7F0E2F14336E30505D
:10D9CA00311032103310D8A4EDEF6CF0EFEF6CF099
:10D9DA00F7EF6CF0000E2C6E000E2D6E000E2E6E00
:10D9EA00000E2F6E2BAEFCEF6CF0FEEF6CF007EF23
:10D9FA006DF0286C291ED8B0292A2A1ED8B02A2AE6
:10DA0A00800E2B562FAE0CEF6DF00EEF6DF017EF68
:10DA1A006DF02C6C2D1ED8B02D2A2E1ED8B02E2AB1
:10DA2A00800E2F56000E281A000E291A000E2A1AE6
:10DA3A00800E2B1A000E2C1A000E2D1A000E2E1A0A
:10DA4A00800E2F1A2C50285C2D5029582E502A58F7
:10DA5A002F502B58D8B034EF6DF036EF6DF039EF08
:10DA6A006DF0D8903AEF6DF0D88012000334043488
:10DA7A000A6E0A50D8A444EF6DF046EF6DF050EFED
:10DA8A006DF0000E016E000E026E000E036E000EA7
:10DA9A00046EBDEF6DF001C005F002C006F003C0D0
:10DAAA0007F004C008F0200E60EF6DF0D89008323D
:10DABA00073206320532E82E5BEF6DF00550096E2B
:10DACA00038EFF0E0116FF0E0216FF0E0316000E3E
:10DADA000416960E0A5E0ABE77EF6DF075EF6DF0CA
:10DAEA008DEF6DF00A50800A970FD8B07FEF6DF076
:10DAFA0081EF6DF083EF6DF046EF6DF0D890043250
:10DB0A000332023201320A3E83EF6DF0A5EF6DF067
:10DB1A001F0E0A6493EF6DF095EF6DF09DEF6DF0B7
:10DB2A0046EF6DF0D89001360236033604360A06FF
:10DB3A000A50D8A4A3EF6DF0A5EF6DF097EF6DF042
:10DB4A000950D8B4ABEF6DF0ADEF6DF0B5EF6DF0F5
:10DB5A00041E031E021E016C000E0222032204226E
:10DB6A0001C001F002C002F003C003F004C004F0D7
:10DB7A001200096E0950D8B4C5EF6DF0C7EF6DF009
:10DB8A00E9EF6DF004BECEEF6DF0CCEF6DF0E9EF8A
:10DB9A006DF001C005F002C006F003C007F004C032
:10DBAA0008F0051E061E071E081E052A000E06227C
:10DBBA000722082205C00BF006C00CF007C00DF0C2
:10DBCA0008C00EF0F1EF6DF001C00BF002C00CF0CE
:10DBDA0003C00DF004C00EF001500210031004102F
:10DBEA00D8A4FAEF6DF0FCEF6DF006EF6EF0000EC0
:10DBFA00016E000E026E000E036E000E046E97EFA9
:10DC0A006EF0960E0A6E10EF6EF00A2AD8900E3257
:10DC1A000D320C320B32000E0B14056E000E0C1472
:10DC2A00066E000E0D14076EFE0E0E14086E0550D9
:10DC3A00061007100810D8A425EF6EF027EF6EF033
:10DC4A000AEF6EF035EF6EF00A2A010E0B26000E6F
:10DC5A000C220D220E22D8900E320D320C320B32CB
:10DC6A00000E0B14056E000E0C14066E000E0D1439
:10DC7A00076EFF0E0E14086E0550061007100810E6
:10DC8A00D8A44AEF6EF04CEF6EF029EF6EF054EF25
:10DC9A006EF00A06D8900B360C360D360E360DBECF
:10DCAA0059EF6EF05BEF6EF063EF6EF0020E0A60F2
:10DCBA0061EF6EF063EF6EF04EEF6EF00AB068EF50
:10DCCA006EF06AEF6EF06BEF6EF00D9ED8900A322E
:10DCDA000AC005F0066A076A086A05C008F0076AFA
:10DCEA00066A056A05500B1206500C1207500D12EF
:10DCFA0008500E120950D8B485EF6EF087EF6EF017
:10DD0A008FEF6EF004BE8EEF6EF08CEF6EF08FEF39
:10DD1A006EF00E8E0BC001F00CC002F00DC003F0C5
:10DD2A000EC004F01200D7C051F0D8C052F0D9C0CA
:10DD3A0053F0DAC054F041C051F042C052F043C02F
:10DD4A0053F044C054F0810E456EFF0E466E51C02A
:10DD5A0047F052C048F053C049F054C04AF0180E78
:10DD6A00BCEF6EF0D8904A32493248324732E82E38
:10DD7A00B7EF6EF0475045244F6E000E4620506EA6
:10DD8A0050BED1EF6EF0505009E1170E4F5CD8A08B
:10DD9A00D1EF6EF0D3EF6EF0DDEF6EF041C041F0DF
:10DDAA0042C042F043C043F044C044F0A0EF6FF0D9
:10DDBA0050BEE2EF6EF0E4EF6EF054EF6FF04FC03A
:10DDCA0045F0FF0E466EFF0E476E7F0E486E000E40
:10DDDA00496E4566F3EF6EF0FBEF6EF04934493257
:10DDEA00483247324632452EEEEF6EF046C04BF0CF
:10DDFA0047C04CF048C04DF049C04EF04B5051144A
:10DE0A00456E4C505214466E4D505314476E4E5048
:10DE1A005414486E4550461047104810D8A418EFBD
:10DE2A006FF01AEF6FF01CEF6FF0D3EF6EF051C086
:10DE3A0045F052C046F053C047F054C048F0200E97
:10DE4A002CEF6FF0D8904832473246324532E82EEE
:10DE5A0027EF6FF04550461047104810D8B438EFF6
:10DE6A006FF03AEF6FF042EF6FF04B5051264C5083
:10DE7A0052224D5053224E5054224B1C456E4C1C7C
:10DE8A00466E4D1C476E4E1C486E45505116465004
:10DE9A005216475053164850541698EF6FF051C017
:10DEAA0045F052C046F053C047F054C048F0200E27
:10DEBA0064EF6FF0D8904832473246324532E82E46
:10DECA005FEF6FF04550461047104810D8A470EF26
:10DEDA006FF072EF6FF07CEF6FF0000E516E000E74
:10DEEA00526E000E536E000E546E98EF6FF0D8907B
:10DEFA005134456E5234466E5334476E5434486E2C
:10DF0A004550461047104810D8B48EEF6FF090EF86
:10DF1A006FF098EF6FF0000E516E000E526E800E89
:10DF2A00536EBF0E546E51C041F052C042F053C0FE
:10DF3A0043F054C044F0120000018E51D96EDA6ADF
:10DF4A00DECFF6FFDDCFF7FFF86A0800F550250AA5
:10DF5A00D8A4B2EF6FF0B4EF6FF0DBEF70F08E5130
:10DF6A00D96EDA6ADE2A000EDD22000EE86F000E94
:10DF7A00E76FE7C0EFF0E969EA698E51D96EDA6AAC
:10DF8A00DECFF6FFDDCFF7FFF86A0800F5502E0A5C
:10DF9A00D8A4D2EF6FF0D4EF6FF0E4EF6FF08E51A8
:10DFAA00D96EDA6ADE2A000EDD228EC001F08FC039
:10DFBA0002F03EEC6AF001C0E9F002C0EAF00001AA
:10DFCA008E51D96EDA6ADECF95F0DDCF96F095C024
:10DFDA00F6FF96C0F7FFF86A0800F550750AD8A44C
:10DFEA00F9EF6FF0FBEF6FF02FEF70F08F51D96EF2
:10DFFA00DA6A020EDF26DF5CD96EDA6ADECF90F0CB
:10E00A00DECF91F0010E95255E6E000E96215F6EB1
:10E01A008E51D96EDA6A5EC0DEFF5FC0DDFF22EF85
:10E02A0070F08CC01CF08DC01DF090C01EF091C025
:10E03A001FF0C2EC6BF0EFEF70F095C0F6FF96C0E0
:10E04A00F7FFF86A0800F550750AD8B416EF70F0B1
:10E05A002FEF70F08E51D96EDA6ADECF95F0DDCFF0
:10E06A0096F095C0F6FF96C0F7FFF86A0800F5CF5C
:10E07A0094F04BEF70F0954B962B5AEF70F06C0EB4
:10E08A00946F5AEF70F0946B5AEF70F094514C0AF7
:10E09A00D8B440EF70F02A0AD8B444EF70F00A0AF4
:10E0AA00D8B440EF70F048EF70F095C0F6FF96C014
:10E0BA00F7FFF86A0800F550660AD8A467EF70F00F
:10E0CA0069EF70F0D2EF70F093EF70F08F51D96E64
:10E0DA00DA6ADFCF5EF0040EDF265E50D96EDA6AA6
:10E0EA00DECF90F0DECF91F0DECF92F0DECF93F06C
:10E0FA009EEF70F08F51D96EDA6ADFCF5EF0040EB0
:10E10A00DF265E50D96EDA6ADECF90F0DECF91F06C
:10E11A00DECF92F0DECF93F09EEF70F094514C0A6E
:10E12A00D8B47FEF70F0200AD8B46BEF70F09EEF8E
:10E13A0070F0010E95255E6E000E96215F6E8E516F
:10E14A00D96EDA6A5EC0DEFF5FC0DDFFC5EF70F030
:10E15A008CC055F08DC056F090C057F091C058F061
:10E16A0092C059F093C05AF095C0F6FF96C0F7FFD7
:10E17A00F86A0800F5CF5BF051EC7AF0EFEF70F037
:10E18A0095C0F6FF96C0F7FFF86A0800F550660AD0
:10E19A00D8B4ADEF70F0D2EF70F000018E51D96EA5
:10E1AA00DA6ADE2A000EDD22EFEF70F08E51D96EA8
:10E1BA00DA6ADECFF6FFDDCFF7FFF86A0800F5501E
:10E1CA00036E046A8CC005F08DC006F0F6EC6AF0A6
:10E1DA00D2EF70F012002B50800B386E2B502B248C
:10E1EA003F6E2AAEFBEF70F0FDEF70F0FEEF70F0BD
:10E1FA003F803F50D8B404EF71F006EF71F01AEF88
:10E20A0071F03F28D8A40CEF71F00EEF71F016EF01
:10E21A0071F0000E286E000E296E000E2A6E000E96
:10E22A002B6E2A8E2B6A22EF71F0000E286E000EDA
:10E23A00296E000E2A6E000E2B6E2F50800B381A94
:10E24A002F502F24406E2EAE2DEF71F02FEF71F06C
:10E25A0030EF71F040804050D8B436EF71F038EFAB
:10E26A0071F04CEF71F04028D8A43EEF71F040EF06
:10E27A0071F048EF71F0000E2C6E000E2D6E000E3C
:10E28A002E6E000E2F6E2E8E2F6A54EF71F0000E36
:10E29A002C6E000E2D6E000E2E6E000E2F6E2C5060
:10E2AA002D102E102F10D8A45DEF71F05FEF71F0D2
:10E2BA0077EF71F0000E286E000E296E000E2A6E9E
:10E2CA00000E2B6E800E2A127F0E2B1238502B1244
:10E2DA0028C028F029C029F02AC02AF02BC02BF028
:10E2EA00B7EF72F03F50D8A47DEF71F07FEF71F075
:10E2FA0089EF71F0000E286E000E296E000E2A6E4C
:10E30A00000E2B6EB7EF72F040503FC030F0316A0A
:10E31A00305E000E315A7F0E3024396E000E3120E5
:10E32A003A6E28C034F029C035F02AC036F02BC026
:10E33A0037F0000E286E000E296E000E2A6E000EAF
:10E34A002B6E000E3B6E000E3C6E000E3D6E000EF4
:10E35A003E6E406AE9EF71F04050D8B4B7EF71F001
:10E36A00B9EF71F0D0EF71F0D890343635363636D1
:10E37A003736D890283629362A362B363EAEC8EF9D
:10E38A0071F0CAEF71F0CBEF71F02880D8903B366C
:10E39A003C363D363E362C50345C2D5035582E5086
:10E3AA0036582F503758D8A0DDEF71F0DFEF71F0F3
:10E3BA00E8EF71F03E8C2C50345E2D50355A2E50B9
:10E3CA00365A2F50375A402A190E4064EFEF71F02F
:10E3DA00F1EF71F0B1EF71F034503510361037109B
:10E3EA00D8B4FAEF71F0FCEF71F014EF72F03B80E1
:10E3FA0014EF72F0D890283629362A362B363EAEDC
:10E40A0009EF72F00BEF72F00CEF72F02880D890DF
:10E41A003B363C363D363E363906D8A03A062AAE59
:10E42A0019EF72F01BEF72F0FFEF71F0406A3EAE27
:10E43A0021EF72F023EF72F047EF72F0FF0E3B14F8
:10E44A00306EFF0E3C14316EFF0E3D14326E7F0E9D
:10E45A003E14336E3050311032103310D8B438EFC6
:10E46A0072F03AEF72F03EEF72F0010E406E47EF33
:10E47A0072F028A043EF72F045EF72F047EF72F0A6
:10E48A003AEF72F04050D8B44DEF72F04FEF72F09D
:10E49A0073EF72F0010E2826000E29222A222B225F
:10E4AA002BA05AEF72F05CEF72F073EF72F028C093
:10E4BA0030F029C031F02AC032F02BC033F03334A7
:10E4CA00333232323132303230C028F031C029F0A2
:10E4DA0032C02AF033C02BF0394A3A2A3ABE7EEFCC
:10E4EA0072F03A5008E13928D8A07EEF72F080EF36
:10E4FA0072F08BEF72F0000E3A6E3968000E286ED9
:10E50A00000E296E000E2A6E000E2B6E3ABE98EF90
:10E51A0072F03A5006E13904D8B096EF72F098EFEB
:10E52A0072F0A5EF72F0000E3A6E000E396E000E10
:10E53A00286E000E296E000E2A6E000E2B6E386AA7
:10E54A0039C03FF03FA0ACEF72F0AEEF72F0B1EF1E
:10E55A0072F02A8EB2EF72F02A9ED8903F302B6E5C
:10E56A006BEF71F012001250800B1B6E12501224C6
:10E57A00216E11AEC3EF72F0C5EF72F0C6EF72F002
:10E58A0021802150D8B4CCEF72F0CEEF72F0E1EFD7
:10E59A0072F02128D8A4D4EF72F0D6EF72F0DEEF31
:10E5AA0072F0000E0F6E000E106E000E116E000E4D
:10E5BA00126E118EE9EF72F0000E0F6E000E106EE1
:10E5CA00000E116E000E126E1650800B1B1A16509A
:10E5DA0016241C6E15AEF4EF72F0F6EF72F0F7EF38
:10E5EA0072F01C801C50D8B4FDEF72F0FFEF72F08D
:10E5FA0012EF73F01C28D8A405EF73F007EF73F03D
:10E60A000FEF73F0000E136E000E146E000E156EEF
:10E61A00000E166E158E1AEF73F0000E136E000EB2
:10E62A00146E000E156E000E166E1C50D8B420EF34
:10E63A0073F022EF73F02AEF73F02150D8A428EF79
:10E64A0073F02AEF73F034EF73F0000E0F6E000EC2
:10E65A00106E000E116E000E126ECAEF74F0155095
:10E66A000F02F3CF26F0F4CF27F026501D6E1E6A54
:10E67A001F6A206A2750226E236A246A256A145068
:10E68A001002F3CF26F0F4CF27F026501D26000EF5
:10E69A001E221F22202227502226000E2322242255
:10E6AA00252213501102F3CF26F0F4CF27F026507B
:10E6BA001D26000E1E221F22202227502226000E6F
:10E6CA002322242225221FC020F01EC01FF01DC0B5
:10E6DA001EF01D6A13501002F3CF26F0F4CF27F074
:10E6EA0026501D2627501E22000E1F22000E202211
:10E6FA0014500F02F3CF26F0F4CF27F026501D2630
:10E70A0027501E22000E1F22000E20221FC020F0BA
:10E71A001EC01FF01DC01EF01D6A13500F02F3CF5A
:10E72A0026F0F4CF27F026501D2627501E22000E71
:10E73A001F22000E202215501002F3CF26F0F4CF2C
:10E74A0027F02650222627502322000E2422000ECC
:10E75A00252214501102F3CF26F0F4CF27F02650C9
:10E76A00222627502322000E2422000E252215508D
:10E77A001102F3CF26F0F4CF27F02650176E275058
:10E78A00186E196A1A6A19C01AF018C019F017C057
:10E79A0018F0176A175022261850232219502422DB
:10E7AA001A5025221DC017F01EC018F01FC019F0FC
:10E7BA0020C01AF0190EE7EF73F0D8901A32193206
:10E7CA0018321732E82EE2EF73F01750222618504B
:10E7DA002322195024221A5025221FC020F01EC0BD
:10E7EA001FF01DC01EF01D6A1C5021C017F0186AC8
:10E7FA001726000E1822820E1724266EFF0E1820E6
:10E80A00276E1DEF74F0D89022362336243625362B
:10E81A0020AE12EF74F014EF74F015EF74F022804A
:10E82A00D8901D361E361F3620362606D8A0270653
:10E83A0024AE22EF74F024EF74F008EF74F01C6A2F
:10E84A0020AE2AEF74F02CEF74F050EF74F0FF0E44
:10E85A001D14176EFF0E1E14186EFF0E1F14196E6C
:10E86A007F0E20141A6E1750181019101A10D8B4E7
:10E87A0041EF74F043EF74F047EF74F0010E1C6E31
:10E88A0050EF74F022A04CEF74F04EEF74F050EF9A
:10E89A0074F043EF74F01C50D8B456EF74F058EF8C
:10E8AA0074F07CEF74F0010E2226000E232224223B
:10E8BA00252225A063EF74F065EF74F07CEF74F005
:10E8CA0022C017F023C018F024C019F025C01AF08E
:10E8DA001A341A3219321832173217C022F018C0F5
:10E8EA0023F019C024F01AC025F0264A272A27BE89
:10E8FA0087EF74F0275008E12628D8A087EF74F034
:10E90A0089EF74F093EF74F0000E226E000E236EFE
:10E91A00800E246E7F0E256EC0EF74F027BEA0EF26
:10E92A0074F0275006E12604D8B09EEF74F0A0EFE9
:10E93A0074F0ABEF74F0000E226E000E236E000E20
:10E94A00246E000E256E1B6AC0EF74F026C021F0FB
:10E95A00FF0E2216FF0E23167F0E2416000E251612
:10E96A0021A0BAEF74F0BCEF74F0BDEF74F0248EFE
:10E97A00D8902130256E1B50251222C00FF023C0DB
:10E98A0010F024C011F025C012F012000450800BC0
:10E99A000D6E045004240F6E03AED6EF74F0D8EF58
:10E9AA0074F0D9EF74F00F800F50D8B4DFEF74F021
:10E9BA00E1EF74F0F5EF74F00F28D8A4E7EF74F0E4
:10E9CA00E9EF74F0F1EF74F0000E016E000E026EC2
:10E9DA00000E036E000E046E038E046AFDEF74F0DF
:10E9EA00000E016E000E026E000E036E000E046E23
:10E9FA000850800B0E6E0D500E18D8B407EF75F044
:10EA0A0009EF75F00AEF75F00D8C085008240E6EA8
:10EA1A0007AE12EF75F014EF75F015EF75F00E8072
:10EA2A000E50D8B41BEF75F01DEF75F031EF75F08D
:10EA3A000E28D8A423EF75F025EF75F02DEF75F0A9
:10EA4A00000E056E000E066E000E076E000E086EB2
:10EA5A00078E086A39EF75F0000E056E000E066E15
:10EA6A00000E076E000E086E0F500E5CD8B040EF15
:10EA7A0075F042EF75F069EF75F00DAC47EF75F080
:10EA8A0049EF75F04BEF75F0800E0D1A0FC010F0BC
:10EA9A000EC00FF010C00EF001C010F005C001F05A
:10EAAA0010C005F002C010F006C002F010C006F057
:10EABA0003C010F007C003F010C007F004C010F044
:10EACA0008C004F010C008F0106A0F500EC009F018
:10EADA000A6A095E000E0A5A0ABE7DEF75F00A50EC
:10EAEA0009E11A0E095CD8A07DEF75F07FEF75F089
:10EAFA00B6EF75F00150021003100410D8A488EF85
:10EB0A0075F08BEF75F0010E8CEF75F0000E106E3C
:10EB1A00000E016E000E026E000E036E000E046EF1
:10EB2A000EC00FF0BFEF75F010A09EEF75F0A0EFCA
:10EB3A0075F0A6EF75F0D89010300109106EA8EFA5
:10EB4A0075F0D890103201A0ADEF75F0AFEF75F007
:10EB5A00B0EF75F0108E04340432033202320132FF
:10EB6A000F2A0E500F5CD8A0BDEF75F0BFEF75F0FD
:10EB7A0099EF75F00DBCC4EF75F0C6EF75F006EFAE
:10EB8A0076F00F50D8A4CCEF75F0CEEF75F0D8EF31
:10EB9A0075F0000E016E000E026E000E036E000E7E
:10EBAA00046E25EF77F00550012606500222075021
:10EBBA0003220850042204A0E5EF75F0E7EF75F090
:10EBCA0093EF76F010A0ECEF75F0EEEF75F0F4EF3E
:10EBDA0075F0D89010300109106EF6EF75F0D890E4
:10EBEA00103201A0FBEF75F0FDEF75F0FEEF75F046
:10EBFA00108E043404320332023201320F2A93EFA8
:10EC0A0076F00550015C065002580750035804502C
:10EC1A00800A096E0850800A0958D8B017EF76F0B2
:10EC2A0019EF76F044EF76F00150055C096E025058
:10EC3A0006580A6E035007580B6E045008580C6E9B
:10EC4A00FF0E0924016EFF0E0A20026EFF0E0B2032
:10EC5A00036EFF0E0C20046E800E0D1A106C1050FD
:10EC6A00D8A43AEF76F03CEF76F04CEF76F0010E4E
:10EC7A000126000E0222032204224CEF76F00550F0
:10EC8A00015E0650025A0750035A0850045A0150AE
:10EC9A00021003100410D8A455EF76F057EF76F05F
:10ECAA008CEF76F01050D8A45DEF76F05FEF76F037
:10ECBA008CEF76F0000E016E000E026E000E036EEF
:10ECCA00000E046E25EF77F0D8900136023603362F
:10ECDA00043610AE73EF76F075EF76F076EF76F0D5
:10ECEA00018010A07BEF76F07DEF76F081EF76F071
:10ECFA00D880103683EF76F0D89010360F50D8B4FB
:10ED0A0089EF76F08BEF76F08CEF76F00F0603AE94
:10ED1A0091EF76F093EF76F069EF76F00E6A10AE27
:10ED2A0099EF76F09BEF76F0B3EF76F010C009F02A
:10ED3A007F0E0916D8B4A4EF76F0A6EF76F0AAEF04
:10ED4A0076F0010E0E6EB3EF76F001A0AFEF76F01B
:10ED5A00B1EF76F0B3EF76F0A6EF76F00E50D8B4B6
:10ED6A00B9EF76F0BBEF76F0E6EF76F0010E01260A
:10ED7A00000E02220322042204A0C6EF76F0C8EF96
:10ED8A0076F0E6EF76F001C009F002C00AF003C09F
:10ED9A000BF004C00CF00C340C320B320A3209327C
:10EDAA0009C001F00AC002F00BC003F00CC004F065
:10EDBA000F28D8B4E3EF76F0E5EF76F0E6EF76F0D9
:10EDCA000F2A0F28D8B4ECEF76F0EEEF76F0F6EFD4
:10EDDA0076F00F50D8A4F4EF76F0F6EF76F007EF5E
:10EDEA0077F0000E016E000E026E000E036E000E2A
:10EDFA00046E0F50D8A404EF77F006EF77F007EF10
:10EE0A0077F00D6A0FA00CEF77F00EEF77F011EFA5
:10EE1A0077F0038E12EF77F0039ED8900F30046ECE
:10EE2A000DAE1AEF77F01CEF77F01DEF77F0048E36
:10EE3A0001C001F002C002F003C003F004C004F0F4
:10EE4A001200FFEC64F0000E0001AB6F000EAC6F15
:10EE5A00000EAD6F000EAE6F88960F011C9D1C9FB1
:10EE6A00A00E00019E6FFF0E9F6F59EC65F0A30E76
:10EE7A000001A76F550EE82EFED7A72FFCD7100E5C
:10EE8A00096E020E0A6E5A0E15EC68F0070E0001A2
:10EE9A00A76F7D0EE82EFED7A72FFCD70C0E096EA2
:10EEAA005A0E48EC68F00001F66F0D0E096E5A0E04
:10EEBA0048EC68F00001F56F070E0001A76F7D0EA0
:10EECA00E82EFED7A72FFCD7200E096E100E0A6E69
:10EEDA005A0E15EC68F0070E0001A76F7D0EE82E9A
:10EEEA00FED7A72FFCD70C0E096E140E0A6E5A0E07
:10EEFA0015EC68F0200E096E180E0A6E5A0E15EC03
:10EF0A0068F082905BEC6BF041C0B2F042C0B3F0A3
:10EF1A0043C0B4F044C0B5F0F40E0001DF27010E7F
:10EF2A00E023000EE123000EE223DBEC64F000098B
:10EF3A00D8B4A2EF77F0A4EF77F012EF78F0F2EC02
:10EF4A0064F00001AF6FF7EF77F0B70E9E6FFE0E19
:10EF5A009F6F59EC65F012EF78F0840E9E6FFF0EEA
:10EF6A009F6FD0EC64F001C0A0F002C0A1F0B2C063
:10EF7A00A2F0B3C0A3F0B4C0A4F0B5C0A5F059EC98
:10EF8A0065F012EF78F0010EF36F8282B70E9E6F72
:10EF9A00FF0E9F6F59EC65F012EF78F0010EF26FD9
:10EFAA008380C80E9E6FFF0E9F6F59EC65F012EFBB
:10EFBA0078F0010EF16F8382D80E9E6FFF0E9F6F5D
:10EFCA0059EC65F012EF78F0F36BF26BF16B829209
:10EFDA0083908392E80E9E6FFF0E9F6F59EC65F047
:10EFEA0012EF78F0AF51620AD8B4C8EF77F00A0A84
:10EFFA00D8B4AAEF77F0010AD8B4D3EF77F0060AAB
:10F00A00D8B4DEEF77F01F0AD8B4E9EF77F0060A32
:10F01A00D8B4B2EF77F012EF78F0B2C028F0B3C0EC
:10F02A0029F0B4C02AF0B5C02BF0000E2C6E000EE9
:10F03A002D6EE80E2E6E400E2F6EB9EC6CF0D8B025
:10F04A0029EF78F02BEF78F08AEF78F00001AB51D6
:10F05A00DF5DA76FAC51E059A86FAD51E159A96FB7
:10F06A00AE51E259AA6FAA510DE1900EA75D5F0E4B
:10F07A00A859010EA959D8A045EF78F047EF78F0C2
:10F08A008AEF78F0000EB86F000EB76FB8BF57EF6F
:10F09A0078F0B85109E10F0EB75DD8A057EF78F0B4
:10F0AA0059EF78F05BEF78F082EF78F08380838213
:10F0BA00310E0001A76FB20EE82EFED7A72FFCD79C
:10F0CA00000083908392310E0001A76FB20EE82EE2
:10F0DA00FED7A72FFCD700000001B74BB82BB8BF4B
:10F0EA0080EF78F0B85109E10F0EB75DD8A080EF34
:10F0FA0078F082EF78F05BEF78F0DFC0ABF0E0C039
:10F10A00ACF0E1C0ADF0E2C0AEF0230E096E5A0ECB
:10F11A0048EC68F00001FD6FA30E0001A76F550EC1
:10F12A00E82EFED7A72FFCD73A0E096E5A0E48ECE6
:10F13A0068F00001FC6F3B0E096E5A0E48EC68F04D
:10F14A000001FB6F110E0001A76F3A0EE82EFED7E1
:10F15A00A72FFCD700003C0E096E5A0E48EC68F047
:10F16A000001F86F3D0E096E5A0E48EC68F0000176
:10F17A00F76FFB51A76FFC51ED6FA7C0EEF0F75187
:10F18A00A76FF851EB6FA7C0ECF0F351D8B4D0EFEA
:10F19A0078F0D2EF78F0D3EF78F08282F251D8B4D7
:10F1AA00D9EF78F0DBEF78F0DCEF78F08380F1517B
:10F1BA00D8B4E2EF78F0E4EF78F0E5EF78F0838204
:10F1CA00F251D8B4EBEF78F0EDEF78F0F7EF78F092
:10F1DA00F151D8B4F3EF78F0F5EF78F0F7EF78F073
:10F1EA0087EF77F0B06BEE5109E1C00EED5DD8A064
:10F1FA0001EF79F003EF79F00FEF79F0ED05050EE5
:10F20A00EE59D8B00BEF79F00DEF79F00FEF79F0F6
:10F21A00010EB06FB0C0B6F0B16BED05050EEE5938
:10F22A00D8A01AEF79F01CEF79F027EF79F07D0E6C
:10F23A00EE5DD8B023EF79F025EF79F027EF79F07A
:10F24A00010EB16FB1C0B9F032EF7AF0F251D8A421
:10F25A0031EF79F033EF79F034EF79F08390F151AF
:10F26A00D8A43AEF79F03CEF79F03DEF79F0839248
:10F27A00F351D8A443EF79F045EF79F046EF79F0EE
:10F28A008292B651D8B44CEF79F04EEF79F052EF42
:10F29A0079F0010EF06F87EF77F0B951D8B458EFD3
:10F2AA0079F05AEF79F087EF77F0020EF06F87EF77
:10F2BA0077F0F251D8A464EF79F066EF79F067EF4E
:10F2CA0079F08380F151D8A46DEF79F06FEF79F07E
:10F2DA0070EF79F08382F351D8A476EF79F078EF62
:10F2EA0079F079EF79F08292B951D8B47FEF79F059
:10F2FA0081EF79F083EF79F05AEF79F0B651D8A41B
:10F30A0089EF79F08BEF79F087EF77F0F06B87EF81
:10F31A0077F0F251D8A494EF79F096EF79F0A6EF4E
:10F32A0079F083B09BEF79F09EEF79F0010E9FEFB1
:10F33A0079F0000EFF0AA76F8350A719FE0BA719D1
:10F34A00836EF151D8A4ACEF79F0AEEF79F0BFEF4C
:10F35A0079F083B2B3EF79F0B6EF79F0010EB7EF37
:10F36A0079F0000EFF0AA76FA7478350A719FD0B74
:10F37A00A719836EF351D8A4C5EF79F0C7EF79F0D6
:10F38A00C8EF79F08282B951D8A4CEEF79F0D0EFE4
:10F39A0079F087EF77F0DFC0E3F0E0C0E4F0E1C096
:10F3AA00E5F0E2C0E6F0030EF06F87EF77F0F25176
:10F3BA00D8A4E2EF79F0E4EF79F0F4EF79F083B0D2
:10F3CA00E9EF79F0ECEF79F0010EEDEF79F0000E4C
:10F3DA00FF0AA76F8350A719FE0BA719836EF15175
:10F3EA00D8A4FAEF79F0FCEF79F00DEF7AF083B256
:10F3FA0001EF7AF004EF7AF0010E05EF7AF0000ED1
:10F40A00FF0AA76FA7478350A719FD0BA719836E99
:10F41A00F351D8A413EF7AF015EF7AF016EF7AF0D9
:10F42A008282E351DF5DA76FE451E059A86FE5518D
:10F43A00E159A96FE651E259AA6FAA51A9110BE144
:10F44A00580EA75D1B0EA859D8A02EEF7AF030EF00
:10F45A007AF087EF77F08BEF79F0F051A76FA86B0E
:10F46A00A851000AD8B43CEF7AF087EF77F0A75199
:10F47A00000AD8B42BEF79F0010AD8B45EEF79F01C
:10F48A00030AD8B48EEF79F0010AD8B4DCEF79F028
:10F49A0087EF77F0FEEF7FF00001816B57C082F0B3
:10F4AA0058C083F059C084F05AC085F085BF62EF16
:10F4BA007AF060EF7AF076EF7AF0010E816F82C00F
:10F4CA0001F083C002F084C003F085C004F025EC8B
:10F4DA0066F001C082F002C083F003C084F004C069
:10F4EA0085F0000E0001876F000E866FE7C071F08D
:10F4FA00E8C072F08151D8B485EF7AF087EF7AF0DC
:10F50A009BEF7AF08151D8A48DEF7AF08FEF7AF0E1
:10F51A0095EF7AF0000E676F2B0E666F99EF7AF00F
:10F52A00000E676F2D0E666F66C081F082C001F013
:10F53A0083C002F084C003F085C004F03AEC6CF09A
:10F54A0001040210D8A4ACEF7AF0AEEF7AF0E1EF42
:10F55A007AF000018151D8B4B5EF7AF0B7EF7AF0BA
:10F56A00C0EF7AF081C004F17107D8A07207000ECB
:10F57A00876F010E866F040E8625016E010E8721A4
:10F58A00026EF20E036EFF0E046E41EC66F000018D
:10F59A00FD0E7127FF0E722355C013F056C014F0EA
:10F5AA00040E156E010E166E71C017F072C018F0B7
:10F5BA00B4EC68F04AEF7FF082C001F083C002F039
:10F5CA0084C003F085C004F03AEC6CF001500210DC
:10F5DA00D8A4F2EF7AF0F4EF7AF014EF7BF000019E
:10F5EA008151D8B4FBEF7AF0FDEF7AF006EF7BF0A9
:10F5FA0081C004F17107D8A07207000E876F010E4F
:10F60A00866F040E8625016E010E8721026EF60EA4
:10F61A00036EFF0E046E41EC66F0CCEF7AF0000E3A
:10F62A000001886F000E896F800E8A6F3F0E8B6F04
:10F63A00000E706F000E6F6F82C001F083C002F07F
:10F64A0084C003F085C004F0000E056E000E066E3D
:10F65A00000E076E000E086EE9EC69F0D8B038EFBC
:10F66A007BF03AEF7BF019EF7CF047EF7BF073C049
:10F67A0088F074C089F075C08AF076C08BF00001FA
:10F68A006F4B702B88C00FF089C010F08AC011F040
:10F69A008BC012F0000E136E000E146E200E156E43
:10F6AA00410E166EB8EC72F00FC073F010C074F011
:10F6BA0011C075F012C076F000017351825D016EBF
:10F6CA0074518359026E75518459036E7651855966
:10F6DA00046E5BEC67F004BE7EEF7BF0045003100F
:10F6EA00021009E1020E015CD8A07EEF7BF080EFE8
:10F6FA007BF03CEF7BF073C028F074C029F075C032
:10F70A002AF076C02BF082C02CF083C02DF084C082
:10F71A002EF085C02FF0B9EC6CF0D8A097EF7BF0F3
:10F72A0099EF7BF03CEF7BF000018851825D016E1E
:10F73A0089518359026E8A518459036E8B518559B6
:10F74A00046E5BEC67F004BEB8EF7BF00450031064
:10F75A00021007E1020E015CD8B0B6EF7BF0B8EFF9
:10F76A007BF000EF7CF088C082F089C083F08AC009
:10F77A0084F08BC085F019EF7CF088C028F089C02E
:10F78A0029F08AC02AF08BC02BF0000E2C6E000ED6
:10F79A002D6E200E2E6E410E2F6EF0EC70F028C0EA
:10F7AA0088F029C089F02AC08AF02BC08BF00001AA
:10F7BA006F07D8A070078851825D016E89518359FD
:10F7CA00026E8A518459036E8B518559046E5BEC23
:10F7DA0067F004BEFEEF7BF004500310021007E14D
:10F7EA00020E015CD8B0FCEF7BF0FEEF7BF000EF7D
:10F7FA007CF0B8EF7BF082C028F083C029F084C087
:10F80A002AF085C02BF088C02CF089C02DF08AC060
:10F81A002EF08BC02FF0B9EC6CF0D8A017EF7CF06B
:10F82A0019EF7CF0C2EF7BF05BC069F069C06AF047
:10F83A000001EABF23EF7CF025EF7CF02BEF7CF090
:10F84A00E9C062F0EAC063F02FEF7CF0000E636F4C
:10F85A00060E626F62C06DF063C06EF06D4B6E2B68
:10F86A00660E6A19D8A43CEF7CF03EEF7CF05EEF9E
:10F87A007CF070BF45EF7CF043EF7CF051EF7CF0F9
:10F88A00000E886F000E896F800E8A6F3F0E8B6F95
:10F89A00000E706F000E6F6F670E6919D8B458EFBB
:10F8AA007CF05AEF7CF05EEF7CF06F516D2770515F
:10F8BA006E23000E786F000E776F82C079F083C0D6
:10F8CA007AF084C07BF085C07CF088C073F089C070
:10F8DA0074F08AC075F08BC076F0EFEF7CF079C0D7
:10F8EA0028F07AC029F07BC02AF07CC02BF088C0AF
:10F8FA002CF089C02DF08AC02EF08BC02FF0F0ECCE
:10F90A0070F028C041F029C042F02AC043F02BC051
:10F91A0044F098EC6EF041C07DF042C07EF043C0E6
:10F92A007FF044C080F07DC001F07EC002F07FC04D
:10F93A0003F080C004F03BEC6DF001C06BF002C034
:10F94A006CF079C028F07AC029F07BC02AF07CC01C
:10F95A002BF07DC013F07EC014F07FC015F080C07C
:10F96A0016F088C00FF089C010F08AC011F08BC061
:10F97A0012F0B8EC72F00FC02CF010C02DF011C0CC
:10F98A002EF012C02FF0BFEC66F028C079F029C023
:10F99A007AF02AC07BF02BC07CF088C028F089C09E
:10F9AA0029F08AC02AF08BC02BF0000E2C6E000EB4
:10F9BA002D6E200E2E6E410E2F6EF0EC70F028C0C8
:10F9CA0088F029C089F02AC08AF02BC08BF0000188
:10F9DA00774B782B6D51775D7851800A5C6E6E514A
:10F9EA00800A5C58D8A0FCEF7CF0FEEF7CF074EF44
:10F9FA007CF088C00FF089C010F08AC011F08BC06B
:10FA0A0012F0000E136E000E146EA00E156E400E4C
:10FA1A00166EB8EC72F00FC07DF010C07EF011C007
:10FA2A007FF012C080F079C028F07AC029F07BC03C
:10FA3A002AF07CC02BF07DC02CF07EC02DF07FC058
:10FA4A002EF080C02FF0B9EC6CF0D8B02FEF7DF01B
:10FA5A0031EF7DF03CEF7DF0000E00017D6F000E6E
:10FA6A007E6F000E7F6F000E806F65EF7DF079C0AC
:10FA7A0001F07AC002F07BC003F07CC004F07DC0C4
:10FA8A0005F07EC006F07FC007F080C008F0E9EC00
:10FA9A0069F0D8A053EF7DF055EF7DF065EF7DF06A
:10FAAA0000016BB15BEF7DF05DEF7DF065EF7DF0FE
:10FABA00000E7D6F000E7E6F000E7F6F000E806F4E
:10FACA0082C001F083C002F084C003F085C004F054
:10FADA007DC005F07EC006F07FC007F080C008F048
:10FAEA00CBEC74F001C079F002C07AF003C07BF06D
:10FAFA0004C07CF079C028F07AC029F07BC02AF0D3
:10FB0A007CC02BF0000E136E000E146E200E156EC4
:10FB1A00410E166E73C00FF074C010F075C011F06C
:10FB2A0076C012F0B8EC72F00FC02CF010C02DF0B5
:10FB3A0011C02EF012C02FF0B9EC6CF0D8A0A8EFCB
:10FB4A007DF0AAEF7DF0D3EF7DF000016F4B702BB3
:10FB5A0073C00FF074C010F075C011F076C012F0C7
:10FB6A00000E136E000E146E200E156E410E166EE8
:10FB7A00B8EC72F00FC073F010C074F011C075F0D9
:10FB8A0012C076F0660E00016A19D8A4CFEF7DF094
:10FB9A00D1EF7DF0D3EF7DF06D4B6E2B73C088F003
:10FBAA0074C089F075C08AF076C08BF06FC060F0BF
:10FBBA0070C061F00001686B000E656F000E646F23
:10FBCA00000E786F000E776FD0EF7EF079C028F0C4
:10FBDA007AC029F07BC02AF07CC02BF088C02CF0B8
:10FBEA0089C02DF08AC02EF08BC02FF0F0EC70F097
:10FBFA0028C041F029C042F02AC043F02BC044F08B
:10FC0A0098EC6EF041C07DF042C07EF043C07FF0B8
:10FC1A0044C080F07DC001F07EC002F07FC003F0D6
:10FC2A0080C004F03BEC6DF002BE27EF7EF002507C
:10FC3A0007E10A0E015CD8B025EF7EF027EF7EF0CF
:10FC4A0037EF7EF07DC001F07EC002F07FC003F086
:10FC5A0080C004F03BEC6DF001C06BF002C06CF0A8
:10FC6A003CEF7EF0000E00016C6F090E6B6F000115
:10FC7A006851D8A443EF7EF045EF7EF06DEF7EF039
:10FC8A0061BF4CEF7EF04AEF7EF06DEF7EF0040E1E
:10FC9A008625D96E010E8721DA6E2E0EDF6E864B0F
:10FCAA00872B7107D8A07207010E686F6DEF7EF07F
:10FCBA00040E8625D96E010E8721DA6E300EDF6EAC
:10FCCA00864B872B7107D8A072076407D8A06507EF
:10FCDA0064516511D8A474EF7EF076EF7EF05DEF83
:10FCEA007EF0040E8625D96E010E8721DA6E6B51DD
:10FCFA00300FDF6E864B872B7107D8A0720779C049
:10FD0A0028F07AC029F07BC02AF07CC02BF07DC095
:10FD1A0013F07EC014F07FC015F080C016F088C0C2
:10FD2A000FF089C010F08AC011F08BC012F0B8EC45
:10FD3A0072F00FC02CF010C02DF011C02EF012C0BE
:10FD4A002FF0BFEC66F028C079F029C07AF02AC0FB
:10FD5A007BF02BC07CF088C028F089C029F08AC0CB
:10FD6A002AF08BC02BF0000E2C6E000E2D6E200E8A
:10FD7A002E6E410E2F6EF0EC70F028C088F029C06C
:10FD8A0089F02AC08AF02BC08BF000016007D8A046
:10FD9A006107774B782B6D51775D7851800A5C6EDD
:10FDAA006E51800A5C58D8B0DDEF7EF0DFEF7EF04E
:10FDBA00EDEF7EF087BFEBEF7EF0875109E14B0E46
:10FDCA00865DD8A0EBEF7EF0EDEF7EF0EBEF7DF0F5
:10FDDA00000E786F4F0E776F040E7725D96E010EDD
:10FDEA007821DA6EDF6A040E5C6E010E5D6E865152
:10FDFA005C5E87515D5A77515C24016E78515D20B3
:10FE0A00026E040E036E010E046E86C005F087C0F2
:10FE1A0006F008EC67F000018651775D866F87511E
:10FE2A007859876F8151D8A41DEF7FF020EF7FF0BA
:10FE3A00010E21EF7FF0000E776F786B8151D8B4F5
:10FE4A0029EF7FF02BEF7FF036EF7FF08607D8A0FF
:10FE5A008707040E8625D96E010E8721DA6E81C0C6
:10FE6A00DFFF7751715F7851725B55C013F056C04E
:10FE7A0014F0040E8625156E010E8721166E71C0C8
:10FE8A0017F072C018F0B4EC68F0120000C0C8FE97
:10FE9A00C80EC92CD532D3F2C8BAD280C888C89045
:10FEAA00C898C8A0C8A8C8B0C8CAC864CF0D0A52A2
:10FEBA0041434B2050524F544543544F52204657CA
:10FECA002056312E32312068656C70206D656E7552
:10FEDA00202D206B657962696E6473200D0A27767E
:10FEEA0027205072696E7473206261747465727926
:10FEFA0020766F6C74616765206C6576656C200D81
:10FF0A000A276227205475726E732062757A7A65A1
:10FF1A0072206F6E200D0A276927205475726E733E
:10FF2A00204C45442042616E6B2031206F6E200DBB
:10FF3A000A276F27205475726E73204C454420425D
:10FF4A00616E6B2032206F6E200D0A2770272054B5
:10FF5A0075726E73204C45442042616E6B20312CC1
:10FF6A0020322C20616E64207468652062757A7A6A
:10FF7A006572206F6666200D0A0041444320726153
:10FF8A00773A2025752020426174743A20252E3252
:10FF9A006620560D0A004669726D776172652056B1
:10FFAA00657273696F6E20312E320D0A0042757ABE
:10FFBA007A657220456E61626C65640D0A004C4573
:10FFCA00442042414E4B2031204F4E0D0A004C45F1
:10FFDA00442042414E4B2032204F4E0D0A00416CC4
:10FFEA006C206F66660D0A00696E66006E616E00AF
:01FFFA000006
:04FFFC002AEF65F093
:020000040030CA
:0C000000FCFFFFFF9FFFFFDFFFFFFFFF83
:00000001FF
