:04000000FEEF7FF0A0
:10C93400959A120096801200968212009684120034
:10C94400010E1200050E120096861200915012007C
:10C954000E01C89112000E01C0911200968A9688A9
:10C964001200969A968812000E01C8811200016E78
:10C9740001C091FF12009EEC64F0010E12009EECC7
:10C9840064F0020E12009EEC64F0010E1200A0ECA2
:10C9940064F0000E1200B3EC64F0050E1200B0EC6B
:10C9A40064F00A0E1200B0EC64F0090E1200000EDE
:10C9B400F9EC66F012000001C793C66B0E0E12006C
:10C9C4000001C793C66B0E0E120001C0F0F002C046
:10C9D400F1F0120001C0F4F002C0F5F0120001C041
:10C9E400F2F002C0F3F012000001C791A6EC64F06B
:10C9F400040E12000001C781D880C135B9EC64F07F
:10CA0400050E12000001C781C151C125B9EC64F0C3
:10CA1400030E12000E01DC6BDD6BDE6BDF6BE06B73
:10CA2400E16B12000E01C8A11AEF65F01CEF65F06E
:10CA340014EF65F01200800E946E080E956E966ADF
:10CA4400030E926E959A1200700E0E01D36FD56B81
:10CA5400D76B020ED96FD86B120005C001F006C067
:10CA640002F007C003F0000E03EC68F0120096BC5D
:10CA74003EEF65F041EF65F0010E42EF65F0000E08
:10CA8400120005C001F006C002F007C003F0020E58
:10CA940003EC68F012000F015F51046E036A5E51EB
:10CAA4000324016E000E0420026E12000E01C8BBA6
:10CAB4005EEF65F061EF65F0010E62EF65F0000E68
:10CAC4001200016E0E01C8A96AEF65F06CEF65F003
:10CAD40064EF65F001C099FF12000001EF6B9CA2A6
:10CAE40076EF65F078EF65F07AEF65F09C989C88B6
:10CAF400985012000CEC65F01DEC65F0ADEC67F09D
:10CB040026EC65F070EC66F0DBEC66F012008FEF5B
:10CB140065F014EC65F068EC69F00001C7B395EFBB
:10CB240065F097EF65F08BEF65F01200026E2EEC66
:10CB340066F00009D8B4A1EF65F0A3EF65F099EFB2
:10CB440065F0025063EC65F0120001EE00F0500E47
:10CB5400EE6AE806FDE100EEABF0450EEE6AE8068B
:10CB6400FDE10001A3EF77F00001C7A7BCEF65F07A
:10CB7400BEEF65F0C5EF65F001C0C2F002C0C3F0BE
:10CB840003C0C4F0C797120095BACBEF65F0CDEFA0
:10CB940065F0D5EF65F0800E946E080E956E966A7A
:10CBA400030E926E958A1200A00E0001A66F000E6D
:10CBB400976F000E986F9EC099F09FC09AF0A60ED2
:10CBC4009B6F5FEC67F0120008C001F0000E036E6B
:10CBD400020E026EB6EC65F0000E056E000E066ED7
:10CBE400000E076E2FEC65F0040E120008C001F071
:10CBF400000E036E010E026EB6EC65F0000E056EBB
:10CC0400000E066E000E076E2FEC65F0020E120089
:10CC140008C001F0000E036E020E026EB6EC65F061
:10CC2400000E056E000E066E000E076E2FEC65F00A
:10CC3400020E120008C001F0000E036E010E026E17
:10CC4400B6EC65F0000E056E000E066E000E076E63
:10CC54002FEC65F0040E1200016A0E01C8A935EF2D
:10CC640066F037EF66F040EF66F09DAA3CEF66F0A1
:10CC74003EEF66F040EF66F0010E016E01501200C7
:10CC8400010E016E0001C7B34AEF66F04CEF66F087
:10CC940056EF66F0C795C169AAEC64F0ADEC64F098
:10CCA4009AEC64F0C6C001F001501200056E05C094
:10CCB4005AFF0F015B8F5B9D5B815BB164EF66F094
:10CCC40066EF66F05FEF66F05F51046E036A5E51D3
:10CCD4000324016E000E0420026E1200656A666A67
:10CCE400676A686A636A646A616A0F015A6B586B9F
:10CCF400596B546B100E556F566B606A536B516BC6
:10CD04001F0E526F840E5B6F576B12000850D96E62
:10CD1400DA6A020ED926DF50016E0850D96EDA6A3B
:10CD2400DECF02F0DDCF03F0B6EC65F0000E056E49
:10CD3400000E066E000E076E2FEC65F0020E120058
:10CD44000150021003100410D8B4ABEF66F0ADEF3D
:10CD540066F0B5EF66F0000E011A000E021A000E1E
:10CD6400031A800E041A01C001F002C002F003C0CD
:10CD740003F004C004F0120001C005F002C006F084
:10CD840003C0F6FF04C0F7FF034A042AF86A05C08B
:10CD9400D9FF06C0DAFF054A062A0800F5CFDFFFEF
:10CDA400DF50D8A4D8EF66F0DAEF66F0C2EF66F091
:10CDB4001200080E9E6E900E9C6E240E9D6E080E40
:10CDC4009A6E9B6A000E016E000E026EECEC64F02B
:10CDD400000E016E000E026EF1EC64F0000E016EA6
:10CDE400000E026EE7EC64F00001EF6B1200066EB9
:10CDF400010E076E0001C7B302EF67F004EF67F09E
:10CE040018EF67F0C783076A0650D8B40CEF67F0D1
:10CE14000EEF67F012EF67F0010EC56F14EF67F0C5
:10CE2400020EC56F9CEC64F089EC65F007501200AB
:10CE3400000E126E000E116E2BEF67F010C003F09F
:10CE4400046A0EC005F00FC006F073EC6BF0114AD3
:10CE5400122A11500C24D96E12500D20DA6EDF50B4
:10CE6400106E1050D8A439EF67F03BEF67F020EF55
:10CE740067F01200000E2C1A000E2D1A000E2E1A46
:10CE8400800E2F1A28C001F029C002F02AC003F036
:10CE94002BC004F02CC005F02DC006F02EC007F006
:10CEA4002FC008F048EC75F001C028F002C029F04A
:10CEB40003C02AF004C02BF0120099C09CF09AC061
:10CEC4009DF070EF67F097C08CF098C08DF09C0EC9
:10CED40000018E6F9BC08FF01EEC70F09CC0F6FFBB
:10CEE4009DC0F7FFF86A0800F5500009D8A47DEF4B
:10CEF40067F07FEF67F065EF67F0000E0001986F51
:10CF0400000E976F120003C00AF004C00BF001C0BA
:10CF140008F002C009F09FEF67F00AC0D9FF0BC008
:10CF2400DAFFDF50076E0A4A0B2A08C0D9FF09C08E
:10CF3400DAFF07C0DFFF084A092A0506D8A006065B
:10CF4400052806E10628D8A4AAEF67F0ACEF67F03D
:10CF54008FEF67F01200826A836A846AFC0E876E20
:10CF6400FC0E886EBF0E896E670E0F011C6F14696C
:10CF74000C69286B136B0B6B1B6B0A6B126B1A6BB4
:10CF8400096911691969086910691869080E256F1A
:10CF9400140E0E01B36F170EB06F0F0EF56F100E57
:10CFA400F66F090EF86F130EB26F120004BEDDEFB8
:10CFB40067F0DFEF67F0E9EF67F001C001F002C04E
:10CFC40002F003C003F004C004F002EF68F001C0F3
:10CFD40005F002C006F003C007F004C008F0051E07
:10CFE400061E071E081E052A000E06220722082216
:10CFF40005C001F006C002F007C003F008C004F049
:10D004001200046E01500210D8B40BEF68F00DEF5B
:10D0140068F01FEF68F00450020DF350AB0FD96EA7
:10D02400DA6A01C0DEFF02C0DDFF0450B70FD96E1B
:10D03400DA6A03C0DFFF2EEF68F00450020DF350EC
:10D04400AB0FD96EDA6A440EDE6EC90EDD6E045083
:10D05400B70FD96EDA6ADF6A12000001C791020EB7
:10D06400C66F3DEF68F0C5EC64F05FEF68F0C9ECA3
:10D0740064F05FEF68F0B9C008F002D84BEF68F0D5
:10D084000500FA6EAF51FD6EB051FE6EFF6AFA50A4
:10D094001200016E026A0250000AD8B454EF68F01C
:10D0A40039EF68F00150020AD8B435EF68F0010A8C
:10D0B400D8B435EF68F039EF68F01200035004106B
:10D0C400D8B467EF68F069EF68F08DEF68F0010E8F
:10D0D400056E71EF68F0D89003360436052A04AE65
:10D0E40076EF68F078EF68F06DEF68F00350015C5C
:10D0F40004500258D8A081EF68F083EF68F087EFFE
:10D1040068F00350015E0450025AD890043203328E
:10D11400052E78EF68F001C001F002C002F01200A1
:10D124000B6E0B50FAEC68F00009D8B49CEF68F071
:10D134009EEF68F093EF68F0380E056ECC0E066E25
:10D144000A0E076E2FEC65F0090E016E000E036ED9
:10D15400010E026EB6EC65F0000E056E000E066E52
:10D16400000E076E000E086E43EC65F0D9EC64F017
:10D1740042EC66F0E806D8B4C2EF68F0C4EF68F099
:10D18400BAEF68F012000A6E0B6A0A50FAEC68F003
:10D194000009D8B4D0EF68F0D2EF68F0C7EF68F0B8
:10D1A400F00E056ECB0E066E0B0E076E2FEC65F0BF
:10D1B400090E016E000E036E010E026EB6EC65F0F0
:10D1C400000E056E000E066E000E076E000E086E51
:10D1D40043EC65F0D9EC64F042EC66F0E806D8B4B0
:10D1E400F6EF68F0F8EF68F0EEEF68F00B5012001D
:10D1F400016E010E026E0001C7B503EF69F005EF81
:10D2040069F02FEF69F001C0C1F0C793C785C791DA
:10D214000E0EC56F010EC06FF40EBF6FC787440EAC
:10D22400AB6FC90EAC6FB76B440EAD6FC90EAE6F6A
:10D23400B86B440EAF6FC90EB06FB96B440EB16FCB
:10D24400C90EB26FBA6B480EB36FC90EB46FBB6B25
:10D25400AAEC64F0C6EC65F0026A0250120018BE33
:10D2640038EF69F036EF69F03CEF69F0000E186EA4
:10D27400000E176E000E1B6E000E1A6E4EEF69F054
:10D28400000E046E200E036E13C005F014C006F0E9
:10D2940073EC6BF01A4A1B2A17501A5C1B50800A55
:10D2A400196E1850800A1958D8A05BEF69F05DEF29
:10D2B40069F042EF69F015C00CF016C00DF013C010
:10D2C4000EF014C00FF01AEC67F01200AAEC64F030
:10D2D4000001C7A170EF69F072EF69F07FEF69F0A8
:10D2E40039EC65F00009D8B47AEF69F07CEF69F0A5
:10D2F4007FEF69F00F0E0001C56F0001C551020DEB
:10D30400610EF324F66EFE0EF420F76EF86A000E3A
:10D31400F8220900F5CF04F00900F5CF05F002D892
:10D324009DEF69F00500FA6E0450FD6E0550FE6E27
:10D33400FF6AFA5012000001C56F1200000E076E5A
:10D34400000E066E03500410D8B4ABEF69F0ADEFD5
:10D3540069F0D5EF69F0010E056EB5EF69F0D8906C
:10D3640003360436052A04AEBAEF69F0BCEF69F05F
:10D37400B1EF69F0D890063607360350015C0450CB
:10D384000258D8A0C8EF69F0CAEF69F0CFEF69F08E
:10D394000350015E0450025A0680D89004320332CE
:10D3A400052EBCEF69F006C001F007C002F01200C0
:10D3B4000001C787EBEF69F0C5EC64F015EF6AF084
:10D3C400B6EC64F0030E15EF6AF0C9EC64F015EFE7
:10D3D4006AF0B7C008F002D8F9EF69F00500FA6EF8
:10D3E400AB51FD6EAC51FE6EFF6AFA501200016E35
:10D3F400026A0250000AD8B402EF6AF0E7EF69F05B
:10D404000150010AD8B4E7EF69F0030AD8B4DEEF9B
:10D4140069F0010AD8B4DEEF69F0070AD8B4E2EF84
:10D4240069F0E7EF69F012000001C251D96EDA6ABF
:10D43400A8EC64F0DF6E0001C22BC307D8A0C407B8
:10D44400C351C411D8B429EF6AF02BEF6AF030EF5E
:10D454006AF0B3EC64F0050E65EF6AF0C7873BEF42
:10D464006AF0D5EC64F065EF6AF0D1EC64F065EF36
:10D474006AF0B7C008F002D849EF6AF00500FA6E06
:10D48400AB51FD6EAC51FE6EFF6AFA501200016E94
:10D49400026A0250000AD8B452EF6AF037EF6AF019
:10D4A4000150010AD8B437EF6AF0030AD8B433EF55
:10D4B4006AF0010AD8B433EF6AF0070AD8B437EF38
:10D4C4006AF037EF6AF01200000E0114096E000EC4
:10D4D40002140A6E800E03140B6E7F0E04140C6E7D
:10D4E40009500A100B100C10D8A47BEF6AF07DEFE2
:10D4F4006AF085EF6AF0000E016E000E026E000EF7
:10D50400036E000E046E000E0514096E000E061460
:10D514000A6E800E07140B6E7F0E08140C6E0950F1
:10D524000A100B100C10D8A49AEF6AF09CEF6AF062
:10D53400A4EF6AF0000E056E000E066E000E076E74
:10D54400000E086E055001180FE1065002180CE198
:10D554000750031809E108500418D8B4B4EF6AF06E
:10D56400B6EF6AF0B9EF6AF0D890BAEF6AF0D880F3
:10D574001200000E076E000E066E0150D96EDA6AB4
:10D58400DECFF6FFDDCFF7FFF86A0800F5502A0A70
:10D59400D8A4CFEF6AF0D1EF6AF0FAEF6AF0015045
:10D5A400D96EDA6ADE2A000EDD220250D96EDA6AFA
:10D5B400020EDF26DF5CD96EDA6ADECF06F0DECF3C
:10D5C40007F00EEF6BF00A0E0602F3CF03F0F4CF70
:10D5D40004F00702F350042605500324066E000EDF
:10D5E4000420076E0150D96EDA6ADE2A000EDD22AD
:10D5F4000150D96EDA6ADECFF6FFDDCFF7FFF86AA5
:10D604000800F550D00F056E090E05640CEF6BF0A1
:10D614000EEF6BF0E5EF6AF006C001F007C002F010
:10D62400120039EC65F00009D8B41BEF6BF01DEF64
:10D634006BF056EF6BF02BEF6BF0BDEC64F072EF18
:10D644006BF0C1EC64F072EF6BF0C9EC64F072EF54
:10D654006BF0BAC008F002D83AEF6BF00500FA6E2E
:10D664000001B151FD6EB251FE6EFF6AFA50120014
:10D67400026E036A0350000AD8B443EF6BF027EF3D
:10D684006BF00250010AD8B427EF6BF0030AD8B448
:10D694001FEF6BF0010AD8B423EF6BF0070AD8B47C
:10D6A40027EF6BF027EF6BF00001C79120EEC2F07B
:10D6B400DF50DF2AD96EDA6ADF50B9EC64F000017A
:10D6C400C307D8A0C407C351C411D8A46CEF6BF02E
:10D6D4006EEF6BF071EF6BF0060E72EF6BF0030EF2
:10D6E400120005500610D8B47AEF6BF07CEF6BF0A3
:10D6F40085EF6BF005500610D8A483EF6BF085EF2F
:10D704006BF08AEF6BF0035098EC65F0D7EF6BF099
:10D7140020EE09F00550D9260650DA22DE50DE103C
:10D72400D8B497EF6BF099EF6BF0B4EF6BF020EE99
:10D7340009F00550D9260650DA2210EE02F0055001
:10D74400E1260650E222DE50E65CE650800A0B6ECB
:10D75400DE50800A0B58D8B0B2EF6BF0B4EF6BF028
:10D76400D7EF6BF020EE02F00550D9260650DA22EE
:10D77400DECF07F0DDCF08F005C0D9FF06C0DAFF21
:10D78400DECF09F0DDCF0AF007500924D96E085026
:10D794000A20DA6E03C0DFFF20EE02F00550D9261E
:10D7A4000650DA22DE2A000EDD2212008386FA0EEB
:10D7B40000D0E82EFDD70C0E0F015A6F0C0E58EC5A
:10D7C40066F001C04DF002C04EF0330E136E330EFE
:10D7D400146E530E156E400E166E4DC001F04EC001
:10D7E40002F0036A046A000E3BEC6EF001C00FF015
:10D7F40002C010F003C011F004C012F035EC73F055
:10D804000FC028F010C029F011C02AF012C02BF06C
:10D81400000E2C6E000E2D6E800E2E6E440E2F6E9A
:10D824006DEC71F028C049F029C04AF02AC04BF0D1
:10D834002BC04CF049C00FF04AC010F04BC011F09F
:10D844004CC012F0520E136EB80E146E3E0E156ECE
:10D85400400E166E35EC73F00FC045F010C046F064
:10D8640011C047F012C048F045C041F046C042F034
:10D8740047C043F048C044F012000001DBBF47EF4B
:10D884006CF045EF6CF04DEF6CF0000E236E010E62
:10D89400226E51EF6CF0DAC022F0DBC023F0D8C066
:10D8A40020F0D9C021F0000E256E4F0E246E010128
:10D8B4004F6B87EF6CF02406D8A02506000E2424B5
:10D8C400D96E010E2520DA6E1EC001F01FC002F0D1
:10D8D400000E046E0A0E036E60EC68F00150300F07
:10D8E400DF6E2206D8A023062006D8A021061EC07B
:10D8F40001F01FC002F0000E046E0A0E036EA0ECCD
:10D9040069F001C01EF002C01FF024502510D8B4E5
:10D914008EEF6CF090EF6CF0A6EF6CF01E501F10C1
:10D92400D8A497EF6CF099EF6CF05DEF6CF023BE28
:10D93400A6EF6CF0235006E12204D8B0A4EF6CF0FB
:10D94400A6EF6CF05DEF6CF01CC013F01DC014F07A
:10D95400000E2424156E010E2520166E20C017F02B
:10D9640021C018F031EC69F01200CCC00BF0CDC02E
:10D974000CF0CEC00DF0CFC00EF001C00BF002C011
:10D984000CF003C00DF004C00EF00BC005F00CC089
:10D9940006F00DC007F00EC008F0180ED7EF6CF0BB
:10D9A400D8900832073206320532E82ED2EF6CF0F6
:10D9B4000550096E0A6A09500A10D8A4E4EF6CF005
:10D9C400E6EF6CF006EF6DF0D8900B34056E0C3476
:10D9D400066E0D34076E0E34086E055006100710DF
:10D9E4000810D8A4F8EF6CF0FAEF6CF000EF6DF0CB
:10D9F400000E026E020E016E35EF6DF0000E026E27
:10DA0400030E016E35EF6DF009280A10D8A40DEF4E
:10DA14006DF00FEF6DF031EF6DF00BC005F00CC041
:10DA240006F00DC007F00EC008F0090ED8900536B8
:10DA3400063607360836E82E18EF6DF00550061046
:10DA440007100810D8B429EF6DF02CEF6DF0010E1B
:10DA54002DEF6DF0000E016E026A35EF6DF0000ED1
:10DA6400026E040E016E1200000E2814306E000EB9
:10DA74002914316E800E2A14326E7F0E2B14336EED
:10DA84003050311032103310D8A44BEF6DF04DEFFD
:10DA94006DF055EF6DF0000E286E000E296E000E2D
:10DAA4002A6E000E2B6E000E2C14306E000E2D14F8
:10DAB400316E800E2E14326E7F0E2F14336E305062
:10DAC400311032103310D8A46AEF6DF06CEF6DF0A2
:10DAD40074EF6DF0000E2C6E000E2D6E000E2E6E87
:10DAE400000E2F6E2BAE79EF6DF07BEF6DF084EFAF
:10DAF4006DF0286C291ED8B0292A2A1ED8B02A2AEB
:10DB0400800E2B562FAE89EF6DF08BEF6DF094EFF6
:10DB14006DF02C6C2D1ED8B02D2A2E1ED8B02E2AB6
:10DB2400800E2F56000E281A000E291A000E2A1AEB
:10DB3400800E2B1A000E2C1A000E2D1A000E2E1A0F
:10DB4400800E2F1A2C50285C2D5029582E502A58FC
:10DB54002F502B58D8B0B1EF6DF0B3EF6DF0B6EF96
:10DB64006DF0D890B7EF6DF0D88012000334043410
:10DB74000A6E0A50D8A4C1EF6DF0C3EF6DF0CDEF7B
:10DB84006DF0000E016E000E026E000E036E000EAC
:10DB9400046E3AEF6EF001C005F002C006F003C057
:10DBA40007F004C008F0200EDDEF6DF0D8900832C5
:10DBB400073206320532E82ED8EF6DF00550096EB3
:10DBC400038EFF0E0116FF0E0216FF0E0316000E43
:10DBD4000416960E0A5E0ABEF4EF6DF0F2EF6DF0D5
:10DBE4000AEF6EF00A50800A970FD8B0FCEF6DF080
:10DBF400FEEF6DF000EF6EF0C3EF6DF0D8900432DD
:10DC04000332023201320A3E00EF6EF022EF6EF070
:10DC14001F0E0A6410EF6EF012EF6EF01AEF6EF042
:10DC2400C3EF6DF0D89001360236033604360A0687
:10DC34000A50D8A420EF6EF022EF6EF014EF6EF0CD
:10DC44000950D8B428EF6EF02AEF6EF032EF6EF080
:10DC5400041E031E021E016C000E02220322042273
:10DC640001C001F002C002F003C003F004C004F0DC
:10DC74001200096E0950D8B442EF6EF044EF6EF012
:10DC840066EF6EF004BE4BEF6EF049EF6EF066EF98
:10DC94006EF001C005F002C006F003C007F004C036
:10DCA40008F0051E061E071E081E052A000E062281
:10DCB4000722082205C00BF006C00CF007C00DF0C7
:10DCC40008C00EF06EEF6EF001C00BF002C00CF055
:10DCD40003C00DF004C00EF0015002100310041034
:10DCE400D8A477EF6EF079EF6EF083EF6EF0000E4C
:10DCF400016E000E026E000E036E000E046E14EF31
:10DD04006FF0960E0A6E8DEF6EF00A2AD8900E32DE
:10DD14000D320C320B32000E0B14056E000E0C1477
:10DD2400066E000E0D14076EFE0E0E14086E0550DE
:10DD3400061007100810D8A4A2EF6EF0A4EF6EF03E
:10DD440087EF6EF0B2EF6EF00A2A010E0B26000E7A
:10DD54000C220D220E22D8900E320D320C320B32D0
:10DD6400000E0B14056E000E0C14066E000E0D143E
:10DD7400076EFF0E0E14086E0550061007100810EB
:10DD8400D8A4C7EF6EF0C9EF6EF0A6EF6EF0D1EF36
:10DD94006EF00A06D8900B360C360D360E360DBED4
:10DDA400D6EF6EF0D8EF6EF0E0EF6EF0020E0A6080
:10DDB400DEEF6EF0E0EF6EF0CBEF6EF00AB0E5EF61
:10DDC4006EF0E7EF6EF0E8EF6EF00D9ED8900A3239
:10DDD4000AC005F0066A076A086A05C008F0076AFF
:10DDE400066A056A05500B1206500C1207500D12F4
:10DDF40008500E120950D8B402EF6FF004EF6FF020
:10DE04000CEF6FF004BE0BEF6FF009EF6FF00CEF47
:10DE14006FF00E8E0BC001F00CC002F00DC003F0C9
:10DE24000EC004F01200C8C051F0C9C052F0CAC0FC
:10DE340053F0CBC054F041C051F042C052F043C043
:10DE440053F044C054F0810E456EFF0E466E51C02F
:10DE540047F052C048F053C049F054C04AF0180E7D
:10DE640039EF6FF0D8904A32493248324732E82EBF
:10DE740034EF6FF0475045244F6E000E4620506E2D
:10DE840050BE4EEF6FF0505009E1170E4F5CD8A012
:10DE94004EEF6FF050EF6FF05AEF6FF041C041F06A
:10DEA40042C042F043C043F044C044F01DEF70F060
:10DEB40050BE5FEF6FF061EF6FF0D1EF6FF04FC0C6
:10DEC40045F0FF0E466EFF0E476E7F0E486E000E45
:10DED400496E456670EF6FF078EF6FF04934493260
:10DEE400483247324632452E6BEF6FF046C04BF056
:10DEF40047C04CF048C04DF049C04EF04B5051144F
:10DF0400456E4C505214466E4D505314476E4E504D
:10DF14005414486E4550461047104810D8A495EF45
:10DF24006FF097EF6FF099EF6FF050EF6FF051C013
:10DF340045F052C046F053C047F054C048F0200E9C
:10DF4400A9EF6FF0D8904832473246324532E82E76
:10DF5400A4EF6FF04550461047104810D8B4B5EF01
:10DF64006FF0B7EF6FF0BFEF6FF04B5051264C508E
:10DF740052224D5053224E5054224B1C456E4C1C81
:10DF8400466E4D1C476E4E1C486E45505116465009
:10DF94005216475053164850541615EF70F051C09E
:10DFA40045F052C046F053C047F054C048F0200E2C
:10DFB400E1EF6FF0D8904832473246324532E82ECE
:10DFC400DCEF6FF04550461047104810D8A4EDEF31
:10DFD4006FF0EFEF6FF0F9EF6FF0000E516E000E7F
:10DFE400526E000E536E000E546E15EF70F0D89002
:10DFF4005134456E5234466E5334476E5434486E31
:10E004004550461047104810D8B40BEF70F00DEF90
:10E0140070F015EF70F0000E516E000E526E800E0F
:10E02400536EBF0E546E51C041F052C042F053C003
:10E0340043F054C044F0120000018E51D96EDA6AE4
:10E04400DECFF6FFDDCFF7FFF86A0800F550250AAA
:10E05400D8A42FEF70F031EF70F058EF71F08E51BB
:10E06400D96EDA6ADE2A000EDD22000ED96F000EA8
:10E07400D86FD8C0E0F0DA69DB698E51D96EDA6AFC
:10E08400DECFF6FFDDCFF7FFF86A0800F5502E0A61
:10E09400D8A44FEF70F051EF70F061EF70F08E5133
:10E0A400D96EDA6ADE2A000EDD228EC001F08FC03E
:10E0B40002F0BBEC6AF001C0DAF002C0DBF0000150
:10E0C4008E51D96EDA6ADECF95F0DDCF96F095C029
:10E0D400F6FF96C0F7FFF86A0800F550750AD8A451
:10E0E40076EF70F078EF70F0ACEF70F08F51D96E7E
:10E0F400DA6A020EDF26DF5CD96EDA6ADECF90F0D0
:10E10400DECF91F0010E95255E6E000E96215F6EB6
:10E114008E51D96EDA6A5EC0DEFF5FC0DDFF9FEF0D
:10E1240070F08CC01CF08DC01DF090C01EF091C02A
:10E134001FF03FEC6CF06CEF71F095C0F6FF96C0E9
:10E14400F7FFF86A0800F550750AD8B493EF70F039
:10E15400ACEF70F08E51D96EDA6ADECF95F0DDCF78
:10E1640096F095C0F6FF96C0F7FFF86A0800F5CF61
:10E1740094F0C8EF70F0954B962BD7EF70F06C0EBF
:10E18400946FD7EF70F0946BD7EF70F094514C0A02
:10E19400D8B4BDEF70F02A0AD8B4C1EF70F00A0AFF
:10E1A400D8B4BDEF70F0C5EF70F095C0F6FF96C01F
:10E1B400F7FFF86A0800F550660AD8A4E4EF70F097
:10E1C400E6EF70F04FEF71F010EF71F08F51D96EF0
:10E1D400DA6ADFCF5EF0040EDF265E50D96EDA6AAB
:10E1E400DECF90F0DECF91F0DECF92F0DECF93F071
:10E1F4001BEF71F08F51D96EDA6ADFCF5EF0040E37
:10E20400DF265E50D96EDA6ADECF90F0DECF91F071
:10E21400DECF92F0DECF93F01BEF71F094514C0AF5
:10E22400D8B4FCEF70F0200AD8B4E8EF70F01BEF1C
:10E2340071F0010E95255E6E000E96215F6E8E5173
:10E24400D96EDA6A5EC0DEFF5FC0DDFF42EF71F0B7
:10E254008CC055F08DC056F090C057F091C058F066
:10E2640092C059F093C05AF095C0F6FF96C0F7FFDC
:10E27400F86A0800F5CF5BF036EC7AF06CEF71F0D9
:10E2840095C0F6FF96C0F7FFF86A0800F550660AD5
:10E29400D8B42AEF71F04FEF71F000018E51D96EAE
:10E2A400DA6ADE2A000EDD226CEF71F08E51D96E2F
:10E2B400DA6ADECFF6FFDDCFF7FFF86A0800F55023
:10E2C400036E046A8CC005F08DC006F073EC6BF02D
:10E2D4004FEF71F012002B50800B386E2B502B2413
:10E2E4003F6E2AAE78EF71F07AEF71F07BEF71F048
:10E2F4003F803F50D8B481EF71F083EF71F097EF16
:10E3040071F03F28D8A489EF71F08BEF71F093EF8F
:10E3140071F0000E286E000E296E000E2A6E000E9B
:10E324002B6E2A8E2B6A9FEF71F0000E286E000E62
:10E33400296E000E2A6E000E2B6E2F50800B381A99
:10E344002F502F24406E2EAEAAEF71F0ACEF71F077
:10E35400ADEF71F040804050D8B4B3EF71F0B5EF39
:10E3640071F0C9EF71F04028D8A4BBEF71F0BDEF94
:10E3740071F0C5EF71F0000E2C6E000E2D6E000EC4
:10E384002E6E000E2F6E2E8E2F6AD1EF71F0000EBE
:10E394002C6E000E2D6E000E2E6E000E2F6E2C5065
:10E3A4002D102E102F10D8A4DAEF71F0DCEF71F0DD
:10E3B400F4EF71F0000E286E000E296E000E2A6E26
:10E3C400000E2B6E800E2A127F0E2B1238502B1249
:10E3D40028C028F029C029F02AC02AF02BC02BF02D
:10E3E40034EF73F03F50D8A4FAEF71F0FCEF71F002
:10E3F40006EF72F0000E286E000E296E000E2A6ED3
:10E40400000E2B6E34EF73F040503FC030F0316A91
:10E41400305E000E315A7F0E3024396E000E3120EA
:10E424003A6E28C034F029C035F02AC036F02BC02B
:10E4340037F0000E286E000E296E000E2A6E000EB4
:10E444002B6E000E3B6E000E3C6E000E3D6E000EF9
:10E454003E6E406A66EF72F04050D8B434EF72F00A
:10E4640036EF72F04DEF72F0D890343635363636DA
:10E474003736D890283629362A362B363EAE45EF25
:10E4840072F047EF72F048EF72F02880D8903B3674
:10E494003C363D363E362C50345C2D5035582E508B
:10E4A40036582F503758D8A05AEF72F05CEF72F0FC
:10E4B40065EF72F03E8C2C50345E2D50355A2E5040
:10E4C400365A2F50375A402A190E40646CEF72F0B6
:10E4D4006EEF72F02EEF72F03450351036103710A4
:10E4E400D8B477EF72F079EF72F091EF72F03B806D
:10E4F40091EF72F0D890283629362A362B363EAE64
:10E5040086EF72F088EF72F089EF72F02880D8906D
:10E514003B363C363D363E363906D8A03A062AAE5E
:10E5240096EF72F098EF72F07CEF72F0406A3EAEB4
:10E534009EEF72F0A0EF72F0C4EF72F0FF0E3B1486
:10E54400306EFF0E3C14316EFF0E3D14326E7F0EA2
:10E554003E14336E3050311032103310D8B4B5EF4E
:10E5640072F0B7EF72F0BBEF72F0010E406EC4EFC1
:10E5740072F028A0C0EF72F0C2EF72F0C4EF72F034
:10E58400B7EF72F04050D8B4CAEF72F0CCEF72F02B
:10E59400F0EF72F0010E2826000E29222A222B22E7
:10E5A4002BA0D7EF72F0D9EF72F0F0EF72F028C021
:10E5B40030F029C031F02AC032F02BC033F03334AC
:10E5C400333232323132303230C028F031C029F0A7
:10E5D40032C02AF033C02BF0394A3A2A3ABEFBEF54
:10E5E40072F03A5008E13928D8A0FBEF72F0FDEF41
:10E5F40072F008EF73F0000E3A6E3968000E286E60
:10E60400000E296E000E2A6E000E2B6E3ABE15EF18
:10E6140073F03A5006E13904D8B013EF73F015EFF4
:10E6240073F022EF73F0000E3A6E000E396E000E96
:10E63400286E000E296E000E2A6E000E2B6E386AAC
:10E6440039C03FF03FA029EF73F02BEF73F02EEFAA
:10E6540073F02A8E2FEF73F02A9ED8903F302B6EE2
:10E66400E8EF71F012001250800B1B6E125012244E
:10E67400216E11AE40EF73F042EF73F043EF73F08D
:10E6840021802150D8B449EF73F04BEF73F05EEF63
:10E6940073F02128D8A451EF73F053EF73F05BEFBC
:10E6A40073F0000E0F6E000E106E000E116E000E51
:10E6B400126E118E66EF73F0000E0F6E000E106E68
:10E6C400000E116E000E126E1650800B1B1A16509F
:10E6D40016241C6E15AE71EF73F073EF73F074EFC4
:10E6E40073F01C801C50D8B47AEF73F07CEF73F095
:10E6F4008FEF73F01C28D8A482EF73F084EF73F0CB
:10E704008CEF73F0000E136E000E146E000E156E77
:10E71400000E166E158E97EF73F0000E136E000E3A
:10E72400146E000E156E000E166E1C50D8B49DEFBC
:10E7340073F09FEF73F0A7EF73F02150D8A4A5EF07
:10E7440073F0A7EF73F0B1EF73F0000E0F6E000ECD
:10E75400106E000E116E000E126E47EF75F015501C
:10E764000F02F3CF26F0F4CF27F026501D6E1E6A59
:10E774001F6A206A2750226E236A246A256A14506D
:10E784001002F3CF26F0F4CF27F026501D26000EFA
:10E794001E221F22202227502226000E232224225A
:10E7A400252213501102F3CF26F0F4CF27F0265080
:10E7B4001D26000E1E221F22202227502226000E74
:10E7C4002322242225221FC020F01EC01FF01DC0BA
:10E7D4001EF01D6A13501002F3CF26F0F4CF27F079
:10E7E40026501D2627501E22000E1F22000E202216
:10E7F40014500F02F3CF26F0F4CF27F026501D2635
:10E8040027501E22000E1F22000E20221FC020F0BF
:10E814001EC01FF01DC01EF01D6A13500F02F3CF5F
:10E8240026F0F4CF27F026501D2627501E22000E76
:10E834001F22000E202215501002F3CF26F0F4CF31
:10E8440027F02650222627502322000E2422000ED1
:10E85400252214501102F3CF26F0F4CF27F02650CE
:10E86400222627502322000E2422000E2522155092
:10E874001102F3CF26F0F4CF27F02650176E27505D
:10E88400186E196A1A6A19C01AF018C019F017C05C
:10E8940018F0176A175022261850232219502422E0
:10E8A4001A5025221DC017F01EC018F01FC019F001
:10E8B40020C01AF0190E64EF74F0D8901A3219328D
:10E8C40018321732E82E5FEF74F0175022261850D2
:10E8D4002322195024221A5025221FC020F01EC0C2
:10E8E4001FF01DC01EF01D6A1C5021C017F0186ACD
:10E8F4001726000E1822820E1724266EFF0E1820EB
:10E90400276E9AEF74F0D8902236233624362536B3
:10E9140020AE8FEF74F091EF74F092EF74F02280D8
:10E92400D8901D361E361F3620362606D8A0270658
:10E9340024AE9FEF74F0A1EF74F085EF74F01C6ABD
:10E9440020AEA7EF74F0A9EF74F0CDEF74F0FF0ED2
:10E954001D14176EFF0E1E14186EFF0E1F14196E71
:10E964007F0E20141A6E1750181019101A10D8B4EC
:10E97400BEEF74F0C0EF74F0C4EF74F0010E1C6EBF
:10E98400CDEF74F022A0C9EF74F0CBEF74F0CDEFAB
:10E9940074F0C0EF74F01C50D8B4D3EF74F0D5EF1A
:10E9A40074F0F9EF74F0010E2226000E23222422C3
:10E9B400252225A0E0EF74F0E2EF74F0F9EF74F093
:10E9C40022C017F023C018F024C019F025C01AF093
:10E9D4001A341A3219321832173217C022F018C0FA
:10E9E40023F019C024F01AC025F0264A272A27BE8E
:10E9F40004EF75F0275008E12628D8A004EF75F03D
:10EA040006EF75F010EF75F0000E226E000E236E07
:10EA1400800E246E7F0E256E3DEF75F027BE1DEF30
:10EA240075F0275006E12604D8B01BEF75F01DEFF2
:10EA340075F028EF75F0000E226E000E236E000EA6
:10EA4400246E000E256E1B6A3DEF75F026C021F082
:10EA5400FF0E2216FF0E23167F0E2416000E251617
:10EA640021A037EF75F039EF75F03AEF75F0248E89
:10EA7400D8902130256E1B50251222C00FF023C0E0
:10EA840010F024C011F025C012F012000450800BC5
:10EA94000D6E045004240F6E03AE53EF75F055EF62
:10EAA40075F056EF75F00F800F50D8B45CEF75F029
:10EAB4005EEF75F072EF75F00F28D8A464EF75F06F
:10EAC40066EF75F06EEF75F0000E016E000E026ECB
:10EAD400000E036E000E046E038E046A7AEF75F066
:10EAE400000E016E000E026E000E036E000E046E28
:10EAF4000850800B0E6E0D500E18D8B484EF75F0CC
:10EB040086EF75F087EF75F00D8C085008240E6EB3
:10EB140007AE8FEF75F091EF75F092EF75F00E8000
:10EB24000E50D8B498EF75F09AEF75F0AEEF75F01B
:10EB34000E28D8A4A0EF75F0A2EF75F0AAEF75F037
:10EB4400000E056E000E066E000E076E000E086EB7
:10EB5400078E086AB6EF75F0000E056E000E066E9D
:10EB6400000E076E000E086E0F500E5CD8B0BDEF9D
:10EB740075F0BFEF75F0E6EF75F00DACC4EF75F00E
:10EB8400C6EF75F0C8EF75F0800E0D1A0FC010F0C7
:10EB94000EC00FF010C00EF001C010F005C001F05F
:10EBA40010C005F002C010F006C002F010C006F05C
:10EBB40003C010F007C003F010C007F004C010F049
:10EBC40008C004F010C008F0106A0F500EC009F01D
:10EBD4000A6A095E000E0A5A0ABEFAEF75F00A5074
:10EBE40009E11A0E095CD8A0FAEF75F0FCEF75F094
:10EBF40033EF76F00150021003100410D8A405EF8F
:10EC040076F008EF76F0010E09EF76F0000E106E44
:10EC1400000E016E000E026E000E036E000E046EF6
:10EC24000EC00FF03CEF76F010A01BEF76F01DEF56
:10EC340076F023EF76F0D89010300109106E25EFAE
:10EC440076F0D890103201A02AEF76F02CEF76F00F
:10EC54002DEF76F0108E0434043203320232013286
:10EC64000F2A0E500F5CD8A03AEF76F03CEF76F006
:10EC740016EF76F00DBC41EF76F043EF76F083EFBC
:10EC840076F00F50D8A449EF76F04BEF76F055EFBD
:10EC940076F0000E016E000E026E000E036E000E82
:10ECA400046EA2EF77F005500126065002220750A9
:10ECB40003220850042204A062EF76F064EF76F099
:10ECC40010EF77F010A069EF76F06BEF76F071EF4C
:10ECD40076F0D89010300109106E73EF76F0D8906A
:10ECE400103201A078EF76F07AEF76F07BEF76F0D1
:10ECF400108E043404320332023201320F2A10EF30
:10ED040077F00550015C0650025807500358045030
:10ED1400800A096E0850800A0958D8B094EF76F03A
:10ED240096EF76F0C1EF76F00150055C096E025063
:10ED340006580A6E035007580B6E045008580C6EA0
:10ED4400FF0E0924016EFF0E0A20026EFF0E0B2037
:10ED5400036EFF0E0C20046E800E0D1A106C105002
:10ED6400D8A4B7EF76F0B9EF76F0C9EF76F0010EDC
:10ED74000126000E022203220422C9EF76F0055078
:10ED8400015E0650025A0750035A0850045A0150B3
:10ED9400021003100410D8A4D2EF76F0D4EF76F06A
:10EDA40009EF77F01050D8A4DAEF76F0DCEF76F0C4
:10EDB40009EF77F0000E016E000E026E000E036E76
:10EDC400000E046EA2EF77F0D890013602360336B7
:10EDD400043610AEF0EF76F0F2EF76F0F3EF76F063
:10EDE400018010A0F8EF76F0FAEF76F0FEEF76F0FF
:10EDF400D880103600EF77F0D89010360F50D8B482
:10EE040006EF77F008EF77F009EF77F00F0603AE1F
:10EE14000EEF77F010EF77F0E6EF76F00E6A10AEB3
:10EE240016EF77F018EF77F030EF77F010C009F0B5
:10EE34007F0E0916D8B421EF77F023EF77F027EF90
:10EE440077F0010E0E6E30EF77F001A02CEF77F023
:10EE54002EEF77F030EF77F023EF77F00E50D8B441
:10EE640036EF77F038EF77F063EF77F0010E012695
:10EE7400000E02220322042204A043EF77F045EFA0
:10EE840077F063EF77F001C009F002C00AF003C025
:10EE94000BF004C00CF00C340C320B320A32093281
:10EEA40009C001F00AC002F00BC003F00CC004F06A
:10EEB4000F28D8B460EF77F062EF77F063EF77F064
:10EEC4000F2A0F28D8B469EF77F06BEF77F073EF60
:10EED40077F00F50D8A471EF77F073EF77F084EFE9
:10EEE40077F0000E016E000E026E000E036E000E2F
:10EEF400046E0F50D8A481EF77F083EF77F084EF9E
:10EF040077F00D6A0FA089EF77F08BEF77F08EEF33
:10EF140077F0038E8FEF77F0039ED8900F30046E56
:10EF24000DAE97EF77F099EF77F09AEF77F0048EC4
:10EF340001C001F002C002F003C003F004C004F0F9
:10EF440012007CEC65F0000E0101506F000E516F51
:10EF5400000E526F000E536F88960F011C9D1C9F6C
:10EF6400A10E00019E6FFF0E9F6FD6EC65F0A30EFD
:10EF74000001A76F550EE82EFED7A72FFCD7100E61
:10EF8400096E020E0A6E5A0E92EC68F0070E00012A
:10EF9400A76F7D0EE82EFED7A72FFCD70C0E096EA7
:10EFA4005A0EC5EC68F00001E66F0D0E096E5A0E9C
:10EFB400C5EC68F00001E56F070E0001A76F7D0E38
:10EFC400E82EFED7A72FFCD7200E096E100E0A6E6E
:10EFD4005A0E92EC68F0070E0001A76F7D0EE82E22
:10EFE400FED7A72FFCD70C0E096E140E0A6E5A0E0C
:10EFF40092EC68F0200E096E180E0A6E5A0E92EC0E
:10F0040068F08290D8EC6BF041C055F142C056F1E3
:10F0140043C057F144C058F1F40E0001D027010E4B
:10F02400D123000ED223000ED32358EC65F000093F
:10F03400D8B41FEF78F021EF78F095EF78F06FEC0B
:10F0440065F00101546F7AEF78F0810E00019E6F34
:10F05400FE0E9F6FD6EC65F095EF78F0850E0001FB
:10F064009E6FFF0E9F6F4DEC65F001C0A0F002C0D3
:10F07400A1F055C1A2F056C1A3F057C1A4F058C1E4
:10F08400A5F0D6EC65F095EF78F0010E0001E36F82
:10F094008282B80E9E6FFF0E9F6FD6EC65F095EFDF
:10F0A40078F0010E0001E26F8380C90E9E6FFF0E9F
:10F0B4009F6FD6EC65F095EF78F0010E0001E16FDB
:10F0C4008382D90E9E6FFF0E9F6FD6EC65F095EF8D
:10F0D40078F00001E36BE26BE16B829283908392A0
:10F0E400E90E9E6FFF0E9F6FD6EC65F095EF78F0FA
:10F0F4005451620AD8B447EF78F00A0AD8B427EF1B
:10F1040078F0010AD8B453EF78F0060AD8B45FEF68
:10F1140078F01F0AD8B46BEF78F0060AD8B430EF51
:10F1240078F095EF78F055C128F056C129F057C111
:10F134002AF058C12BF0000E2C6E000E2D6EE80E36
:10F144002E6E400E2F6E36EC6DF0D8B0ACEF78F02A
:10F15400AEEF78F015EF79F0010150510001D05D68
:10F16400A76F010151510001D159A86F01015251FA
:10F174000001D259A96F010153510001D359AA6F5B
:10F18400AA510DE1900EA75D5F0EA859010EA95971
:10F19400D8A0CFEF78F0D1EF78F015EF79F0000E2A
:10F1A40001015A6F000E596F5ABFE2EF78F05A51BD
:10F1B40009E10F0E595DD8A0E2EF78F0E4EF78F0A2
:10F1C400E6EF78F00DEF79F083808382310E000151
:10F1D400A76FB20EE82EFED7A72FFCD700008390AE
:10F1E4008392310E0001A76FB20EE82EFED7A72F2F
:10F1F400FCD700000101594B5A2B5ABF0BEF79F091
:10F204005A5109E10F0E595DD8A00BEF79F00DEFBB
:10F2140079F0E6EF78F0D0C050F1D1C051F1D2C00E
:10F2240052F1D3C053F1230E096E5A0EC5EC68F0A7
:10F234000001ED6FA30E0001A76F550EE82EFED757
:10F24400A72FFCD73A0E096E5A0EC5EC68F00001E0
:10F25400EC6F3B0E096E5A0EC5EC68F00001EB6FC3
:10F26400110E0001A76F3A0EE82EFED7A72FFCD788
:10F2740000003C0E096E5A0EC5EC68F00001E86F00
:10F284003D0E096E5A0EC5EC68F00001E76FEB51B4
:10F29400A76FEC51DE6FA7C0DFF0E751A76FE8510D
:10F2A400DC6FA7C0DDF0E351D8B45BEF79F05DEF1C
:10F2B40079F05EEF79F08282E251D8B464EF79F0AC
:10F2C40066EF79F067EF79F08380E151D8B46DEFA0
:10F2D40079F06FEF79F070EF79F08382E251D8B46E
:10F2E40076EF79F078EF79F082EF79F0E151D8B4E4
:10F2F4007EEF79F080EF79F082EF79F004EF78F027
:10F30400DF5109E1C00EDE5DD8A08BEF79F08DEFFF
:10F3140079F0BEEF79F0DE05050EDF59D8B095EF30
:10F3240079F097EF79F0BEEF79F0E251D8A49DEF30
:10F3340079F09FEF79F0A0EF79F08380E151D8A4C0
:10F34400A6EF79F0A8EF79F0A9EF79F08382E35181
:10F35400D8A4AFEF79F0B1EF79F0B2EF79F08292FF
:10F36400450E9E6FFF0E9F6FDEC0A0F0DFC0A1F0C0
:10F37400D6EC65F004EF78F0DE05050EDF59D8A071
:10F38400C6EF79F0C8EF79F017EF7AF07D0EDF5D04
:10F39400D8B0CFEF79F0D1EF79F017EF7AF0E251EE
:10F3A400D8A4D7EF79F0D9EF79F0E9EF79F083B009
:10F3B400DEEF79F0E1EF79F0010EE2EF79F0000E83
:10F3C400FF0AA76F8350A719FE0BA719836EE1519B
:10F3D400D8A4EFEF79F0F1EF79F002EF7AF083B28D
:10F3E400F6EF79F0F9EF79F0010EFAEF79F0000E0B
:10F3F400FF0AA76FA7478350A719FD0BA719836EB0
:10F40400E351D8A408EF7AF00AEF7AF00BEF7AF020
:10F414008282680E9E6FFF0E9F6FDEC0A0F0DFC079
:10F42400A1F0D6EC65F004EF78F0E251D8A41DEF1A
:10F434007AF01FEF7AF020EF7AF08390E151D8A4AC
:10F4440026EF7AF028EF7AF029EF7AF08392E351ED
:10F45400D8A42FEF7AF031EF7AF004EF78F08292AB
:10F4640004EF78F0FEEF7FF00001816B57C082F06B
:10F4740058C083F059C084F05AC085F085BF47EF67
:10F484007AF045EF7AF05BEF7AF0010E816F82C07B
:10F4940001F083C002F084C003F085C004F0A2EC44
:10F4A40066F001C082F002C083F003C084F004C09F
:10F4B40085F0000E0001876F000E866FD8C071F0D2
:10F4C400D9C072F08151D8B46AEF7AF06CEF7AF057
:10F4D40080EF7AF08151D8A472EF7AF074EF7AF069
:10F4E4007AEF7AF0000E676F2B0E666F7EEF7AF07C
:10F4F400000E676F2D0E666F66C081F082C001F04A
:10F5040083C002F084C003F085C004F0B7EC6CF053
:10F5140001040210D8A491EF7AF093EF7AF0C6EFC9
:10F524007AF000018151D8B49AEF7AF09CEF7AF026
:10F53400A5EF7AF081C000F17107D8A07207000E20
:10F54400876F010E866F000E8625016E010E8721DE
:10F55400026EF30E036EFF0E046EBEEC66F0000145
:10F56400FD0E7127FF0E722355C013F056C014F020
:10F57400000E156E010E166E71C017F072C018F0F1
:10F5840031EC69F02FEF7FF082C001F083C002F00C
:10F5940084C003F085C004F0B7EC6CF00150021095
:10F5A400D8A4D7EF7AF0D9EF7AF0F9EF7AF0000126
:10F5B4008151D8B4E0EF7AF0E2EF7AF0EBEF7AF031
:10F5C40081C000F17107D8A07207000E876F010E89
:10F5D400866F000E8625016E010E8721026EF70EDE
:10F5E400036EFF0E046EBEEC66F0B1EF7AF0000E0F
:10F5F4000001886F000E896F800E8A6F3F0E8B6F3B
:10F60400000E706F000E6F6F82C001F083C002F0B5
:10F6140084C003F085C004F0000E056E000E066E73
:10F62400000E076E000E086E66EC6AF0D8B01DEF8F
:10F634007BF01FEF7BF0FEEF7BF02CEF7BF073C0D1
:10F6440088F074C089F075C08AF076C08BF0000130
:10F654006F4B702B88C00FF089C010F08AC011F076
:10F664008BC012F0000E136E000E146E200E156E79
:10F67400410E166E35EC73F00FC073F010C074F0C9
:10F6840011C075F012C076F000017351825D016EF5
:10F6940074518359026E75518459036E765185599C
:10F6A400046ED8EC67F004BE63EF7BF004500310E3
:10F6B400021009E1020E015CD8A063EF7BF065EF54
:10F6C4007BF021EF7BF073C028F074C029F075C083
:10F6D4002AF076C02BF082C02CF083C02DF084C0B9
:10F6E4002EF085C02FF036EC6DF0D8A07CEF7BF0C7
:10F6F4007EEF7BF021EF7BF000018851825D016E8B
:10F7040089518359026E8A518459036E8B518559EC
:10F71400046ED8EC67F004BE9DEF7BF00450031038
:10F72400021007E1020E015CD8B09BEF7BF09DEF65
:10F734007BF0E5EF7BF088C082F089C083F08AC05B
:10F7440084F08BC085F0FEEF7BF088C028F089C080
:10F7540029F08AC02AF08BC02BF0000E2C6E000E0C
:10F764002D6E200E2E6E410E2F6E6DEC71F028C0A2
:10F7740088F029C089F02AC08AF02BC08BF00001E0
:10F784006F07D8A070078851825D016E8951835933
:10F79400026E8A518459036E8B518559046ED8ECDC
:10F7A40067F004BEE3EF7BF004500310021007E19E
:10F7B400020E015CD8B0E1EF7BF0E3EF7BF0E5EF04
:10F7C4007BF09DEF7BF082C028F083C029F084C0D9
:10F7D4002AF085C02BF088C02CF089C02DF08AC097
:10F7E4002EF08BC02FF036EC6DF0D8A0FCEF7BF040
:10F7F400FEEF7BF0A7EF7BF05BC069F069C06AF0B5
:10F804000001DBBF08EF7CF00AEF7CF010EF7CF026
:10F81400DAC062F0DBC063F014EF7CF0000E636FBB
:10F82400060E626F62C06DF063C06EF06D4B6E2B9E
:10F83400660E6A19D8A421EF7CF023EF7CF043EF25
:10F844007CF070BF2AEF7CF028EF7CF036EF7CF080
:10F85400000E886F000E896F800E8A6F3F0E8B6FCB
:10F86400000E706F000E6F6F670E6919D8B43DEF0C
:10F874007CF03FEF7CF043EF7CF06F516D277051CB
:10F884006E23000E786F000E776F82C079F083C00C
:10F894007AF084C07BF085C07CF088C073F089C0A6
:10F8A40074F08AC075F08BC076F0D4EF7CF079C028
:10F8B40028F07AC029F07BC02AF07CC02BF088C0E5
:10F8C4002CF089C02DF08AC02EF08BC02FF06DEC87
:10F8D40071F028C041F029C042F02AC043F02BC087
:10F8E40044F015EC6FF041C07DF042C07EF043C09F
:10F8F4007FF044C080F07DC001F07EC002F07FC084
:10F9040003F080C004F0B8EC6DF001C06BF002C0ED
:10F914006CF079C028F07AC029F07BC02AF07CC052
:10F924002BF07DC013F07EC014F07FC015F080C0B2
:10F9340016F088C00FF089C010F08AC011F08BC097
:10F9440012F035EC73F00FC02CF010C02DF011C084
:10F954002EF012C02FF03CEC67F028C079F029C0DB
:10F964007AF02AC07BF02BC07CF088C028F089C0D4
:10F9740029F08AC02AF08BC02BF0000E2C6E000EEA
:10F984002D6E200E2E6E410E2F6E6DEC71F028C080
:10F9940088F029C089F02AC08AF02BC08BF00001BE
:10F9A400774B782B6D51775D7851800A5C6E6E5180
:10F9B400800A5C58D8A0E1EF7CF0E3EF7CF059EFCB
:10F9C4007CF088C00FF089C010F08AC011F08BC0A1
:10F9D40012F0000E136E000E146EA00E156E400E83
:10F9E400166E35EC73F00FC07DF010C07EF011C0C0
:10F9F4007FF012C080F079C028F07AC029F07BC073
:10FA04002AF07CC02BF07DC02CF07EC02DF07FC08E
:10FA14002EF080C02FF036EC6DF0D8B014EF7DF0EE
:10FA240016EF7DF021EF7DF0000E00017D6F000EDA
:10FA34007E6F000E7F6F000E806F4AEF7DF079C0FD
:10FA440001F07AC002F07BC003F07CC004F07DC0FA
:10FA540005F07EC006F07FC007F080C008F066ECB9
:10FA64006AF0D8A038EF7DF03AEF7DF04AEF7DF0F0
:10FA740000016BB140EF7DF042EF7DF04AEF7DF085
:10FA8400000E7D6F000E7E6F000E7F6F000E806F84
:10FA940082C001F083C002F084C003F085C004F08A
:10FAA4007DC005F07EC006F07FC007F080C008F07E
:10FAB40048EC75F001C079F002C07AF003C07BF025
:10FAC40004C07CF079C028F07AC029F07BC02AF009
:10FAD4007CC02BF0000E136E000E146E200E156EFB
:10FAE400410E166E73C00FF074C010F075C011F0A3
:10FAF40076C012F035EC73F00FC02CF010C02DF06E
:10FB040011C02EF012C02FF036EC6DF0D8A08DEF9E
:10FB14007DF08FEF7DF0B8EF7DF000016F4B702B1F
:10FB240073C00FF074C010F075C011F076C012F0FD
:10FB3400000E136E000E146E200E156E410E166E1E
:10FB440035EC73F00FC073F010C074F011C075F091
:10FB540012C076F0660E00016A19D8A4B4EF7DF0E5
:10FB6400B6EF7DF0B8EF7DF06D4B6E2B73C088F06F
:10FB740074C089F075C08AF076C08BF06FC060F0F5
:10FB840070C061F00001686B000E656F000E646F59
:10FB9400000E786F000E776FB5EF7EF079C028F015
:10FBA4007AC029F07BC02AF07CC02BF088C02CF0EE
:10FBB40089C02DF08AC02EF08BC02FF06DEC71F04F
:10FBC40028C041F029C042F02AC043F02BC044F0C1
:10FBD40015EC6FF041C07DF042C07EF043C07FF071
:10FBE40044C080F07DC001F07EC002F07FC003F00D
:10FBF40080C004F0B8EC6DF002BE0CEF7EF0025051
:10FC040007E10A0E015CD8B00AEF7EF00CEF7EF03B
:10FC14001CEF7EF07DC001F07EC002F07FC003F0D7
:10FC240080C004F0B8EC6DF001C06BF002C06CF061
:10FC340021EF7EF0000E00016C6F090E6B6F000166
:10FC44006851D8A428EF7EF02AEF7EF052EF7EF0C0
:10FC540061BF31EF7EF02FEF7EF052EF7EF0000EA9
:10FC64008625D96E010E8721DA6E2E0EDF6E864B45
:10FC7400872B7107D8A07207010E686F52EF7EF0D0
:10FC8400000E8625D96E010E8721DA6E300EDF6EE6
:10FC9400864B872B7107D8A072076407D8A0650725
:10FCA40064516511D8A459EF7EF05BEF7EF042EF0A
:10FCB4007EF0000E8625D96E010E8721DA6E6B5117
:10FCC400300FDF6E864B872B7107D8A0720779C07F
:10FCD40028F07AC029F07BC02AF07CC02BF07DC0CC
:10FCE40013F07EC014F07FC015F080C016F088C0F9
:10FCF4000FF089C010F08AC011F08BC012F035ECFF
:10FD040073F00FC02CF010C02DF011C02EF012C0F3
:10FD14002FF03CEC67F028C079F029C07AF02AC0B3
:10FD24007BF02BC07CF088C028F089C029F08AC001
:10FD34002AF08BC02BF0000E2C6E000E2D6E200EC0
:10FD44002E6E410E2F6E6DEC71F028C088F029C024
:10FD540089F02AC08AF02BC08BF000016007D8A07C
:10FD64006107774B782B6D51775D7851800A5C6E13
:10FD74006E51800A5C58D8B0C2EF7EF0C4EF7EF0BA
:10FD8400D2EF7EF087BFD0EF7EF0875109E14B0EB2
:10FD9400865DD8A0D0EF7EF0D2EF7EF0D0EF7DF07C
:10FDA400000E786F4F0E776F000E7725D96E010E17
:10FDB4007821DA6EDF6A000E5C6E010E5D6E86518C
:10FDC4005C5E87515D5A77515C24016E78515D20E9
:10FDD400026E000E036E010E046E86C005F087C02D
:10FDE40006F085EC67F000018651775D866F8751D8
:10FDF4007859876F8151D8A402EF7FF005EF7FF027
:10FE0400010E06EF7FF0000E776F786B8151D8B446
:10FE14000EEF7FF010EF7FF01BEF7FF08607D8A086
:10FE24008707000E8625D96E010E8721DA6E81C000
:10FE3400DFFF7751715F7851725B55C013F056C084
:10FE440014F0000E8625156E010E8721166E71C002
:10FE540017F072C018F031EC69F0120000BAC9F85A
:10FE6400C908CA26D62CD4ECC9B4D37AC982C98AA3
:10FE7400C992C99AC9A2C9AAC9C4C95ED00D0A52F5
:10FE840041434B2050524F544543544F52206865D0
:10FE94006C70206D656E75202D206B657962696EBE
:10FEA4006473200D0A277627205072696E747320BC
:10FEB4006261747465727920766F6C746167652011
:10FEC4006C6576656C200D0A276227205475726E66
:10FED400732062757A7A6572206F6E200D0A276925
:10FEE40027205475726E73204C45442042616E6B1A
:10FEF4002031206F6E200D0A276F27205475726EF3
:10FF040073204C45442042616E6B2032206F6E207A
:10FF14000D0A277027205475726E73204C454420B7
:10FF240042616E6B20312C20322C20616E6420746F
:10FF340068652062757A7A6572206F6666200D0A9C
:10FF4400004F626A65637420417070726F61636808
:10FF5400696E672E2050726573656E63653A20255D
:10FF6400750D0A004F626A65637420436C6F736594
:10FF7400212050726573656E63653A2025750D0AFC
:10FF840000414443207261773A2025752020426164
:10FF940074743A20252E326620560D0A0046697282
:10FFA4006D776172652056657273696F6E20312EAC
:10FFB400320D0A0042757A7A657220456E61626C70
:10FFC40065640D0A004C45442042414E4B203120CB
:10FFD4004F4E0D0A004C45442042414E4B203220E6
:10FFE4004F4E0D0A00416C6C206F66660D0A006965
:0CFFF4006E66006E616E0000A7EF65F005
:020000040030CA
:0C000000FCFFFFFF9FFFFFDFFFFFFFFF83
:00000001FF
