:04000000FEEF7FF0A0
:10C9C200959A1200968012009682120096841200A6
:10C9D200010E1200050E12009686120091501200EE
:10C9E2000E01C89112000E01C0911200968A96881B
:10C9F2001200969A968812000E01C8811200016EEA
:10CA020001C091FF1200E5EC64F0010E1200E5ECAA
:10CA120064F0020E1200E5EC64F0010E1200E7EC85
:10CA220064F0000E1200FAEC64F0050E1200F7EC4E
:10CA320064F00A0E1200F7EC64F0090E1200000E08
:10CA420031EC67F012000001E793E66B0E0E120064
:10CA52000001E793E66B0E0E120001C05CF102C00A
:10CA62005DF1120001C0FEF002C0FFF0120001C031
:10CA72005EF102C05FF112000001E791EDEC64F09B
:10CA8200040E12000001E781D880E13500EC65F068
:10CA9200050E12000001E781E151E12500EC65F08D
:10CAA200030E12000E01DC6BDD6BDE6BDF6BE06BE5
:10CAB200E16B12000E01C8A161EF65F063EF65F052
:10CAC2005BEF65F01200800E946E080E956E966A0A
:10CAD200030E926E959A1200700E0E01D36FD56BF3
:10CAE200D76B020ED96FD86B120005C001F006C0D9
:10CAF20002F007C003F0000E39EC68F0120096BC99
:10CB020085EF65F088EF65F0010E89EF65F0000EA4
:10CB1200120005C001F006C002F007C003F0020EC9
:10CB220039EC68F012000E01C8BB9AEF65F09DEF78
:10CB320065F0010E9EEF65F0000E1200016E0E010F
:10CB4200C8A9A6EF65F0A8EF65F0A0EF65F001C0F7
:10CB520099FF12000001FD6B9CA2B2EF65F0B4EFE9
:10CB620065F0B6EF65F09C989C889850120053ECE3
:10CB720065F064EC65F0E3EC67F06DEC65F0A8EC51
:10CB820066F013EC67F01200CBEF65F05BEC65F03A
:10CB920067EC69F00001E7B3D1EF65F0D3EF65F020
:10CBA200C7EF65F01200026E66EC66F00009D8B4B9
:10CBB200DDEF65F0DFEF65F0D5EF65F002509FEC39
:10CBC20065F0120001EE00F05C0EEE6AE806FDE18F
:10CBD20000EECBF0330EEE6AE806FDE10001E9EF6C
:10CBE20076F00001E7A7F8EF65F0FAEF65F001EFE4
:10CBF20066F001C0E2F002C0E3F003C0E4F0E797A0
:10CC0200120095BA07EF66F009EF66F011EF66F0D1
:10CC1200800E946E080E956E966A030E926E958A39
:10CC22001200A00E0001A46F000E976F000E986F05
:10CC32009EC099F09FC09AF0A40E9B6F96EC67F08D
:10CC4200120008C001F0036A020E026EF2EC65F0F7
:10CC5200000E056E000E066E000E076E76EC65F095
:10CC6200040E120008C001F0036A010E026EF2EC1B
:10CC720065F0000E056E000E066E000E076E76EC75
:10CC820065F0020E120008C001F0036A020E026E85
:10CC9200F2EC65F0000E056E000E066E000E076ED9
:10CCA20076EC65F0020E120008C001F0036A010E74
:10CCB200026EF2EC65F0000E056E000E066E000EBE
:10CCC200076E76EC65F0040E1200016A0E01C8A927
:10CCD2006DEF66F06FEF66F078EF66F09DAA74EF85
:10CCE20066F076EF66F078EF66F0010E016E0150A5
:10CCF2001200010E016E0001E7B382EF66F084EFCD
:10CD020066F08EEF66F0E795E169F1EC64F0F4EC21
:10CD120064F0E1EC64F0E6C001F001501200056E2F
:10CD220005C05AFF0F015B8F5B9D5B815BB19CEF7E
:10CD320066F09EEF66F097EF66F05F51046E036A4D
:10CD42005E510324016E000E0420026E1200656A19
:10CD5200666A676A686A636A646A616A0F015A6B23
:10CD6200586B596B546B100E556F566B606A536B50
:10CD7200516B1F0E526F840E5B6F576B120008507F
:10CD8200D96EDA6A020ED926DF50016E0850D96ECA
:10CD9200DA6ADECF02F0DDCF03F0F2EC65F0000ECE
:10CDA200056E000E066E000E076E76EC65F0020E42
:10CDB20012000150021003100410D8B4E3EF66F021
:10CDC200E5EF66F0EDEF66F0000E011A000E021AB2
:10CDD200000E031A800E041A01C001F002C002F014
:10CDE20003C003F004C004F0120001C005F002C049
:10CDF20006F003C0F6FF04C0F7FF034A042AF86AEC
:10CE020005C0D9FF06C0DAFF054A062A0800F5CF99
:10CE1200DFFFDF50D8A410EF67F012EF67F0FAEFF0
:10CE220066F01200080E9E6E900E9C6E240E9D6E91
:10CE3200080E9A6E9B6A000E016E000E026E33ECB3
:10CE420065F0000E016E000E026E38EC65F0000E09
:10CE5200016E000E026E2EEC65F00001FD6B1200F9
:10CE62000D6E010E0E6E0001E7B33AEF67F03CEF74
:10CE720067F050EF67F0E7830E6A0D50D8B444EFC5
:10CE820067F046EF67F04AEF67F0010EE56F4CEF8F
:10CE920067F0020EE56FE3EC64F0C5EC65F00E504E
:10CEA2001200126A000E116E62EF67F010C003F0FA
:10CEB200046A0EC005F00FC006F07FEC6BF0114A59
:10CEC200122A11500C24D96E12500D20DA6EDF5046
:10CED200106E1050D8A470EF67F072EF67F057EF42
:10CEE20067F01200000E2C1A000E2D1A000E2E1AD8
:10CEF200800E2F1A28C001F029C002F02AC003F0C8
:10CF02002BC004F02CC005F02DC006F02EC007F097
:10CF12002FC008F08EEC74F001C028F002C029F096
:10CF220003C02AF004C02BF0120099C09CF09AC0F2
:10CF32009DF0A7EF67F097C08CF098C08DF09C0E23
:10CF420000018E6F9BC08FF0A7EC6EF09CC0F6FFC5
:10CF52009DC0F7FFF86A0800F5500009D8A4B4EFA5
:10CF620067F0B6EF67F09CEF67F00001986B000E78
:10CF7200976F120003C00AF004C00BF001C008F062
:10CF820002C009F0D5EF67F00AC0D9FF0BC0DAFF83
:10CF9200DF50076E0A4A0B2A08C0D9FF09C0DAFF20
:10CFA20007C0DFFF084A092A0506D8A00606052899
:10CFB20006E10628D8A4E0EF67F0E2EF67F0C5EFDC
:10CFC20067F01200826A836A846AFC0E876EFC0E26
:10CFD200886EBF0E896E670E0F011C6F14690C6993
:10CFE200286B136B0B6B1B6B0A6B126B1A6B096949
:10CFF20011691969086910691869080E256F140EFC
:10D002000E01B36F170EB06F0F0EF56F100EF66FA5
:10D01200090EF86F130EB26F120004BE13EF68F020
:10D0220015EF68F01FEF68F001C001F002C002F0D6
:10D0320003C003F004C004F038EF68F001C005F04B
:10D0420002C006F003C007F004C008F0051E061E69
:10D05200071E081E052A000E06220722082205C006
:10D0620001F006C002F007C003F008C004F012008D
:10D07200046E01500210D8B441EF68F043EF68F03B
:10D0820055EF68F00450020DF350CB0FD96EDA6AF7
:10D0920001C0DEFF02C0DDFF0450D70FD96EDA6A8D
:10D0A20003C0DFFF64EF68F00450020DF350CB0FB2
:10D0B200D96EDA6AD20EDE6EC90EDD6E0450D70F5B
:10D0C200D96EDA6ADF6A12000001E791020EE66F9A
:10D0D20073EF68F00CEC65F095EF68F010EC65F01A
:10D0E20095EF68F0D9C008F002D881EF68F005002A
:10D0F200FA6ECF51FD6ED051FE6EFF6AFA501200E9
:10D10200096E0A6A0A50000AD8B48AEF68F06FEF13
:10D1120068F00950020AD8B46BEF68F0010AD8B47B
:10D122006BEF68F06FEF68F01200116E115030EC87
:10D1320069F00009D8B4A0EF68F0A2EF68F097EFA9
:10D1420068F0AA0E056ECC0E066E100E076E76EC17
:10D1520065F00F0E016E036A010E026EF2EC65F0CD
:10D16200000E056E000E066E000E076E000E086EB3
:10D172008AEC65F020EC65F07AEC66F0E806D8B44B
:10D18200C5EF68F0C7EF68F0BDEF68F01200106EEF
:10D19200116A105030EC69F00009D8B4D3EF68F08E
:10D1A200D5EF68F0CAEF68F0660E056ECC0E066E1B
:10D1B200110E076E76EC65F00F0E016E036A010E1A
:10D1C200026EF2EC65F0000E056E000E066E000EA9
:10D1D200076E000E086E8AEC65F020EC65F07AECC2
:10D1E20066F0E806D8B4F8EF68F0FAEF68F0F0EF0E
:10D1F20068F01150120018BE03EF69F001EF69F0F8
:10D2020006EF69F0186A000E176E1B6A000E1A6E9E
:10D2120016EF69F0046A200E036E13C005F014C005
:10D2220006F07FEC6BF01A4A1B2A17501A5C1B504F
:10D23200800A196E1850800A1958D8A023EF69F095
:10D2420025EF69F00BEF69F015C00CF016C00DF078
:10D2520013C00EF014C00FF052EC67F01200016E12
:10D26200010E026E0001E7B539EF69F03BEF69F09C
:10D2720065EF69F001C0E1F0E793E785E7910E0EF3
:10D28200E56F010EE06FF40EDF6FE787D20ECB6F12
:10D29200C90ECC6FD76BD20ECD6FC90ECE6FD86BC5
:10D2A200D20ECF6FC90ED06FD96BD20ED16FC90E0D
:10D2B200D26FDA6BD60ED36FC90ED46FDB6BF1EC83
:10D2C20064F002EC66F0026A02501200F1EC64F0C3
:10D2D2000001E7A16FEF69F071EF69F07EEF69F08D
:10D2E20080EC65F00009D8B479EF69F07BEF69F062
:10D2F2007EEF69F00F0E0001E56F0001E551020DAE
:10D30200910EF324F66EFE0EF420F76EF86A000E0C
:10D31200F8220900F5CF0BF00900F5CF0CF002D886
:10D322009CEF69F00500FA6E0B50FD6E0C50FE6E1C
:10D33200FF6AFA5012000001E56F12000001E78750
:10D34200B0EF69F00CEC65F0DAEF69F0FDEC64F037
:10D35200030EDAEF69F010EC65F0DAEF69F0D7C08E
:10D3620008F002D8BEEF69F00500FA6ECB51FD6EEF
:10D37200CC51FE6EFF6AFA501200096E0A6A0A5018
:10D38200000AD8B4C7EF69F0ACEF69F00950010A9E
:10D39200D8B4ACEF69F0030AD8B4A3EF69F0010A7C
:10D3A200D8B4A3EF69F0070AD8B4A7EF69F0ACEFDD
:10D3B20069F01200036E0001F451D8B4E3EF69F092
:10D3C200E5EF69F0E8EF69F08380F4EF69F003506C
:10D3D200D8B4EEEF69F0F0EF69F0F3EF69F0838013
:10D3E200F4EF69F08390F351D8B4FAEF69F0FCEFEF
:10D3F20069F0FFEF69F083820BEF6AF00150D8B455
:10D4020005EF6AF007EF6AF00AEF6AF083820BEF2A
:10D412006AF08392F551D8B411EF6AF013EF6AF013
:10D4220016EF6AF0828222EF6AF00250D8B41CEF43
:10D432006AF01EEF6AF021EF6AF0828222EF6AF050
:10D44200829212000001E251D96EDA6AEFEC64F0C6
:10D45200DF6E0001E22BE307D8A0E407E351E411F9
:10D46200D8B436EF6AF038EF6AF03DEF6AF0FAECC2
:10D4720064F0050E72EF6AF0E78748EF6AF01CEC81
:10D4820065F072EF6AF018EC65F072EF6AF0D7C0DF
:10D4920008F002D856EF6AF00500FA6ECB51FD6E25
:10D4A200CC51FE6EFF6AFA501200096E0A6A0A50E7
:10D4B200000AD8B45FEF6AF044EF6AF00950010A3B
:10D4C200D8B444EF6AF0030AD8B440EF6AF0010A14
:10D4D200D8B440EF6AF0070AD8B444EF6AF044EFD8
:10D4E2006AF01200000E0114096E000E02140A6E98
:10D4F200800E03140B6E7F0E04140C6E09500A107A
:10D502000B100C10D8A488EF6AF08AEF6AF092EF41
:10D512006AF0000E016E000E026E000E036E000E27
:10D52200046E000E0514096E000E06140A6E800EBB
:10D5320007140B6E7F0E08140C6E09500A100B10A4
:10D542000C10D8A4A7EF6AF0A9EF6AF0B1EF6AF065
:10D55200000E056E000E066E000E076E000E086EBF
:10D56200055001180FE1065002180CE1075003188C
:10D5720009E108500418D8B4C1EF6AF0C3EF6AF0A9
:10D58200C6EF6AF0D890C7EF6AF0D8801200076A37
:10D59200000E066E0150D96EDA6ADECFF6FFDDCFDD
:10D5A200F7FFF86A0800F5502A0AD8A4DBEF6AF000
:10D5B200DDEF6AF006EF6BF00150D96EDA6ADE2A0F
:10D5C200000EDD220250D96EDA6A020EDF26DF5C1F
:10D5D200D96EDA6ADECF06F0DECF07F01AEF6BF013
:10D5E2000A0E0602F3CF03F0F4CF04F00702F35061
:10D5F200042605500324066E000E0420076E015017
:10D60200D96EDA6ADE2A000EDD220150D96EDA6A9C
:10D61200DECFF6FFDDCFF7FFF86A0800F550D00F36
:10D62200056E090E056418EF6BF01AEF6BF0F1EF5F
:10D632006AF006C001F007C002F0120080EC65F04B
:10D642000009D8B427EF6BF029EF6BF062EF6BF0B3
:10D6520037EF6BF004EC65F07EEF6BF008EC65F0F1
:10D662007EEF6BF010EC65F07EEF6BF0DAC008F045
:10D6720002D846EF6BF00500FA6E0001D151FD6E43
:10D68200D251FE6EFF6AFA501200096E0A6A0A50FF
:10D69200000AD8B44FEF6BF033EF6BF00950010A78
:10D6A200D8B433EF6BF0030AD8B42BEF6BF0010A56
:10D6B200D8B42FEF6BF0070AD8B433EF6BF033EF27
:10D6C2006BF00001E79120EEE2F0DF50DF2AD96E25
:10D6D200DA6ADF5000EC65F00001E307D8A0E40746
:10D6E200E351E411D8A478EF6BF07AEF6BF07DEFA1
:10D6F2006BF0060E7EEF6BF0030E12000550061063
:10D70200D8B486EF6BF088EF6BF091EF6BF00550B9
:10D712000610D8A48FEF6BF091EF6BF096EF6BF0E1
:10D722000350D4EC65F0E3EF6BF020EE09F0055006
:10D73200D9260650DA22DE50DE10D8B4A3EF6BF001
:10D74200A5EF6BF0C0EF6BF020EE09F00550D92683
:10D752000650DA2210EE02F00550E1260650E222CF
:10D76200DE50E65CE650800A0B6EDE50800A0B58F3
:10D77200D8B0BEEF6BF0C0EF6BF0E3EF6BF020EED2
:10D7820002F00550D9260650DA22DECF07F0DDCFAF
:10D7920008F005C0D9FF06C0DAFFDECF09F0DDCF01
:10D7A2000AF007500924D96E08500A20DA6E03C025
:10D7B200DFFF20EE02F00550D9260650DA22DE2ADB
:10D7C200000EDD2212008386FA0E00D0E82EFDD76D
:10D7D2000C0E0F015A6F0C0E90EC66F001C04DF06A
:10D7E20002C04EF0330E136E330E146E530E156ECE
:10D7F200400E166E4DC001F04EC002F0036A046A7C
:10D80200000ECDEC6DF001C00FF002C010F003C0AD
:10D8120011F004C012F07BEC72F00FC028F010C0BF
:10D8220029F011C02AF012C02BF0000E2C6E000E4F
:10D832002D6E800E2E6E440E2F6EB4EC70F028C04A
:10D8420045F029C046F02AC047F02BC048F045C039
:10D852000FF046C010F047C011F048C012F0520E4F
:10D86200136EB80E146E3E0E156E400E166E7BECE5
:10D8720072F00FC049F010C04AF011C04BF012C054
:10D882004CF0839649C041F04AC042F04BC043F08D
:10D892004CC044F0120004C10BF005C10CF006C1EB
:10D8A2000DF007C10EF001C00BF002C00CF003C076
:10D8B2000DF004C00EF00BC005F00CC006F00DC058
:10D8C20007F00EC008F0180E6CEF6CF0D89008321A
:10D8D200073206320532E82E67EF6CF00550096E0A
:10D8E2000A6A09500A10D8A479EF6CF07BEF6CF049
:10D8F20099EF6CF0D8900B34056E0C34066E0D3433
:10D90200076E0E34086E0550061007100810D8A4D2
:10D912008DEF6CF08FEF6CF094EF6CF0026A020EF8
:10D92200016EC7EF6CF0026A030E016EC7EF6CF076
:10D9320009280A10D8A4A0EF6CF0A2EF6CF0C4EF93
:10D942006CF00BC005F00CC006F00DC007F00EC065
:10D9520008F0090ED8900536063607360836E82E46
:10D96200ABEF6CF00550061007100810D8B4BCEFEE
:10D972006CF0BFEF6CF0010EC0EF6CF0000E016EA8
:10D98200026AC7EF6CF0026A040E016E1200000E0A
:10D992002814306E000E2914316E800E2A14326E55
:10D9A2007F0E2B14336E3050311032103310D8A446
:10D9B200DDEF6CF0DFEF6CF0E7EF6CF0000E286E3D
:10D9C200000E296E000E2A6E000E2B6E000E2C1415
:10D9D200306E000E2D14316E800E2E14326E7F0EBC
:10D9E2002F14336E3050311032103310D8A4FCEFA4
:10D9F2006CF0FEEF6CF006EF6DF0000E2C6E000E78
:10DA02002D6E000E2E6E000E2F6E2BAE0BEF6DF0F4
:10DA12000DEF6DF016EF6DF0286C291ED8B0292A93
:10DA22002A1ED8B02A2A800E2B562FAE1BEF6DF07D
:10DA32001DEF6DF026EF6DF02C6C2D1ED8B02D2A47
:10DA42002E1ED8B02E2A800E2F56000E281A000E37
:10DA5200291A000E2A1A800E2B1A000E2C1A000EFA
:10DA62002D1A000E2E1A800E2F1A2C50285C2D50C3
:10DA720029582E502A582F502B58D8B043EF6DF00A
:10DA820045EF6DF048EF6DF0D89049EF6DF0D8801A
:10DA92001200033404340A6E0A50D8A453EF6DF016
:10DAA20055EF6DF05FEF6DF0000E016E000E026E2D
:10DAB200000E036E000E046ECCEF6DF001C005F097
:10DAC20002C006F003C007F004C008F0200E6FEF9A
:10DAD2006DF0D8900832073206320532E82E6AEF2E
:10DAE2006DF00550096E038EFF0E0116FF0E021631
:10DAF200FF0E0316000E0416960E0A5E0ABE86EF8D
:10DB02006DF084EF6DF09CEF6DF00A50800A970F74
:10DB1200D8B08EEF6DF090EF6DF092EF6DF055EFA3
:10DB22006DF0D89004320332023201320A3E92EF93
:10DB32006DF0B4EF6DF01F0E0A64A2EF6DF0A4EF6A
:10DB42006DF0ACEF6DF055EF6DF0D8900136023606
:10DB5200033604360A060A50D8A4B2EF6DF0B4EFC9
:10DB62006DF0A6EF6DF00950D8B4BAEF6DF0BCEFCE
:10DB72006DF0C4EF6DF0041E031E021E016C000E58
:10DB820002220322042201C001F002C002F003C0FB
:10DB920003F004C004F01200096E0950D8B4D4EFA7
:10DBA2006DF0D6EF6DF0F8EF6DF004BEDDEF6DF0C5
:10DBB200DBEF6DF0F8EF6DF001C005F002C006F08A
:10DBC20003C007F004C008F0051E061E071E081E4B
:10DBD200052A000E06220722082205C00BF006C005
:10DBE2000CF007C00DF008C00EF000EF6EF001C09F
:10DBF2000BF002C00CF003C00DF004C00EF0015097
:10DC0200021003100410D8A409EF6EF00BEF6EF0AF
:10DC120015EF6EF0000E016E000E026E000E036E26
:10DC2200000E046EA6EF6EF0960E0A6E1FEF6EF0F7
:10DC32000A2AD8900E320D320C320B32000E0B141F
:10DC4200056E000E0C14066E000E0D14076EFE0E0D
:10DC52000E14086E0550061007100810D8A434EFF1
:10DC62006EF036EF6EF019EF6EF044EF6EF00A2AA6
:10DC7200010E0B26000E0C220D220E22D8900E321F
:10DC82000D320C320B32000E0B14056E000E0C140A
:10DC9200066E000E0D14076EFF0E0E14086E055070
:10DCA200061007100810D8A459EF6EF05BEF6EF063
:10DCB20038EF6EF063EF6EF00A06D8900B360C3632
:10DCC2000D360E360DBE68EF6EF06AEF6EF072EF33
:10DCD2006EF0020E0A6070EF6EF072EF6EF05DEFA2
:10DCE2006EF00AB077EF6EF079EF6EF07AEF6EF0C9
:10DCF2000D9ED8900A320AC005F0066A076A086AC1
:10DD020005C008F0076A066A056A05500B1206503C
:10DD12000C1207500D1208500E120950D8B494EF8D
:10DD22006EF096EF6EF09EEF6EF004BE9DEF6EF019
:10DD32009BEF6EF09EEF6EF00E8E0BC001F00CC0EA
:10DD420002F00DC003F00EC004F0120000018E516B
:10DD5200D96EDA6ADECFF6FFDDCFF7FFF86A080088
:10DD6200F550250AD8A4B8EF6EF0BAEF6EF096EF30
:10DD72006FF08E51D96EDA6ADE2A000EDD22E96B6F
:10DD8200000EE86FE8C0F0F0EA69EB698E51D96ED7
:10DD9200DA6ADECFF6FFDDCFF7FFF86A0800F5504A
:10DDA2002E0AD8A4D7EF6EF0D9EF6EF0E9EF6EF03D
:10DDB2008E51D96EDA6ADE2A000EDD228EC001F0A3
:10DDC2008FC002F0C8EC6AF001C0EAF002C0EBF0CA
:10DDD20000018E51D96EDA6ADECF95F0DDCF96F072
:10DDE20095C0F6FF96C0F7FFF86A0800F5CF94F0E9
:10DDF20006EF6FF0954B962B15EF6FF06C0E946F4C
:10DE020015EF6FF0946B15EF6FF094514C0AD8B484
:10DE1200FBEF6EF02A0AD8B4FFEF6EF00A0AD8B40C
:10DE2200FBEF6EF003EF6FF095C0F6FF96C0F7FFC1
:10DE3200F86A0800F550660AD8A422EF6FF024EFC2
:10DE42006FF08DEF6FF04EEF6FF08F51D96EDA6A8F
:10DE5200DFCF5EF0040EDF265E50D96EDA6ADECFC7
:10DE620090F0DECF91F0DECF92F0DECF93F059EF5B
:10DE72006FF08F51D96EDA6ADFCF5EF0040EDF26C3
:10DE82005E50D96EDA6ADECF90F0DECF91F0DECF4F
:10DE920092F0DECF93F059EF6FF094514C0AD8B460
:10DEA2003AEF6FF0200AD8B426EF6FF059EF6FF017
:10DEB200010E95255E6E000E96215F6E8E51D96E13
:10DEC200DA6A5EC0DEFF5FC0DDFF80EF6FF08CC0FC
:10DED20055F08DC056F090C057F091C058F092C0E6
:10DEE20059F093C05AF095C0F6FF96C0F7FFF86A52
:10DEF2000800F5CF5BF05BEC7AF0AAEF6FF095C00B
:10DF0200F6FF96C0F7FFF86A0800F550660AD8B423
:10DF120068EF6FF08DEF6FF000018E51D96EDA6A03
:10DF2200DE2A000EDD22AAEF6FF08E51D96EDA6A78
:10DF3200DECFF6FFDDCFF7FFF86A0800F550036E7B
:10DF4200046A8CC005F08DC006F07FEC6BF08DEF9B
:10DF52006FF0120000C151F001C152F002C153F042
:10DF620003C154F041C051F042C052F043C053F0DB
:10DF720044C054F0810E456EFF0E466E51C047F00C
:10DF820052C048F053C049F054C04AF0180ECFEFC7
:10DF92006FF0D8904A32493248324732E82ECAEFFF
:10DFA2006FF0475045244F6E000E4620506E50BE13
:10DFB200E4EF6FF0505009E1170E4F5CD8A0E4EF88
:10DFC2006FF0E6EF6FF0F0EF6FF041C041F042C04A
:10DFD20042F043C043F044C044F0B3EF70F050BE8F
:10DFE200F5EF6FF0F7EF6FF067EF70F04FC045F0AD
:10DFF200FF0E466EFF0E476E7F0E486E000E496E94
:10E00200456606EF70F00EEF70F04934493248323F
:10E0120047324632452E01EF70F046C04BF047C002
:10E022004CF048C04DF049C04EF04B505114456E73
:10E032004C505214466E4D505314476E4E50541469
:10E04200486E4550461047104810D8A42BEF70F088
:10E052002DEF70F02FEF70F0E6EF6FF051C045F04A
:10E0620052C046F053C047F054C048F0200E3FEF74
:10E0720070F0D8904832473246324532E82E3AEFB5
:10E0820070F04550461047104810D8B44BEF70F06E
:10E092004DEF70F055EF70F04B5051264C5052221C
:10E0A2004D5053224E5054224B1C456E4C1C466E12
:10E0B2004D1C476E4E1C486E455051164650521626
:10E0C2004750531648505416ABEF70F051C045F00C
:10E0D20052C046F053C047F054C048F0200E77EFCC
:10E0E20070F0D8904832473246324532E82E72EF0D
:10E0F20070F04550461047104810D8A483EF70F0D6
:10E1020085EF70F08FEF70F0000E516E000E526EC0
:10E11200000E536E000E546EABEF70F0D890513477
:10E12200456E5234466E5334476E5434486E4550F1
:10E13200461047104810D8B4A1EF70F0A3EF70F06A
:10E14200ABEF70F0000E516E000E526E800E536EE9
:10E15200BF0E546E51C041F052C042F053C043F062
:10E1620054C044F012002B50800B386E2B502B24DD
:10E172003F6E2AAEBFEF70F0C1EF70F0C2EF70F0E9
:10E182003F803F50D8B4C8EF70F0CAEF70F0DEEFB6
:10E1920070F03F28D8A4D0EF70F0D2EF70F0DAEF31
:10E1A20070F0000E286E000E296E000E2A6E000E10
:10E1B2002B6E2A8E2B6AE6EF70F0000E286E000E90
:10E1C200296E000E2A6E000E2B6E2F50800B381A0D
:10E1D2002F502F24406E2EAEF1EF70F0F3EF70F05F
:10E1E200F4EF70F040804050D8B4FAEF70F0FCEFDA
:10E1F20070F010EF71F04028D8A402EF71F004EF34
:10E2020071F00CEF71F0000E2C6E000E2D6E000EF0
:10E212002E6E000E2F6E2E8E2F6A18EF71F0000EEA
:10E222002C6E000E2D6E000E2E6E000E2F6E2C50D8
:10E232002D102E102F10D8A421EF71F023EF71F0C2
:10E242003BEF71F0000E286E000E296E000E2A6E52
:10E25200000E2B6E800E2A127F0E2B1238502B12BC
:10E2620028C028F029C029F02AC02AF02BC02BF0A0
:10E272007AEF72F03F50D8A441EF71F043EF71F0A2
:10E282004DEF71F0000E286E000E296E000E2A6E00
:10E29200000E2B6E7AEF72F040503FC030F0316AC0
:10E2A200305E000E315A7F0E3024396E000E31205E
:10E2B2003A6E28C034F029C035F02AC036F02BC09F
:10E2C20037F0000E286E000E296E000E2A6E000E28
:10E2D2002B6E000E3B6E000E3C6E000E3D6E000E6D
:10E2E2003E6E406AADEF71F04050D8B47BEF71F0F2
:10E2F2007DEF71F094EF71F0D890343635363636C2
:10E302003736D890283629362A362B363EAE8CEF51
:10E3120071F08EEF71F08FEF71F02880D8903B365C
:10E322003C363D363E362C50345C2D5035582E50FE
:10E3320036582F503758D8A0A1EF71F0A3EF71F0E3
:10E34200ACEF71F03E8C2C50345E2D50355A2E506D
:10E35200365A2F50375A402A190E4064B3EF71F0E3
:10E36200B5EF71F075EF71F034503510361037108B
:10E37200D8B4BEEF71F0C0EF71F0D8EF71F03B800E
:10E38200D8EF71F0D890283629362A362B363EAE91
:10E39200CDEF71F0CFEF71F0D0EF71F02880D8900F
:10E3A2003B363C363D363E363906D8A03A062AAED2
:10E3B200DDEF71F0DFEF71F0C3EF71F0406A3EAE56
:10E3C200E5EF71F0E7EF71F00BEF72F0FF0E3B1427
:10E3D200306EFF0E3C14316EFF0E3D14326E7F0E16
:10E3E2003E14336E3050311032103310D8B4FCEF7B
:10E3F20071F0FEEF71F002EF72F0010E406E0BEF62
:10E4020072F028A007EF72F009EF72F00BEF72F0D2
:10E41200FEEF71F04050D8B411EF72F013EF72F0CA
:10E4220037EF72F0010E2826000E29222A222B2213
:10E432002BA01EEF72F020EF72F037EF72F028C0BF
:10E4420030F029C031F02AC032F02BC033F033341F
:10E45200333232323132303230C028F031C029F01A
:10E4620032C02AF033C02BF0394A3A2A3ABE42EF80
:10E4720072F03A5008E13928D8A042EF72F044EF26
:10E4820072F04FEF72F0000E3A6E3968000E286E8D
:10E49200000E296E000E2A6E000E2B6E3ABE5CEF45
:10E4A20072F03A5006E13904D8B05AEF72F05CEFDC
:10E4B20072F068EF72F03A6A000E396E000E286E42
:10E4C200000E296E000E2A6E000E2B6E386A39C0BD
:10E4D2003FF03FA06FEF72F071EF72F074EF72F0E5
:10E4E2002A8E75EF72F02A9ED8903F302B6E2FEF56
:10E4F20071F012001250800B1B6E12501224216E0A
:10E5020011AE86EF72F088EF72F089EF72F021801F
:10E512002150D8B48FEF72F091EF72F0A4EF72F045
:10E522002128D8A497EF72F099EF72F0A1EF72F060
:10E53200000E0F6E000E106E000E116E000E126EA7
:10E54200118EACEF72F0000E0F6E000E106E000E08
:10E55200116E000E126E1650800B1B1A16501624E6
:10E562001C6E15AEB7EF72F0B9EF72F0BAEF72F03F
:10E572001C801C50D8B4C0EF72F0C2EF72F0D5EF1D
:10E5820072F01C28D8A4C8EF72F0CAEF72F0D2EF72
:10E5920072F0000E136E000E146E000E156E000E59
:10E5A200166E158EDDEF72F0000E136E000E146EF5
:10E5B200000E156E000E166E1C50D8B4E3EF72F00A
:10E5C200E5EF72F0EDEF72F02150D8A4EBEF72F0AC
:10E5D200EDEF72F0F7EF72F0000E0F6E000E106E9C
:10E5E200000E116E000E126E8DEF74F015500F02B8
:10E5F200F3CF26F0F4CF27F026501D6E1E6A1F6A55
:10E60200206A2750226E236A246A256A1450100257
:10E61200F3CF26F0F4CF27F026501D26000E1E223F
:10E622001F22202227502226000E232224222522C6
:10E6320013501102F3CF26F0F4CF27F026501D26F7
:10E64200000E1E221F22202227502226000E2322E5
:10E65200242225221FC020F01EC01FF01DC01EF064
:10E662001D6A13501002F3CF26F0F4CF27F0265084
:10E672001D2627501E22000E1F22000E202214509B
:10E682000F02F3CF26F0F4CF27F026501D26275095
:10E692001E22000E1F22000E20221FC020F01EC0CC
:10E6A2001FF01DC01EF01D6A13500F02F3CF26F09B
:10E6B200F4CF27F026501D2627501E22000E1F22BF
:10E6C200000E202215501002F3CF26F0F4CF27F0CF
:10E6D2002650222627502322000E2422000E252215
:10E6E20014501102F3CF26F0F4CF27F02650222641
:10E6F20027502322000E2422000E2522155011023B
:10E70200F3CF26F0F4CF27F02650176E2750186E5D
:10E71200196A1A6A19C01AF018C019F017C018F04D
:10E72200176A1750222618502322195024221A50F1
:10E7320025221DC017F01EC018F01FC019F020C0FE
:10E742001AF0190EAAEF73F0D8901A321932183251
:10E752001732E82EA5EF73F0175022261850232205
:10E76200195024221A5025221FC020F01EC01FF06B
:10E772001DC01EF01D6A1C5021C017F0186A172612
:10E78200000E1822820E1724266EFF0E1820276E06
:10E79200E0EF73F0D890223623362436253620AEA9
:10E7A200D5EF73F0D7EF73F0D8EF73F02280D890E3
:10E7B2001D361E361F3620362606D8A0270624AE62
:10E7C200E5EF73F0E7EF73F0CBEF73F01C6A20AE66
:10E7D200EDEF73F0EFEF73F013EF74F0FF0E1D1413
:10E7E200176EFF0E1E14186EFF0E1F14196E7F0E89
:10E7F20020141A6E1750181019101A10D8B404EFFA
:10E8020074F006EF74F00AEF74F0010E1C6E13EF51
:10E8120074F022A00FEF74F011EF74F013EF74F0A4
:10E8220006EF74F01C50D8B419EF74F01BEF74F0BB
:10E832003FEF74F0010E2226000E2322242225220D
:10E8420025A026EF74F028EF74F03FEF74F022C099
:10E8520017F023C018F024C019F025C01AF01A349A
:10E862001A3219321832173217C022F018C023F0A8
:10E8720019C024F01AC025F0264A272A27BE4AEFDB
:10E8820074F0275008E12628D8A04AEF74F04CEF24
:10E8920074F056EF74F0000E226E000E236E800E9E
:10E8A200246E7F0E256E83EF74F027BE63EF74F043
:10E8B200275006E12604D8B061EF74F063EF74F0DC
:10E8C2006EEF74F0000E226E000E236E000E246EA8
:10E8D200000E256E1B6A83EF74F026C021F0FF0E36
:10E8E2002216FF0E23167F0E2416000E251621A0D7
:10E8F2007DEF74F07FEF74F080EF74F0248ED89087
:10E902002130256E1B50251222C00FF023C010F0BB
:10E9120024C011F025C012F012000450800B0D6EBD
:10E92200045004240F6E03AE99EF74F09BEF74F061
:10E932009CEF74F00F800F50D8B4A2EF74F0A4EFE4
:10E9420074F0B8EF74F00F28D8A4AAEF74F0ACEF0B
:10E9520074F0B4EF74F0000E016E000E026E000E41
:10E96200036E000E046E038E046AC0EF74F0000E94
:10E97200016E000E026E000E036E000E046E085051
:10E98200800B0E6E0D500E18D8B4CAEF74F0CCEF97
:10E9920074F0CDEF74F00D8C085008240E6E07AEA3
:10E9A200D5EF74F0D7EF74F0D8EF74F00E800E50FC
:10E9B200D8B4DEEF74F0E0EF74F0F4EF74F00E28E8
:10E9C200D8A4E6EF74F0E8EF74F0F0EF74F0000E04
:10E9D200056E000E066E000E076E000E086E078EA4
:10E9E200086AFCEF74F0000E056E000E066E000E53
:10E9F200076E000E086E0F500E5CD8B003EF75F074
:10EA020005EF75F02CEF75F00DAC0AEF75F00CEF19
:10EA120075F00EEF75F0800E0D1A0FC010F00EC0DB
:10EA22000FF010C00EF001C010F005C001F010C0D0
:10EA320005F002C010F006C002F010C006F003C0DC
:10EA420010F007C003F010C007F004C010F008C0B7
:10EA520004F010C008F0106A0F500EC009F00A6AE4
:10EA6200095E000E0A5A0ABE40EF75F00A5009E12B
:10EA72001A0E095CD8A040EF75F042EF75F079EFFD
:10EA820075F00150021003100410D8A44BEF75F07A
:10EA92004EEF75F0010E4FEF75F0000E106E000E86
:10EAA200016E000E026E000E036E000E046E0EC0AA
:10EAB2000FF082EF75F010A061EF75F063EF75F063
:10EAC20069EF75F0D89010300109106E6BEF75F098
:10EAD200D890103201A070EF75F072EF75F073EFFD
:10EAE20075F0108E043404320332023201320F2ADE
:10EAF2000E500F5CD8A080EF75F082EF75F05CEFDE
:10EB020075F00DBC87EF75F089EF75F0C9EF75F000
:10EB12000F50D8A48FEF75F091EF75F09BEF75F061
:10EB2200000E016E000E026E000E036E000E046EE9
:10EB3200E8EF76F005500126065002220750032224
:10EB42000850042204A0A8EF75F0AAEF75F056EF62
:10EB520076F010A0AFEF75F0B1EF75F0B7EF75F08A
:10EB6200D89010300109106EB9EF75F0D8901032BC
:10EB720001A0BEEF75F0C0EF75F0C1EF75F0108E19
:10EB8200043404320332023201320F2A56EF76F095
:10EB92000550015C06500258075003580450800A81
:10EBA200096E0850800A0958D8B0DAEF75F0DCEF28
:10EBB20075F007EF76F00150055C096E02500658B9
:10EBC2000A6E035007580B6E045008580C6EFF0E65
:10EBD2000924016EFF0E0A20026EFF0E0B20036E47
:10EBE200FF0E0C20046E800E0D1A106C1050D8A46B
:10EBF200FDEF75F0FFEF75F00FEF76F0010E0126D5
:10EC0200000E0222032204220FEF76F00550015E6D
:10EC12000650025A0750035A0850045A0150021073
:10EC220003100410D8A418EF76F01AEF76F04FEF25
:10EC320076F01050D8A420EF76F022EF76F04FEF66
:10EC420076F0000E016E000E026E000E036E000ED4
:10EC5200046EE8EF76F0D8900136023603360436B9
:10EC620010AE36EF76F038EF76F039EF76F00180BD
:10EC720010A03EEF76F040EF76F044EF76F0D880C9
:10EC8200103646EF76F0D89010360F50D8B44CEFCD
:10EC920076F04EEF76F04FEF76F00F0603AE54EFBC
:10ECA20076F056EF76F02CEF76F00E6A10AE5CEF4F
:10ECB20076F05EEF76F076EF76F010C009F07F0E18
:10ECC2000916D8B467EF76F069EF76F06DEF76F05B
:10ECD200010E0E6E76EF76F001A072EF76F074EF11
:10ECE20076F076EF76F069EF76F00E50D8B47CEFDE
:10ECF20076F07EEF76F0A9EF76F0010E0126000E97
:10ED020002220322042204A089EF76F08BEF76F030
:10ED1200A9EF76F001C009F002C00AF003C00BF0BF
:10ED220004C00CF00C340C320B320A32093209C026
:10ED320001F00AC002F00BC003F00CC004F00F286F
:10ED4200D8B4A6EF76F0A8EF76F0A9EF76F00F2A06
:10ED52000F28D8B4AFEF76F0B1EF76F0B9EF76F0D6
:10ED62000F50D8A4B7EF76F0B9EF76F0CAEF76F08D
:10ED7200000E016E000E026E000E036E000E046E97
:10ED82000F50D8A4C7EF76F0C9EF76F0CAEF76F04D
:10ED92000D6A0FA0CFEF76F0D1EF76F0D4EF76F0D8
:10EDA200038ED5EF76F0039ED8900F30046E0DAE31
:10EDB200DDEF76F0DFEF76F0E0EF76F0048E01C063
:10EDC20001F002C002F003C003F004C004F012001C
:10EDD200B8EC65F088960F011C9D1C9F8290000183
:10EDE200C36B8282210E0001A56F760EE82EFED73C
:10EDF200A52FFCD700008292210E0001A56F760E8E
:10EE0200E82EFED7A52FFCD700000001C32B040E6D
:10EE1200C3650EEF77F010EF77F0F2EF76F08A0E1F
:10EE22009E6FFF0E9F6F12EC66F0A30E0001A56F9E
:10EE3200550EE82EFED7A52FFCD7100E0F6E020E30
:10EE4200106E5A0E96EC68F0070E0001A56F7D0E4B
:10EE5200E82EFED7A52FFCD70C0E0F6E5A0EC8EC6B
:10EE620068F00001F76F0D0E0F6E5A0EC8EC68F0D5
:10EE72000001F66F070E0001A56F7D0EE82EFED78A
:10EE8200A52FFCD7200E0F6E100E106E5A0E96ECA8
:10EE920068F0070E0001A56F7D0EE82EFED7A52FA4
:10EEA200FCD70C0E0F6E140E106E5A0E96EC68F014
:10EEB200200E0F6E180E106E5A0E96EC68F0000EB1
:10EEC2000001C76F000EC86F000EC96F000ECA6F37
:10EED200000EB16F000EB26F000EB36F000EB46F72
:10EEE200260E0001C727020EC823000EC923000EFA
:10EEF200CA2394EC65F00009D8B482EF77F084EF6E
:10EF020077F0F4EF77F0ABEC65F00001B56FD9EF75
:10EF120077F0B10E9E6FFE0E9F6F12EC66F0F4EF6B
:10EF220077F0E4EC6BF041C0A9F042C0AAF043C014
:10EF3200ABF044C0ACF0E40E00019E6FFF0E9F6F79
:10EF4200A9C0A0F0AAC0A1F0ABC0A2F0ACC0A3F0CF
:10EF520012EC66F0F4EF77F0010EF56FD10E9E6FB2
:10EF6200FF0E9F6F12EC66F0F4EF77F0010EF46F74
:10EF7200A30E9E6FFF0E9F6F12EC66F0F4EF77F018
:10EF8200010EF36FBA0E9E6FFF0E9F6F12EC66F0CA
:10EF9200F4EF77F0F56BF46BF36B5A0E9E6FFF0E86
:10EFA2009F6F12EC66F00001F16BF26BF4EF77F0F9
:10EFB200B551620AD8B4ADEF77F00A0AD8B48AEF35
:10EFC20077F0010AD8B4B7EF77F0060AD8B4C1EFE8
:10EFD20077F01F0AD8B4CBEF77F0060AD8B492EFD5
:10EFE20077F0F4EF77F0E4EC6BF041C0ADF042C0A3
:10EFF200AEF043C0AFF044C0B0F0ADC028F0AEC038
:10F0020029F0AFC02AF0B0C02BF0000E2C6E000E1B
:10F012002D6EE80E2E6E400E2F6EC8EC6CF0D8B03E
:10F0220015EF78F017EF78F075EF78F00001B15135
:10F03200C75DA56FB251C859A66FB351C959A76F21
:10F04200B451CA59A86FA8510DE1900EA55D5F0E8B
:10F05200A659010EA759D8A031EF78F033EF78F016
:10F0620075EF78F0C46B0E0EC4653AEF78F03CEFA2
:10F0720078F03EEF78F06DEF78F0F551D8A444EFD8
:10F0820078F046EF78F047EF78F08282310E000197
:10F09200A56FB20EE82EFED7A52FFCD70000000107
:10F0A200F551D8A457EF78F059EF78F05AEF78F08D
:10F0B2008292310E0001A56FB20EE82EFED7A52F67
:10F0C200FCD700000001C42B0E0EC4656BEF78F074
:10F0D2006DEF78F03EEF78F0C7C0B1F0C8C0B2F083
:10F0E200C9C0B3F0CAC0B4F0230E0F6E5A0EC8ECFA
:10F0F20068F00001FC6FA30E0001A56F550EE82E0B
:10F10200FED7A52FFCD73A0E0F6E5A0EC8EC68F048
:10F112000001FB6F3B0E0F6E5A0EC8EC68F0000147
:10F12200FA6F110E0001A56F3A0EE82EFED7A52F39
:10F13200FCD700003C0E0F6E5A0EC8EC68F00001BE
:10F14200F96F3D0E0F6E5A0EC8EC68F00001F86FB1
:10F15200FA51A56FFB51EE6FA5C0EFF0F851A56F04
:10F16200F951EC6FA5C0EDF0BE6BEF5109E1C00E95
:10F17200EE5DD8A0BFEF78F0C1EF78F0CDEF78F078
:10F18200EE05050EEF59D8B0C9EF78F0CBEF78F065
:10F19200CDEF78F0010EBE6FBEC0C0F0BF6BEE05C2
:10F1A200050EEF59D8A0D8EF78F0DAEF78F0E5EF56
:10F1B20078F07D0EEF5DD8B0E1EF78F0E3EF78F014
:10F1C200E5EF78F0010EBF6FBFC0C5F0C16BC26B37
:10F1D200C66BF6EF79F0C16BC26BC66BC551D8B482
:10F1E200F5EF78F0F7EF78F0FCEF78F0F16B020EC4
:10F1F200F26F13EF7AF0C051D8B402EF79F004EF56
:10F2020079F012EF79F0010EF127D8B40BEF79F013
:10F212000DEF79F013EF7AF0F16B010EF26F13EF4D
:10F222007AF0F16B13EF7AF0010EC16F010EC26F2B
:10F23200010EC66FC551D8B421EF79F023EF79F0F2
:10F2420025EF79F0F8EF78F0C051D8A42BEF79F0E0
:10F252002DEF79F013EF7AF0F26B13EF7AF083B0BF
:10F2620035EF79F038EF79F0010E39EF79F0000ED1
:10F27200FF0AA56F8350A519FE0BA519836E83B2F1
:10F2820045EF79F048EF79F0010E49EF79F0000E81
:10F29200FF0AA56FA5478350A519FD0BA519836E1B
:10F2A200F451D8A457EF79F059EF79F05EEF79F085
:10F2B200B76B020EB66F61EF79F0B76B010EB66FE6
:10F2C200B6C0C1F0F351D8A469EF79F06BEF79F0D1
:10F2D20070EF79F0B96B020EB86F73EF79F0B96B1A
:10F2E200010EB86FB8C0C2F0010EC66FC551D8A4E6
:10F2F2007DEF79F07FEF79F013EF7AF0C7C008F174
:10F30200C8C009F1C9C00AF1CAC00BF1030EF26FFD
:10F3120013EF7AF083B090EF79F093EF79F0010E6A
:10F3220094EF79F0000EFF0AA56F8350A519FE0B2A
:10F33200A519836E83B2A0EF79F0A3EF79F0010EE5
:10F34200A4EF79F0000EFF0AA56FA5478350A51917
:10F35200FD0BA519836EF451D8A4B2EF79F0B4EF86
:10F3620079F0B9EF79F0BB6B020EBA6FBCEF79F0AE
:10F37200BB6B010EBA6FBAC0C1F0F351D8A4C4EF8F
:10F3820079F0C6EF79F0CBEF79F0BD6B020EBC6F6E
:10F39200CEEF79F0BD6B010EBC6FBCC0C2F0010EA6
:10F3A200C66F010108510001C75DA56F0101095136
:10F3B2000001C859A66F01010A510001C959A76F7E
:10F3C20001010B510001CA59A86FA851A7110BE105
:10F3D200580EA55D1B0EA659D8A0F2EF79F0F4EFF6
:10F3E20079F013EF7AF02DEF79F0F251A56FA66B59
:10F3F200A651000AD8B400EF7AF013EF7AF0A551C3
:10F40200000AD8B4ECEF78F0010AD8B415EF79F01D
:10F41200030AD8B430EF79F0010AD8B48BEF79F04F
:10F4220013EF7AF0020EF219D8B41AEF7AF01CEF49
:10F432007AF025EF7AF0030EF219D8A423EF7AF0CE
:10F4420025EF7AF050EF7AF0F551D8B42BEF7AF03D
:10F452002DEF7AF030EF7AF082823CEF7AF0C651EB
:10F46200D8B436EF7AF038EF7AF03BEF7AF0828256
:10F472003CEF7AF08292F451D8B442EF7AF044EF42
:10F482007AF045EF7AF08380F351D8B44BEF7AF0FB
:10F492004DEF7AF071EF77F0838271EF77F0C2C0AF
:10F4A20001F0C6C002F0C151DBEC69F071EF77F0F8
:10F4B200FEEF7FF00001816B57C082F058C083F0ED
:10F4C20059C084F05AC085F085BF6CEF7AF06AEFBC
:10F4D2007AF080EF7AF0010E816F82C001F083C072
:10F4E20002F084C003F085C004F0DAEC66F001C0DB
:10F4F20082F002C083F003C084F004C085F00001F2
:10F50200876B000E866FE8C071F0E9C072F081511E
:10F51200D8B48EEF7AF090EF7AF0A2EF7AF08151C0
:10F52200D8A496EF7AF098EF7AF09DEF7AF0676BB5
:10F532002B0E666FA0EF7AF0676B2D0E666F66C0BA
:10F5420081F082C001F083C002F084C003F085C064
:10F5520004F04CEC6CF001040210D8A4B3EF7AF082
:10F56200B5EF7AF0E7EF7AF000018151D8B4BCEF41
:10F572007AF0BEEF7AF0C6EF7AF081C00CF1710733
:10F58200D8A07207876B010E866F0C0E8625016E5E
:10F59200010E8721026EF30E036EFF0E046EF6EC6F
:10F5A20066F00001FD0E7127FF0E722355C013F0A5
:10F5B20056C014F00C0E156E010E166E71C017F0C7
:10F5C20072C018F0FCEC68F047EF7FF082C001F0E7
:10F5D20083C002F084C003F085C004F04CEC6CF0F0
:10F5E20001500210D8A4F8EF7AF0FAEF7AF019EF8E
:10F5F2007BF000018151D8B401EF7BF003EF7BF087
:10F602000BEF7BF081C00CF17107D8A07207876BFA
:10F61200010E866F0C0E8625016E010E8721026E89
:10F62200F70E036EFF0E046EF6EC66F0D2EF7AF080
:10F63200000E0001886F000E896F800E8A6F3F0EE8
:10F642008B6F706B000E6F6F82C001F083C002F08F
:10F6520084C003F085C004F0000E056E000E066E35
:10F66200000E076E000E086E73EC6AF0D8B03CEF25
:10F672007BF03EEF7BF01DEF7CF04BEF7BF073C035
:10F6820088F074C089F075C08AF076C08BF00001F2
:10F692006F4B702B88C00FF089C010F08AC011F038
:10F6A2008BC012F0000E136E000E146E200E156E3B
:10F6B200410E166E7BEC72F00FC073F010C074F046
:10F6C20011C075F012C076F000017351825D016EB7
:10F6D20074518359026E75518459036E765185595E
:10F6E200046E0EEC68F004BE82EF7BF0045003104F
:10F6F200021009E1020E015CD8A082EF7BF084EFD8
:10F702007BF040EF7BF073C028F074C029F075C025
:10F712002AF076C02BF082C02CF083C02DF084C07A
:10F722002EF085C02FF0C8EC6CF0D8A09BEF7BF0D8
:10F732009DEF7BF040EF7BF000018851825D016E0E
:10F7420089518359026E8A518459036E8B518559AE
:10F75200046E0EEC68F004BEBCEF7BF004500310A4
:10F76200021007E1020E015CD8B0BAEF7BF0BCEFE9
:10F772007BF004EF7CF088C082F089C083F08AC0FD
:10F7820084F08BC085F01DEF7CF088C028F089C022
:10F7920029F08AC02AF08BC02BF0000E2C6E000ECE
:10F7A2002D6E200E2E6E410E2F6EB4EC70F028C01E
:10F7B20088F029C089F02AC08AF02BC08BF00001A2
:10F7C2006F07D8A070078851825D016E89518359F5
:10F7D200026E8A518459036E8B518559046E0EEC68
:10F7E20068F004BE02EF7CF004500310021007E13F
:10F7F200020E015CD8B000EF7CF002EF7CF004EF67
:10F802007CF0BCEF7BF082C028F083C029F084C07A
:10F812002AF085C02BF088C02CF089C02DF08AC058
:10F822002EF08BC02FF0C8EC6CF0D8A01BEF7CF050
:10F832001DEF7CF0C6EF7BF05BC069F069C06AF037
:10F842000001EBBF27EF7CF029EF7CF02FEF7CF07B
:10F85200EAC062F0EBC063F032EF7CF0636B060E3D
:10F86200626F62C06DF063C06EF06D4B6E2B660E00
:10F872006A19D8A43FEF7CF041EF7CF060EF7CF096
:10F8820070BF48EF7CF046EF7CF053EF7CF0000E47
:10F89200886F000E896F800E8A6F3F0E8B6F706BC0
:10F8A200000E6F6F670E6919D8B45AEF7CF05CEFE7
:10F8B2007CF060EF7CF06F516D2770516E23786B96
:10F8C200000E776F82C079F083C07AF084C07BF03B
:10F8D20085C07CF088C073F089C074F08AC075F06E
:10F8E2008BC076F0F0EF7CF079C028F07AC029F076
:10F8F2007BC02AF07CC02BF088C02CF089C02DF090
:10F902008AC02EF08BC02FF0B4EC70F028C041F00A
:10F9120029C042F02AC043F02BC044F0ABEC6FF098
:10F9220041C07DF042C07EF043C07FF044C080F011
:10F932007DC001F07EC002F07FC003F080C004F001
:10F942004AEC6DF001C06BF002C06CF079C028F097
:10F952007AC029F07BC02AF07CC02BF07DC013F066
:10F962007EC014F07FC015F080C016F088C00FF082
:10F9720089C010F08AC011F08BC012F07BEC72F0DB
:10F982000FC02CF010C02DF011C02EF012C02FF0BD
:10F9920073EC67F028C079F029C07AF02AC07BF0B6
:10F9A2002BC07CF088C028F089C029F08AC02AF0D8
:10F9B2008BC02BF0000E2C6E000E2D6E200E2E6EC4
:10F9C200410E2F6EB4EC70F028C088F029C089F087
:10F9D2002AC08AF02BC08BF00001774B782B6D5137
:10F9E200775D7851800A5C6E6E51800A5C58D8A0AF
:10F9F200FDEF7CF0FFEF7CF075EF7CF088C00FF03C
:10FA020089C010F08AC011F08BC012F0000E136E84
:10FA1200000E146EA00E156E400E166E7BEC72F088
:10FA22000FC07DF010C07EF011C07FF012C080F0D8
:10FA320079C028F07AC029F07BC02AF07CC02BF074
:10FA42007DC02CF07EC02DF07FC02EF080C02FF044
:10FA5200C8EC6CF0D8B030EF7DF032EF7DF03DEFC6
:10FA62007DF0000E00017D6F000E7E6F000E7F6F35
:10FA7200000E806F66EF7DF079C001F07AC002F06F
:10FA82007BC003F07CC004F07DC005F07EC006F0B0
:10FA92007FC007F080C008F073EC6AF0D8A054EF82
:10FAA2007DF056EF7DF066EF7DF000016BB15CEF0B
:10FAB2007DF05EEF7DF066EF7DF0000E7D6F000E53
:10FAC2007E6F000E7F6F000E806F82C001F083C0D8
:10FAD20002F084C003F085C004F07DC005F07EC052
:10FAE20006F07FC007F080C008F08EEC74F001C011
:10FAF20079F002C07AF003C07BF004C07CF079C0D8
:10FB020028F07AC029F07BC02AF07CC02BF0000ECE
:10FB1200136E000E146E200E156E410E166E73C01B
:10FB22000FF074C010F075C011F076C012F07BECCB
:10FB320072F00FC02CF010C02DF011C02EF012C0C8
:10FB42002FF0C8EC6CF0D8A0A9EF7DF0ABEF7DF000
:10FB5200D4EF7DF000016F4B702B73C00FF074C0B7
:10FB620010F075C011F076C012F0000E136E000E88
:10FB7200146E200E156E410E166E7BEC72F00FC0E5
:10FB820073F010C074F011C075F012C076F0660EFA
:10FB920000016A19D8A4D0EF7DF0D2EF7DF0D4EF46
:10FBA2007DF06D4B6E2B73C088F074C089F075C008
:10FBB2008AF076C08BF06FC060F070C061F0000117
:10FBC200686B656B000E646F786B000E776FCEEF1B
:10FBD2007EF079C028F07AC029F07BC02AF07CC080
:10FBE2002BF088C02CF089C02DF08AC02EF08BC07B
:10FBF2002FF0B4EC70F028C041F029C042F02AC0C6
:10FC020043F02BC044F0ABEC6FF041C07DF042C03A
:10FC12007EF043C07FF044C080F07DC001F07EC022
:10FC220002F07FC003F080C004F04AEC6DF002BE27
:10FC320026EF7EF0025007E10A0E015CD8B024EFF5
:10FC42007EF026EF7EF036EF7EF07DC001F07EC0C2
:10FC520002F07FC003F080C004F04AEC6DF001C0F6
:10FC62006BF002C06CF03AEF7EF000016C6B090E93
:10FC72006B6F00016851D8A441EF7EF043EF7EF034
:10FC82006BEF7EF061BF4AEF7EF048EF7EF06BEFE4
:10FC92007EF00C0E8625D96E010E8721DA6E2E0EAD
:10FCA200DF6E864B872B7107D8A07207010E686F33
:10FCB2006BEF7EF00C0E8625D96E010E8721DA6E6F
:10FCC200300EDF6E864B872B7107D8A07207640750
:10FCD200D8A0650764516511D8A472EF7EF074EF65
:10FCE2007EF05BEF7EF00C0E8625D96E010E872129
:10FCF200DA6E6B51300FDF6E864B872B7107D8A0FF
:10FD0200720779C028F07AC029F07BC02AF07CC043
:10FD12002BF07DC013F07EC014F07FC015F080C0C0
:10FD220016F088C00FF089C010F08AC011F08BC0A5
:10FD320012F07BEC72F00FC02CF010C02DF011C04D
:10FD42002EF012C02FF073EC67F028C079F029C0B2
:10FD52007AF02AC07BF02BC07CF088C028F089C0E2
:10FD620029F08AC02AF08BC02BF0000E2C6E000EF8
:10FD72002D6E200E2E6E410E2F6EB4EC70F028C048
:10FD820088F029C089F02AC08AF02BC08BF00001CC
:10FD92006007D8A06107774B782B6D51775D78515A
:10FDA200800A5C6E6E51800A5C58D8B0DBEF7EF040
:10FDB200DDEF7EF0EBEF7EF087BFE9EF7EF087515B
:10FDC20009E14B0E865DD8A0E9EF7EF0EBEF7EF005
:10FDD200EAEF7DF0786B4F0E776F0C0E7725D96EB8
:10FDE200010E7821DA6EDF6A0C0E5C6E010E5D6E1A
:10FDF20086515C5E87515D5A77515C24016E785161
:10FE02005D20026E0C0E036E010E046E86C005F0BC
:10FE120087C006F0BBEC67F000018651775D866F04
:10FE220087517859876F8151D8A41AEF7FF01DEF5F
:10FE32007FF0010E1EEF7FF0000E776F786B81511D
:10FE4200D8B426EF7FF028EF7FF033EF7FF08607FC
:10FE5200D8A087070C0E8625D96E010E8721DA6E8F
:10FE620081C0DFFF7751715F7851725B55C013F02B
:10FE720056C014F00C0E8625156E010E8721166EE3
:10FE820071C017F072C018F0FCEC68F01200004864
:10FE9200CA86CA96CA3ED646D47ACA3ED308CA1081
:10FEA200CA18CA20CA28CA30CA38CA52CACAD00D09
:10FEB2000A5241434B2050524F544543544F522013
:10FEC20046572068656C70206D656E750D0A762048
:10FED2002D205072696E742062617474657279208B
:10FEE200766F6C746167650D0A62202D2042757A07
:10FEF2007A6572204F4E20286D616E75616C290DF6
:10FF02000A69202D204C45442042616E6B2031202D
:10FF12004F4E20286D616E75616C290D0A6F202D80
:10FF2200204C45442042616E6B2032204F4E2028E7
:10FF32006D616E75616C290D0A70202D20416C6C0B
:10FF4200204F4646202872657475726E20746F20A9
:10FF52006175746F290D0A00416C6C206F757470A5
:10FF6200757473206261636B20746F204155544F26
:10FF720020284F464620756E74696C207072657336
:10FF8200656E6365290D0A004669726D7761726557
:10FF92002056657273696F6E20312E322E320D0A31
:10FFA200004C45442042414E4B2031206D616E751C
:10FFB200616C204F4E0D0A004C45442042414E4B8D
:10FFC2002032206D616E75616C204F4E0D0A004229
:10FFD200757A7A6572206D616E75616C204F4E0D77
:10FFE2000A00426174743A20252E326620560D0AA8
:0EFFF20000696E66006E616E0000E3EF65F060
:020000040030CA
:0C000000FCFFFFFF9FFFFFDFFFFFFFFF83
:00000001FF
