:04000000FEEF7FF0A0
:10C7D600959A120096801200968212009684120094
:10C7E600010E1200050E12009686120091501200DC
:10C7F6000E01C89112000E01C0911200968A968809
:10C806001200969A968812000E01C8811200016ED7
:10C8160001C091FF1200EFEC63F0010E1200EFEC85
:10C8260063F0020E1200EFEC63F0010E1200F1EC61
:10C8360063F0000E120004EC64F0050E120001EC29
:10C8460064F00A0E120001EC64F0090E1200000EEC
:10C8560046EC66F012000001D793D66B0E0E12005E
:10C866000001D793D66B0E0E120001C05CF102C018
:10C876005DF1120001C0FEF002C0FFF0120001C01F
:10C886005EF102C05FF112000001D791F7EC63F090
:10C89600040E12000001D781D880D1350AEC64F06D
:10C8A600050E12000001D781D151D1250AEC64F0A2
:10C8B600030E12000E01DC6BDD6BDE6BDF6BE06BD3
:10C8C600E16B12000E01C8A16BEF64F06DEF64F02E
:10C8D60065EF64F01200800E946E080E956E966AEF
:10C8E600030E926E959A1200700E0E01D36FD56BE1
:10C8F600D76B020ED96FD86B120005C001F006C0C7
:10C9060002F007C003F0000E4EEC67F0120096BC72
:10C916008FEF64F092EF64F0010E93EF64F0000E77
:10C92600120005C001F006C002F007C003F0020EB7
:10C936004EEC67F012000F015F51046E036A5E5100
:10C946000324016E000E0420026E12000E01C8BB05
:10C95600AFEF64F0B2EF64F0010EB3EF64F0000ED7
:10C966001200016E0E01C8A9BBEF64F0BDEF64F0C2
:10C97600B5EF64F001C099FF12000001FD6B9CA2A7
:10C98600C7EF64F0C9EF64F0CBEF64F09C989C8825
:10C99600985012005DEC64F06EEC64F0F8EC66F012
:10C9A60077EC64F0BDEC65F028EC66F01200E0EF81
:10C9B60064F065EC64F0AEEC68F00001D7B3E6EF26
:10C9C60064F0E8EF64F0DCEF64F01200026E7BECDA
:10C9D60065F00009D8B4F2EF64F0F4EF64F0EAEF22
:10C9E60064F00250B4EC64F0120001EE00F05C0E4C
:10C9F600EE6AE806FDE100EEBBF0430EEE6AE806DD
:10CA0600FDE10001DEEF76F00001D7A70DEF65F03E
:10CA16000FEF65F016EF65F001C0D2F002C0D3F05B
:10CA260003C0D4F0D797120095BA1CEF65F01EEF3D
:10CA360065F026EF65F0800E946E080E956E966A88
:10CA4600030E926E958A1200A00E0001A66F000ECC
:10CA5600976F000E986F9EC099F09FC09AF0A60E31
:10CA66009B6FABEC66F0120008C001F0036A020E81
:10CA7600026E07EC65F0000E056E000E066E000EE7
:10CA8600076E80EC64F0040E120008C001F0036A21
:10CA9600010E026E07EC65F0000E056E000E066EC6
:10CAA600000E076E80EC64F0020E120008C001F062
:10CAB600036A020E026E07EC65F0000E056E000EAC
:10CAC600066E000E076E80EC64F0020E120008C0BF
:10CAD60001F0036A010E026E07EC65F0000E056EAA
:10CAE600000E066E000E076E80EC64F0040E120057
:10CAF600016A0E01C8A982EF65F084EF65F08DEF3B
:10CB060065F09DAA89EF65F08BEF65F08DEF65F016
:10CB1600010E016E01501200010E016E0001D7B325
:10CB260097EF65F099EF65F0A3EF65F0D795D169BA
:10CB3600FBEC63F0FEEC63F0EBEC63F0D6C001F0C7
:10CB460001501200056E05C05AFF0F015B8F5B9DF9
:10CB56005B815BB1B1EF65F0B3EF65F0ACEF65F00B
:10CB66005F51046E036A5E510324016E000E0420B9
:10CB7600026E1200656A666A676A686A636A646A50
:10CB8600616A0F015A6B586B596B546B100E556FD7
:10CB9600566B606A536B516B1F0E526F840E5B6F40
:10CBA600576B12000850D96EDA6A020ED926DF508A
:10CBB600016E0850D96EDA6ADECF02F0DDCF03F0DF
:10CBC60007EC65F0000E056E000E066E000E076E91
:10CBD60080EC64F0020E12000150021003100410E3
:10CBE600D8B4F8EF65F0FAEF65F002EF66F0000EE4
:10CBF600011A000E021A000E031A800E041A01C052
:10CC060001F002C002F003C003F004C004F01200F9
:10CC160001C005F002C006F003C0F6FF04C0F7FF2E
:10CC2600034A042AF86A05C0D9FF06C0DAFF054A96
:10CC3600062A0800F5CFDFFFDF50D8A425EF66F0FF
:10CC460027EF66F00FEF66F01200080E9E6E900E4C
:10CC56009C6E240E9D6E080E9A6E9B6A000E016EE7
:10CC6600000E026E3DEC64F0000E016E000E026EC8
:10CC760042EC64F0000E016E000E026E38EC64F0B9
:10CC86000001FD6B12000D6E010E0E6E0001D7B392
:10CC96004FEF66F051EF66F065EF66F0D7830E6AE8
:10CCA6000D50D8B459EF66F05BEF66F05FEF66F0B3
:10CCB600010ED56F61EF66F0020ED56FEDEC63F0F5
:10CCC600DAEC64F00E501200126A000E116E77EF65
:10CCD60066F010C003F0046A0EC005F00FC006F03F
:10CCE600B7EC6AF0114A122A11500C24D96E125070
:10CCF6000D20DA6EDF50106E1050D8A485EF66F066
:10CD060087EF66F06CEF66F01200000E2C1A000E2C
:10CD16002D1A000E2E1A800E2F1A28C001F029C0D7
:10CD260002F02AC003F02BC004F02CC005F02DC081
:10CD360006F02EC007F02FC008F083EC74F001C097
:10CD460028F002C029F003C02AF004C02BF012001C
:10CD560099C09CF09AC09DF0BCEF66F097C08CF02D
:10CD660098C08DF09C0E00018E6F9BC08FF05BEC1F
:10CD76006FF09CC0F6FF9DC0F7FFF86A0800F550FB
:10CD86000009D8A4C9EF66F0CBEF66F0B1EF66F004
:10CD96000001986B000E976F120003C00AF004C0E2
:10CDA6000BF001C008F002C009F0EAEF66F00AC015
:10CDB600D9FF0BC0DAFFDF50076E0A4A0B2A08C0FC
:10CDC600D9FF09C0DAFF07C0DFFF084A092A0506AE
:10CDD600D8A00606052806E10628D8A4F5EF66F0D1
:10CDE600F7EF66F0DAEF66F01200826A836A846A09
:10CDF600FC0E876EFC0E886EBF0E896E670E0F01E5
:10CE06001C6F14690C69286B136B0B6B1B6B0A6B1D
:10CE1600126B1A6B09691169196908691069186931
:10CE2600080E256F140E0E01B36F170EB06F0F0E9E
:10CE3600F56F100EF66F090EF86F130EB26F120033
:10CE460004BE28EF67F02AEF67F034EF67F001C001
:10CE560001F002C002F003C003F004C004F04DEF7D
:10CE660067F001C005F002C006F003C007F004C079
:10CE760008F0051E061E071E081E052A000E0622BD
:10CE86000722082205C001F006C002F007C003F021
:10CE960008C004F01200046E01500210D8B456EF18
:10CEA60067F058EF67F06AEF67F00450020DF35031
:10CEB600BB0FD96EDA6A01C0DEFF02C0DDFF045087
:10CEC600C70FD96EDA6A03C0DFFF79EF67F0045047
:10CED600020DF350BB0FD96EDA6AE60EDE6EC70E90
:10CEE600DD6E0450C70FD96EDA6ADF6A12000001E0
:10CEF600D791020ED66F88EF67F016EC64F0AAEFB2
:10CF060067F01AEC64F0AAEF67F0C9C008F002D81F
:10CF160096EF67F00500FA6EBF51FD6EC051FE6ECA
:10CF2600FF6AFA501200096E0A6A0A50000AD8B45B
:10CF36009FEF67F084EF67F00950020AD8B480EFDC
:10CF460067F0010AD8B480EF67F084EF67F012004B
:10CF5600116E115077EC68F00009D8B4B5EF67F0A0
:10CF6600B7EF67F0ACEF67F0D40E056ECA0E066E2B
:10CF7600100E076E80EC64F00F0E016E036A010E50
:10CF8600026E07EC65F0000E056E000E066E000ED2
:10CF9600076E000E086E94EC64F02AEC64F08FECD9
:10CFA60065F0E806D8B4DAEF67F0DCEF67F0D2EFA9
:10CFB60067F0120003500410D8B4E4EF67F0E6EF10
:10CFC60067F00AEF68F0010E056EEEEF67F0D89095
:10CFD60003360436052A04AEF3EF67F0F5EF67F083
:10CFE600EAEF67F00350015C04500258D8A0FEEF48
:10CFF60067F000EF68F004EF68F00350015E04503C
:10D00600025AD89004320332052EF5EF67F001C0BC
:10D0160001F002C002F01200106E116A105077EC97
:10D0260068F00009D8B41AEF68F01CEF68F011EF49
:10D0360068F0900E056ECA0E066E110E076E80EC35
:10D0460064F00F0E016E036A010E026E07EC65F0C6
:10D05600000E056E000E066E000E076E000E086EC0
:10D0660094EC64F02AEC64F08FEC65F0E806D8B432
:10D076003FEF68F041EF68F037EF68F011501200AB
:10D0860018BE4AEF68F048EF68F04DEF68F0186A8E
:10D09600000E176E1B6A000E1A6E5DEF68F0046ACA
:10D0A600200E036E13C005F014C006F0B7EC6AF04C
:10D0B6001A4A1B2A17501A5C1B50800A196E185000
:10D0C600800A1958D8A06AEF68F06CEF68F052EF42
:10D0D60068F015C00CF016C00DF013C00EF014C0A9
:10D0E6000FF067EC66F01200016E010E026E000191
:10D0F600D7B580EF68F082EF68F0ACEF68F001C05A
:10D10600D1F0D793D785D7910E0ED56F010ED06F7C
:10D11600F40ECF6FD787E60EBB6FC70EBC6FC76B1B
:10D12600E60EBD6FC70EBE6FC86BE60EBF6FC70EAD
:10D13600C06FC96BE60EC16FC70EC26FCA6BEA0E2F
:10D14600C36FC70EC46FCB6BFBEC63F017EC65F0D7
:10D15600026A02501200FBEC63F00001D7A1B6EFA1
:10D1660068F0B8EF68F0C5EF68F08AEC64F0000983
:10D17600D8B4C0EF68F0C2EF68F0C5EF68F00F0EE4
:10D186000001D56F0001D551020D950EF324F66E00
:10D19600FE0EF420F76EF86A000EF8220900F5CFAD
:10D1A6000BF00900F5CF0CF002D8E3EF68F00500AC
:10D1B600FA6E0B50FD6E0C50FE6EFF6AFA501200AE
:10D1C6000001D56F1200076A000E066E03500410A8
:10D1D600D8B4F0EF68F0F2EF68F01AEF69F0010EDC
:10D1E600056EFAEF68F0D89003360436052A04AEC9
:10D1F600FFEF68F001EF69F0F6EF68F0D8900636B9
:10D2060007360350015C04500258D8A00DEF69F0B0
:10D216000FEF69F014EF69F00350015E0450025AF3
:10D226000680D89004320332052E01EF69F006C05D
:10D2360001F007C002F012000001D78730EF69F055
:10D2460016EC64F05AEF69F007EC64F0030E5AEF3F
:10D2560069F01AEC64F05AEF69F0C7C008F002D81A
:10D266003EEF69F00500FA6EBB51FD6EBC51FE6ED5
:10D27600FF6AFA501200096E0A6A0A50000AD8B408
:10D2860047EF69F02CEF69F00950010AD8B42CEF8A
:10D2960069F0030AD8B423EF69F0010AD8B423EF82
:10D2A60069F0070AD8B427EF69F02CEF69F012008D
:10D2B6000001D251D96EDA6AF9EC63F0DF6E000133
:10D2C600D22BD307D8A0D407D351D411D8B46EEF3C
:10D2D60069F070EF69F075EF69F004EC64F0050E23
:10D2E600AAEF69F0D78780EF69F026EC64F0AAEF21
:10D2F60069F022EC64F0AAEF69F0C7C008F002D822
:10D306008EEF69F00500FA6EBB51FD6EBC51FE6EE4
:10D31600FF6AFA501200096E0A6A0A50000AD8B467
:10D3260097EF69F07CEF69F00950010AD8B47CEFF9
:10D3360069F0030AD8B478EF69F0010AD8B478EF37
:10D3460069F0070AD8B47CEF69F07CEF69F0120047
:10D35600000E0114096E000E02140A6E800E0314EC
:10D366000B6E7F0E04140C6E09500A100B100C1075
:10D37600D8A4C0EF69F0C2EF69F0CAEF69F0000EF9
:10D38600016E000E026E000E036E000E046E000E9D
:10D396000514096E000E06140A6E800E07140B6E35
:10D3A6007F0E08140C6E09500A100B100C10D8A42E
:10D3B600DFEF69F0E1EF69F0E9EF69F0000E056E65
:10D3C600000E066E000E076E000E086E0550011860
:10D3D6000FE1065002180CE10750031809E1085046
:10D3E6000418D8B4F9EF69F0FBEF69F0FEEF69F0C5
:10D3F600D890FFEF69F0D8801200076A000E066E1B
:10D406000150D96EDA6ADECFF6FFDDCFF7FFF86A94
:10D416000800F5502A0AD8A413EF6AF015EF6AF04F
:10D426003EEF6AF00150D96EDA6ADE2A000EDD227E
:10D436000250D96EDA6A020EDF26DF5CD96EDA6A2E
:10D44600DECF06F0DECF07F052EF6AF00A0E0602D4
:10D45600F3CF03F0F4CF04F00702F350042605508F
:10D466000324066E000E0420076E0150D96EDA6A98
:10D47600DE2A000EDD220150D96EDA6ADECFF6FF13
:10D48600DDCFF7FFF86A0800F550D00F056E090EDC
:10D49600056450EF6AF052EF6AF029EF6AF006C0B1
:10D4A60001F007C002F012008AEC64F00009D8B45B
:10D4B6005FEF6AF061EF6AF09AEF6AF06FEF6AF079
:10D4C6000EEC64F0B6EF6AF012EC64F0B6EF6AF0B8
:10D4D6001AEC64F0B6EF6AF0CAC008F002D87EEF24
:10D4E6006AF00500FA6E0001C151FD6EC251FE6E72
:10D4F600FF6AFA501200096E0A6A0A50000AD8B486
:10D5060087EF6AF06BEF6AF00950010AD8B46BEF47
:10D516006AF0030AD8B463EF6AF0010AD8B467EF79
:10D526006AF0070AD8B46BEF6AF06BEF6AF0000195
:10D53600D79120EED2F0DF50DF2AD96EDA6ADF50BB
:10D546000AEC64F00001D307D8A0D407D351D41154
:10D55600D8A4B0EF6AF0B2EF6AF0B5EF6AF0060E43
:10D56600B6EF6AF0030E120005500610D8B4BEEFEF
:10D576006AF0C0EF6AF0C9EF6AF005500610D8A449
:10D58600C7EF6AF0C9EF6AF0CEEF6AF00350E9EC34
:10D5960064F01BEF6BF020EE09F00550D92606501B
:10D5A600DA22DE50DE10D8B4DBEF6AF0DDEF6AF087
:10D5B600F8EF6AF020EE09F00550D9260650DA2277
:10D5C60010EE02F00550E1260650E222DE50E65C3F
:10D5D600E650800A0B6EDE50800A0B58D8B0F6EF84
:10D5E6006AF0F8EF6AF01BEF6BF020EE02F00550E0
:10D5F600D9260650DA22DECF07F0DDCF08F005C0C7
:10D60600D9FF06C0DAFFDECF09F0DDCF0AF00750FA
:10D616000924D96E08500A20DA6E03C0DFFF20EE17
:10D6260002F00550D9260650DA22DE2A000EDD2247
:10D6360012008386FA0E00D0E82EFDD70C0E0F01DD
:10D646005A6F0C0EA5EC65F001C04DF002C04EF00D
:10D65600330E136E330E146E530E156E400E166E89
:10D666004DC001F04EC002F0036A046A000E78EC69
:10D676006DF001C00FF002C010F003C011F004C03D
:10D6860012F070EC72F00FC028F010C029F011C033
:10D696002AF012C02BF0000E2C6E000E2D6E800E9E
:10D6A6002E6E440E2F6EA9EC70F028C049F029C0EA
:10D6B6004AF02AC04BF02BC04CF049C00FF04AC0CC
:10D6C60010F04BC011F04CC012F0520E136EB80E93
:10D6D600146E3E0E156E400E166E70EC72F00FC094
:10D6E60045F010C046F011C047F012C048F045C0E2
:10D6F60041F046C042F047C043F048C044F0120033
:10D706000001E7BF8BEF6BF089EF6BF090EF6BF0EA
:10D71600236A010E226E94EF6BF0E6C022F0E7C09A
:10D7260023F0E4C020F0E5C021F0256A4F0E246EF8
:10D7360001015B6BC7EF6BF02406D8A025060C0E23
:10D746002424D96E010E2520DA6E1EC001F01FC0FA
:10D7560002F0046A0A0E036EDDEC67F00150300F2A
:10D76600DF6E2206D8A023062006D8A021061EC0FA
:10D7760001F01FC002F0046A0A0E036EE6EC68F0C0
:10D7860001C01EF002C01FF024502510D8B4CEEF01
:10D796006BF0D0EF6BF0E6EF6BF01E501F10D8A4C5
:10D7A600D7EF6BF0D9EF6BF09FEF6BF023BEE6EF90
:10D7B6006BF0235006E12204D8B0E4EF6BF0E6EFFD
:10D7C6006BF09FEF6BF01CC013F01DC014F00C0E35
:10D7D6002424156E010E2520166E20C017F021C0D8
:10D7E60018F043EC68F0120004C10BF005C10CF010
:10D7F60006C10DF007C10EF001C00BF002C00CF01F
:10D8060003C00DF004C00EF00BC005F00CC006F00E
:10D816000DC007F00EC008F0180E17EF6CF0D89088
:10D826000832073206320532E82E12EF6CF0055048
:10D83600096E0A6A09500A10D8A424EF6CF026EF84
:10D846006CF044EF6CF0D8900B34056E0C34066E19
:10D856000D34076E0E34086E0550061007100810BA
:10D86600D8A438EF6CF03AEF6CF03FEF6CF0026A38
:10D87600020E016E72EF6CF0026A030E016E72EF19
:10D886006CF009280A10D8A44BEF6CF04DEF6CF041
:10D896006FEF6CF00BC005F00CC006F00DC007F082
:10D8A6000EC008F0090ED89005360636073608363B
:10D8B600E82E56EF6CF00550061007100810D8B485
:10D8C60067EF6CF06AEF6CF0010E6BEF6CF0000E18
:10D8D600016E026A72EF6CF0026A040E016E1200AB
:10D8E600000E2814306E000E2914316E800E2A1494
:10D8F600326E7F0E2B14336E3050311032103310CF
:10D90600D8A488EF6CF08AEF6CF092EF6CF0000E02
:10D91600286E000E296E000E2A6E000E2B6E000E6B
:10D926002C14306E000E2D14316E800E2E14326EB5
:10D936007F0E2F14336E3050311032103310D8A4AE
:10D94600A7EF6CF0A9EF6CF0B1EF6CF0000E2C6E47
:10D95600000E2D6E000E2E6E000E2F6E2BAEB6EF45
:10D966006CF0B8EF6CF0C1EF6CF0286C291ED8B0E3
:10D97600292A2A1ED8B02A2A800E2B562FAEC6EF89
:10D986006CF0C8EF6CF0D1EF6CF02C6C2D1ED8B09B
:10D996002D2A2E1ED8B02E2A800E2F56000E281A9B
:10D9A600000E291A000E2A1A800E2B1A000E2C1AA7
:10D9B600000E2D1A000E2E1A800E2F1A2C50285CDF
:10D9C6002D5029582E502A582F502B58D8B0EEEFEC
:10D9D6006CF0F0EF6CF0F3EF6CF0D890F4EF6CF0C5
:10D9E600D8801200033404340A6E0A50D8A4FEEF1D
:10D9F6006CF000EF6DF00AEF6DF0000E016E000E98
:10DA0600026E000E036E000E046E77EF6DF001C01D
:10DA160005F002C006F003C007F004C008F0200EAF
:10DA26001AEF6DF0D8900832073206320532E82E2A
:10DA360015EF6DF00550096E038EFF0E0116FF0EF1
:10DA46000216FF0E0316000E0416960E0A5E0ABE96
:10DA560031EF6DF02FEF6DF047EF6DF00A50800A51
:10DA6600970FD8B039EF6DF03BEF6DF03DEF6DF0ED
:10DA760000EF6DF0D89004320332023201320A3ED2
:10DA86003DEF6DF05FEF6DF01F0E0A644DEF6DF028
:10DA96004FEF6DF057EF6DF000EF6DF0D890013657
:10DAA6000236033604360A060A50D8A45DEF6DF036
:10DAB6005FEF6DF051EF6DF00950D8B465EF6DF082
:10DAC60067EF6DF06FEF6DF0041E031E021E016C12
:10DAD600000E02220322042201C001F002C002F05D
:10DAE60003C003F004C004F01200096E0950D8B454
:10DAF6007FEF6DF081EF6DF0A3EF6DF004BE88EF60
:10DB06006DF086EF6DF0A3EF6DF001C005F002C079
:10DB160006F003C007F004C008F0051E061E071E27
:10DB2600081E052A000E06220722082205C00BF051
:10DB360006C00CF007C00DF008C00EF0ABEF6DF09C
:10DB460001C00BF002C00CF003C00DF004C00EF0D3
:10DB56000150021003100410D8A4B4EF6DF0B6EF14
:10DB66006DF0C0EF6DF0000E016E000E026E000E3D
:10DB7600036E000E046E51EF6EF0960E0A6ECAEF3B
:10DB86006DF00A2AD8900E320D320C320B32000E8E
:10DB96000B14056E000E0C14066E000E0D14076EA7
:10DBA600FE0E0E14086E0550061007100810D8A4B5
:10DBB600DFEF6DF0E1EF6DF0C4EF6DF0EFEF6DF0BC
:10DBC6000A2A010E0B26000E0C220D220E22D890D8
:10DBD6000E320D320C320B32000E0B14056E000E97
:10DBE6000C14066E000E0D14076EFF0E0E14086E52
:10DBF6000550061007100810D8A404EF6EF006EFC3
:10DC06006EF0E3EF6DF00EEF6EF00A06D8900B366D
:10DC16000C360D360E360DBE13EF6EF015EF6EF0A8
:10DC26001DEF6EF0020E0A601BEF6EF01DEF6EF038
:10DC360008EF6EF00AB022EF6EF024EF6EF025EFDB
:10DC46006EF00D9ED8900A320AC005F0066A076A81
:10DC5600086A05C008F0076A066A056A05500B12CD
:10DC660006500C1207500D1208500E120950D8B467
:10DC76003FEF6EF041EF6EF049EF6EF004BE48EFF5
:10DC86006EF046EF6EF049EF6EF00E8E0BC001F0AF
:10DC96000CC002F00DC003F00EC004F0120000C16B
:10DCA60051F001C152F002C153F003C154F041C01A
:10DCB60051F042C052F043C053F044C054F0810EBC
:10DCC600456EFF0E466E51C047F052C048F053C035
:10DCD60049F054C04AF0180E76EF6EF0D8904A32EA
:10DCE600493248324732E82E71EF6EF047504524EC
:10DCF6004F6E000E4620506E50BE8BEF6EF05050A9
:10DD060009E1170E4F5CD8A08BEF6EF08DEF6EF029
:10DD160097EF6EF041C041F042C042F043C043F07D
:10DD260044C044F05AEF6FF050BE9CEF6EF09EEF89
:10DD36006EF00EEF6FF04FC045F0FF0E466EFF0E11
:10DD4600476E7F0E486E000E496E4566ADEF6EF06B
:10DD5600B5EF6EF049344932483247324632452EE5
:10DD6600A8EF6EF046C04BF047C04CF048C04DF0EF
:10DD760049C04EF04B505114456E4C505214466EED
:10DD86004D505314476E4E505414486E455046102D
:10DD960047104810D8A4D2EF6EF0D4EF6EF0D6EF4D
:10DDA6006EF08DEF6EF051C045F052C046F053C094
:10DDB60047F054C048F0200EE6EF6EF0D890483297
:10DDC600473246324532E82EE1EF6EF045504610B6
:10DDD60047104810D8B4F2EF6EF0F4EF6EF0FCEF97
:10DDE6006EF04B5051264C5052224D5053224E50FD
:10DDF60054224B1C456E4C1C466E4D1C476E4E1CE9
:10DE0600486E4550511646505216475053164850C4
:10DE1600541652EF6FF051C045F052C046F053C051
:10DE260047F054C048F0200E1EEF6FF0D8904832ED
:10DE3600473246324532E82E19EF6FF0455046100C
:10DE460047104810D8A42AEF6FF02CEF6FF036EF8A
:10DE56006FF0000E516E000E526E000E536E000EE5
:10DE6600546E52EF6FF0D8905134456E5234466E70
:10DE76005334476E5434486E455046104710481088
:10DE8600D8B448EF6FF04AEF6FF052EF6FF0000E24
:10DE9600516E000E526E800E536EBF0E546E51C000
:10DEA60041F052C042F053C043F054C044F0120057
:10DEB60000018E51D96EDA6ADECFF6FFDDCFF7FFAD
:10DEC600F86A0800F550250AD8A46CEF6FF06EEFDB
:10DED6006FF094EF70F08E51D96EDA6ADE2A000E7A
:10DEE600DD22E56B000EE46FE4C0ECF0E669E7695D
:10DEF6008E51D96EDA6ADECFF6FFDDCFF7FFF86A0C
:10DF06000800F5502E0AD8A48BEF6FF08DEF6FF056
:10DF16009DEF6FF08E51D96EDA6ADE2A000EDD2291
:10DF26008EC001F08FC002F000EC6AF001C0E6F08E
:10DF360002C0E7F000018E51D96EDA6ADECF95F0A5
:10DF4600DDCF96F095C0F6FF96C0F7FFF86A080099
:10DF5600F550750AD8A4B2EF6FF0B4EF6FF0E8EFA2
:10DF66006FF08F51D96EDA6A020EDF26DF5CD96E4A
:10DF7600DA6ADECF90F0DECF91F0010E95255E6E67
:10DF8600000E96215F6E8E51D96EDA6A5EC0DEFF94
:10DF96005FC0DDFFDBEF6FF08CC01CF08DC01DF0A5
:10DFA60090C01EF091C01FF083EC6BF0A8EF70F0EC
:10DFB60095C0F6FF96C0F7FFF86A0800F550750A97
:10DFC600D8B4CFEF6FF0E8EF6FF08E51D96EDA6A02
:10DFD600DECF95F0DDCF96F095C0F6FF96C0F7FF41
:10DFE600F86A0800F5CF94F004EF70F0954B962B85
:10DFF60013EF70F06C0E946F13EF70F0946B13EFD9
:10E0060070F094514C0AD8B4F9EF6FF02A0AD8B4DC
:10E01600FDEF6FF00A0AD8B4F9EF6FF001EF70F078
:10E0260095C0F6FF96C0F7FFF86A0800F550660A35
:10E03600D8A420EF70F022EF70F08BEF70F04CEF69
:10E0460070F08F51D96EDA6ADFCF5EF0040EDF26EC
:10E056005E50D96EDA6ADECF90F0DECF91F0DECF79
:10E0660092F0DECF93F057EF70F08F51D96EDA6AE7
:10E07600DFCF5EF0040EDF265E50D96EDA6ADECFA1
:10E0860090F0DECF91F0DECF92F0DECF93F057EF37
:10E0960070F094514C0AD8B438EF70F0200AD8B416
:10E0A60024EF70F057EF70F0010E95255E6E000EAE
:10E0B60096215F6E8E51D96EDA6A5EC0DEFF5FC052
:10E0C600DDFF7EEF70F08CC055F08DC056F090C02D
:10E0D60057F091C058F092C059F093C05AF095C0CD
:10E0E600F6FF96C0F7FFF86A0800F5CF5BF05DEC27
:10E0F6007AF0A8EF70F095C0F6FF96C0F7FFF86AC1
:10E106000800F550660AD8B466EF70F08BEF70F031
:10E1160000018E51D96EDA6ADE2A000EDD22A8EFE2
:10E1260070F08E51D96EDA6ADECFF6FFDDCFF7FFDB
:10E13600F86A0800F550036E046A8CC005F08DC0BD
:10E1460006F0B7EC6AF08BEF70F012002B50800BE4
:10E15600386E2B502B243F6E2AAEB4EF70F0B6EF1C
:10E1660070F0B7EF70F03F803F50D8B4BDEF70F05D
:10E17600BFEF70F0D3EF70F03F28D8A4C5EF70F072
:10E18600C7EF70F0CFEF70F0000E286E000E296E0C
:10E19600000E2A6E000E2B6E2A8E2B6ADBEF70F0B5
:10E1A600000E286E000E296E000E2A6E000E2B6ED3
:10E1B6002F50800B381A2F502F24406E2EAEE6EFCC
:10E1C60070F0E8EF70F0E9EF70F040804050D8B49E
:10E1D600EFEF70F0F1EF70F005EF71F04028D8A482
:10E1E600F7EF70F0F9EF70F001EF71F0000E2C6EA2
:10E1F600000E2D6E000E2E6E000E2F6E2E8E2F6AC6
:10E206000DEF71F0000E2C6E000E2D6E000E2E6EB0
:10E21600000E2F6E2C502D102E102F10D8A416EF96
:10E2260071F018EF71F030EF71F0000E286E000EED
:10E23600296E000E2A6E000E2B6E800E2A127F0E9D
:10E246002B1238502B1228C028F029C029F02AC0DA
:10E256002AF02BC02BF06FEF72F03F50D8A436EFA8
:10E2660071F038EF71F042EF71F0000E286E000E7B
:10E27600296E000E2A6E000E2B6E6FEF72F0405064
:10E286003FC030F0316A305E000E315A7F0E3024C6
:10E29600396E000E31203A6E28C034F029C035F0B0
:10E2A6002AC036F02BC037F0000E286E000E296EFD
:10E2B600000E2A6E000E2B6E000E3B6E000E3C6E9C
:10E2C600000E3D6E000E3E6E406AA2EF71F04050A9
:10E2D600D8B470EF71F072EF71F089EF71F0D890E9
:10E2E6003436353636363736D890283629362A36F5
:10E2F6002B363EAE81EF71F083EF71F084EF71F053
:10E306002880D8903B363C363D363E362C50345C21
:10E316002D5035582E5036582F503758D8A096EFD6
:10E3260071F098EF71F0A1EF71F03E8C2C50345ED5
:10E336002D50355A2E50365A2F50375A402A190E1C
:10E346004064A8EF71F0AAEF71F06AEF71F03450F3
:10E35600351036103710D8B4B3EF71F0B5EF71F051
:10E36600CDEF71F03B80CDEF71F0D890283629368D
:10E376002A362B363EAEC2EF71F0C4EF71F0C5EF10
:10E3860071F02880D8903B363C363D363E3639060D
:10E39600D8A03A062AAED2EF71F0D4EF71F0B8EFFA
:10E3A60071F0406A3EAEDAEF71F0DCEF71F000EF2B
:10E3B60072F0FF0E3B14306EFF0E3C14316EFF0EF2
:10E3C6003D14326E7F0E3E14336E305031103210D3
:10E3D6003310D8B4F1EF71F0F3EF71F0F7EF71F09D
:10E3E600010E406E00EF72F028A0FCEF71F0FEEF18
:10E3F60071F000EF72F0F3EF71F04050D8B406EF11
:10E4060072F008EF72F02CEF72F0010E2826000E63
:10E4160029222A222B222BA013EF72F015EF72F07D
:10E426002CEF72F028C030F029C031F02AC032F04B
:10E436002BC033F03334333232323132303230C0E3
:10E4460028F031C029F032C02AF033C02BF0394A07
:10E456003A2A3ABE37EF72F03A5008E13928D8A086
:10E4660037EF72F039EF72F044EF72F0000E3A6E49
:10E476003968000E286E000E296E000E2A6E000EF8
:10E486002B6E3ABE51EF72F03A5006E13904D8B01D
:10E496004FEF72F051EF72F05DEF72F03A6A000ED4
:10E4A600396E000E286E000E296E000E2A6E000EC2
:10E4B6002B6E386A39C03FF03FA064EF72F066EF0A
:10E4C60072F069EF72F02A8E6AEF72F02A9ED89087
:10E4D6003F302B6E24EF71F012001250800B1B6E32
:10E4E60012501224216E11AE7BEF72F07DEF72F0A6
:10E4F6007EEF72F021802150D8B484EF72F086EF5F
:10E5060072F099EF72F02128D8A48CEF72F08EEF9A
:10E5160072F096EF72F0000E0F6E000E106E000E87
:10E52600116E000E126E118EA1EF72F0000E0F6EBC
:10E53600000E106E000E116E000E126E1650800B3D
:10E546001B1A165016241C6E15AEACEF72F0AEEF09
:10E5560072F0AFEF72F01C801C50D8B4B5EF72F0B9
:10E56600B7EF72F0CAEF72F01C28D8A4BDEF72F0B4
:10E57600BFEF72F0C7EF72F0000E136E000E146E4E
:10E58600000E156E000E166E158ED2EF72F0000E8E
:10E59600136E000E146E000E156E000E166E1C50D5
:10E5A600D8B4D8EF72F0DAEF72F0E2EF72F02150E1
:10E5B600D8A4E0EF72F0E2EF72F0ECEF72F0000E2A
:10E5C6000F6E000E106E000E116E000E126E82EFB0
:10E5D60074F015500F02F3CF26F0F4CF27F0265033
:10E5E6001D6E1E6A1F6A206A2750226E236A246ADD
:10E5F600256A14501002F3CF26F0F4CF27F02650E8
:10E606001D26000E1E221F22202227502226000E23
:10E6160023222422252213501102F3CF26F0F4CF11
:10E6260027F026501D26000E1E221F2220222750CC
:10E636002226000E2322242225221FC020F01EC0DF
:10E646001FF01DC01EF01D6A13501002F3CF26F0F6
:10E65600F4CF27F026501D2627501E22000E1F221B
:10E66600000E202214500F02F3CF26F0F4CF27F02D
:10E6760026501D2627501E22000E1F22000E202285
:10E686001FC020F01EC01FF01DC01EF01D6A1350D3
:10E696000F02F3CF26F0F4CF27F026501D26275081
:10E6A6001E22000E1F22000E202215501002F3CF4C
:10E6B60026F0F4CF27F02650222627502322000EDC
:10E6C6002422000E252214501102F3CF26F0F4CF97
:10E6D60027F02650222627502322000E2422000E41
:10E6E600252215501102F3CF26F0F4CF27F026503D
:10E6F600176E2750186E196A1A6A19C01AF018C0D0
:10E7060019F017C018F0176A17502226185023223E
:10E71600195024221A5025221DC017F01EC018F0C9
:10E726001FC019F020C01AF0190E9FEF73F0D89091
:10E736001A32193218321732E82E9AEF73F0175040
:10E74600222618502322195024221A5025221FC08F
:10E7560020F01EC01FF01DC01EF01D6A1C5021C0F7
:10E7660017F0186A1726000E1822820E1724266E36
:10E77600FF0E1820276ED5EF73F0D8902236233679
:10E786002436253620AECAEF73F0CCEF73F0CDEF0A
:10E7960073F02280D8901D361E361F362036260688
:10E7A600D8A0270624AEDAEF73F0DCEF73F0C0EFE3
:10E7B60073F01C6A20AEE2EF73F0E4EF73F008EF3B
:10E7C60074F0FF0E1D14176EFF0E1E14186EFF0E4A
:10E7D6001F14196E7F0E20141A6E17501810191078
:10E7E6001A10D8B4F9EF73F0FBEF73F0FFEF73F084
:10E7F600010E1C6E08EF74F022A004EF74F006EF11
:10E8060074F008EF74F0FBEF73F01C50D8B40EEF01
:10E8160074F010EF74F034EF74F0010E2226000E3F
:10E8260023222422252225A01BEF74F01DEF74F06D
:10E8360034EF74F022C017F023C018F024C019F08A
:10E8460025C01AF01A341A3219321832173217C084
:10E8560022F018C023F019C024F01AC025F0264A69
:10E86600272A27BE3FEF74F0275008E12628D8A0B4
:10E876003FEF74F041EF74F04BEF74F0000E226E30
:10E88600000E236E800E246E7F0E256E78EF74F0D8
:10E8960027BE58EF74F0275006E12604D8B056EF8D
:10E8A60074F058EF74F063EF74F0000E226E000EF1
:10E8B600236E000E246E000E256E1B6A78EF74F030
:10E8C60026C021F0FF0E2216FF0E23167F0E2416F9
:10E8D600000E251621A072EF74F074EF74F075EF38
:10E8E60074F0248ED8902130256E1B50251222C03C
:10E8F6000FF023C010F024C011F025C012F0120052
:10E906000450800B0D6E045004240F6E03AE8EEF80
:10E9160074F090EF74F091EF74F00F800F50D8B44C
:10E9260097EF74F099EF74F0ADEF74F00F28D8A458
:10E936009FEF74F0A1EF74F0A9EF74F0000E016E72
:10E94600000E026E000E036E000E046E038E046A45
:10E95600B5EF74F0000E016E000E026E000E036E2F
:10E96600000E046E0850800B0E6E0D500E18D8B4B3
:10E97600BFEF74F0C1EF74F0C2EF74F00D8C085065
:10E9860008240E6E07AECAEF74F0CCEF74F0CDEF2C
:10E9960074F00E800E50D8B4D3EF74F0D5EF74F047
:10E9A600E9EF74F00E28D8A4DBEF74F0DDEF74F015
:10E9B600E5EF74F0000E056E000E066E000E076E93
:10E9C600000E086E078E086AF1EF74F0000E056EF1
:10E9D600000E066E000E076E000E086E0F500E5CDF
:10E9E600D8B0F8EF74F0FAEF74F021EF75F00DACD3
:10E9F600FFEF74F001EF75F003EF75F0800E0D1A5E
:10EA06000FC010F00EC00FF010C00EF001C010F0D5
:10EA160005C001F010C005F002C010F006C002F0FB
:10EA260010C006F003C010F007C003F010C007F0D6
:10EA360004C010F008C004F010C008F0106A0F50AF
:10EA46000EC009F00A6A095E000E0A5A0ABE35EFC0
:10EA560075F00A5009E11A0E095CD8A035EF75F079
:10EA660037EF75F06EEF75F00150021003100410C9
:10EA7600D8A440EF75F043EF75F0010E44EF75F042
:10EA8600000E106E000E016E000E026E000E036E7A
:10EA9600000E046E0EC00FF077EF75F010A056EF63
:10EAA60075F058EF75F05EEF75F0D89010300109EB
:10EAB600106E60EF75F0D890103201A065EF75F01A
:10EAC60067EF75F068EF75F0108E04340432033288
:10EAD600023201320F2A0E500F5CD8A075EF75F086
:10EAE60077EF75F051EF75F00DBC7CEF75F07EEFAA
:10EAF60075F0BEEF75F00F50D8A484EF75F086EF71
:10EB060075F090EF75F0000E016E000E026E000EAD
:10EB1600036E000E046EDDEF76F0055001260650FA
:10EB26000222075003220850042204A09DEF75F02C
:10EB36009FEF75F04BEF76F010A0A4EF75F0A6EFFF
:10EB460075F0ACEF75F0D89010300109106EAEEF8D
:10EB560075F0D890103201A0B3EF75F0B5EF75F0EF
:10EB6600B6EF75F0108E04340432033202320132ED
:10EB76000F2A4BEF76F00550015C065002580750FD
:10EB860003580450800A096E0850800A0958D8B004
:10EB9600CFEF75F0D1EF75F0FCEF75F00150055C25
:10EBA600096E025006580A6E035007580B6E045041
:10EBB60008580C6EFF0E0924016EFF0E0A20026E25
:10EBC600FF0E0B20036EFF0E0C20046E800E0D1A36
:10EBD600106C1050D8A4F2EF75F0F4EF75F004EF56
:10EBE60076F0010E0126000E02220322042204EF13
:10EBF60076F00550015E0650025A0750035A085037
:10EC0600045A0150021003100410D8A40DEF76F038
:10EC16000FEF76F044EF76F01050D8A415EF76F0AB
:10EC260017EF76F044EF76F0000E016E000E026EDE
:10EC3600000E036E000E046EDDEF76F0D8900136FE
:10EC460002360336043610AE2BEF76F02DEF76F053
:10EC56002EEF76F0018010A033EF76F035EF76F0E8
:10EC660039EF76F0D88010363BEF76F0D890103634
:10EC76000F50D8B441EF76F043EF76F044EF76F0DC
:10EC86000F0603AE49EF76F04BEF76F021EF76F004
:10EC96000E6A10AE51EF76F053EF76F06BEF76F02A
:10ECA60010C009F07F0E0916D8B45CEF76F05EEF5F
:10ECB60076F062EF76F0010E0E6E6BEF76F001A045
:10ECC60067EF76F069EF76F06BEF76F05EEF76F051
:10ECD6000E50D8B471EF76F073EF76F09EEF76F0C3
:10ECE600010E0126000E02220322042204A07EEF5A
:10ECF60076F080EF76F09EEF76F001C009F002C064
:10ED06000AF003C00BF004C00CF00C340C320B32CA
:10ED16000A32093209C001F00AC002F00BC003F042
:10ED26000CC004F00F28D8B49BEF76F09DEF76F078
:10ED36009EEF76F00F2A0F28D8B4A4EF76F0A6EF50
:10ED460076F0AEEF76F00F50D8A4ACEF76F0AEEFDB
:10ED560076F0BFEF76F0000E016E000E026E000E2A
:10ED6600036E000E046E0F50D8A4BCEF76F0BEEF13
:10ED760076F0BFEF76F00D6A0FA0C4EF76F0C6EF1F
:10ED860076F0C9EF76F0038ECAEF76F0039ED89040
:10ED96000F30046E0DAED2EF76F0D4EF76F0D5EFED
:10EDA60076F0048E01C001F002C002F003C003F049
:10EDB60004C004F01200CDEC64F0000E0001AB6F4D
:10EDC600000EAC6F000EAD6F000EAE6F88960F0191
:10EDD6001C9D1C9F0001B96B8282210E0001A76F4A
:10EDE600760EE82EFED7A72FFCD700008292210EC2
:10EDF6000001A76F760EE82EFED7A72FFCD70000DE
:10EE06000001B92B040EB9650BEF77F00DEF77F023
:10EE1600EFEF76F09E0E9E6FFF0E9F6F27EC65F06C
:10EE2600A30E0001A76F550EE82EFED7A72FFCD71D
:10EE3600100E0F6E020E106E5A0EABEC67F0070E38
:10EE46000001A76F7D0EE82EFED7A72FFCD70C0E6C
:10EE56000F6E5A0E0FEC68F00001F46F0D0E0F6E78
:10EE66005A0E0FEC68F00001F36F070E0001A76F52
:10EE76007D0EE82EFED7A72FFCD7200E0F6E100EA4
:10EE8600106E5A0EABEC67F0070E0001A76F7D0EF1
:10EE9600E82EFED7A72FFCD70C0E0F6E140E106EA1
:10EEA6005A0EABEC67F0200E0F6E180E106E5A0E4F
:10EEB600ABEC67F082901CEC6BF041C0B2F042C044
:10EEC600B3F043C0B4F044C0B5F0F40E0001D82747
:10EED600010ED923000EDA23000EDB23A9EC64F021
:10EEE6000009D8B479EF77F07BEF77F0E9EF77F0A8
:10EEF600C0EC64F00001AF6FCEEF77F0B50E9E6FF9
:10EF0600FE0E9F6F27EC65F0E9EF77F0820E9E6F9D
:10EF1600FF0E9F6F9EEC64F001C0A0F002C0A1F04E
:10EF2600B2C0A2F0B3C0A3F0B4C0A4F0B5C0A5F0BF
:10EF360027EC65F0E9EF77F0010EF16F8282B70EEC
:10EF46009E6FFF0E9F6F27EC65F0E9EF77F0010EDD
:10EF5600F06F8380C80E9E6FFF0E9F6F27EC65F0E3
:10EF6600E9EF77F0010EEF6F8382D80E9E6FFF0EEA
:10EF76009F6F27EC65F0E9EF77F0F16BF06BEF6BC5
:10EF8600829283908392E80E9E6FFF0E9F6F27EC0E
:10EF960065F0E9EF77F0AF51620AD8B49FEF77F0EA
:10EFA6000A0AD8B481EF77F0010AD8B4AAEF77F04D
:10EFB600060AD8B4B5EF77F01F0AD8B4C0EF77F0D9
:10EFC600060AD8B489EF77F0E9EF77F0B2C028F0F7
:10EFD600B3C029F0B4C02AF0B5C02BF0000E2C6ED9
:10EFE600000E2D6EE80E2E6E400E2F6E73EC6CF03A
:10EFF600D8B000EF78F002EF78F054EF78F0000127
:10F00600AB51D85DA76FAC51D959A86FAD51DA593C
:10F01600A96FAE51DB59AA6FAA510DE1900EA75DFB
:10F026005F0EA859010EA959D8A01CEF78F01EEF63
:10F0360078F054EF78F0B86B000EB76FB8BF2DEFCD
:10F0460078F0B85109E10F0EB75DD8A02DEF78F032
:10F056002FEF78F031EF78F04CEF78F08282310EB6
:10F066000001A76FB20EE82EFED7A72FFCD700002F
:10F076000001B74BB82BB8BF4AEF78F0B85109E199
:10F086000F0EB75DD8A04AEF78F04CEF78F031EF6D
:10F0960078F0D8C0ABF0D9C0ACF0DAC0ADF0DBC0C8
:10F0A600AEF0230E0F6E5A0E0FEC68F00001FB6FE8
:10F0B600A30E0001A76F550EE82EFED7A72FFCD78B
:10F0C6003A0E0F6E5A0E0FEC68F00001FA6F3B0E07
:10F0D6000F6E5A0E0FEC68F00001F96F110E000169
:10F0E600A76F3A0EE82EFED7A72FFCD700003C0EDE
:10F0F6000F6E5A0E0FEC68F00001F66F3D0E0F6EA4
:10F106005A0E0FEC68F00001F56FF951A76FFA512E
:10F11600EA6FA7C0EBF0F551A76FF651E86FA7C0ED
:10F12600E9F0F151D8A49AEF78F09CEF78F09DEFD2
:10F1360078F08282F051D8B4A3EF78F0A5EF78F09A
:10F14600A6EF78F08380EF51D8B4ACEF78F0AEEF4D
:10F1560078F0AFEF78F08382B06BEB5109E1C00E27
:10F16600EA5DD8A0B9EF78F0BBEF78F0C7EF78F09A
:10F17600EA05050EEB59D8B0C3EF78F0C5EF78F085
:10F18600C7EF78F0010EB06FB0C0B6F0B16BEA050C
:10F19600050EEB59D8A0D2EF78F0D4EF78F0DFEF78
:10F1A60078F07D0EEB5DD8B0DBEF78F0DDEF78F030
:10F1B600DFEF78F0010EB16FB1C0BAF03EEF7AF032
:10F1C600F051D8A4E9EF78F0EBEF78F0ECEF78F0B7
:10F1D6008390EF51D8A4F2EF78F0F4EF78F0F5EFE2
:10F1E60078F08392F151D8A4FBEF78F0FDEF78F038
:10F1F600FEEF78F08292B651D8B404EF79F006EFBC
:10F2060079F043EF79F0ED51D8A40CEF79F00EEFD9
:10F2160079F04CEF79F0DC51DD11DE11DF11D8A465
:10F2260017EF79F019EF79F023EF79F0D8C0DCF019
:10F23600D9C0DDF0DAC0DEF0DBC0DFF04CEF79F0EC
:10F24600DC51D85DA76FDD51D959A86FDE51DA5967
:10F25600A96FDF51DB59AA6FAA51A9110BE1F40E70
:10F26600A75D010EA859D8A03BEF79F03DEF79F0E4
:10F276004CEF79F0010EED6F010EEE6F4CEF79F069
:10F28600000EDC6F000EDD6F000EDE6F000EDF6F0E
:10F29600ED6BBA51D8B452EF79F054EF79F05EEFD6
:10F2A60077F0000EDC6F000EDD6F000EDE6F000ED5
:10F2B600DF6FED6B020EEE6F5EEF77F0F051D8A4C4
:10F2C60067EF79F069EF79F06AEF79F08380EF51B3
:10F2D600D8A470EF79F072EF79F073EF79F083824A
:10F2E600F151D8A479EF79F07BEF79F07CEF79F0E2
:10F2F6008292BA51D8B482EF79F084EF79F086EF32
:10F3060079F054EF79F0B651D8A48CEF79F08EEFFE
:10F3160079F05EEF77F0000EDC6F000EDD6F000E09
:10F32600DE6F000EDF6FED6BEE6B5EEF77F0F05188
:10F33600D8A4A0EF79F0A2EF79F0B2EF79F083B01C
:10F34600A7EF79F0AAEF79F0010EABEF79F0000E96
:10F35600FF0AA76F8350A719FE0BA719836EEF51FB
:10F36600D8A4B8EF79F0BAEF79F0CBEF79F083B2A1
:10F37600BFEF79F0C2EF79F0010EC3EF79F0000E1E
:10F38600FF0AA76FA7478350A719FD0BA719836E1E
:10F39600F151D8A4D1EF79F0D3EF79F0D4EF79F029
:10F3A6008282BA51D8A4DAEF79F0DCEF79F05EEF19
:10F3B60077F0D8C0E0F0D9C0E1F0DAC0E2F0DBC007
:10F3C600E3F0030EEE6F5EEF77F0F051D8A4EEEFA8
:10F3D60079F0F0EF79F000EF7AF083B0F5EF79F09D
:10F3E600F8EF79F0010EF9EF79F0000EFF0AA76F3A
:10F3F6008350A719FE0BA719836EEF51D8A406EF09
:10F406007AF008EF7AF019EF7AF083B20DEF7AF01E
:10F4160010EF7AF0010E11EF7AF0000EFF0AA76FD7
:10F42600A7478350A719FD0BA719836EF151D8A4DE
:10F436001FEF7AF021EF7AF022EF7AF08282E05124
:10F44600D85DA76FE151D959A86FE251DA59A96F72
:10F45600E351DB59AA6FAA51A9110BE1580EA75D1A
:10F466001B0EA859D8A03AEF7AF03CEF7AF05EEF7F
:10F4760077F097EF79F0EE51A76FA86BA851000AC5
:10F48600D8B448EF7AF05EEF77F0A751000AD8B407
:10F49600E3EF78F0010AD8B461EF79F0030AD8B443
:10F4A6009AEF79F0010AD8B4E8EF79F05EEF77F0D9
:10F4B600FEEF7FF00001816B57C082F058C083F0E9
:10F4C60059C084F05AC085F085BF6EEF7AF06CEFB4
:10F4D6007AF082EF7AF0010E816F82C001F083C06C
:10F4E60002F084C003F085C004F0EFEC65F001C0C3
:10F4F60082F002C083F003C084F004C085F00001EE
:10F50600876B000E866FE4C071F0E5C072F0815122
:10F51600D8B490EF7AF092EF7AF0A4EF7AF08151B6
:10F52600D8A498EF7AF09AEF7AF09FEF7AF0676BAB
:10F536002B0E666FA2EF7AF0676B2D0E666F66C0B4
:10F5460081F082C001F083C002F084C003F085C060
:10F5560004F0F7EC6BF001040210D8A4B5EF7AF0D2
:10F56600B7EF7AF0E9EF7AF000018151D8B4BEEF37
:10F576007AF0C0EF7AF0C8EF7AF081C00CF171072B
:10F58600D8A07207876B010E866F0C0E8625016E5A
:10F59600010E8721026EF20E036EFF0E046E0BEC57
:10F5A60066F00001FD0E7127FF0E722355C013F0A1
:10F5B60056C014F00C0E156E010E166E71C017F0C3
:10F5C60072C018F043EC68F049EF7FF082C001F09A
:10F5D60083C002F084C003F085C004F0F7EC6BF042
:10F5E60001500210D8A4FAEF7AF0FCEF7AF01BEF84
:10F5F6007BF000018151D8B403EF7BF005EF7BF07F
:10F606000DEF7BF081C00CF17107D8A07207876BF4
:10F61600010E866F0C0E8625016E010E8721026E85
:10F62600F60E036EFF0E046E0BEC66F0D4EF7AF066
:10F63600000E0001886F000E896F800E8A6F3F0EE4
:10F646008B6F706B000E6F6F82C001F083C002F08B
:10F6560084C003F085C004F0000E056E000E066E31
:10F66600000E076E000E086EABEC69F0D8B03EEFE8
:10F676007BF040EF7BF01FEF7CF04DEF7BF073C02B
:10F6860088F074C089F075C08AF076C08BF00001EE
:10F696006F4B702B88C00FF089C010F08AC011F034
:10F6A6008BC012F0000E136E000E146E200E156E37
:10F6B600410E166E70EC72F00FC073F010C074F04D
:10F6C60011C075F012C076F000017351825D016EB3
:10F6D60074518359026E75518459036E765185595A
:10F6E600046E23EC67F004BE84EF7BF00450031035
:10F6F600021009E1020E015CD8A084EF7BF086EFD0
:10F706007BF042EF7BF073C028F074C029F075C01F
:10F716002AF076C02BF082C02CF083C02DF084C076
:10F726002EF085C02FF073EC6CF0D8A09DEF7BF027
:10F736009FEF7BF042EF7BF000018851825D016E06
:10F7460089518359026E8A518459036E8B518559AA
:10F75600046E23EC67F004BEBEEF7BF0045003108A
:10F76600021007E1020E015CD8B0BCEF7BF0BEEFE1
:10F776007BF006EF7CF088C082F089C083F08AC0F7
:10F7860084F08BC085F01FEF7CF088C028F089C01C
:10F7960029F08AC02AF08BC02BF0000E2C6E000ECA
:10F7A6002D6E200E2E6E410E2F6EA9EC70F028C025
:10F7B60088F029C089F02AC08AF02BC08BF000019E
:10F7C6006F07D8A070078851825D016E89518359F1
:10F7D600026E8A518459036E8B518559046E23EC4F
:10F7E60067F004BE04EF7CF004500310021007E13A
:10F7F600020E015CD8B002EF7CF004EF7CF006EF5D
:10F806007CF0BEEF7BF082C028F083C029F084C074
:10F816002AF085C02BF088C02CF089C02DF08AC054
:10F826002EF08BC02FF073EC6CF0D8A01DEF7CF09F
:10F836001FEF7CF0C8EF7BF05BC069F069C06AF02F
:10F846000001E7BF29EF7CF02BEF7CF031EF7CF075
:10F85600E6C062F0E7C063F034EF7CF0636B060E3F
:10F86600626F62C06DF063C06EF06D4B6E2B660EFC
:10F876006A19D8A441EF7CF043EF7CF062EF7CF08C
:10F8860070BF4AEF7CF048EF7CF055EF7CF0000E3D
:10F89600886F000E896F800E8A6F3F0E8B6F706BBC
:10F8A600000E6F6F670E6919D8B45CEF7CF05EEFDF
:10F8B6007CF062EF7CF06F516D2770516E23786B90
:10F8C600000E776F82C079F083C07AF084C07BF037
:10F8D60085C07CF088C073F089C074F08AC075F06A
:10F8E6008BC076F0F2EF7CF079C028F07AC029F070
:10F8F6007BC02AF07CC02BF088C02CF089C02DF08C
:10F906008AC02EF08BC02FF0A9EC70F028C041F011
:10F9160029C042F02AC043F02BC044F052EC6EF0EE
:10F9260041C07DF042C07EF043C07FF044C080F00D
:10F936007DC001F07EC002F07FC003F080C004F0FD
:10F94600F5EC6CF001C06BF002C06CF079C028F0E9
:10F956007AC029F07BC02AF07CC02BF07DC013F062
:10F966007EC014F07FC015F080C016F088C00FF07E
:10F9760089C010F08AC011F08BC012F070EC72F0E2
:10F986000FC02CF010C02DF011C02EF012C02FF0B9
:10F9960088EC66F028C079F029C07AF02AC07BF09E
:10F9A6002BC07CF088C028F089C029F08AC02AF0D4
:10F9B6008BC02BF0000E2C6E000E2D6E200E2E6EC0
:10F9C600410E2F6EA9EC70F028C088F029C089F08E
:10F9D6002AC08AF02BC08BF00001774B782B6D5133
:10F9E600775D7851800A5C6E6E51800A5C58D8A0AB
:10F9F600FFEF7CF001EF7DF077EF7CF088C00FF031
:10FA060089C010F08AC011F08BC012F0000E136E80
:10FA1600000E146EA00E156E400E166E70EC72F08F
:10FA26000FC07DF010C07EF011C07FF012C080F0D4
:10FA360079C028F07AC029F07BC02AF07CC02BF070
:10FA46007DC02CF07EC02DF07FC02EF080C02FF040
:10FA560073EC6CF0D8B032EF7DF034EF7DF03FEF11
:10FA66007DF0000E00017D6F000E7E6F000E7F6F31
:10FA7600000E806F68EF7DF079C001F07AC002F069
:10FA86007BC003F07CC004F07DC005F07EC006F0AC
:10FA96007FC007F080C008F0ABEC69F0D8A056EF45
:10FAA6007DF058EF7DF068EF7DF000016BB15EEF01
:10FAB6007DF060EF7DF068EF7DF0000E7D6F000E4B
:10FAC6007E6F000E7F6F000E806F82C001F083C0D4
:10FAD60002F084C003F085C004F07DC005F07EC04E
:10FAE60006F07FC007F080C008F083EC74F001C018
:10FAF60079F002C07AF003C07BF004C07CF079C0D4
:10FB060028F07AC029F07BC02AF07CC02BF0000ECA
:10FB1600136E000E146E200E156E410E166E73C017
:10FB26000FF074C010F075C011F076C012F070ECD2
:10FB360072F00FC02CF010C02DF011C02EF012C0C4
:10FB46002FF073EC6CF0D8A0ABEF7DF0ADEF7DF04D
:10FB5600D6EF7DF000016F4B702B73C00FF074C0B1
:10FB660010F075C011F076C012F0000E136E000E84
:10FB7600146E200E156E410E166E70EC72F00FC0EC
:10FB860073F010C074F011C075F012C076F0660EF6
:10FB960000016A19D8A4D2EF7DF0D4EF7DF0D6EF3C
:10FBA6007DF06D4B6E2B73C088F074C089F075C004
:10FBB6008AF076C08BF06FC060F070C061F0000113
:10FBC600686B656B000E646F786B000E776FD0EF15
:10FBD6007EF079C028F07AC029F07BC02AF07CC07C
:10FBE6002BF088C02CF089C02DF08AC02EF08BC077
:10FBF6002FF0A9EC70F028C041F029C042F02AC0CD
:10FC060043F02BC044F052EC6EF041C07DF042C090
:10FC16007EF043C07FF044C080F07DC001F07EC01E
:10FC260002F07FC003F080C004F0F5EC6CF002BE79
:10FC360028EF7EF0025007E10A0E015CD8B026EFED
:10FC46007EF028EF7EF038EF7EF07DC001F07EC0BA
:10FC560002F07FC003F080C004F0F5EC6CF001C048
:10FC66006BF002C06CF03CEF7EF000016C6B090E8D
:10FC76006B6F00016851D8A443EF7EF045EF7EF02C
:10FC86006DEF7EF061BF4CEF7EF04AEF7EF06DEFD8
:10FC96007EF00C0E8625D96E010E8721DA6E2E0EA9
:10FCA600DF6E864B872B7107D8A07207010E686F2F
:10FCB6006DEF7EF00C0E8625D96E010E8721DA6E69
:10FCC600300EDF6E864B872B7107D8A0720764074C
:10FCD600D8A0650764516511D8A474EF7EF076EF5D
:10FCE6007EF05DEF7EF00C0E8625D96E010E872123
:10FCF600DA6E6B51300FDF6E864B872B7107D8A0FB
:10FD0600720779C028F07AC029F07BC02AF07CC03F
:10FD16002BF07DC013F07EC014F07FC015F080C0BC
:10FD260016F088C00FF089C010F08AC011F08BC0A1
:10FD360012F070EC72F00FC02CF010C02DF011C054
:10FD46002EF012C02FF088EC66F028C079F029C09A
:10FD56007AF02AC07BF02BC07CF088C028F089C0DE
:10FD660029F08AC02AF08BC02BF0000E2C6E000EF4
:10FD76002D6E200E2E6E410E2F6EA9EC70F028C04F
:10FD860088F029C089F02AC08AF02BC08BF00001C8
:10FD96006007D8A06107774B782B6D51775D785156
:10FDA600800A5C6E6E51800A5C58D8B0DDEF7EF03A
:10FDB600DFEF7EF0EDEF7EF087BFEBEF7EF0875151
:10FDC60009E14B0E865DD8A0EBEF7EF0EDEF7EF0FD
:10FDD600ECEF7DF0786B4F0E776F0C0E7725D96EB2
:10FDE600010E7821DA6EDF6A0C0E5C6E010E5D6E16
:10FDF60086515C5E87515D5A77515C24016E78515D
:10FE06005D20026E0C0E036E010E046E86C005F0B8
:10FE160087C006F0D0EC66F000018651775D866FEC
:10FE260087517859876F8151D8A41CEF7FF01FEF57
:10FE36007FF0010E20EF7FF0000E776F786B815117
:10FE4600D8B428EF7FF02AEF7FF035EF7FF08607F2
:10FE5600D8A087070C0E8625D96E010E8721DA6E8B
:10FE660081C0DFFF7751715F7851725B55C013F027
:10FE760056C014F00C0E8625156E010E8721166EDF
:10FE860071C017F072C018F043EC68F01200005C05
:10FE9600C89AC8AAC8AED4B6D28EC83ED21CC82448
:10FEA600C82CC834C83CC844C84CC866C8F4CE0D73
:10FEB6000A5241434B2050524F544543544F52200F
:10FEC60046572056312E32312068656C70206D659C
:10FED6006E75202D206B657962696E6473200D0A3C
:10FEE60076202D205072696E747320626174746579
:10FEF600727920766F6C74616765206C6576656CC7
:10FF0600200D0A62202D205475726E732062757A58
:10FF16007A6572206F6E200D0A69202D2054757245
:10FF26006E73204C45442042616E6B2031206F6E0B
:10FF3600200D0A6F202D205475726E73204C454497
:10FF46002042616E6B2032206F6E200D0A70202DCC
:10FF5600205475726E73204C45442042616E6B20AE
:10FF6600312C20322C20616E642074686520627505
:10FF76007A7A6572206F6666200D0A004144432036
:10FF86007261773A2025752020426174743A2025E3
:10FF96002E326620560D0A004669726D77617265CB
:10FFA6002056657273696F6E20312E322E310D0A1E
:10FFB6000042757A7A657220456E61626C65640DE1
:10FFC6000A004C45442042414E4B2031204F4E0DF5
:10FFD6000A004C45442042414E4B2032204F4E0DE4
:10FFE6000A00416C6C206F66660D0A00696E660039
:05FFF6006E616E0000C9
:04FFFC00F8EF64F0C6
:020000040030CA
:0C000000FCFFFFFF9FFFFFDFFFFFFFFF83
:00000001FF
