:04000000FEEF7FF0A0
:10C82000959A120096801200968212009684120049
:10C83000010E1200050E1200968612009150120091
:10C840000E01C89112000E01C0911200968A9688BE
:10C850001200969A968812000E01C8811200016E8D
:10C8600001C091FF120014EC64F0010E120014ECF0
:10C8700064F0020E120014EC64F0010E120016ECCB
:10C8800064F0000E120029EC64F0050E120026EC94
:10C8900064F00A0E120026EC64F0090E1200000E7D
:10C8A0006BEC66F012000001C793C66B0E0E12000F
:10C8B0000001C793C66B0E0E120001C064F102C0E6
:10C8C00065F1120001C068F102C069F1120001C0F7
:10C8D00066F102C067F112000001C7911CEC64F020
:10C8E000040E12000001C781D880C1352FEC64F01E
:10C8F000050E12000001C781C151C1252FEC64F063
:10C90000030E12000E01DC6BDD6BDE6BDF6BE06B88
:10C91000E16B12000E01C8A190EF64F092EF64F099
:10C920008AEF64F01200800E946E080E956E966A7F
:10C93000030E926E959A1200700E0E01D36FD56B96
:10C94000D76B020ED96FD86B120005C001F006C07C
:10C9500002F007C003F0000E73EC67F0120096BC03
:10C96000B4EF64F0B7EF64F0010EB8EF64F0000EBE
:10C97000120005C001F006C002F007C003F0020E6D
:10C9800073EC67F012000F015F51046E036A5E5191
:10C990000324016E000E0420026E12000E01C8BBBB
:10C9A000D4EF64F0D7EF64F0010ED8EF64F0000E1E
:10C9B0001200016E0E01C8A9E0EF64F0E2EF64F02E
:10C9C000DAEF64F001C099FF12000001F06B9CA245
:10C9D000ECEF64F0EEEF64F0F0EF64F09C989C886C
:10C9E0009850120082EC64F093EC64F01DEC67F058
:10C9F0009CEC64F0E2EC65F04DEC66F0120005EFA3
:10CA000065F08AEC64F0D3EC68F00001C7B30BEF7B
:10CA100065F00DEF65F001EF65F01200026EA0EC1D
:10CA200065F00009D8B417EF65F019EF65F00FEF66
:10CA300065F00250D9EC64F0120001EE00F0540EE3
:10CA4000EE6AE806FDE100EEABF0460EEE6AE8069F
:10CA5000FDE1000103EF77F00001C7A732EF65F0B9
:10CA600034EF65F03BEF65F001C0C2F002C0C3F0E7
:10CA700003C0C4F0C797120095BA41EF65F043EFC9
:10CA800065F04BEF65F0800E946E080E956E966A19
:10CA9000030E926E958A1200A00E0001A66F000E82
:10CAA000976F000E986F9EC099F09FC09AF0A60EE7
:10CAB0009B6FD0EC66F0120008C001F0036A020E12
:10CAC000026E2CEC65F0000E056E000E066E000E78
:10CAD000076EA5EC64F0040E120008C001F0036AB2
:10CAE000010E026E2CEC65F0000E056E000E066E57
:10CAF000000E076EA5EC64F0020E120008C001F0F3
:10CB0000036A020E026E2CEC65F0000E056E000E3C
:10CB1000066E000E076EA5EC64F0020E120008C04F
:10CB200001F0036A010E026E2CEC65F0000E056E3A
:10CB3000000E066E000E076EA5EC64F0040E1200E7
:10CB4000016A0E01C8A9A7EF65F0A9EF65F0B2EF81
:10CB500065F09DAAAEEF65F0B0EF65F0B2EF65F05D
:10CB6000010E016E01501200010E016E0001C7B3EB
:10CB7000BCEF65F0BEEF65F0C8EF65F0C795C16921
:10CB800020EC64F023EC64F010EC64F0C6C001F01B
:10CB900001501200056E05C05AFF0F015B8F5B9DAF
:10CBA0005B815BB1D6EF65F0D8EF65F0D1EF65F052
:10CBB0005F51046E036A5E510324016E000E04206F
:10CBC000026E1200656A666A676A686A636A646A06
:10CBD000616A0F015A6B586B596B546B100E556F8D
:10CBE000566B606A536B516B1F0E526F840E5B6FF6
:10CBF000576B12000850D96EDA6A020ED926DF5040
:10CC0000016E0850D96EDA6ADECF02F0DDCF03F094
:10CC10002CEC65F0000E056E000E066E000E076E21
:10CC2000A5EC64F0020E1200015002100310041073
:10CC3000D8B41DEF66F01FEF66F027EF66F0000E28
:10CC4000011A000E021A000E031A800E041A01C007
:10CC500001F002C002F003C003F004C004F01200AF
:10CC600001C005F002C006F003C0F6FF04C0F7FFE4
:10CC7000034A042AF86A05C0D9FF06C0DAFF054A4C
:10CC8000062A0800F5CFDFFFDF50D8A44AEF66F090
:10CC90004CEF66F034EF66F01200080E9E6E900EB8
:10CCA0009C6E240E9D6E080E9A6E9B6A000E016E9D
:10CCB000000E026E62EC64F0000E016E000E026E59
:10CCC00067EC64F0000E016E000E026E5DEC64F025
:10CCD0000001F06B12000D6E010E0E6E0001C7B365
:10CCE00074EF66F076EF66F08AEF66F0C7830E6A3F
:10CCF0000D50D8B47EEF66F080EF66F084EF66F0FA
:10CD0000010EC56F86EF66F0020EC56F12EC64F07F
:10CD1000FFEC64F00E501200126A000E116E9CEFD0
:10CD200066F010C003F0046A0EC005F00FC006F0F4
:10CD3000DCEC6AF0114A122A11500C24D96E125000
:10CD40000D20DA6EDF50106E1050D8A4AAEF66F0F6
:10CD5000ACEF66F091EF66F01200000E2C1A000E98
:10CD60002D1A000E2E1A800E2F1A28C001F029C08D
:10CD700002F02AC003F02BC004F02CC005F02DC037
:10CD800006F02EC007F02FC008F0A8EC74F001C028
:10CD900028F002C029F003C02AF004C02BF01200D2
:10CDA00099C09CF09AC09DF0E1EF66F097C08CF0BE
:10CDB00098C08DF09C0E00018E6F9BC08FF080ECB0
:10CDC0006FF09CC0F6FF9DC0F7FFF86A0800F550B1
:10CDD0000009D8A4EEEF66F0F0EF66F0D6EF66F04B
:10CDE0000001986B000E976F120003C00AF004C098
:10CDF0000BF001C008F002C009F00FEF67F00AC0A5
:10CE0000D9FF0BC0DAFFDF50076E0A4A0B2A08C0B1
:10CE1000D9FF09C0DAFF07C0DFFF084A092A050663
:10CE2000D8A00606052806E10628D8A41AEF67F060
:10CE30001CEF67F0FFEF66F01200826A836A846A73
:10CE4000FC0E876EFC0E886EBF0E896E670E0F019A
:10CE50001C6F14690C69286B136B0B6B1B6B0A6BD3
:10CE6000126B1A6B096911691969086910691869E7
:10CE7000080E256F140E0E01B36F170EB06F0F0E54
:10CE8000F56F100EF66F090EF86F130EB26F1200E9
:10CE900004BE4DEF67F04FEF67F059EF67F001C048
:10CEA00001F002C002F003C003F004C004F072EF0E
:10CEB00067F001C005F002C006F003C007F004C02F
:10CEC00008F0051E061E071E081E052A000E062273
:10CED0000722082205C001F006C002F007C003F0D7
:10CEE00008C004F01200046E01500210D8B47BEFA9
:10CEF00067F07DEF67F08FEF67F00450020DF3509D
:10CF0000AB0FD96EDA6A01C0DEFF02C0DDFF04504C
:10CF1000B70FD96EDA6A03C0DFFF9EEF67F00450E7
:10CF2000020DF350AB0FD96EDA6A300EDE6EC80E0A
:10CF3000DD6E0450B70FD96EDA6ADF6A12000001A5
:10CF4000C791020EC66FADEF67F03BEC64F0CFEF18
:10CF500067F03FEC64F0CFEF67F0B9C008F002D89B
:10CF6000BBEF67F00500FA6EAF51FD6EB051FE6E7B
:10CF7000FF6AFA501200096E0A6A0A50000AD8B411
:10CF8000C4EF67F0A9EF67F00950020AD8B4A5EF23
:10CF900067F0010AD8B4A5EF67F0A9EF67F01200B7
:10CFA000116E11509CEC68F00009D8B4DAEF67F00C
:10CFB000DCEF67F0D1EF67F01E0E056ECB0E066E4C
:10CFC000100E076EA5EC64F00F0E016E036A010EE1
:10CFD000026E2CEC65F0000E056E000E066E000E63
:10CFE000076E000E086EB9EC64F04FEC64F0B4EC20
:10CFF00065F0E806D8B4FFEF67F001EF68F0F7EFEF
:10D0000067F0120003500410D8B409EF68F00BEF7A
:10D0100068F02FEF68F0010E056E13EF68F0D890FE
:10D0200003360436052A04AE18EF68F01AEF68F0EC
:10D030000FEF68F00350015C04500258D8A023EFB2
:10D0400068F025EF68F029EF68F00350015E0450A6
:10D05000025AD89004320332052E1AEF68F001C04C
:10D0600001F002C002F01200106E116A10509CEC28
:10D0700068F00009D8B43FEF68F041EF68F036EF90
:10D0800068F0DA0E056ECA0E066E110E076EA5EC7C
:10D0900064F00F0E016E036A010E026E2CEC65F057
:10D0A000000E056E000E066E000E076E000E086E76
:10D0B000B9EC64F04FEC64F0B4EC65F0E806D8B479
:10D0C00064EF68F066EF68F05CEF68F011501200F2
:10D0D00018BE6FEF68F06DEF68F072EF68F0186AD5
:10D0E000000E176E1B6A000E1A6E82EF68F0046A5B
:10D0F000200E036E13C005F014C006F0DCEC6AF0DD
:10D100001A4A1B2A17501A5C1B50800A196E1850B5
:10D11000800A1958D8A08FEF68F091EF68F077EF88
:10D1200068F015C00CF016C00DF013C00EF014C05E
:10D130000FF08CEC66F01200016E010E026E000121
:10D14000C7B5A5EF68F0A7EF68F0D1EF68F001C0B0
:10D15000C1F0C793C785C7910E0EC56F010EC06F92
:10D16000F40EBF6FC787300EAB6FC80EAC6FB76BD6
:10D17000300EAD6FC80EAE6FB86B300EAF6FC80E0D
:10D18000B06FB96B300EB16FC80EB26FBA6B340EA0
:10D19000B36FC80EB46FBB6B20EC64F03CEC65F071
:10D1A000026A0250120020EC64F00001C7A1DBEF1C
:10D1B00068F0DDEF68F0EAEF68F0AFEC64F00009CA
:10D1C000D8B4E5EF68F0E7EF68F0EAEF68F00F0E2B
:10D1D0000001C56F0001C551020D950EF324F66ED6
:10D1E000FE0EF420F76EF86A000EF8220900F5CF63
:10D1F0000BF00900F5CF0CF002D808EF69F005003C
:10D20000FA6E0B50FD6E0C50FE6EFF6AFA50120063
:10D210000001C56F1200076A000E066E035004106D
:10D22000D8B415EF69F017EF69F03FEF69F0010E20
:10D23000056E1FEF69F0D89003360436052A04AE58
:10D2400024EF69F026EF69F01BEF69F0D8900636FD
:10D2500007360350015C04500258D8A032EF69F041
:10D2600034EF69F039EF69F00350015E0450025A5F
:10D270000680D89004320332052E26EF69F006C0EE
:10D2800001F007C002F012000001C78755EF69F0F6
:10D290003BEC64F07FEF69F02CEC64F0030E7FEF61
:10D2A00069F03FEC64F07FEF69F0B7C008F002D896
:10D2B00063EF69F00500FA6EAB51FD6EAC51FE6E86
:10D2C000FF6AFA501200096E0A6A0A50000AD8B4BE
:10D2D0006CEF69F051EF69F00950010AD8B451EFD1
:10D2E00069F0030AD8B448EF69F0010AD8B448EFEE
:10D2F00069F0070AD8B44CEF69F051EF69F01200F9
:10D300000001C251D96EDA6A1EEC64F0DF6E0001D2
:10D31000C22BC307D8A0C407C351C411D8B493EF1C
:10D3200069F095EF69F09AEF69F029EC64F0050E69
:10D33000CFEF69F0C787A5EF69F04BEC64F0CFEF52
:10D3400069F047EC64F0CFEF69F0B7C008F002D89D
:10D35000B3EF69F00500FA6EAB51FD6EAC51FE6E95
:10D36000FF6AFA501200096E0A6A0A50000AD8B41D
:10D37000BCEF69F0A1EF69F00950010AD8B4A1EF40
:10D3800069F0030AD8B49DEF69F0010AD8B49DEFA3
:10D3900069F0070AD8B4A1EF69F0A1EF69F01200B3
:10D3A000000E0114096E000E02140A6E800E0314A2
:10D3B0000B6E7F0E04140C6E09500A100B100C102B
:10D3C000D8A4E5EF69F0E7EF69F0EFEF69F0000E40
:10D3D000016E000E026E000E036E000E046E000E53
:10D3E0000514096E000E06140A6E800E07140B6EEB
:10D3F0007F0E08140C6E09500A100B100C10D8A4E4
:10D4000004EF6AF006EF6AF00EEF6AF0000E056EA8
:10D41000000E066E000E076E000E086E0550011815
:10D420000FE1065002180CE10750031809E10850FB
:10D430000418D8B41EEF6AF020EF6AF023EF6AF008
:10D44000D89024EF6AF0D8801200076A000E066EAA
:10D450000150D96EDA6ADECFF6FFDDCFF7FFF86A4A
:10D460000800F5502A0AD8A438EF6AF03AEF6AF0BB
:10D4700063EF6AF00150D96EDA6ADE2A000EDD220F
:10D480000250D96EDA6A020EDF26DF5CD96EDA6AE4
:10D49000DECF06F0DECF07F077EF6AF00A0E060265
:10D4A000F3CF03F0F4CF04F00702F3500426055045
:10D4B0000324066E000E0420076E0150D96EDA6A4E
:10D4C000DE2A000EDD220150D96EDA6ADECFF6FFC9
:10D4D000DDCFF7FFF86A0800F550D00F056E090E92
:10D4E000056475EF6AF077EF6AF04EEF6AF006C0F8
:10D4F00001F007C002F01200AFEC64F00009D8B4EC
:10D5000084EF6AF086EF6AF0BFEF6AF094EF6AF09A
:10D5100033EC64F0DBEF6AF037EC64F0DBEF6AF0D9
:10D520003FEC64F0DBEF6AF0BAC008F002D8A3EF7A
:10D530006AF00500FA6E0001B151FD6EB251FE6E47
:10D54000FF6AFA501200096E0A6A0A50000AD8B43B
:10D55000ACEF6AF090EF6AF00950010AD8B490EF8E
:10D560006AF0030AD8B488EF6AF0010AD8B48CEFE5
:10D570006AF0070AD8B490EF6AF090EF6AF0000101
:10D58000C79120EEC2F0DF50DF2AD96EDA6ADF5091
:10D590002FEC64F00001C307D8A0C407C351C41125
:10D5A000D8A4D5EF6AF0D7EF6AF0DAEF6AF0060E8A
:10D5B000DBEF6AF0030E120005500610D8B4E3EF5B
:10D5C0006AF0E5EF6AF0EEEF6AF005500610D8A4B5
:10D5D000ECEF6AF0EEEF6AF0F3EF6AF003500EEC56
:10D5E00065F040EF6BF020EE09F00550D9260650AB
:10D5F000DA22DE50DE10D8B400EF6BF002EF6BF0F1
:10D600001DEF6BF020EE09F00550D9260650DA2206
:10D6100010EE02F00550E1260650E222DE50E65CF4
:10D62000E650800A0B6EDE50800A0B58D8B01BEF14
:10D630006BF01DEF6BF040EF6BF020EE02F0055049
:10D64000D9260650DA22DECF07F0DDCF08F005C07C
:10D65000D9FF06C0DAFFDECF09F0DDCF0AF00750B0
:10D660000924D96E08500A20DA6E03C0DFFF20EECD
:10D6700002F00550D9260650DA22DE2A000EDD22FD
:10D6800012008386FA0E00D0E82EFDD70C0E0F0193
:10D690005A6F0C0ECAEC65F001C04DF002C04EF09E
:10D6A000330E136E330E146E530E156E400E166E3F
:10D6B0004DC001F04EC002F0036A046A000E9DECFA
:10D6C0006DF001C00FF002C010F003C011F004C0F3
:10D6D00012F095EC72F00FC028F010C029F011C0C4
:10D6E0002AF012C02BF0000E2C6E000E2D6E800E54
:10D6F0002E6E440E2F6ECEEC70F028C049F029C07B
:10D700004AF02AC04BF02BC04CF049C00FF04AC081
:10D7100010F04BC011F04CC012F0520E136EB80E48
:10D72000146E3E0E156E400E166E95EC72F00FC024
:10D7300045F010C046F011C047F012C048F045C097
:10D7400041F046C042F047C043F048C044F01200E8
:10D750000001DBBFB0EF6BF0AEEF6BF0B5EF6BF03D
:10D76000236A010E226EB9EF6BF0DAC022F0DBC043
:10D7700023F0D8C020F0D9C021F0256A4F0E246EC6
:10D780000101536BECEF6BF02406D8A02506040EC4
:10D790002424D96E010E2520DA6E1EC001F01FC0B0
:10D7A00002F0046A0A0E036E02EC68F00150300FBA
:10D7B000DF6E2206D8A023062006D8A021061EC0B0
:10D7C00001F01FC002F0046A0A0E036E0BEC69F050
:10D7D00001C01EF002C01FF024502510D8B4F3EF92
:10D7E0006BF0F5EF6BF00BEF6CF01E501F10D8A430
:10D7F000FCEF6BF0FEEF6BF0C4EF6BF023BE0BEFB2
:10D800006CF0235006E12204D8B009EF6CF00BEF66
:10D810006CF0C4EF6BF01CC013F01DC014F0040ECC
:10D820002424156E010E2520166E20C017F021C08D
:10D8300018F068EC68F01200CCC00BF0CDC00CF012
:10D84000CEC00DF0CFC00EF001C00BF002C00CF046
:10D8500003C00DF004C00EF00BC005F00CC006F0C4
:10D860000DC007F00EC008F0180E3CEF6CF0D89019
:10D870000832073206320532E82E37EF6CF00550D9
:10D88000096E0A6A09500A10D8A449EF6CF04BEFF0
:10D890006CF069EF6CF0D8900B34056E0C34066EAA
:10D8A0000D34076E0E34086E055006100710081070
:10D8B000D8A45DEF6CF05FEF6CF064EF6CF0026A7F
:10D8C000020E016E97EF6CF0026A030E016E97EF85
:10D8D0006CF009280A10D8A470EF6CF072EF6CF0AD
:10D8E00094EF6CF00BC005F00CC006F00DC007F013
:10D8F0000EC008F0090ED8900536063607360836F1
:10D90000E82E7BEF6CF00550061007100810D8B415
:10D910008CEF6CF08FEF6CF0010E90EF6CF0000E5E
:10D92000016E026A97EF6CF0026A040E016E12003B
:10D93000000E2814306E000E2914316E800E2A1449
:10D94000326E7F0E2B14336E305031103210331084
:10D95000D8A4ADEF6CF0AFEF6CF0B7EF6CF0000E49
:10D96000286E000E296E000E2A6E000E2B6E000E21
:10D970002C14306E000E2D14316E800E2E14326E6B
:10D980007F0E2F14336E3050311032103310D8A464
:10D99000CCEF6CF0CEEF6CF0D6EF6CF0000E2C6E8E
:10D9A000000E2D6E000E2E6E000E2F6E2BAEDBEFD6
:10D9B0006CF0DDEF6CF0E6EF6CF0286C291ED8B04F
:10D9C000292A2A1ED8B02A2A800E2B562FAEEBEF1A
:10D9D0006CF0EDEF6CF0F6EF6CF02C6C2D1ED8B007
:10D9E0002D2A2E1ED8B02E2A800E2F56000E281A51
:10D9F000000E291A000E2A1A800E2B1A000E2C1A5D
:10DA0000000E2D1A000E2E1A800E2F1A2C50285C94
:10DA10002D5029582E502A582F502B58D8B013EF7C
:10DA20006DF015EF6DF018EF6DF0D89019EF6DF007
:10DA3000D8801200033404340A6E0A50D8A423EFAD
:10DA40006DF025EF6DF02FEF6DF0000E016E000E02
:10DA5000026E000E036E000E046E9CEF6DF001C0AE
:10DA600005F002C006F003C007F004C008F0200E65
:10DA70003FEF6DF0D8900832073206320532E82EBB
:10DA80003AEF6DF00550096E038EFF0E0116FF0E82
:10DA90000216FF0E0316000E0416960E0A5E0ABE4C
:10DAA00056EF6DF054EF6DF06CEF6DF00A50800A98
:10DAB000970FD8B05EEF6DF060EF6DF062EF6DF034
:10DAC00025EF6DF0D89004320332023201320A3E63
:10DAD00062EF6DF084EF6DF01F0E0A6472EF6DF06F
:10DAE00074EF6DF07CEF6DF025EF6DF0D89001369E
:10DAF0000236033604360A060A50D8A482EF6DF0C7
:10DB000084EF6DF076EF6DF00950D8B48AEF6DF0C8
:10DB10008CEF6DF094EF6DF0041E031E021E016C7D
:10DB2000000E02220322042201C001F002C002F012
:10DB300003C003F004C004F01200096E0950D8B409
:10DB4000A4EF6DF0A6EF6DF0C8EF6DF004BEADEF81
:10DB50006DF0ABEF6DF0C8EF6DF001C005F002C0E5
:10DB600006F003C007F004C008F0051E061E071EDD
:10DB7000081E052A000E06220722082205C00BF007
:10DB800006C00CF007C00DF008C00EF0D0EF6DF02D
:10DB900001C00BF002C00CF003C00DF004C00EF089
:10DBA0000150021003100410D8A4D9EF6DF0DBEF80
:10DBB0006DF0E5EF6DF0000E016E000E026E000ECE
:10DBC000036E000E046E76EF6EF0960E0A6EEFEFA7
:10DBD0006DF00A2AD8900E320D320C320B32000E44
:10DBE0000B14056E000E0C14066E000E0D14076E5D
:10DBF000FE0E0E14086E0550061007100810D8A46B
:10DC000004EF6EF006EF6EF0E9EF6DF014EF6EF0DA
:10DC10000A2A010E0B26000E0C220D220E22D8908D
:10DC20000E320D320C320B32000E0B14056E000E4C
:10DC30000C14066E000E0D14076EFF0E0E14086E07
:10DC40000550061007100810D8A429EF6EF02BEF2E
:10DC50006EF008EF6EF033EF6EF00A06D8900B36D8
:10DC60000C360D360E360DBE38EF6EF03AEF6EF014
:10DC700042EF6EF0020E0A6040EF6EF042EF6EF07F
:10DC80002DEF6EF00AB047EF6EF049EF6EF04AEFFD
:10DC90006EF00D9ED8900A320AC005F0066A076A37
:10DCA000086A05C008F0076A066A056A05500B1283
:10DCB00006500C1207500D1208500E120950D8B41D
:10DCC00064EF6EF066EF6EF06EEF6EF004BE6DEF17
:10DCD0006EF06BEF6EF06EEF6EF00E8E0BC001F01B
:10DCE0000CC002F00DC003F00EC004F01200C8C05A
:10DCF00051F0C9C052F0CAC053F0CBC054F041C07B
:10DD000051F042C052F043C053F044C054F0810E71
:10DD1000456EFF0E466E51C047F052C048F053C0EA
:10DD200049F054C04AF0180E9BEF6EF0D8904A327A
:10DD3000493248324732E82E96EF6EF0475045247C
:10DD40004F6E000E4620506E50BEB0EF6EF0505039
:10DD500009E1170E4F5CD8A0B0EF6EF0B2EF6EF095
:10DD6000BCEF6EF041C041F042C042F043C043F00E
:10DD700044C044F07FEF6FF050BEC1EF6EF0C3EFD0
:10DD80006EF033EF6FF04FC045F0FF0E466EFF0EA2
:10DD9000476E7F0E486E000E496E4566D2EF6EF0FC
:10DDA000DAEF6EF049344932483247324632452E76
:10DDB000CDEF6EF046C04BF047C04CF048C04DF080
:10DDC00049C04EF04B505114456E4C505214466EA3
:10DDD0004D505314476E4E505414486E45504610E3
:10DDE00047104810D8A4F7EF6EF0F9EF6EF0FBEF94
:10DDF0006EF0B2EF6EF051C045F052C046F053C025
:10DE000047F054C048F0200E0BEF6FF0D890483226
:10DE1000473246324532E82E06EF6FF04550461045
:10DE200047104810D8B417EF6FF019EF6FF021EFDB
:10DE30006FF04B5051264C5052224D5053224E50B1
:10DE400054224B1C456E4C1C466E4D1C476E4E1C9E
:10DE5000486E45505116465052164750531648507A
:10DE6000541677EF6FF051C045F052C046F053C0E2
:10DE700047F054C048F0200E43EF6FF0D89048327E
:10DE8000473246324532E82E3EEF6FF0455046109D
:10DE900047104810D8A44FEF6FF051EF6FF05BEFD1
:10DEA0006FF0000E516E000E526E000E536E000E9B
:10DEB000546E77EF6FF0D8905134456E5234466E01
:10DEC0005334476E5434486E45504610471048103E
:10DED000D8B46DEF6FF06FEF6FF077EF6FF0000E6B
:10DEE000516E000E526E800E536EBF0E546E51C0B6
:10DEF00041F052C042F053C043F054C044F012000D
:10DF000000018E51D96EDA6ADECFF6FFDDCFF7FF62
:10DF1000F86A0800F550250AD8A491EF6FF093EF46
:10DF20006FF0B9EF70F08E51D96EDA6ADE2A000E0A
:10DF3000DD22D96B000ED86FD8C0E0F0DA69DB695A
:10DF40008E51D96EDA6ADECFF6FFDDCFF7FFF86AC1
:10DF50000800F5502E0AD8A4B0EF6FF0B2EF6FF0C2
:10DF6000C2EF6FF08E51D96EDA6ADE2A000EDD2222
:10DF70008EC001F08FC002F025EC6AF001C0DAF02B
:10DF800002C0DBF000018E51D96EDA6ADECF95F067
:10DF9000DDCF96F095C0F6FF96C0F7FFF86A08004F
:10DFA000F550750AD8A4D7EF6FF0D9EF6FF00DEFE9
:10DFB00070F08F51D96EDA6A020EDF26DF5CD96EFF
:10DFC000DA6ADECF90F0DECF91F0010E95255E6E1D
:10DFD000000E96215F6E8E51D96EDA6A5EC0DEFF4A
:10DFE0005FC0DDFF00EF70F08CC01CF08DC01DF035
:10DFF00090C01EF091C01FF0A8EC6BF0CDEF70F058
:10E0000095C0F6FF96C0F7FFF86A0800F550750A4C
:10E01000D8B4F4EF6FF00DEF70F08E51D96EDA6A6C
:10E02000DECF95F0DDCF96F095C0F6FF96C0F7FFF6
:10E03000F86A0800F5CF94F029EF70F0954B962B15
:10E0400038EF70F06C0E946F38EF70F0946B38EF1F
:10E0500070F094514C0AD8B41EEF70F02A0AD8B46C
:10E0600022EF70F00A0AD8B41EEF70F026EF70F0BD
:10E0700095C0F6FF96C0F7FFF86A0800F550660AEB
:10E08000D8A445EF70F047EF70F0B0EF70F071EF8B
:10E0900070F08F51D96EDA6ADFCF5EF0040EDF26A2
:10E0A0005E50D96EDA6ADECF90F0DECF91F0DECF2F
:10E0B00092F0DECF93F07CEF70F08F51D96EDA6A78
:10E0C000DFCF5EF0040EDF265E50D96EDA6ADECF57
:10E0D00090F0DECF91F0DECF92F0DECF93F07CEFC8
:10E0E00070F094514C0AD8B45DEF70F0200AD8B4A7
:10E0F00049EF70F07CEF70F0010E95255E6E000E1A
:10E1000096215F6E8E51D96EDA6A5EC0DEFF5FC007
:10E11000DDFFA3EF70F08CC055F08DC056F090C0BD
:10E1200057F091C058F092C059F093C05AF095C082
:10E13000F6FF96C0F7FFF86A0800F5CF5BF05DECDC
:10E140007AF0CDEF70F095C0F6FF96C0F7FFF86A51
:10E150000800F550660AD8B48BEF70F0B0EF70F09D
:10E1600000018E51D96EDA6ADE2A000EDD22CDEF73
:10E1700070F08E51D96EDA6ADECFF6FFDDCFF7FF91
:10E18000F86A0800F550036E046A8CC005F08DC073
:10E1900006F0DCEC6AF0B0EF70F012002B50800B50
:10E1A000386E2B502B243F6E2AAED9EF70F0DBEF88
:10E1B00070F0DCEF70F03F803F50D8B4E2EF70F0C9
:10E1C000E4EF70F0F8EF70F03F28D8A4EAEF70F0B9
:10E1D000ECEF70F0F4EF70F0000E286E000E296E78
:10E1E000000E2A6E000E2B6E2A8E2B6A00EF71F045
:10E1F000000E286E000E296E000E2A6E000E2B6E89
:10E200002F50800B381A2F502F24406E2EAE0BEF5C
:10E2100071F00DEF71F00EEF71F040804050D8B406
:10E2200014EF71F016EF71F02AEF71F04028D8A4C6
:10E230001CEF71F01EEF71F026EF71F0000E2C6EE6
:10E24000000E2D6E000E2E6E000E2F6E2E8E2F6A7B
:10E2500032EF71F0000E2C6E000E2D6E000E2E6E41
:10E26000000E2F6E2C502D102E102F10D8A43BEF27
:10E2700071F03DEF71F055EF71F0000E286E000E59
:10E28000296E000E2A6E000E2B6E800E2A127F0E53
:10E290002B1238502B1228C028F029C029F02AC090
:10E2A0002AF02BC02BF094EF72F03F50D8A45BEF14
:10E2B00071F05DEF71F067EF71F0000E286E000EE7
:10E2C000296E000E2A6E000E2B6E94EF72F04050F5
:10E2D0003FC030F0316A305E000E315A7F0E30247C
:10E2E000396E000E31203A6E28C034F029C035F066
:10E2F0002AC036F02BC037F0000E286E000E296EB3
:10E30000000E2A6E000E2B6E000E3B6E000E3C6E51
:10E31000000E3D6E000E3E6E406AC7EF71F0405039
:10E32000D8B495EF71F097EF71F0AEEF71F0D8902F
:10E330003436353636363736D890283629362A36AA
:10E340002B363EAEA6EF71F0A8EF71F0A9EF71F099
:10E350002880D8903B363C363D363E362C50345CD7
:10E360002D5035582E5036582F503758D8A0BBEF67
:10E3700071F0BDEF71F0C6EF71F03E8C2C50345E41
:10E380002D50355A2E50365A2F50375A402A190ED2
:10E390004064CDEF71F0CFEF71F08FEF71F034503A
:10E3A000351036103710D8B4D8EF71F0DAEF71F0BD
:10E3B000F2EF71F03B80F2EF71F0D89028362936F9
:10E3C0002A362B363EAEE7EF71F0E9EF71F0EAEF57
:10E3D00071F02880D8903B363C363D363E363906C3
:10E3E000D8A03A062AAEF7EF71F0F9EF71F0DDEF41
:10E3F00071F0406A3EAEFFEF71F001EF72F025EF71
:10E4000072F0FF0E3B14306EFF0E3C14316EFF0EA7
:10E410003D14326E7F0E3E14336E30503110321088
:10E420003310D8B416EF72F018EF72F01CEF72F0E0
:10E43000010E406E25EF72F028A021EF72F023EF5D
:10E4400072F025EF72F018EF72F04050D8B42BEF55
:10E4500072F02DEF72F051EF72F0010E2826000ECF
:10E4600029222A222B222BA038EF72F03AEF72F0E9
:10E4700051EF72F028C030F029C031F02AC032F0DC
:10E480002BC033F03334333232323132303230C099
:10E4900028F031C029F032C02AF033C02BF0394ABD
:10E4A0003A2A3ABE5CEF72F03A5008E13928D8A017
:10E4B0005CEF72F05EEF72F069EF72F0000E3A6E90
:10E4C0003968000E286E000E296E000E2A6E000EAE
:10E4D0002B6E3ABE76EF72F03A5006E13904D8B0AE
:10E4E00074EF72F076EF72F082EF72F03A6A000E1B
:10E4F000396E000E286E000E296E000E2A6E000E78
:10E500002B6E386A39C03FF03FA089EF72F08BEF75
:10E5100072F08EEF72F02A8E8FEF72F02A9ED890F2
:10E520003F302B6E49EF71F012001250800B1B6EC2
:10E5300012501224216E11AEA0EF72F0A2EF72F011
:10E54000A3EF72F021802150D8B4A9EF72F0ABEFA5
:10E5500072F0BEEF72F02128D8A4B1EF72F0B3EFE1
:10E5600072F0BBEF72F0000E0F6E000E106E000E18
:10E57000116E000E126E118EC6EF72F0000E0F6E4D
:10E58000000E106E000E116E000E126E1650800BF3
:10E590001B1A165016241C6E15AED1EF72F0D3EF75
:10E5A00072F0D4EF72F01C801C50D8B4DAEF72F025
:10E5B000DCEF72F0EFEF72F01C28D8A4E2EF72F0FB
:10E5C000E4EF72F0ECEF72F0000E136E000E146EBA
:10E5D000000E156E000E166E158EF7EF72F0000E1F
:10E5E000136E000E146E000E156E000E166E1C508B
:10E5F000D8B4FDEF72F0FFEF72F007EF73F0215027
:10E60000D8A405EF73F007EF73F011EF73F0000E6D
:10E610000F6E000E106E000E116E000E126EA7EF40
:10E6200074F015500F02F3CF26F0F4CF27F02650E8
:10E630001D6E1E6A1F6A206A2750226E236A246A92
:10E64000256A14501002F3CF26F0F4CF27F026509D
:10E650001D26000E1E221F22202227502226000ED9
:10E6600023222422252213501102F3CF26F0F4CFC7
:10E6700027F026501D26000E1E221F222022275082
:10E680002226000E2322242225221FC020F01EC095
:10E690001FF01DC01EF01D6A13501002F3CF26F0AC
:10E6A000F4CF27F026501D2627501E22000E1F22D1
:10E6B000000E202214500F02F3CF26F0F4CF27F0E3
:10E6C00026501D2627501E22000E1F22000E20223B
:10E6D0001FC020F01EC01FF01DC01EF01D6A135089
:10E6E0000F02F3CF26F0F4CF27F026501D26275037
:10E6F0001E22000E1F22000E202215501002F3CF02
:10E7000026F0F4CF27F02650222627502322000E91
:10E710002422000E252214501102F3CF26F0F4CF4C
:10E7200027F02650222627502322000E2422000EF6
:10E73000252215501102F3CF26F0F4CF27F02650F2
:10E74000176E2750186E196A1A6A19C01AF018C085
:10E7500019F017C018F0176A1750222618502322F4
:10E76000195024221A5025221DC017F01EC018F07F
:10E770001FC019F020C01AF0190EC4EF73F0D89022
:10E780001A32193218321732E82EBFEF73F01750D1
:10E79000222618502322195024221A5025221FC045
:10E7A00020F01EC01FF01DC01EF01D6A1C5021C0AD
:10E7B00017F0186A1726000E1822820E1724266EEC
:10E7C000FF0E1820276EFAEF73F0D890223623360A
:10E7D0002436253620AEEFEF73F0F1EF73F0F2EF51
:10E7E00073F02280D8901D361E361F36203626063E
:10E7F000D8A0270624AEFFEF73F001EF74F0E5EF29
:10E8000073F01C6A20AE07EF74F009EF74F02DEF7F
:10E8100074F0FF0E1D14176EFF0E1E14186EFF0EFF
:10E820001F14196E7F0E20141A6E1750181019102D
:10E830001A10D8B41EEF74F020EF74F024EF74F0C7
:10E84000010E1C6E2DEF74F022A029EF74F02BEF57
:10E8500074F02DEF74F020EF74F01C50D8B433EF47
:10E8600074F035EF74F059EF74F0010E2226000EAB
:10E8700023222422252225A040EF74F042EF74F0D9
:10E8800059EF74F022C017F023C018F024C019F01B
:10E8900025C01AF01A341A3219321832173217C03A
:10E8A00022F018C023F019C024F01AC025F0264A1F
:10E8B000272A27BE64EF74F0275008E12628D8A045
:10E8C00064EF74F066EF74F070EF74F0000E226E77
:10E8D000000E236E800E246E7F0E256E9DEF74F069
:10E8E00027BE7DEF74F0275006E12604D8B07BEFF9
:10E8F00074F07DEF74F088EF74F0000E226E000E5D
:10E90000236E000E246E000E256E1B6A9DEF74F0C0
:10E9100026C021F0FF0E2216FF0E23167F0E2416AE
:10E92000000E251621A097EF74F099EF74F09AEF7E
:10E9300074F0248ED8902130256E1B50251222C0F1
:10E940000FF023C010F024C011F025C012F0120007
:10E950000450800B0D6E045004240F6E03AEB3EF11
:10E9600074F0B5EF74F0B6EF74F00F800F50D8B4B8
:10E97000BCEF74F0BEEF74F0D2EF74F00F28D8A49F
:10E98000C4EF74F0C6EF74F0CEEF74F0000E016EB9
:10E99000000E026E000E036E000E046E038E046AFB
:10E9A000DAEF74F0000E016E000E026E000E036EC0
:10E9B000000E046E0850800B0E6E0D500E18D8B469
:10E9C000E4EF74F0E6EF74F0E7EF74F00D8C0850AC
:10E9D00008240E6E07AEEFEF74F0F1EF74F0F2EF73
:10E9E00074F00E800E50D8B4F8EF74F0FAEF74F0B3
:10E9F0000EEF75F00E28D8A400EF75F002EF75F059
:10EA00000AEF75F0000E056E000E066E000E076E22
:10EA1000000E086E078E086A16EF75F0000E056E80
:10EA2000000E066E000E076E000E086E0F500E5C94
:10EA3000D8B01DEF75F01FEF75F046EF75F00DAC17
:10EA400024EF75F026EF75F028EF75F0800E0D1AA3
:10EA50000FC010F00EC00FF010C00EF001C010F08B
:10EA600005C001F010C005F002C010F006C002F0B1
:10EA700010C006F003C010F007C003F010C007F08C
:10EA800004C010F008C004F010C008F0106A0F5065
:10EA90000EC009F00A6A095E000E0A5A0ABE5AEF51
:10EAA00075F00A5009E11A0E095CD8A05AEF75F00A
:10EAB0005CEF75F093EF75F0015002100310041035
:10EAC000D8A465EF75F068EF75F0010E69EF75F089
:10EAD000000E106E000E016E000E026E000E036E30
:10EAE000000E046E0EC00FF09CEF75F010A07BEFCF
:10EAF00075F07DEF75F083EF75F0D8901030010957
:10EB0000106E85EF75F0D890103201A08AEF75F085
:10EB10008CEF75F08DEF75F0108E043404320332F3
:10EB2000023201320F2A0E500F5CD8A09AEF75F016
:10EB30009CEF75F076EF75F00DBCA1EF75F0A3EFCB
:10EB400075F0E3EF75F00F50D8A4A9EF75F0ABEFB7
:10EB500075F0B5EF75F0000E016E000E026E000E3E
:10EB6000036E000E046E02EF77F00550012606508A
:10EB70000222075003220850042204A0C2EF75F0BD
:10EB8000C4EF75F070EF76F010A0C9EF75F0CBEF21
:10EB900075F0D1EF75F0D89010300109106ED3EFF9
:10EBA00075F0D890103201A0D8EF75F0DAEF75F05B
:10EBB000DBEF75F0108E043404320332023201327E
:10EBC0000F2A70EF76F00550015C0650025807508E
:10EBD00003580450800A096E0850800A0958D8B0BA
:10EBE000F4EF75F0F6EF75F021EF76F00150055C6B
:10EBF000096E025006580A6E035007580B6E0450F7
:10EC000008580C6EFF0E0924016EFF0E0A20026EDA
:10EC1000FF0E0B20036EFF0E0C20046E800E0D1AEB
:10EC2000106C1050D8A417EF76F019EF76F029EF9A
:10EC300076F0010E0126000E02220322042229EFA3
:10EC400076F00550015E0650025A0750035A0850EC
:10EC5000045A0150021003100410D8A432EF76F0C9
:10EC600034EF76F069EF76F01050D8A43AEF76F0F2
:10EC70003CEF76F069EF76F0000E016E000E026E4A
:10EC8000000E036E000E046E02EF77F0D89001368E
:10EC900002360336043610AE50EF76F052EF76F0BF
:10ECA00053EF76F0018010A058EF76F05AEF76F02F
:10ECB0005EEF76F0D880103660EF76F0D8901036A0
:10ECC0000F50D8B466EF76F068EF76F069EF76F023
:10ECD0000F0603AE6EEF76F070EF76F046EF76F04B
:10ECE0000E6A10AE76EF76F078EF76F090EF76F071
:10ECF00010C009F07F0E0916D8B481EF76F083EFCB
:10ED000076F087EF76F0010E0E6E90EF76F001A0B0
:10ED10008CEF76F08EEF76F090EF76F083EF76F072
:10ED20000E50D8B496EF76F098EF76F0C3EF76F009
:10ED3000010E0126000E02220322042204A0A3EFEA
:10ED400076F0A5EF76F0C3EF76F001C009F002C0CF
:10ED50000AF003C00BF004C00CF00C340C320B3280
:10ED60000A32093209C001F00AC002F00BC003F0F8
:10ED70000CC004F00F28D8B4C0EF76F0C2EF76F0E4
:10ED8000C3EF76F00F2A0F28D8B4C9EF76F0CBEF97
:10ED900076F0D3EF76F00F50D8A4D1EF76F0D3EF22
:10EDA00076F0E4EF76F0000E016E000E026E000EBB
:10EDB000036E000E046E0F50D8A4E1EF76F0E3EF7F
:10EDC00076F0E4EF76F00D6A0FA0E9EF76F0EBEF66
:10EDD00076F0EEEF76F0038EEFEF76F0039ED890AC
:10EDE0000F30046E0DAEF7EF76F0F9EF76F0FAEF34
:10EDF00076F0048E01C001F002C002F003C003F0FF
:10EE000004C004F01200F2EC64F0000E0101546F33
:10EE1000000E556F000E566F000E576F88960F014B
:10EE20001C9D1C9F0101626B8282210E0001A76F55
:10EE3000760EE82EFED7A72FFCD700008292210E77
:10EE40000001A76F760EE82EFED7A72FFCD7000093
:10EE50000101622B040E626530EF77F032EF77F03C
:10EE600014EF77F09E0E00019E6FFF0E9F6F4CEC2B
:10EE700065F0A30E0001A76F550EE82EFED7A72F51
:10EE8000FCD7100E0F6E020E106E5A0ED0EC67F00B
:10EE9000070E0001A76F7D0EE82EFED7A72FFCD727
:10EEA0000C0E0F6E5A0E34EC68F00001E76F0D0E79
:10EEB0000F6E5A0E34EC68F00001E66F070E000189
:10EEC000A76F7D0EE82EFED7A72FFCD7200E0F6E62
:10EED000100E106E5A0ED0EC67F0070E0001A76FEF
:10EEE0007D0EE82EFED7A72FFCD70C0E0F6E140E4A
:10EEF000106E5A0ED0EC67F0200E0F6E180E106ECA
:10EF00005A0ED0EC67F0829041EC6BF041C05BF19F
:10EF100042C05CF143C05DF144C05EF1F40E0001FB
:10EF2000D027010ED123000ED223000ED323CEEC26
:10EF300064F00009D8B49FEF77F0A1EF77F015EFF8
:10EF400078F0E5EC64F00101586FFAEF77F0B50E58
:10EF500000019E6FFE0E9F6F4CEC65F015EF78F090
:10EF6000820E00019E6FFF0E9F6FC3EC64F001C024
:10EF7000A0F002C0A1F05BC1A2F05CC1A3F05DC132
:10EF8000A4F05EC1A5F04CEC65F015EF78F0010E31
:10EF90000001E46F8282B70E9E6FFF0E9F6F4CECF4
:10EFA00065F015EF78F0010E0001E36F8380C80E65
:10EFB0009E6FFF0E9F6F4CEC65F015EF78F0010E21
:10EFC0000001E26F8382D80E9E6FFF0E9F6F4CECA4
:10EFD00065F015EF78F00001E46BE36BE26B829271
:10EFE00083908392E80E9E6FFF0E9F6F4CEC65F04E
:10EFF00015EF78F05851620AD8B4C7EF77F00A0AD3
:10F00000D8B4A7EF77F0010AD8B4D3EF77F0060AA7
:10F01000D8B4DFEF77F01F0AD8B4EBEF77F0060A29
:10F02000D8B4B0EF77F015EF78F05BC128F05CC191
:10F0300029F05DC12AF05EC12BF0000E2C6E000E8F
:10F040002D6EE80E2E6E400E2F6E98EC6CF0D8B040
:10F050002CEF78F02EEF78F088EF78F00101545122
:10F060000001D05DA76F010155510001D159A86F72
:10F07000010156510001D259A96F010157510001F8
:10F08000D359AA6FAA510DE1900EA75D5F0EA85942
:10F09000010EA959D8A04FEF78F051EF78F088EF22
:10F0A00078F00101616B000E606F61BF61EF78F075
:10F0B000615109E10F0E605DD8A061EF78F063EF58
:10F0C00078F065EF78F080EF78F08282310E000101
:10F0D000A76FB20EE82EFED7A72FFCD700000101C4
:10F0E000604B612B61BF7EEF78F0615109E10F0E3B
:10F0F000605DD8A07EEF78F080EF78F065EF78F073
:10F10000D0C054F1D1C055F1D2C056F1D3C057F19F
:10F11000230E0F6E5A0E34EC68F00001EE6FA30E52
:10F120000001A76F550EE82EFED7A72FFCD73A0E89
:10F130000F6E5A0E34EC68F00001ED6F3B0E0F6E4F
:10F140005A0E34EC68F00001EC6F110E0001A76F4D
:10F150003A0EE82EFED7A72FFCD700003C0E0F6E0C
:10F160005A0E34EC68F00001E96F3D0E0F6E5A0E36
:10F1700034EC68F00001E86FEC51A76FED51DE6FE1
:10F18000A7C0DFF0E851A76FE951DC6FA7C0DDF041
:10F19000E451D8B4CEEF78F0D0EF78F0D1EF78F03A
:10F1A0008282E351D8B4D7EF78F0D9EF78F0DAEF74
:10F1B00078F08380E251D8B4E0EF78F0E2EF78F0B5
:10F1C000E3EF78F08382E351D8B4E9EF78F0EBEF26
:10F1D00078F0F5EF78F0E251D8B4F1EF78F0F3EF92
:10F1E00078F0F5EF78F084EF77F00101596B0001CA
:10F1F000DF5109E1C00EDE5DD8A001EF79F003EF29
:10F2000079F010EF79F0DE05050EDF59D8B00BEF7D
:10F2100079F00DEF79F010EF79F0010E0101596FDF
:10F2200059C15FF101015A6B0001DE05050EDF597E
:10F23000D8A01DEF79F01FEF79F02BEF79F07D0E5C
:10F24000DF5DD8B026EF79F028EF79F02BEF79F079
:10F25000010E01015A6F5AC163F13DEF7AF0E3519B
:10F26000D8A435EF79F037EF79F038EF79F0839063
:10F27000E251D8A43EEF79F040EF79F041EF79F018
:10F280008392E451D8A447EF79F049EF79F04AEF3F
:10F2900079F0829201015F51D8B451EF79F053EFC8
:10F2A00079F058EF79F0010E0001E16F84EF77F00B
:10F2B0006351D8B45EEF79F060EF79F084EF77F0C6
:10F2C000020E0001E16F84EF77F0E351D8A46BEFF9
:10F2D00079F06DEF79F06EEF79F08380E251D8A488
:10F2E00074EF79F076EF79F077EF79F08382E4517B
:10F2F000D8A47DEF79F07FEF79F080EF79F082820A
:10F3000001016351D8B487EF79F089EF79F08BEF81
:10F3100079F060EF79F05F51D8A491EF79F093EF35
:10F3200079F084EF77F00001E16B84EF77F0E3513F
:10F33000D8A49DEF79F09FEF79F0AFEF79F083B02B
:10F34000A4EF79F0A7EF79F0010EA8EF79F0000EA5
:10F35000FF0AA76F8350A719FE0BA719836EE2510E
:10F36000D8A4B5EF79F0B7EF79F0C8EF79F083B2B0
:10F37000BCEF79F0BFEF79F0010EC0EF79F0000E2D
:10F38000FF0AA76FA7478350A719FD0BA719836E24
:10F39000E451D8A4CEEF79F0D0EF79F0D1EF79F045
:10F3A000828201016351D8A4D8EF79F0DAEF79F0C5
:10F3B00084EF77F0D0C0D4F0D1C0D5F0D2C0D6F071
:10F3C000D3C0D7F0030E0001E16F84EF77F0E35173
:10F3D000D8A4EDEF79F0EFEF79F0FFEF79F083B09B
:10F3E000F4EF79F0F7EF79F0010EF8EF79F0000E15
:10F3F000FF0AA76F8350A719FE0BA719836EE2516E
:10F40000D8A405EF7AF007EF7AF018EF7AF083B21C
:10F410000CEF7AF00FEF7AF0010E10EF7AF0000E99
:10F42000FF0AA76FA7478350A719FD0BA719836E83
:10F43000E451D8A41EEF7AF020EF7AF021EF7AF0B1
:10F440008282D451D05DA76FD551D159A86FD651C2
:10F45000D259A96FD751D359AA6FAA51A9110BE15B
:10F46000580EA75D1B0EA859D8A039EF7AF03BEFD4
:10F470007AF084EF77F093EF79F00001E151A76F14
:10F48000A86BA851000AD8B448EF7AF084EF77F05F
:10F49000A751000AD8B42FEF79F0010AD8B465EF6C
:10F4A00079F0030AD8B497EF79F0010AD8B4E7EFFE
:10F4B00079F084EF77F0FEEF7FF00001816B57C0A9
:10F4C00082F058C083F059C084F05AC085F085BFDF
:10F4D0006EEF7AF06CEF7AF082EF7AF0010E816FC6
:10F4E00082C001F083C002F084C003F085C004F044
:10F4F00014EC66F001C082F002C083F003C084F017
:10F5000004C085F00001876B000E866FD8C071F0D3
:10F51000D9C072F08151D8B490EF7AF092EF7AF0BE
:10F52000A4EF7AF08151D8A498EF7AF09AEF7AF0AC
:10F530009FEF7AF0676B2B0E666FA2EF7AF0676B26
:10F540002D0E666F66C081F082C001F083C002F0AC
:10F5500084C003F085C004F01CEC6CF001040210C0
:10F56000D8A4B5EF7AF0B7EF7AF0E9EF7AF00001BE
:10F570008151D8B4BEEF7AF0C0EF7AF0C8EF7AF0DC
:10F5800081C004F17107D8A07207876B010E866FE6
:10F59000040E8625016E010E8721026EF20E036EA7
:10F5A000FF0E046E30EC66F00001FD0E7127FF0EB9
:10F5B000722355C013F056C014F0040E156E010EE0
:10F5C000166E71C017F072C018F068EC68F049EF61
:10F5D0007FF082C001F083C002F084C003F085C0D8
:10F5E00004F01CEC6CF001500210D8A4FAEF7AF091
:10F5F000FCEF7AF01BEF7BF000018151D8B403EFF0
:10F600007BF005EF7BF00DEF7BF081C004F171071B
:10F61000D8A07207876B010E866F040E8625016ED7
:10F62000010E8721026EF60E036EFF0E046E30ECA3
:10F6300066F0D4EF7AF0000E0001886F000E896F3B
:10F64000800E8A6F3F0E8B6F706B000E6F6F82C0E3
:10F6500001F083C002F084C003F085C004F0000E06
:10F66000056E000E066E000E076E000E086ED0ECE2
:10F6700069F0D8B03EEF7BF040EF7BF01FEF7CF0FD
:10F680004DEF7BF073C088F074C089F075C08AF0CC
:10F6900076C08BF000016F4B702B88C00FF089C0D3
:10F6A00010F08AC011F08BC012F0000E136E000E25
:10F6B000146E200E156E410E166E95EC72F00FC092
:10F6C00073F010C074F011C075F012C076F0000134
:10F6D0007351825D016E74518359026E7551845964
:10F6E000036E76518559046E48EC67F004BE84EFD2
:10F6F0007BF004500310021009E1020E015CD8A057
:10F7000084EF7BF086EF7BF042EF7BF073C028F054
:10F7100074C029F075C02AF076C02BF082C02CF09E
:10F7200083C02DF084C02EF085C02FF098EC6CF0D3
:10F73000D8A09DEF7BF09FEF7BF042EF7BF00001C4
:10F740008851825D016E89518359026E8A518459B4
:10F75000036E8B518559046E48EC67F004BEBEEF12
:10F760007BF004500310021007E1020E015CD8B0D8
:10F77000BCEF7BF0BEEF7BF006EF7CF088C082F040
:10F7800089C083F08AC084F08BC085F01FEF7CF0C5
:10F7900088C028F089C029F08AC02AF08BC02BF0DD
:10F7A000000E2C6E000E2D6E200E2E6E410E2F6E52
:10F7B000CEEC70F028C088F029C089F02AC08AF009
:10F7C0002BC08BF000016F07D8A070078851825DB5
:10F7D000016E89518359026E8A518459036E8B518F
:10F7E0008559046E48EC67F004BE04EF7CF00450C9
:10F7F0000310021007E1020E015CD8B002EF7CF0AA
:10F8000004EF7CF006EF7CF0BEEF7BF082C028F0C6
:10F8100083C029F084C02AF085C02BF088C02CF06A
:10F8200089C02DF08AC02EF08BC02FF098EC6CF0C0
:10F83000D8A01DEF7CF01FEF7CF0C8EF7BF05BC021
:10F8400069F069C06AF00001DBBF29EF7CF02BEFA3
:10F850007CF031EF7CF0DAC062F0DBC063F034EFB3
:10F860007CF0636B060E626F62C06DF063C06EF079
:10F870006D4B6E2B660E6A19D8A441EF7CF043EFF6
:10F880007CF062EF7CF070BF4AEF7CF048EF7CF0D8
:10F8900055EF7CF0000E886F000E896F800E8A6F26
:10F8A0003F0E8B6F706B000E6F6F670E6919D8B4C7
:10F8B0005CEF7CF05EEF7CF062EF7CF06F516D27C7
:10F8C00070516E23786B000E776F82C079F083C021
:10F8D0007AF084C07BF085C07CF088C073F089C06A
:10F8E00074F08AC075F08BC076F0F2EF7CF079C0CE
:10F8F00028F07AC029F07BC02AF07CC02BF088C0A9
:10F900002CF089C02DF08AC02EF08BC02FF0CEECE9
:10F9100070F028C041F029C042F02AC043F02BC04B
:10F9200044F077EC6EF041C07DF042C07EF043C001
:10F930007FF044C080F07DC001F07EC002F07FC047
:10F9400003F080C004F01AEC6DF001C06BF002C04F
:10F950006CF079C028F07AC029F07BC02AF07CC016
:10F960002BF07DC013F07EC014F07FC015F080C076
:10F9700016F088C00FF089C010F08AC011F08BC05B
:10F9800012F095EC72F00FC02CF010C02DF011C0E9
:10F990002EF012C02FF0ADEC66F028C079F029C02F
:10F9A0007AF02AC07BF02BC07CF088C028F089C098
:10F9B00029F08AC02AF08BC02BF0000E2C6E000EAE
:10F9C0002D6E200E2E6E410E2F6ECEEC70F028C0E4
:10F9D00088F029C089F02AC08AF02BC08BF0000182
:10F9E000774B782B6D51775D7851800A5C6E6E5144
:10F9F000800A5C58D8A0FFEF7CF001EF7DF077EF34
:10FA00007CF088C00FF089C010F08AC011F08BC064
:10FA100012F0000E136E000E146EA00E156E400E46
:10FA2000166E95EC72F00FC07DF010C07EF011C024
:10FA30007FF012C080F079C028F07AC029F07BC036
:10FA40002AF07CC02BF07DC02CF07EC02DF07FC052
:10FA50002EF080C02FF098EC6CF0D8B032EF7DF033
:10FA600034EF7DF03FEF7DF0000E00017D6F000E62
:10FA70007E6F000E7F6F000E806F68EF7DF079C0A3
:10FA800001F07AC002F07BC003F07CC004F07DC0BE
:10FA900005F07EC006F07FC007F080C008F0D0EC13
:10FAA00069F0D8A056EF7DF058EF7DF068EF7DF05B
:10FAB00000016BB15EEF7DF060EF7DF068EF7DF0EF
:10FAC000000E7D6F000E7E6F000E7F6F000E806F48
:10FAD00082C001F083C002F084C003F085C004F04E
:10FAE0007DC005F07EC006F07FC007F080C008F042
:10FAF000A8EC74F001C079F002C07AF003C07BF08A
:10FB000004C07CF079C028F07AC029F07BC02AF0CC
:10FB10007CC02BF0000E136E000E146E200E156EBE
:10FB2000410E166E73C00FF074C010F075C011F066
:10FB300076C012F095EC72F00FC02CF010C02DF0D2
:10FB400011C02EF012C02FF098EC6CF0D8A0ABEFE3
:10FB50007DF0ADEF7DF0D6EF7DF000016F4B702BA7
:10FB600073C00FF074C010F075C011F076C012F0C1
:10FB7000000E136E000E146E200E156E410E166EE2
:10FB800095EC72F00FC073F010C074F011C075F0F6
:10FB900012C076F0660E00016A19D8A4D2EF7DF08B
:10FBA000D4EF7DF0D6EF7DF06D4B6E2B73C088F0F7
:10FBB00074C089F075C08AF076C08BF06FC060F0B9
:10FBC00070C061F00001686B656B000E646F786B4C
:10FBD000000E776FD0EF7EF079C028F07AC029F060
:10FBE0007BC02AF07CC02BF088C02CF089C02DF09F
:10FBF0008AC02EF08BC02FF0CEEC70F028C041F000
:10FC000029C042F02AC043F02BC044F077EC6EF0DC
:10FC100041C07DF042C07EF043C07FF044C080F020
:10FC20007DC001F07EC002F07FC003F080C004F010
:10FC30001AEC6DF002BE28EF7EF0025007E10A0ECA
:10FC4000015CD8B026EF7EF028EF7EF038EF7EF032
:10FC50007DC001F07EC002F07FC003F080C004F0E0
:10FC60001AEC6DF001C06BF002C06CF03CEF7EF05E
:10FC700000016C6B090E6B6F00016851D8A443EF53
:10FC80007EF045EF7EF06DEF7EF061BF4CEF7EF0D1
:10FC90004AEF7EF06DEF7EF0040E8625D96E010EE0
:10FCA0008721DA6E2E0EDF6E864B872B7107D8A068
:10FCB0007207010E686F6DEF7EF0040E8625D96E17
:10FCC000010E8721DA6E300EDF6E864B872B7107AF
:10FCD000D8A072076407D8A0650764516511D8A43D
:10FCE00074EF7EF076EF7EF05DEF7EF0040E8625F9
:10FCF000D96E010E8721DA6E6B51300FDF6E864BA5
:10FD0000872B7107D8A0720779C028F07AC029F034
:10FD10007BC02AF07CC02BF07DC013F07EC014F0B5
:10FD20007FC015F080C016F088C00FF089C010F0B9
:10FD30008AC011F08BC012F095EC72F00FC02CF05D
:10FD400010C02DF011C02EF012C02FF0ADEC66F0F7
:10FD500028C079F029C07AF02AC07BF02BC07CF053
:10FD600088C028F089C029F08AC02AF08BC02BF007
:10FD7000000E2C6E000E2D6E200E2E6E410E2F6E7C
:10FD8000CEEC70F028C088F029C089F02AC08AF033
:10FD90002BC08BF000016007D8A06107774B782B50
:10FDA0006D51775D7851800A5C6E6E51800A5C58A7
:10FDB000D8B0DDEF7EF0DFEF7EF0EDEF7EF087BFB5
:10FDC000EBEF7EF0875109E14B0E865DD8A0EBEF9B
:10FDD0007EF0EDEF7EF0ECEF7DF0786B4F0E776FFD
:10FDE000040E7725D96E010E7821DA6EDF6A040ED3
:10FDF0005C6E010E5D6E86515C5E87515D5A775177
:10FE00005C24016E78515D20026E040E036E010EBB
:10FE1000046E86C005F087C006F0F5EC66F00001C0
:10FE20008651775D866F87517859876F8151D8A445
:10FE30001CEF7FF01FEF7FF0010E20EF7FF0000E30
:10FE4000776F786B8151D8B428EF7FF02AEF7FF07D
:10FE500035EF7FF08607D8A08707040E8625D96E78
:10FE6000010E8721DA6E81C0DFFF7751715F785113
:10FE7000725B55C013F056C014F0040E8625156E43
:10FE8000010E8721166E71C017F072C018F068EC71
:10FE900068F0120000A6C8E4C8F4C8F8D400D3D8AB
:10FEA000C888D266C86EC876C87EC886C88EC8960E
:10FEB000C8B0C83ECF0D0A5241434B2050524F5458
:10FEC0004543544F522046572056312E3231206838
:10FED000656C70206D656E75202D206B657962698B
:10FEE0006E6473200D0A76202D205072696E747333
:10FEF000206261747465727920766F6C74616765D5
:10FF0000206C6576656C200D0A62202D2054757278
:10FF10006E732062757A7A6572206F6E200D0A69A1
:10FF2000202D205475726E73204C45442042616E22
:10FF30006B2031206F6E200D0A6F202D20547572BA
:10FF40006E73204C45442042616E6B2032206F6EF0
:10FF5000200D0A70202D205475726E73204C45447C
:10FF60002042616E6B20312C20322C20616E642087
:10FF70007468652062757A7A6572206F6666200DF6
:10FF80000A00414443207261773A202575202042BF
:10FF90006174743A20252E326620560D0A00466997
:10FFA000726D776172652056657273696F6E20316C
:10FFB0002E322E310D0A0042757A7A657220456E16
:10FFC00061626C65640D0A004C45442042414E4B11
:10FFD0002031204F4E0D0A004C45442042414E4BEB
:10FFE0002032204F4E0D0A00416C6C206F66660D6A
:0BFFF0000A00696E66006E616E000082
:04FFFC001DEF65F0A0
:020000040030CA
:0C000000FCFFFFFF9FFFFFDFFFFFFFFF83
:00000001FF
