:04000000FEEF7FF0A0
:10C7D800959A120096801200968212009684120092
:10C7E800010E1200050E12009686120091501200DA
:10C7F8000E01C89112000E01C0911200968A968807
:10C808001200969A968812000E01C8811200016ED5
:10C8180001C091FF1200F0EC63F0010E1200F0EC81
:10C8280063F0020E1200F0EC63F0010E1200F2EC5D
:10C8380063F0000E120005EC64F0050E120002EC25
:10C8480064F00A0E120002EC64F0090E1200000EE9
:10C858004BEC66F012000001C793C66B0E0E120077
:10C868000001C793C66B0E0E120001C064F102C02E
:10C8780065F1120001C068F102C069F1120001C03F
:10C8880066F102C067F112000001C791F8EC63F08D
:10C89800040E12000001C781D880C1350BEC64F08A
:10C8A800050E12000001C781C151C1250BEC64F0CF
:10C8B800030E12000E01DC6BDD6BDE6BDF6BE06BD1
:10C8C800E16B12000E01C8A16CEF64F06EEF64F02A
:10C8D80066EF64F01200800E946E080E956E966AEC
:10C8E800030E926E959A1200700E0E01D36FD56BDF
:10C8F800D76B020ED96FD86B120005C001F006C0C5
:10C9080002F007C003F0000E55EC67F0120096BC69
:10C9180090EF64F093EF64F0010E94EF64F0000E72
:10C92800120005C001F006C002F007C003F0020EB5
:10C9380055EC67F012000F015F51046E036A5E51F7
:10C948000324016E000E0420026E12000E01C8BB03
:10C95800B0EF64F0B3EF64F0010EB4EF64F0000ED2
:10C968001200016E0E01C8A9BCEF64F0BEEF64F0BE
:10C97800B6EF64F001C099FF12000001F06B9CA2B1
:10C98800C8EF64F0CAEF64F0CCEF64F09C989C8820
:10C99800985012005EEC64F06FEC64F0FFEC66F007
:10C9A80078EC64F0C2EC65F02DEC66F01200E1EF73
:10C9B80064F066EC64F0BAEC68F00001C7B3E7EF26
:10C9C80064F0E9EF64F0DDEF64F01200026E80ECD1
:10C9D80065F00009D8B4F3EF64F0F5EF64F0EBEF1D
:10C9E80064F00250B5EC64F0120001EE00F0540E51
:10C9F800EE6AE806FDE100EEABF0460EEE6AE806E8
:10CA0800FDE10001F5EF76F00001C7A70EEF65F034
:10CA180010EF65F017EF65F001C0C2F002C0C3F077
:10CA280003C0C4F0C797120095BA1DEF65F01FEF59
:10CA380065F027EF65F0800E946E080E956E966A85
:10CA4800030E926E958A1200A00E0001A66F000ECA
:10CA5800976F000E986F9EC099F09FC09AF0A60E2F
:10CA68009B6FB1EC66F0120008C001F0000E036E77
:10CA7800020E026E08EC65F0000E056E000E066EE2
:10CA8800000E076E81EC64F0040E120008C001F07D
:10CA9800000E036E010E026E08EC65F0000E056EC6
:10CAA800000E066E000E076E81EC64F0020E120096
:10CAB80008C001F0000E036E020E026E08EC65F06D
:10CAC800000E056E000E066E000E076E81EC64F017
:10CAD800020E120008C001F0000E036E010E026E75
:10CAE80008EC65F0000E056E000E066E000E076E6F
:10CAF80081EC64F0040E1200016A0E01C8A987EFE8
:10CB080065F089EF65F092EF65F09DAA8EEF65F00C
:10CB180090EF65F092EF65F0010E016E0150120082
:10CB2800010E016E0001C7B39CEF65F09EEF65F042
:10CB3800A8EF65F0C795C169FCEC63F0FFEC63F002
:10CB4800ECEC63F0C6C001F001501200056E05C0A0
:10CB58005AFF0F015B8F5B9D5B815BB1B6EF65F0A0
:10CB6800B8EF65F0B1EF65F05F51046E036A5E518E
:10CB78000324016E000E0420026E1200656A666AC4
:10CB8800676A686A636A646A616A0F015A6B586BFC
:10CB9800596B546B100E556F566B606A536B516B23
:10CBA8001F0E526F840E5B6F576B12000850D96EC0
:10CBB800DA6A020ED926DF50016E0850D96EDA6A99
:10CBC800DECF02F0DDCF03F008EC65F0000E056E55
:10CBD800000E066E000E076E81EC64F0020E120065
:10CBE8000150021003100410D8B4FDEF65F0FFEFF8
:10CBF80065F007EF66F0000E011A000E021A000E2B
:10CC0800031A800E041A01C001F002C002F003C02A
:10CC180003F004C004F0120001C005F002C006F0E1
:10CC280003C0F6FF04C0F7FF034A042AF86A05C0E8
:10CC3800D9FF06C0DAFF054A062A0800F5CFDFFF4C
:10CC4800DF50D8A42AEF66F02CEF66F014EF66F0F8
:10CC58001200080E9E6E900E9C6E240E9D6E080E9D
:10CC68009A6E9B6A000E016E000E026E3EEC64F036
:10CC7800000E016E000E026E43EC64F0000E016EB1
:10CC8800000E026E39EC64F00001F06B1200066EC3
:10CC9800010E076E0001C7B354EF66F056EF66F059
:10CCA8006AEF66F0C783076A0650D8B45EEF66F08D
:10CCB80060EF66F064EF66F0010EC56F66EF66F030
:10CCC800020EC56FEEEC63F0DBEC64F00750120067
:10CCD800000E126E000E116E7DEF66F010C003F0AC
:10CCE800046A0EC005F00FC006F0C5EC6AF0114AE0
:10CCF800122A11500C24D96E12500D20DA6EDF5012
:10CD0800106E1050D8A48BEF66F08DEF66F072EFBE
:10CD180066F01200000E2C1A000E2D1A000E2E1AA4
:10CD2800800E2F1A28C001F029C002F02AC003F093
:10CD38002BC004F02CC005F02DC006F02EC007F063
:10CD48002FC008F09AEC74F001C028F002C029F056
:10CD580003C02AF004C02BF0120099C09CF09AC0BE
:10CD68009DF0C2EF66F097C08CF098C08DF09C0ED5
:10CD780000018E6F9BC08FF070EC6FF09CC0F6FFC7
:10CD88009DC0F7FFF86A0800F5500009D8A4CFEF56
:10CD980066F0D1EF66F0B7EF66F0000E0001986F0D
:10CDA800000E976F120003C00AF004C00BF001C018
:10CDB80008F002C009F0F1EF66F00AC0D9FF0BC015
:10CDC800DAFFDF50076E0A4A0B2A08C0D9FF09C0EC
:10CDD800DAFF07C0DFFF084A092A0506D8A00606B9
:10CDE800052806E10628D8A4FCEF66F0FEEF66F0F9
:10CDF800E1EF66F01200826A836A846AFC0E876E2D
:10CE0800FC0E886EBF0E896E670E0F011C6F1469C9
:10CE18000C69286B136B0B6B1B6B0A6B126B1A6B11
:10CE2800096911691969086910691869080E256F77
:10CE3800140E0E01B36F170EB06F0F0EF56F100EB4
:10CE4800F66F090EF86F130EB26F120004BE2FEFC3
:10CE580067F031EF67F03BEF67F001C001F002C007
:10CE680002F003C003F004C004F054EF67F001C0FF
:10CE780005F002C006F003C007F004C008F0051E64
:10CE8800061E071E081E052A000E06220722082273
:10CE980005C001F006C002F007C003F008C004F0A6
:10CEA8001200046E01500210D8B45DEF67F05FEF16
:10CEB80067F071EF67F00450020DF350AB0FD96EB5
:10CEC800DA6A01C0DEFF02C0DDFF0450B70FD96E79
:10CED800DA6A03C0DFFF80EF67F00450020DF350F9
:10CEE800AB0FD96EDA6AE80EDE6EC70EDD6E04503F
:10CEF800B70FD96EDA6ADF6A12000001C791020E15
:10CF0800C66F8FEF67F017EC64F0B1EF67F01BECBA
:10CF180064F0B1EF67F0B9C008F002D89DEF67F090
:10CF28000500FA6EAF51FD6EB051FE6EFF6AFA5001
:10CF38001200016E026A0250000AD8B4A6EF67F028
:10CF48008BEF67F00150020AD8B487EF67F0010A47
:10CF5800D8B487EF67F08BEF67F012000350041026
:10CF6800D8B4B9EF67F0BBEF67F0DFEF67F0010EF9
:10CF7800056EC3EF67F0D89003360436052A04AE71
:10CF8800C8EF67F0CAEF67F0BFEF67F00350015CC6
:10CF980004500258D8A0D3EF67F0D5EF67F0D9EF67
:10CFA80067F00350015E0450025AD89004320332ED
:10CFB800052ECAEF67F001C001F002C002F01200AE
:10CFC8000B6E0B504CEC68F00009D8B4EEEF67F02C
:10CFD800F0EF67F0E5EF67F0DC0E056ECA0E066E3F
:10CFE8000A0E076E81EC64F0090E016E000E036EE6
:10CFF800010E026E08EC65F0000E056E000E066E5E
:10D00800000E076E000E086E95EC64F02BEC64F0D1
:10D0180094EC65F0E806D8B414EF68F016EF68F001
:10D028000CEF68F012000A6E0B6A0A504CEC68F0BC
:10D038000009D8B422EF68F024EF68F019EF68F01F
:10D04800940E056ECA0E066E0B0E076E81EC64F028
:10D05800090E016E000E036E010E026E08EC65F0FB
:10D06800000E056E000E066E000E076E000E086EAE
:10D0780095EC64F02BEC64F094EC65F0E806D8B419
:10D0880048EF68F04AEF68F040EF68F00B50120084
:10D09800016E010E026E0001C7B555EF68F057EF3B
:10D0A80068F081EF68F001C0C1F0C793C785C791E8
:10D0B8000E0EC56F010EC06FF40EBF6FC787E80E66
:10D0C800AB6FC70EAC6FB76BE80EAD6FC70EAE6F28
:10D0D800B86BE80EAF6FC70EB06FB96BE80EB16FE3
:10D0E800C70EB26FBA6BEC0EB36FC70EB46FBB6BE3
:10D0F800FCEC63F018EC65F0026A0250120018BEEE
:10D108008AEF68F088EF68F08EEF68F0000E186E0E
:10D11800000E176E000E1B6E000E1A6EA0EF68F060
:10D12800000E046E200E036E13C005F014C006F046
:10D13800C5EC6AF01A4A1B2A17501A5C1B50800A61
:10D14800196E1850800A1958D8A0ADEF68F0AFEFE3
:10D1580068F094EF68F015C00CF016C00DF013C01D
:10D168000EF014C00FF06CEC66F01200FCEC63F0EB
:10D178000001C7A1C2EF68F0C4EF68F0D1EF68F012
:10D188008BEC64F00009D8B4CCEF68F0CEEF68F00F
:10D19800D1EF68F00F0E0001C56F0001C551020DF7
:10D1A800950EF324F66EFE0EF420F76EF86A000E64
:10D1B800F8220900F5CF04F00900F5CF05F002D8F0
:10D1C800EFEF68F00500FA6E0450FD6E0550FE6E34
:10D1D800FF6AFA5012000001C56F1200000E076EB8
:10D1E800000E066E03500410D8B4FDEF68F0FFEF90
:10D1F80068F027EF69F0010E056E07EF69F0D89027
:10D2080003360436052A04AE0CEF69F00EEF69F018
:10D2180003EF69F0D890063607360350015C0450D6
:10D228000258D8A01AEF69F01CEF69F021EF69F0F5
:10D238000350015E0450025A0680D890043203322B
:10D24800052E0EEF69F006C001F007C002F01200CB
:10D258000001C7873DEF69F017EC64F067EF69F0EC
:10D2680008EC64F0030E67EF69F01BEC64F067EFFD
:10D2780069F0B7C008F002D84BEF69F00500FA6E04
:10D28800AB51FD6EAC51FE6EFF6AFA501200016E92
:10D29800026A0250000AD8B454EF69F039EF69F015
:10D2A8000150010AD8B439EF69F0030AD8B430EF55
:10D2B80069F0010AD8B430EF69F0070AD8B434EF3E
:10D2C80069F039EF69F012000001C251D96EDA6ACB
:10D2D800FAEC63F0DF6E0001C22BC307D8A0C407C5
:10D2E800C351C411D8B47BEF69F07DEF69F082EFC8
:10D2F80069F005EC64F0050EB7EF69F0C7878DEFAC
:10D3080069F027EC64F0B7EF69F023EC64F0B7EF4D
:10D3180069F0B7C008F002D89BEF69F00500FA6E13
:10D32800AB51FD6EAC51FE6EFF6AFA501200016EF1
:10D33800026A0250000AD8B4A4EF69F089EF69F0D4
:10D348000150010AD8B489EF69F0030AD8B485EF0F
:10D3580069F0010AD8B485EF69F0070AD8B489EFF3
:10D3680069F089EF69F01200000E0114096E000ED1
:10D3780002140A6E800E03140B6E7F0E04140C6EDA
:10D3880009500A100B100C10D8A4CDEF69F0CFEF9C
:10D3980069F0D7EF69F0000E016E000E026E000E04
:10D3A800036E000E046E000E0514096E000E0614BE
:10D3B8000A6E800E07140B6E7F0E08140C6E09504F
:10D3C8000A100B100C10D8A4ECEF69F0EEEF69F01E
:10D3D800F6EF69F0000E056E000E066E000E076E81
:10D3E800000E086E055001180FE1065002180CE1F6
:10D3F8000750031809E108500418D8B406EF6AF07A
:10D4080008EF6AF00BEF6AF0D8900CEF6AF0D8805A
:10D418001200000E076E000E066E0150D96EDA6A11
:10D42800DECFF6FFDDCFF7FFF86A0800F5502A0ACD
:10D43800D8A421EF6AF023EF6AF04CEF6AF00150AC
:10D44800D96EDA6ADE2A000EDD220250D96EDA6A57
:10D45800020EDF26DF5CD96EDA6ADECF06F0DECF99
:10D4680007F060EF6AF00A0E0602F3CF03F0F4CF7C
:10D4780004F00702F350042605500324066E000E3C
:10D488000420076E0150D96EDA6ADE2A000EDD220A
:10D498000150D96EDA6ADECFF6FFDDCFF7FFF86A02
:10D4A8000800F550D00F056E090E05645EEF6AF0AE
:10D4B80060EF6AF037EF6AF006C001F007C002F0CB
:10D4C80012008BEC64F00009D8B46DEF6AF06FEFCE
:10D4D8006AF0A8EF6AF07DEF6AF00FEC64F0C4EF31
:10D4E8006AF013EC64F0C4EF6AF01BEC64F0C4EF6C
:10D4F8006AF0BAC008F002D88CEF6AF00500FA6E3C
:10D508000001B151FD6EB251FE6EFF6AFA50120071
:10D51800026E036A0350000AD8B495EF6AF079EFF7
:10D528006AF00250010AD8B479EF6AF0030AD8B455
:10D5380071EF6AF0010AD8B475EF6AF0070AD8B437
:10D5480079EF6AF079EF6AF00001C79120EEC2F036
:10D55800DF50DF2AD96EDA6ADF500BEC64F0000185
:10D56800C307D8A0C407C351C411D8A4BEEF6AF03A
:10D57800C0EF6AF0C3EF6AF0060EC4EF6AF0030E5C
:10D58800120005500610D8B4CCEF6AF0CEEF6AF05E
:10D59800D7EF6AF005500610D8A4D5EF6AF0D7EF98
:10D5A8006AF0DCEF6AF00350EAEC64F029EF6BF004
:10D5B80020EE09F00550D9260650DA22DE50DE109A
:10D5C800D8B4E9EF6AF0EBEF6AF006EF6BF020EE03
:10D5D80009F00550D9260650DA2210EE02F005505F
:10D5E800E1260650E222DE50E65CE650800A0B6E29
:10D5F800DE50800A0B58D8B004EF6BF006EF6BF0E2
:10D6080029EF6BF020EE02F00550D9260650DA22F9
:10D61800DECF07F0DDCF08F005C0D9FF06C0DAFF7E
:10D62800DECF09F0DDCF0AF007500924D96E085083
:10D638000A20DA6E03C0DFFF20EE02F00550D9267B
:10D648000650DA22DE2A000EDD2212008386FA0E48
:10D6580000D0E82EFDD70C0E0F015A6F0C0EAAEC65
:10D6680065F001C04DF002C04EF0330E136E330E5C
:10D67800146E530E156E400E166E4DC001F04EC05E
:10D6880002F0036A046A000E8DEC6DF001C00FF021
:10D6980002C010F003C011F004C012F087EC72F061
:10D6A8000FC028F010C029F011C02AF012C02BF0CA
:10D6B800000E2C6E000E2D6E800E2E6E440E2F6EF8
:10D6C800BFEC70F028C049F029C04AF02AC04BF0DE
:10D6D8002BC04CF049C00FF04AC010F04BC011F0FD
:10D6E8004CC012F0520E136EB80E146E3E0E156E2C
:10D6F800400E166E87EC72F00FC045F010C046F071
:10D7080011C047F012C048F045C041F046C042F091
:10D7180047C043F048C044F012000001DBBF99EF56
:10D728006BF097EF6BF09FEF6BF0000E236E010E1E
:10D73800226EA3EF6BF0DAC022F0DBC023F0D8C072
:10D7480020F0D9C021F0000E256E4F0E246E010185
:10D75800536BD9EF6BF02406D8A02506040E2424B9
:10D76800D96E010E2520DA6E1EC001F01FC002F02E
:10D77800000E046E0A0E036EB2EC67F00150300F13
:10D78800DF6E2206D8A023062006D8A021061EC0D8
:10D7980001F01FC002F0000E046E0A0E036EF2ECD8
:10D7A80068F001C01EF002C01FF024502510D8B444
:10D7B800E0EF6BF0E2EF6BF0F8EF6BF01E501F102C
:10D7C800D8A4E9EF6BF0EBEF6BF0AFEF6BF023BE93
:10D7D800F8EF6BF0235006E12204D8B0F6EF6BF0B7
:10D7E800F8EF6BF0AFEF6BF01CC013F01DC014F036
:10D7F800040E2424156E010E2520166E20C017F085
:10D8080021C018F083EC68F01200CCC00BF0CDC03A
:10D818000CF0CEC00DF0CFC00EF001C00BF002C06E
:10D828000CF003C00DF004C00EF00BC005F00CC0E6
:10D8380006F00DC007F00EC008F0180E29EF6CF0C6
:10D84800D8900832073206320532E82E24EF6CF001
:10D858000550096E0A6A09500A10D8A436EF6CF010
:10D8680038EF6CF058EF6CF0D8900B34056E0C3430
:10D87800066E0D34076E0E34086E0550061007103C
:10D888000810D8A44AEF6CF04CEF6CF052EF6CF033
:10D89800000E026E020E016E87EF6CF0000E026E33
:10D8A800030E016E87EF6CF009280A10D8A45FEF09
:10D8B8006CF061EF6CF083EF6CF00BC005F00CC0FE
:10D8C80006F00DC007F00EC008F0090ED890053616
:10D8D800063607360836E82E6AEF6CF00550061053
:10D8E80007100810D8B47BEF6CF07EEF6CF0010ED7
:10D8F8007FEF6CF0000E016E026A87EF6CF0000E8D
:10D90800026E040E016E1200000E2814306E000E16
:10D918002914316E800E2A14326E7F0E2B14336E4A
:10D928003050311032103310D8A49DEF6CF09FEFB7
:10D938006CF0A7EF6CF0000E286E000E296E000E3A
:10D948002A6E000E2B6E000E2C14306E000E2D1455
:10D95800316E800E2E14326E7F0E2F14336E3050BF
:10D96800311032103310D8A4BCEF6CF0BEEF6CF05D
:10D97800C6EF6CF0000E2C6E000E2D6E000E2E6E93
:10D98800000E2F6E2BAECBEF6CF0CDEF6CF0D6EF18
:10D998006CF0286C291ED8B0292A2A1ED8B02A2A49
:10D9A800800E2B562FAEDBEF6CF0DDEF6CF0E6EF60
:10D9B8006CF02C6C2D1ED8B02D2A2E1ED8B02E2A15
:10D9C800800E2F56000E281A000E291A000E2A1A49
:10D9D800800E2B1A000E2C1A000E2D1A000E2E1A6D
:10D9E800800E2F1A2C50285C2D5029582E502A585A
:10D9F8002F502B58D8B003EF6DF005EF6DF008EFFE
:10DA08006DF0D89009EF6DF0D8801200033404341B
:10DA18000A6E0A50D8A413EF6DF015EF6DF01FEFE2
:10DA28006DF0000E016E000E026E000E036E000E09
:10DA3800046E8CEF6DF001C005F002C006F003C063
:10DA480007F004C008F0200E2FEF6DF0D8900832D0
:10DA5800073206320532E82E2AEF6DF00550096EBE
:10DA6800038EFF0E0116FF0E0216FF0E0316000EA0
:10DA78000416960E0A5E0ABE46EF6DF044EF6DF08E
:10DA88005CEF6DF00A50800A970FD8B04EEF6DF03A
:10DA980050EF6DF052EF6DF015EF6DF0D890043245
:10DAA8000332023201320A3E52EF6DF074EF6DF02C
:10DAB8001F0E0A6462EF6DF064EF6DF06CEF6DF0AD
:10DAC80015EF6DF0D89001360236033604360A0693
:10DAD8000A50D8A472EF6DF074EF6DF066EF6DF038
:10DAE8000950D8B47AEF6DF07CEF6DF084EF6DF0EB
:10DAF800041E031E021E016C000E022203220422D1
:10DB080001C001F002C002F003C003F004C004F039
:10DB18001200096E0950D8B494EF6DF096EF6DF0CD
:10DB2800B8EF6DF004BE9DEF6DF09BEF6DF0B8EFB0
:10DB38006DF001C005F002C006F003C007F004C094
:10DB480008F0051E061E071E081E052A000E0622DE
:10DB58000722082205C00BF006C00CF007C00DF024
:10DB680008C00EF0C0EF6DF001C00BF002C00CF061
:10DB780003C00DF004C00EF0015002100310041091
:10DB8800D8A4C9EF6DF0CBEF6DF0D5EF6DF0000EB6
:10DB9800016E000E026E000E036E000E046E66EF3C
:10DBA8006EF0960E0A6EDFEF6DF00A2AD8900E32EC
:10DBB8000D320C320B32000E0B14056E000E0C14D5
:10DBC800066E000E0D14076EFE0E0E14086E05503C
:10DBD800061007100810D8A4F4EF6DF0F6EF6DF0FA
:10DBE800D9EF6DF004EF6EF00A2A010E0B26000E35
:10DBF8000C220D220E22D8900E320D320C320B322E
:10DC0800000E0B14056E000E0C14066E000E0D149B
:10DC1800076EFF0E0E14086E055006100710081048
:10DC2800D8A419EF6EF01BEF6EF0F8EF6DF023EF4C
:10DC38006EF00A06D8900B360C360D360E360DBE31
:10DC480028EF6EF02AEF6EF032EF6EF0020E0A60E7
:10DC580030EF6EF032EF6EF01DEF6EF00AB037EF76
:10DC68006EF039EF6EF03AEF6EF00D9ED8900A32F2
:10DC78000AC005F0066A076A086A05C008F0076A5C
:10DC8800066A056A05500B1206500C1207500D1251
:10DC980008500E120950D8B454EF6EF056EF6EF0DB
:10DCA8005EEF6EF004BE5DEF6EF05BEF6EF05EEF60
:10DCB8006EF00E8E0BC001F00CC002F00DC003F028
:10DCC8000EC004F01200C8C051F0C9C052F0CAC05A
:10DCD80053F0CBC054F041C051F042C052F043C0A1
:10DCE80053F044C054F0810E456EFF0E466E51C08D
:10DCF80047F052C048F053C049F054C04AF0180EDB
:10DD08008BEF6EF0D8904A32493248324732E82ECB
:10DD180086EF6EF0475045244F6E000E4620506E39
:10DD280050BEA0EF6EF0505009E1170E4F5CD8A01E
:10DD3800A0EF6EF0A2EF6EF0ACEF6EF041C041F0D4
:10DD480042C042F043C043F044C044F06FEF6FF06C
:10DD580050BEB1EF6EF0B3EF6EF023EF6FF04FC02F
:10DD680045F0FF0E466EFF0E476E7F0E486E000EA2
:10DD7800496E4566C2EF6EF0CAEF6EF0493449321B
:10DD8800483247324632452EBDEF6EF046C04BF062
:10DD980047C04CF048C04DF049C04EF04B505114AC
:10DDA800456E4C505214466E4D505314476E4E50AB
:10DDB8005414486E4550461047104810D8A4E7EF51
:10DDC8006EF0E9EF6EF0EBEF6EF0A2EF6EF051C07F
:10DDD80045F052C046F053C047F054C048F0200EFA
:10DDE800FBEF6EF0D8904832473246324532E82E83
:10DDF800F6EF6EF04550461047104810D8B407EFBC
:10DE08006FF009EF6FF011EF6FF04B5051264C5047
:10DE180052224D5053224E5054224B1C456E4C1CDE
:10DE2800466E4D1C476E4E1C486E45505116465066
:10DE38005216475053164850541667EF6FF051C0AA
:10DE480045F052C046F053C047F054C048F0200E89
:10DE580033EF6FF0D8904832473246324532E82ED9
:10DE68002EEF6FF04550461047104810D8A43FEFEA
:10DE78006FF041EF6FF04BEF6FF0000E516E000E38
:10DE8800526E000E536E000E546E67EF6FF0D8900E
:10DE98005134456E5234466E5334476E5434486E8E
:10DEA8004550461047104810D8B45DEF6FF05FEF4B
:10DEB8006FF067EF6FF0000E516E000E526E800E1D
:10DEC800536EBF0E546E51C041F052C042F053C061
:10DED80043F054C044F0120000018E51D96EDA6A42
:10DEE800DECFF6FFDDCFF7FFF86A0800F550250A08
:10DEF800D8A481EF6FF083EF6FF0AAEF70F08E5126
:10DF0800D96EDA6ADE2A000EDD22000ED96F000E05
:10DF1800D86FD8C0E0F0DA69DB698E51D96EDA6A59
:10DF2800DECFF6FFDDCFF7FFF86A0800F5502E0ABE
:10DF3800D8A4A1EF6FF0A3EF6FF0B3EF6FF08E519D
:10DF4800D96EDA6ADE2A000EDD228EC001F08FC09B
:10DF580002F00DEC6AF001C0DAF002C0DBF000015B
:10DF68008E51D96EDA6ADECF95F0DDCF96F095C086
:10DF7800F6FF96C0F7FFF86A0800F550750AD8A4AE
:10DF8800C8EF6FF0CAEF6FF0FEEF6FF08F51D96EE8
:10DF9800DA6A020EDF26DF5CD96EDA6ADECF90F02D
:10DFA800DECF91F0010E95255E6E000E96215F6E14
:10DFB8008E51D96EDA6A5EC0DEFF5FC0DDFFF1EF19
:10DFC8006FF08CC01CF08DC01DF090C01EF091C089
:10DFD8001FF091EC6BF0BEEF70F095C0F6FF96C0A5
:10DFE800F7FFF86A0800F550750AD8B4E5EF6FF046
:10DFF800FEEF6FF08E51D96EDA6ADECF95F0DDCF85
:10E0080096F095C0F6FF96C0F7FFF86A0800F5CFBE
:10E0180094F01AEF70F0954B962B29EF70F06C0E78
:10E02800946F29EF70F0946B29EF70F094514C0ABB
:10E03800D8B40FEF70F02A0AD8B413EF70F00A0AB8
:10E04800D8B40FEF70F017EF70F095C0F6FF96C0D8
:10E05800F7FFF86A0800F550660AD8A436EF70F0A2
:10E0680038EF70F0A1EF70F062EF70F08F51D96E59
:10E07800DA6ADFCF5EF0040EDF265E50D96EDA6A08
:10E08800DECF90F0DECF91F0DECF92F0DECF93F0CE
:10E098006DEF70F08F51D96EDA6ADFCF5EF0040E43
:10E0A800DF265E50D96EDA6ADECF90F0DECF91F0CF
:10E0B800DECF92F0DECF93F06DEF70F094514C0A02
:10E0C800D8B44EEF70F0200AD8B43AEF70F06DEF84
:10E0D80070F0010E95255E6E000E96215F6E8E51D2
:10E0E800D96EDA6A5EC0DEFF5FC0DDFF94EF70F0C4
:10E0F8008CC055F08DC056F090C057F091C058F0C4
:10E1080092C059F093C05AF095C0F6FF96C0F7FF39
:10E11800F86A0800F5CF5BF050EC7AF0BEEF70F0CB
:10E1280095C0F6FF96C0F7FFF86A0800F550660A32
:10E13800D8B47CEF70F0A1EF70F000018E51D96E69
:10E14800DA6ADE2A000EDD22BEEF70F08E51D96E3B
:10E15800DA6ADECFF6FFDDCFF7FFF86A0800F55080
:10E16800036E046A8CC005F08DC006F0C5EC6AF039
:10E17800A1EF70F012002B50800B386E2B502B241F
:10E188003F6E2AAECAEF70F0CCEF70F0CDEF70F0B2
:10E198003F803F50D8B4D3EF70F0D5EF70F0E9EF7F
:10E1A80070F03F28D8A4DBEF70F0DDEF70F0E5EFFA
:10E1B80070F0000E286E000E296E000E2A6E000EFA
:10E1C8002B6E2A8E2B6AF1EF70F0000E286E000E6F
:10E1D800296E000E2A6E000E2B6E2F50800B381AF7
:10E1E8002F502F24406E2EAEFCEF70F0FEEF70F033
:10E1F800FFEF70F040804050D8B405EF71F007EFA2
:10E2080071F01BEF71F04028D8A40DEF71F00FEFFB
:10E2180071F017EF71F0000E2C6E000E2D6E000ECF
:10E228002E6E000E2F6E2E8E2F6A23EF71F0000EC9
:10E238002C6E000E2D6E000E2E6E000E2F6E2C50C2
:10E248002D102E102F10D8A42CEF71F02EEF71F096
:10E2580046EF71F0000E286E000E296E000E2A6E31
:10E26800000E2B6E800E2A127F0E2B1238502B12A6
:10E2780028C028F029C029F02AC02AF02BC02BF08A
:10E2880086EF72F03F50D8A44CEF71F04EEF71F06A
:10E2980058EF71F0000E286E000E296E000E2A6EDF
:10E2A800000E2B6E86EF72F040503FC030F0316A9E
:10E2B800305E000E315A7F0E3024396E000E312048
:10E2C8003A6E28C034F029C035F02AC036F02BC089
:10E2D80037F0000E286E000E296E000E2A6E000E12
:10E2E8002B6E000E3B6E000E3C6E000E3D6E000E57
:10E2F8003E6E406AB8EF71F04050D8B486EF71F0C6
:10E3080088EF71F09FEF71F0D89034363536363695
:10E318003736D890283629362A362B363EAE97EF30
:10E3280071F099EF71F09AEF71F02880D8903B3630
:10E338003C363D363E362C50345C2D5035582E50E8
:10E3480036582F503758D8A0ACEF71F0AEEF71F0B7
:10E35800B7EF71F03E8C2C50345E2D50355A2E504C
:10E36800365A2F50375A402A190E4064BEEF71F0C2
:10E37800C0EF71F080EF71F034503510361037105F
:10E38800D8B4C9EF71F0CBEF71F0E3EF71F03B80D7
:10E39800E3EF71F0D890283629362A362B363EAE70
:10E3A800D8EF71F0DAEF71F0DBEF71F02880D890D8
:10E3B8003B363C363D363E363906D8A03A062AAEBC
:10E3C800E8EF71F0EAEF71F0CEEF71F0406A3EAE1F
:10E3D800F0EF71F0F2EF71F016EF72F0FF0E3B14F0
:10E3E800306EFF0E3C14316EFF0E3D14326E7F0E00
:10E3F8003E14336E3050311032103310D8B407EF5A
:10E4080072F009EF72F00DEF72F0010E406E16EF28
:10E4180072F028A012EF72F014EF72F016EF72F09B
:10E4280009EF72F04050D8B41CEF72F01EEF72F092
:10E4380042EF72F0010E2826000E29222A222B22F2
:10E448002BA029EF72F02BEF72F042EF72F028C088
:10E4580030F029C031F02AC032F02BC033F0333409
:10E46800333232323132303230C028F031C029F004
:10E4780032C02AF033C02BF0394A3A2A3ABE4DEF5F
:10E4880072F03A5008E13928D8A04DEF72F04FEFFA
:10E4980072F05AEF72F0000E3A6E3968000E286E6C
:10E4A800000E296E000E2A6E000E2B6E3ABE67EF24
:10E4B80072F03A5006E13904D8B065EF72F067EFB0
:10E4C80072F074EF72F0000E3A6E000E396E000EA4
:10E4D800286E000E296E000E2A6E000E2B6E386A0A
:10E4E80039C03FF03FA07BEF72F07DEF72F080EF14
:10E4F80072F02A8E81EF72F02A9ED8903F302B6EF0
:10E508003AEF71F012001250800B1B6E1250122459
:10E51800216E11AE92EF72F094EF72F095EF72F0F7
:10E5280021802150D8B49BEF72F09DEF72F0B0EFCC
:10E5380072F02128D8A4A3EF72F0A5EF72F0ADEF26
:10E5480072F0000E0F6E000E106E000E116E000EAF
:10E55800126E118EB8EF72F0000E0F6E000E106E74
:10E56800000E116E000E126E1650800B1B1A1650FC
:10E5780016241C6E15AEC3EF72F0C5EF72F0C6EF2D
:10E5880072F01C801C50D8B4CCEF72F0CEEF72F051
:10E59800E1EF72F01C28D8A4D4EF72F0D6EF72F035
:10E5A800DEEF72F0000E136E000E146E000E156E84
:10E5B800000E166E158EE9EF72F0000E136E000E47
:10E5C800146E000E156E000E166E1C50D8B4EFEFC8
:10E5D80072F0F1EF72F0F9EF72F02150D8A4F7EF72
:10E5E80072F0F9EF72F003EF73F0000E0F6E000E89
:10E5F800106E000E116E000E126E99EF74F0155029
:10E608000F02F3CF26F0F4CF27F026501D6E1E6AB6
:10E618001F6A206A2750226E236A246A256A1450CA
:10E628001002F3CF26F0F4CF27F026501D26000E57
:10E638001E221F22202227502226000E23222422B7
:10E64800252213501102F3CF26F0F4CF27F02650DD
:10E658001D26000E1E221F22202227502226000ED1
:10E668002322242225221FC020F01EC01FF01DC017
:10E678001EF01D6A13501002F3CF26F0F4CF27F0D6
:10E6880026501D2627501E22000E1F22000E202273
:10E6980014500F02F3CF26F0F4CF27F026501D2692
:10E6A80027501E22000E1F22000E20221FC020F01D
:10E6B8001EC01FF01DC01EF01D6A13500F02F3CFBD
:10E6C80026F0F4CF27F026501D2627501E22000ED4
:10E6D8001F22000E202215501002F3CF26F0F4CF8F
:10E6E80027F02650222627502322000E2422000E2F
:10E6F800252214501102F3CF26F0F4CF27F026502C
:10E70800222627502322000E2422000E25221550EF
:10E718001102F3CF26F0F4CF27F02650176E2750BA
:10E72800186E196A1A6A19C01AF018C019F017C0B9
:10E7380018F0176A1750222618502322195024223D
:10E748001A5025221DC017F01EC018F01FC019F05E
:10E7580020C01AF0190EB6EF73F0D8901A32193299
:10E7680018321732E82EB1EF73F0175022261850DE
:10E778002322195024221A5025221FC020F01EC01F
:10E788001FF01DC01EF01D6A1C5021C017F0186A2A
:10E798001726000E1822820E1724266EFF0E182048
:10E7A800276EECEF73F0D8902236233624362536C0
:10E7B80020AEE1EF73F0E3EF73F0E4EF73F0228043
:10E7C800D8901D361E361F3620362606D8A02706B6
:10E7D80024AEF1EF73F0F3EF73F0D7EF73F01C6A28
:10E7E80020AEF9EF73F0FBEF73F01FEF74F0FF0E3C
:10E7F8001D14176EFF0E1E14186EFF0E1F14196ECF
:10E808007F0E20141A6E1750181019101A10D8B449
:10E8180010EF74F012EF74F016EF74F0010E1C6E26
:10E828001FEF74F022A01BEF74F01DEF74F01FEFC0
:10E8380074F012EF74F01C50D8B425EF74F027EF81
:10E8480074F04BEF74F0010E2226000E23222422CE
:10E85800252225A032EF74F034EF74F04BEF74F0FA
:10E8680022C017F023C018F024C019F025C01AF0F0
:10E878001A341A3219321832173217C022F018C057
:10E8880023F019C024F01AC025F0264A272A27BEEB
:10E8980056EF74F0275008E12628D8A056EF74F0F8
:10E8A80058EF74F062EF74F0000E226E000E236EC3
:10E8B800800E246E7F0E256E8FEF74F027BE6FEFEB
:10E8C80074F0275006E12604D8B06DEF74F06FEFAE
:10E8D80074F07AEF74F0000E226E000E236E000EB4
:10E8E800246E000E256E1B6A8FEF74F026C021F08F
:10E8F800FF0E2216FF0E23167F0E2416000E251675
:10E9080021A089EF74F08BEF74F08CEF74F0248EF3
:10E91800D8902130256E1B50251222C00FF023C03D
:10E9280010F024C011F025C012F012000450800B22
:10E938000D6E045004240F6E03AEA5EF74F0A7EF1C
:10E9480074F0A8EF74F00F800F50D8B4AEEF74F0E5
:10E95800B0EF74F0C4EF74F00F28D8A4B6EF74F0D9
:10E96800B8EF74F0C0EF74F0000E016E000E026E86
:10E97800000E036E000E046E038E046ACCEF74F072
:10E98800000E016E000E026E000E036E000E046E85
:10E998000850800B0E6E0D500E18D8B4D6EF74F0D8
:10E9A800D8EF74F0D9EF74F00D8C085008240E6E6F
:10E9B80007AEE1EF74F0E3EF74F0E4EF74F00E806B
:10E9C8000E50D8B4EAEF74F0ECEF74F000EF75F085
:10E9D8000E28D8A4F2EF74F0F4EF74F0FCEF74F0A2
:10E9E800000E056E000E066E000E076E000E086E15
:10E9F800078E086A08EF75F0000E056E000E066EA9
:10EA0800000E076E000E086E0F500E5CD8B00FEFA8
:10EA180075F011EF75F038EF75F00DAC16EF75F075
:10EA280018EF75F01AEF75F0800E0D1A0FC010F080
:10EA38000EC00FF010C00EF001C010F005C001F0BC
:10EA480010C005F002C010F006C002F010C006F0B9
:10EA580003C010F007C003F010C007F004C010F0A6
:10EA680008C004F010C008F0106A0F500EC009F07A
:10EA78000A6A095E000E0A5A0ABE4CEF75F00A507F
:10EA880009E11A0E095CD8A04CEF75F04EEF75F04D
:10EA980085EF75F00150021003100410D8A457EF49
:10EAA80075F05AEF75F0010E5BEF75F0000E106E01
:10EAB800000E016E000E026E000E036E000E046E54
:10EAC8000EC00FF08EEF75F010A06DEF75F06FEFC0
:10EAD80075F075EF75F0D89010300109106E77EF6A
:10EAE80075F0D890103201A07CEF75F07EEF75F0CC
:10EAF8007FEF75F0108E0434043203320232013293
:10EB08000F2A0E500F5CD8A08CEF75F08EEF75F0C1
:10EB180068EF75F00DBC93EF75F095EF75F0D5EFD4
:10EB280075F00F50D8A49BEF75F09DEF75F0A7EF27
:10EB380075F0000E016E000E026E000E036E000EE0
:10EB4800046EF4EF76F005500126065002220750B5
:10EB580003220850042204A0B4EF75F0B6EF75F054
:10EB680062EF76F010A0BBEF75F0BDEF75F0C3EF64
:10EB780075F0D89010300109106EC5EF75F0D89077
:10EB8800103201A0CAEF75F0CCEF75F0CDEF75F03B
:10EB9800108E043404320332023201320F2A62EF3B
:10EBA80076F00550015C065002580750035804508F
:10EBB800800A096E0850800A0958D8B0E6EF75F047
:10EBC800E8EF75F013EF76F00150055C096E02501E
:10EBD80006580A6E035007580B6E045008580C6EFE
:10EBE800FF0E0924016EFF0E0A20026EFF0E0B2095
:10EBF800036EFF0E0C20046E800E0D1A106C105060
:10EC0800D8A409EF76F00BEF76F01BEF76F0010E43
:10EC18000126000E0222032204221BEF76F0055083
:10EC2800015E0650025A0750035A0850045A015010
:10EC3800021003100410D8A424EF76F026EF76F023
:10EC48005BEF76F01050D8A42CEF76F02EEF76F02C
:10EC58005BEF76F0000E016E000E026E000E036E82
:10EC6800000E046EF4EF76F0D890013602360336C3
:10EC7800043610AE42EF76F044EF76F045EF76F0CA
:10EC8800018010A04AEF76F04CEF76F050EF76F066
:10EC9800D880103652EF76F0D89010360F50D8B48E
:10ECA80058EF76F05AEF76F05BEF76F00F0603AE8A
:10ECB80060EF76F062EF76F038EF76F00E6A10AE1D
:10ECC80068EF76F06AEF76F082EF76F010C009F020
:10ECD8007F0E0916D8B473EF76F075EF76F079EFFA
:10ECE80076F0010E0E6E82EF76F001A07EEF76F0E0
:10ECF80080EF76F082EF76F075EF76F00E50D8B4AC
:10ED080088EF76F08AEF76F0B5EF76F0010E0126FF
:10ED1800000E02220322042204A095EF76F097EF5A
:10ED280076F0B5EF76F001C009F002C00AF003C032
:10ED38000BF004C00CF00C340C320B320A320932DE
:10ED480009C001F00AC002F00BC003F00CC004F0C7
:10ED58000F28D8B4B2EF76F0B4EF76F0B5EF76F0CE
:10ED68000F2A0F28D8B4BBEF76F0BDEF76F0C5EFC9
:10ED780076F00F50D8A4C3EF76F0C5EF76F0D6EF53
:10ED880076F0000E016E000E026E000E036E000E8D
:10ED9800046E0F50D8A4D3EF76F0D5EF76F0D6EF07
:10EDA80076F00D6A0FA0DBEF76F0DDEF76F0E0EF9E
:10EDB80076F0038EE1EF76F0039ED8900F30046E64
:10EDC8000DAEE9EF76F0EBEF76F0ECEF76F0048E2F
:10EDD80001C001F002C002F003C003F004C004F057
:10EDE8001200CEEC64F0000E0101546F000E556F56
:10EDF800000E566F000E576F88960F011C9D1C9FC2
:10EE08000101626B8282210E0001A76F760EE82E47
:10EE1800FED7A72FFCD700008292210E0001A76F12
:10EE2800760EE82EFED7A72FFCD700000101622B33
:10EE3800040E626522EF77F024EF77F006EF77F0A3
:10EE48009E0E00019E6FFF0E9F6F28EC65F0A30ECB
:10EE58000001A76F550EE82EFED7A72FFCD7100E7E
:10EE6800096E020E0A6E5A0EE4EC67F0070E0001F6
:10EE7800A76F7D0EE82EFED7A72FFCD70C0E096EC4
:10EE88005A0E17EC68F00001E76F0D0E096E5A0E66
:10EE980017EC68F00001E66F070E0001A76F7D0E02
:10EEA800E82EFED7A72FFCD7200E096E100E0A6E8B
:10EEB8005A0EE4EC67F0070E0001A76F7D0EE82EEE
:10EEC800FED7A72FFCD70C0E096E140E0A6E5A0E29
:10EED800E4EC67F0200E096E180E0A6E5A0EE4EC88
:10EEE80067F082902AEC6BF041C05BF142C05CF1A4
:10EEF80043C05DF144C05EF1F40E0001D027010E5D
:10EF0800D123000ED223000ED323AAEC64F000090B
:10EF1800D8B491EF77F093EF77F007EF78F0C1EC82
:10EF280064F00101586FECEF77F0B50E00019E6FA9
:10EF3800FE0E9F6F28EC65F007EF78F0820E000157
:10EF48009E6FFF0E9F6F9FEC64F001C0A0F002C09F
:10EF5800A1F05BC1A2F05CC1A3F05DC1A4F05EC1E9
:10EF6800A5F028EC65F007EF78F0010E0001E46FDA
:10EF78008282B70E9E6FFF0E9F6F28EC65F007EF39
:10EF880078F0010E0001E36F8380C80E9E6FFF0EBC
:10EF98009F6F28EC65F007EF78F0010E0001E26F33
:10EFA8008382D80E9E6FFF0E9F6F28EC65F007EFE7
:10EFB80078F00001E46BE36BE26B829283908392BA
:10EFC800E80E9E6FFF0E9F6F28EC65F007EF78F054
:10EFD8005851620AD8B4B9EF77F00A0AD8B499EF51
:10EFE80077F0010AD8B4C5EF77F0060AD8B4D1EFA4
:10EFF80077F01F0AD8B4DDEF77F0060AD8B4A2EF8D
:10F0080077F007EF78F05BC128F05CC129F05DC1AB
:10F018002AF05EC12BF0000E2C6E000E2D6EE80E4D
:10F028002E6E400E2F6E88EC6CF0D8B01EEF78F084
:10F0380020EF78F07BEF78F0010154510001D05DAA
:10F04800A76F010155510001D159A86F010156510F
:10F058000001D259A96F010157510001D359AA6F74
:10F06800AA510DE1900EA75D5F0EA859010EA9598E
:10F07800D8A041EF78F043EF78F07BEF78F0000EFE
:10F088000101616F000E606F61BF54EF78F061514C
:10F0980009E10F0E605DD8A054EF78F056EF78F0D4
:10F0A80058EF78F073EF78F08282310E0001A76F85
:10F0B800B20EE82EFED7A72FFCD700000101604B47
:10F0C800612B61BF71EF78F0615109E10F0E605D4E
:10F0D800D8A071EF78F073EF78F058EF78F0D0C0DF
:10F0E80054F1D1C055F1D2C056F1D3C057F1230E17
:10F0F800096E5A0E17EC68F00001EE6FA30E0001BE
:10F10800A76F550EE82EFED7A72FFCD73A0E096E2B
:10F118005A0E17EC68F00001ED6F3B0E096E5A0E9F
:10F1280017EC68F00001EC6F110E0001A76F3A0EA2
:10F13800E82EFED7A72FFCD700003C0E096E5A0E0A
:10F1480017EC68F00001E96F3D0E096E5A0E17ECD6
:10F1580068F00001E86FEC51A76FED51DE6FA7C0B2
:10F16800DFF0E851A76FE951DC6FA7C0DDF0E4518B
:10F17800D8B4C1EF78F0C3EF78F0C4EF78F08282AA
:10F18800E351D8B4CAEF78F0CCEF78F0CDEF78F04F
:10F198008380E251D8B4D3EF78F0D5EF78F0D6EF8A
:10F1A80078F08382E351D8B4DCEF78F0DEEF78F0C2
:10F1B800E8EF78F0E251D8B4E4EF78F0E6EF78F0D1
:10F1C800E8EF78F076EF77F00101596B0001DF5135
:10F1D80009E1C00EDE5DD8A0F4EF78F0F6EF78F024
:10F1E80003EF79F0DE05050EDF59D8B0FEEF78F0B1
:10F1F80000EF79F003EF79F0010E0101596F59C161
:10F208005FF101015A6B0001DE05050EDF59D8A038
:10F2180010EF79F012EF79F01EEF79F07D0EDF5DD7
:10F22800D8B019EF79F01BEF79F01EEF79F0010EE5
:10F2380001015A6F5AC163F130EF7AF0E351D8A453
:10F2480028EF79F02AEF79F02BEF79F08390E251EB
:10F25800D8A431EF79F033EF79F034EF79F0839275
:10F26800E451D8A43AEF79F03CEF79F03DEF79F02A
:10F27800829201015F51D8B444EF79F046EF79F0FA
:10F288004BEF79F0010E0001E16F76EF77F06351F3
:10F29800D8B451EF79F053EF79F076EF77F0020EAA
:10F2A8000001E16F76EF77F0E351D8A45EEF79F0D3
:10F2B80060EF79F061EF79F08380E251D8A467EFCD
:10F2C80079F069EF79F06AEF79F08382E451D8A494
:10F2D80070EF79F072EF79F073EF79F082920101B3
:10F2E8006351D8B47AEF79F07CEF79F07EEF79F05A
:10F2F80053EF79F05F51D8A484EF79F086EF79F075
:10F3080076EF77F00001E16B76EF77F0E351D8A460
:10F3180090EF79F092EF79F0A2EF79F083B097EF60
:10F3280079F09AEF79F0010E9BEF79F0000EFF0A61
:10F33800A76F8350A719FE0BA719836EE251D8A4B3
:10F34800A8EF79F0AAEF79F0BBEF79F083B2AFEFCD
:10F3580079F0B2EF79F0010EB3EF79F0000EFF0A01
:10F36800A76FA7478350A719FD0BA719836EE45110
:10F37800D8A4C1EF79F0C3EF79F0C4EF79F08292A5
:10F3880001016351D8A4CBEF79F0CDEF79F076EF96
:10F3980077F0D0C0D4F0D1C0D5F0D2C0D6F0D3C069
:10F3A800D7F0030E0001E16F76EF77F0E351D8A4B0
:10F3B800E0EF79F0E2EF79F0F2EF79F083B0E7EF80
:10F3C80079F0EAEF79F0010EEBEF79F0000EFF0A21
:10F3D800A76F8350A719FE0BA719836EE251D8A413
:10F3E800F8EF79F0FAEF79F00BEF7AF083B2FFEFEC
:10F3F80079F002EF7AF0010E03EF7AF0000EFF0ABF
:10F40800A76FA7478350A719FD0BA719836EE4516F
:10F41800D8A411EF7AF013EF7AF014EF7AF0829211
:10F42800D451D05DA76FD551D159A86FD651D259B3
:10F43800A96FD751D359AA6FAA51A9110BE1580E38
:10F44800A75D1B0EA859D8A02CEF7AF02EEF7AF002
:10F4580076EF77F086EF79F00001E151A76FA86B9E
:10F46800A851000AD8B43BEF7AF076EF77F0A751AD
:10F47800000AD8B422EF79F0010AD8B458EF79F02D
:10F48800030AD8B48AEF79F0010AD8B4DAEF79F030
:10F4980076EF77F0FEEF7FF00001816B57C082F0C6
:10F4A80058C083F059C084F05AC085F085BF61EF19
:10F4B8007AF05FEF7AF075EF7AF0010E816F82C013
:10F4C80001F083C002F084C003F085C004F0F4ECBE
:10F4D80065F001C082F002C083F003C084F004C06C
:10F4E80085F0000E0001876F000E866FD8C071F09E
:10F4F800D9C072F08151D8B484EF7AF086EF7AF0EF
:10F508009AEF7AF08151D8A48CEF7AF08EEF7AF0E6
:10F5180094EF7AF0000E676F2B0E666F98EF7AF013
:10F52800000E676F2D0E666F66C081F082C001F015
:10F5380083C002F084C003F085C004F009EC6CF0CD
:10F5480001040210D8A4ABEF7AF0ADEF7AF0E0EF47
:10F558007AF000018151D8B4B4EF7AF0B6EF7AF0BE
:10F56800BFEF7AF081C004F17107D8A07207000ECE
:10F57800876F010E866F040E8625016E010E8721A6
:10F58800026EF20E036EFF0E046E10EC66F00001C0
:10F59800FD0E7127FF0E722355C013F056C014F0EC
:10F5A800040E156E010E166E71C017F072C018F0B9
:10F5B80083EC68F049EF7FF082C001F083C002F06D
:10F5C80084C003F085C004F009EC6CF0015002100F
:10F5D800D8A4F1EF7AF0F3EF7AF013EF7BF00001A3
:10F5E8008151D8B4FAEF7AF0FCEF7AF005EF7BF0AE
:10F5F80081C004F17107D8A07207000E876F010E51
:10F60800866F040E8625016E010E8721026EF60EA6
:10F61800036EFF0E046E10EC66F0CBEF7AF0000E6E
:10F628000001886F000E896F800E8A6F3F0E8B6F06
:10F63800000E706F000E6F6F82C001F083C002F081
:10F6480084C003F085C004F0000E056E000E066E3F
:10F65800000E076E000E086EB8EC69F0D8B037EFF0
:10F668007BF039EF7BF018EF7CF046EF7BF073C04E
:10F6780088F074C089F075C08AF076C08BF00001FC
:10F688006F4B702B88C00FF089C010F08AC011F042
:10F698008BC012F0000E136E000E146E200E156E45
:10F6A800410E166E87EC72F00FC073F010C074F044
:10F6B80011C075F012C076F000017351825D016EC1
:10F6C80074518359026E75518459036E7651855968
:10F6D800046E2AEC67F004BE7DEF7BF00450031043
:10F6E800021009E1020E015CD8A07DEF7BF07FEFEC
:10F6F8007BF03BEF7BF073C028F074C029F075C035
:10F708002AF076C02BF082C02CF083C02DF084C084
:10F718002EF085C02FF088EC6CF0D8A096EF7BF027
:10F7280098EF7BF03BEF7BF000018851825D016E22
:10F7380089518359026E8A518459036E8B518559B8
:10F74800046E2AEC67F004BEB7EF7BF00450031098
:10F75800021007E1020E015CD8B0B5EF7BF0B7EFFD
:10F768007BF0FFEF7BF088C082F089C083F08AC00D
:10F7780084F08BC085F018EF7CF088C028F089C031
:10F7880029F08AC02AF08BC02BF0000E2C6E000ED8
:10F798002D6E200E2E6E410E2F6EBFEC70F028C01D
:10F7A80088F029C089F02AC08AF02BC08BF00001AC
:10F7B8006F07D8A070078851825D016E89518359FF
:10F7C800026E8A518459036E8B518559046E2AEC56
:10F7D80067F004BEFDEF7BF004500310021007E150
:10F7E800020E015CD8B0FBEF7BF0FDEF7BF0FFEF82
:10F7F8007BF0B7EF7BF082C028F083C029F084C08B
:10F808002AF085C02BF088C02CF089C02DF08AC062
:10F818002EF08BC02FF088EC6CF0D8A016EF7CF09F
:10F8280018EF7CF0C1EF7BF05BC069F069C06AF04B
:10F838000001DBBF22EF7CF024EF7CF02AEF7CF0A4
:10F84800DAC062F0DBC063F02EEF7CF0000E636F6D
:10F85800060E626F62C06DF063C06EF06D4B6E2B6A
:10F86800660E6A19D8A43BEF7CF03DEF7CF05DEFA3
:10F878007CF070BF44EF7CF042EF7CF050EF7CF0FE
:10F88800000E886F000E896F800E8A6F3F0E8B6F97
:10F89800000E706F000E6F6F670E6919D8B457EFBE
:10F8A8007CF059EF7CF05DEF7CF06F516D27705163
:10F8B8006E23000E786F000E776F82C079F083C0D8
:10F8C8007AF084C07BF085C07CF088C073F089C072
:10F8D80074F08AC075F08BC076F0EEEF7CF079C0DA
:10F8E80028F07AC029F07BC02AF07CC02BF088C0B1
:10F8F8002CF089C02DF08AC02EF08BC02FF0BFEC01
:10F9080070F028C041F029C042F02AC043F02BC053
:10F9180044F067EC6EF041C07DF042C07EF043C019
:10F928007FF044C080F07DC001F07EC002F07FC04F
:10F9380003F080C004F00AEC6DF001C06BF002C067
:10F948006CF079C028F07AC029F07BC02AF07CC01E
:10F958002BF07DC013F07EC014F07FC015F080C07E
:10F9680016F088C00FF089C010F08AC011F08BC063
:10F9780012F087EC72F00FC02CF010C02DF011C0FF
:10F988002EF012C02FF08EEC66F028C079F029C056
:10F998007AF02AC07BF02BC07CF088C028F089C0A0
:10F9A80029F08AC02AF08BC02BF0000E2C6E000EB6
:10F9B8002D6E200E2E6E410E2F6EBFEC70F028C0FB
:10F9C80088F029C089F02AC08AF02BC08BF000018A
:10F9D800774B782B6D51775D7851800A5C6E6E514C
:10F9E800800A5C58D8A0FBEF7CF0FDEF7CF073EF49
:10F9F8007CF088C00FF089C010F08AC011F08BC06D
:10FA080012F0000E136E000E146EA00E156E400E4E
:10FA1800166E87EC72F00FC07DF010C07EF011C03A
:10FA28007FF012C080F079C028F07AC029F07BC03E
:10FA38002AF07CC02BF07DC02CF07EC02DF07FC05A
:10FA48002EF080C02FF088EC6CF0D8B02EEF7DF04F
:10FA580030EF7DF03BEF7DF0000E00017D6F000E72
:10FA68007E6F000E7F6F000E806F64EF7DF079C0AF
:10FA780001F07AC002F07BC003F07CC004F07DC0C6
:10FA880005F07EC006F07FC007F080C008F0B8EC33
:10FA980069F0D8A052EF7DF054EF7DF064EF7DF06F
:10FAA80000016BB15AEF7DF05CEF7DF064EF7DF003
:10FAB800000E7D6F000E7E6F000E7F6F000E806F50
:10FAC80082C001F083C002F084C003F085C004F056
:10FAD8007DC005F07EC006F07FC007F080C008F04A
:10FAE8009AEC74F001C079F002C07AF003C07BF0A0
:10FAF80004C07CF079C028F07AC029F07BC02AF0D5
:10FB08007CC02BF0000E136E000E146E200E156EC6
:10FB1800410E166E73C00FF074C010F075C011F06E
:10FB280076C012F087EC72F00FC02CF010C02DF0E8
:10FB380011C02EF012C02FF088EC6CF0D8A0A7EFFF
:10FB48007DF0A9EF7DF0D2EF7DF000016F4B702BB7
:10FB580073C00FF074C010F075C011F076C012F0C9
:10FB6800000E136E000E146E200E156E410E166EEA
:10FB780087EC72F00FC073F010C074F011C075F00C
:10FB880012C076F0660E00016A19D8A4CEEF7DF097
:10FB9800D0EF7DF0D2EF7DF06D4B6E2B73C088F007
:10FBA80074C089F075C08AF076C08BF06FC060F0C1
:10FBB80070C061F00001686B000E656F000E646F25
:10FBC800000E786F000E776FCFEF7EF079C028F0C7
:10FBD8007AC029F07BC02AF07CC02BF088C02CF0BA
:10FBE80089C02DF08AC02EF08BC02FF0BFEC70F0CA
:10FBF80028C041F029C042F02AC043F02BC044F08D
:10FC080067EC6EF041C07DF042C07EF043C07FF0EB
:10FC180044C080F07DC001F07EC002F07FC003F0D8
:10FC280080C004F00AEC6DF002BE26EF7EF00250B0
:10FC380007E10A0E015CD8B024EF7EF026EF7EF0D3
:10FC480036EF7EF07DC001F07EC002F07FC003F089
:10FC580080C004F00AEC6DF001C06BF002C06CF0DB
:10FC68003BEF7EF0000E00016C6F090E6B6F000118
:10FC78006851D8A442EF7EF044EF7EF06CEF7EF03E
:10FC880061BF4BEF7EF049EF7EF06CEF7EF0040E23
:10FC98008625D96E010E8721DA6E2E0EDF6E864B11
:10FCA800872B7107D8A07207010E686F6CEF7EF082
:10FCB800040E8625D96E010E8721DA6E300EDF6EAE
:10FCC800864B872B7107D8A072076407D8A06507F1
:10FCD80064516511D8A473EF7EF075EF7EF05CEF88
:10FCE8007EF0040E8625D96E010E8721DA6E6B51DF
:10FCF800300FDF6E864B872B7107D8A0720779C04B
:10FD080028F07AC029F07BC02AF07CC02BF07DC097
:10FD180013F07EC014F07FC015F080C016F088C0C4
:10FD28000FF089C010F08AC011F08BC012F087EC78
:10FD380072F00FC02CF010C02DF011C02EF012C0C0
:10FD48002FF08EEC66F028C079F029C07AF02AC02E
:10FD58007BF02BC07CF088C028F089C029F08AC0CD
:10FD68002AF08BC02BF0000E2C6E000E2D6E200E8C
:10FD78002E6E410E2F6EBFEC70F028C088F029C09F
:10FD880089F02AC08AF02BC08BF000016007D8A048
:10FD98006107774B782B6D51775D7851800A5C6EDF
:10FDA8006E51800A5C58D8B0DCEF7EF0DEEF7EF052
:10FDB800ECEF7EF087BFEAEF7EF0875109E14B0E4A
:10FDC800865DD8A0EAEF7EF0ECEF7EF0EAEF7DF0FA
:10FDD800000E786F4F0E776F040E7725D96E010EDF
:10FDE8007821DA6EDF6A040E5C6E010E5D6E865154
:10FDF8005C5E87515D5A77515C24016E78515D20B5
:10FE0800026E040E036E010E046E86C005F087C0F4
:10FE180006F0D7EC66F000018651775D866F875152
:10FE28007859876F8151D8A41CEF7FF01FEF7FF0BE
:10FE3800010E20EF7FF0000E776F786B8151D8B4F8
:10FE480028EF7FF02AEF7FF035EF7FF08607D8A004
:10FE58008707040E8625D96E010E8721DA6E81C0C8
:10FE6800DFFF7751715F7851725B55C013F056C050
:10FE780014F0040E8625156E010E8721166E71C0CA
:10FE880017F072C018F083EC68F01200005EC89C8E
:10FE9800C8ACC8CAD4D0D290C858D21EC826C82E5A
:10FEA800C836C83EC846C84EC868C802CF0D0A52F0
:10FEB80041434B2050524F544543544F52204657CC
:10FEC8002056312E32312068656C70206D656E7554
:10FED800202D206B657962696E6473200D0A762087
:10FEE8002D205072696E7473206261747465727922
:10FEF80020766F6C74616765206C6576656C200D83
:10FF08000A62202D205475726E732062757A7A65A4
:10FF180072206F6E200D0A69202D205475726E7341
:10FF2800204C45442042616E6B2031206F6E200DBD
:10FF38000A6F202D205475726E73204C4544204260
:10FF4800616E6B2032206F6E200D0A70202D2054B8
:10FF580075726E73204C45442042616E6B20312CC3
:10FF680020322C20616E64207468652062757A7A6C
:10FF78006572206F6666200D0A0041444320726155
:10FF8800773A2025752020426174743A20252E3254
:10FF98006620560D0A004669726D776172652056B3
:10FFA800657273696F6E20312E322E310D0A004250
:10FFB800757A7A657220456E61626C65640D0A0017
:10FFC8004C45442042414E4B2031204F4E0D0A00F3
:10FFD8004C45442042414E4B2032204F4E0D0A00E2
:10FFE800416C6C206F66660D0A00696E66006E6172
:03FFF8006E000098
:04FFFC00F9EF64F0C5
:020000040030CA
:0C000000FCFFFFFF9FFFFFDFFFFFFFFF83
:00000001FF
